[32mINFO    [0m Common.Httpcore:Httpcore.py:224 2022-12-02 19:02:34.142994 | 
<-----Query UTXO----->
Url:https://api.bitcore.io/api/BTC/testnet/address/tb1qhcuul2fcyv5rvr5mc5cy5saz0q5p3kx0gsy3c0?unspent=true

Headers:{"Content-Type": "application/json"}


[32mINFO    [0m Common.Httpcore:Httpcore.py:227 2022-12-02 19:02:34.142994 | 
<-----Query UTXO Response----->
[
{"_id":"6389d3add3bfc9e8e165c127","chain":"BTC","network":"testnet","coinbase":false,"mintIndex":3,"spentTxid":"","mintTxid":"c034b8b4f00a9e077301b1167ea2d4f99135f374be6887641bc758374ddaa096","mintHeight":2409425,"spentHeight":-2,"address":"tb1qhcuul2fcyv5rvr5mc5cy5saz0q5p3kx0gsy3c0","script":"0014be39cfa9382328360e9bc5304a43a2782818d8cf","value":897493,"confirmations":-1}
]
[32mINFO    [0m Common.Httpcore:Httpcore.py:132 2022-12-02 19:02:34.142994 | 
<-----Core Build------>
Url:http://54.251.78.181:8888/core/api/transactions

Headers:{"Content-Type": "application/json", "Authorization": "eyJib2R5IjoiV2ViMyBUb2tlbiBWZXJzaW9uOiAyXG5Ob25jZTogMTU4NTEwMjc5MTQ2NjQ4NzgxMFxuSXNzdWVkIEF0OiBXZWQsIDI2IE9jdCAyMDIyIDAyOjU1OjI5IEdNVFxuRXhwaXJhdGlvbiBUaW1lOiBTYXQsIDIzIE9jdCAyMDMyIDAyOjU1OjI5IEdNVCIsInNpZ25hdHVyZSI6IjB4OTE1NWMyOGM3NjVjZjk1YTBjNjdiZGNhYzExNzIwYTRkNDQ4NDc4YmU5ZDZhNjE3ZWQzNDUzZDU3MDgzZjNjZTA2N2Q5OGUwMGI0YTVhMmJmOTlkY2I5Y2VmNzg5Yjc4OWViNzI5OTk4YzgxYWQzOWFhMTUzZTcxM2Q4M2FhYWUxYiJ9"}

body:{"networkCode": "BTC", "payload": {"changer": "tb1qhcuul2fcyv5rvr5mc5cy5saz0q5p3kx0gsy3c0", "recipients": [{"address": "tb1qhcuul2fcyv5rvr5mc5cy5saz0q5p3kx0gsy3c0", "value": "100"}], "utxos": [{"amount": 897493, "scriptPubKey": "0014be39cfa9382328360e9bc5304a43a2782818d8cf", "signers": ["02e8852463021b47fe5214c599e87e431f2eb1219044946bbff397afd0518b85a6"], "txid": "c034b8b4f00a9e077301b1167ea2d4f99135f374be6887641bc758374ddaa096", "vout": 3}]}, "type": "TRANSACTION"}


[32mINFO    [0m Common.Httpcore:Httpcore.py:135 2022-12-02 19:02:34.142994 | 
<-----Core Build Response---->
{"balanceChanges":[],"blockTime":"1970-01-01T00:00:00.000Z","createdTime":"2022-12-02T11:02:35.530Z","description":"Custom Excution","estimatedFee":"187","hash":"","id":"1598633723200491521","networkCode":"BTC","requiredSignings":[{"hash":"7181fbe94499421980f313462c866fb46155acedd6f62ccf697c3eca002285c7","publicKeys":["02e8852463021b47fe5214c599e87e431f2eb1219044946bbff397afd0518b85a6"],"threshold":1}],"serialized":"010000000196a0da4d3758c71b648768be74f33591f9d4a27e16b10173079e0af0b4b834c00300000000ffffffff026400000000000000160014be39cfa9382328360e9bc5304a43a2782818d8cfb6b00d0000000000160014be39cfa9382328360e9bc5304a43a2782818d8cf00000000","status":0,"statusDesc":"BUILDING","updatedTime":"2022-12-02T11:02:35.530Z"}
[32mINFO    [0m Common.Httpcore:Httpcore.py:155 2022-12-02 19:02:34.142994 | 
<-----Core Sign------>
Url:http://54.251.78.181:8888/core/api/transactions/signatures

Headers:{"Content-Type": "application/json", "Authorization": "eyJib2R5IjoiV2ViMyBUb2tlbiBWZXJzaW9uOiAyXG5Ob25jZTogMTU4NTEwMjc5MTQ2NjQ4NzgxMFxuSXNzdWVkIEF0OiBXZWQsIDI2IE9jdCAyMDIyIDAyOjU1OjI5IEdNVFxuRXhwaXJhdGlvbiBUaW1lOiBTYXQsIDIzIE9jdCAyMDMyIDAyOjU1OjI5IEdNVCIsInNpZ25hdHVyZSI6IjB4OTE1NWMyOGM3NjVjZjk1YTBjNjdiZGNhYzExNzIwYTRkNDQ4NDc4YmU5ZDZhNjE3ZWQzNDUzZDU3MDgzZjNjZTA2N2Q5OGUwMGI0YTVhMmJmOTlkY2I5Y2VmNzg5Yjc4OWViNzI5OTk4YzgxYWQzOWFhMTUzZTcxM2Q4M2FhYWUxYiJ9"}

body:{"id": "1598633723200491521", "signatures": [{"hash": "7181fbe94499421980f313462c866fb46155acedd6f62ccf697c3eca002285c7", "publicKey": "02e8852463021b47fe5214c599e87e431f2eb1219044946bbff397afd0518b85a6", "signature": "4f65b9d7e4a24097d40351a74b9d64fa1f6c325e95f83910cf55676337062a727ed6a1e38be4d403f5f4779097f54368f07ad58c9fbef0039ee86b7ab6a47c2001"}]}


[32mINFO    [0m Common.Httpcore:Httpcore.py:158 2022-12-02 19:02:34.142994 | 
<-----Core Sign Response---->
{"balanceChanges":[],"blockHash":"","blockHeight":"0","blockTime":"1970-01-01T00:00:00.000Z","createdTime":"2022-12-02T11:02:36.000Z","description":"Custom Excution","estimatedFee":"187","fee":"-1","hash":"b3d02253840ceff7c2ffdc2536d136f7de73af36fde52ed45ab4cc3488bdda3e","id":"1598633723200491521","networkCode":"BTC","serialized":"0100000000010196a0da4d3758c71b648768be74f33591f9d4a27e16b10173079e0af0b4b834c00300000000ffffffff026400000000000000160014be39cfa9382328360e9bc5304a43a2782818d8cfb6b00d0000000000160014be39cfa9382328360e9bc5304a43a2782818d8cf0247304402204f65b9d7e4a24097d40351a74b9d64fa1f6c325e95f83910cf55676337062a7202207ed6a1e38be4d403f5f4779097f54368f07ad58c9fbef0039ee86b7ab6a47c20012102e8852463021b47fe5214c599e87e431f2eb1219044946bbff397afd0518b85a600000000","status":2,"statusDesc":"SIGNED","updatedTime":"2022-12-02T11:02:35.787Z"}
[32mINFO    [0m Common.Httpcore:Httpcore.py:174 2022-12-02 19:02:34.142994 | 
<-----Core Send------>
Url:http://54.251.78.181:8888/core/api/transactions/send/1598633723200491521

Headers:{"Content-Type": "application/json", "Authorization": "eyJib2R5IjoiV2ViMyBUb2tlbiBWZXJzaW9uOiAyXG5Ob25jZTogMTU4NTEwMjc5MTQ2NjQ4NzgxMFxuSXNzdWVkIEF0OiBXZWQsIDI2IE9jdCAyMDIyIDAyOjU1OjI5IEdNVFxuRXhwaXJhdGlvbiBUaW1lOiBTYXQsIDIzIE9jdCAyMDMyIDAyOjU1OjI5IEdNVCIsInNpZ25hdHVyZSI6IjB4OTE1NWMyOGM3NjVjZjk1YTBjNjdiZGNhYzExNzIwYTRkNDQ4NDc4YmU5ZDZhNjE3ZWQzNDUzZDU3MDgzZjNjZTA2N2Q5OGUwMGI0YTVhMmJmOTlkY2I5Y2VmNzg5Yjc4OWViNzI5OTk4YzgxYWQzOWFhMTUzZTcxM2Q4M2FhYWUxYiJ9"}


[32mINFO    [0m Common.Httpcore:Httpcore.py:177 2022-12-02 19:02:34.142994 | 
<-----Core Send Response---->
{"balanceChanges":[],"blockHash":"","blockHeight":"0","blockTime":"2022-12-02T11:02:36.006Z","createdTime":"2022-12-02T11:02:36.000Z","description":"Custom Excution","estimatedFee":"187","fee":"-1","hash":"b3d02253840ceff7c2ffdc2536d136f7de73af36fde52ed45ab4cc3488bdda3e","id":"1598633723200491521","networkCode":"BTC","serialized":"0100000000010196a0da4d3758c71b648768be74f33591f9d4a27e16b10173079e0af0b4b834c00300000000ffffffff026400000000000000160014be39cfa9382328360e9bc5304a43a2782818d8cfb6b00d0000000000160014be39cfa9382328360e9bc5304a43a2782818d8cf0247304402204f65b9d7e4a24097d40351a74b9d64fa1f6c325e95f83910cf55676337062a7202207ed6a1e38be4d403f5f4779097f54368f07ad58c9fbef0039ee86b7ab6a47c20012102e8852463021b47fe5214c599e87e431f2eb1219044946bbff397afd0518b85a600000000","status":3,"statusDesc":"PENDING","updatedTime":"2022-12-02T11:02:36.006Z"}