[32mINFO    [0m Common.Http:Http.py:216 2022-11-08 17:42:14.574778 | 
<-----Holders----->
Url:https://api.cryptoless.net/cryptocurrencies/holders?address=AF5UUawSaatGJTYZd65RCBp4D6aSXxEvjm&networkCode=DOGE&symbol=DOGE

Headers:{"Content-Type": "application/json", "Authorization": "eyJib2R5IjoiV2ViMyBUb2tlbiBWZXJzaW9uOiAyXG5Ob25jZTogMTU4MzAxOTk1NTUzMDg5NTM2MVxuSXNzdWVkIEF0OiBUaHUsIDIwIE9jdCAyMDIyIDA4OjU5OjAzIEdNVFxuRXhwaXJhdGlvbiBUaW1lOiBTdW4sIDE3IE9jdCAyMDMyIDA4OjU5OjAzIEdNVCIsInNpZ25hdHVyZSI6IjB4MDA4NTA0NmM1YmYwYWFkZjkwMjIyMWFhNGU0OTFjODllYTU5ZTAxZGQ2ODIwNTdkMDU0Y2U2MzcyNTdkYTE2ZTIyNTJlMzYxYWJmNjE4ZmEwOWJmODVmYjEwM2RjMmZhYzg4MzFkODNmMDcwNGZlMjdhZmUzYTdjYWY0NGE2YjYxYyJ9"}
[32mINFO    [0m Common.Http:Http.py:219 2022-11-08 17:42:14.574778 | 
<-----Query Holders Response----->
[{"address":"AF5UUawSaatGJTYZd65RCBp4D6aSXxEvjm","createdTime":"2022-10-24T07:46:01.000Z","id":"1584451129029644290","networkCode":"DOGE","quantity":"4.6773736","symbol":"DOGE","updatedTime":"2022-11-08T09:42:01.000Z"}]
[32mINFO    [0m Common.Http:Http.py:306 2022-11-08 17:42:14.574778 | 
<-----Instructions----->
Url:https://api.cryptoless.net/vault/instructions

Headers:{"Content-Type": "application/json", "Authorization": "eyJ0eXAiOiJKV1QiLCJhbGciOiJIUzI1NiJ9.eyJhdWQiOiIxNTgzMDE5OTU1NTMwODk1MzYxIiwiZXhwIjoxNjY4NDA2MDg4LCJpYXQiOjE2Njc4MDEyODgsInVzZXJJZCI6MTU4MzAxOTk1NTUzMDg5NTM2MX0.t8TZeGPZfNhs1U3syLsqgadq1-RKf_GU2nGWQWoWW9w"}

Body:{"body": {"from": "AF5UUawSaatGJTYZd65RCBp4D6aSXxEvjm", "to": "DGnb5SNRnEyAx9xNuHGxbiY4ysHPsxegP9", "symbol": "DOGE", "amount": "2.2785"}, "networkCode": "DOGE", "type": "transfer", "definiteSignerPublicKeys": [], "transactionParams": {"memo": "xeIynYAk2P"}}
[32mINFO    [0m Common.Http:Http.py:309 2022-11-08 17:42:14.574778 | 
<-----Instructions Response----->
{"_embedded":{"transactions":[{"balanceChanges":[],"blockHash":"","blockHeight":"0","blockTime":"2022-11-08T09:42:16.000Z","createdTime":"2022-11-08T09:42:16.000Z","description":"Custom Excution","estimatedFee":"672280","fee":"0","hash":"","id":"1589916201709449217","networkCode":"DOGE","requiredSignings":[{"hash":"c4db573a3eab223755be7121b3f4e60700f65e81ade314fb62d30dfaaa0fbeab","publicKeys":["030880a72c683a2507eb41e304419eb548f2d32bf6ad6f323b4d7c86c51052fcda"],"threshold":1},{"hash":"f558409a60b7636d1809f00c41fa06a72f180fd709058e8af69a52870e2320f4","publicKeys":["030880a72c683a2507eb41e304419eb548f2d32bf6ad6f323b4d7c86c51052fcda"],"threshold":1}],"serialized":"01000000027b28cc087bdfeb04960029db1d19b1b6267b73c98203046926907c96171476c30100000000ffffffff6a85269de3435b407b2a18af015d7149968f1208efd4c947385287e2f203e3570000000000ffffffff0210b7940d000000001976a9147fc0989f60a3c46e3d3a75b315feb27907d81bb688ace821420e0000000017a914f85c04f98cf5dfb81eec7e183bf39a4c0d542e058700000000","status":"BUILDING","updatedTime":"2022-11-08T09:42:16.000Z"}]},"body":{"symbol":"DOGE","amount":"2.2785","from":"AF5UUawSaatGJTYZd65RCBp4D6aSXxEvjm","to":"DGnb5SNRnEyAx9xNuHGxbiY4ysHPsxegP9"},"createdTime":"2022-11-08T09:42:17.000Z","id":"1589916202401509377","networkCode":"DOGE","status":-2,"transactionParams":{"memo":"xeIynYAk2P"},"type":"TRANSFER","updatedTime":"2022-11-08T09:42:17.000Z"}
[32mINFO    [0m Common.Http:Http.py:474 2022-11-08 17:42:14.574778 | 
<-----Sign----->
Url:https://api.cryptoless.net/vault/transactions/1589916201709449217/signatures

Headers:{"Content-Type": "application/json", "Authorization": "eyJ0eXAiOiJKV1QiLCJhbGciOiJIUzI1NiJ9.eyJhdWQiOiIxNTgzMDE5OTU1NTMwODk1MzYxIiwiZXhwIjoxNjY4NDA2MDg4LCJpYXQiOjE2Njc4MDEyODgsInVzZXJJZCI6MTU4MzAxOTk1NTUzMDg5NTM2MX0.t8TZeGPZfNhs1U3syLsqgadq1-RKf_GU2nGWQWoWW9w"}

Body:{"signatures": [{"hash": "c4db573a3eab223755be7121b3f4e60700f65e81ade314fb62d30dfaaa0fbeab", "publicKey": "030880a72c683a2507eb41e304419eb548f2d32bf6ad6f323b4d7c86c51052fcda", "signature": "2ce4bdf062ea43d3eeaefe3ea39615366e4a780fe8f5b55b5090ef303efa8dd6601a0338adf17450931263689926e6c29a133bb6abdc1c7358f420d0cd488c2700"}, {"hash": "f558409a60b7636d1809f00c41fa06a72f180fd709058e8af69a52870e2320f4", "publicKey": "030880a72c683a2507eb41e304419eb548f2d32bf6ad6f323b4d7c86c51052fcda", "signature": "52de748c18068338980788dccc25665d3f13ca4594782535ae62d246a6c6d3f0533e3183acbef21bc2f67e806528ef3001253ec32f51a09af83975c81dc2859101"}], "serialized": "01000000027b28cc087bdfeb04960029db1d19b1b6267b73c98203046926907c96171476c30100000000ffffffff6a85269de3435b407b2a18af015d7149968f1208efd4c947385287e2f203e3570000000000ffffffff0210b7940d000000001976a9147fc0989f60a3c46e3d3a75b315feb27907d81bb688ace821420e0000000017a914f85c04f98cf5dfb81eec7e183bf39a4c0d542e058700000000"}
[32mINFO    [0m Common.Http:Http.py:478 2022-11-08 17:42:14.574778 | 
<-----Sign Response----->
{"balanceChanges":[],"blockHash":"","blockHeight":"0","blockTime":"1970-01-01T00:00:00.000Z","createdTime":"2022-11-08T09:42:16.000Z","description":"Custom Excution","estimatedFee":"672280","fee":"0","hash":"1e577f1dd1c3732ecd96d6d2ee18ccd0d0352c642beeeebd2155d56b2ae3eae7","id":"1589916201709449217","networkCode":"DOGE","serialized":"01000000027b28cc087bdfeb04960029db1d19b1b6267b73c98203046926907c96171476c301000000d9004730440220741dd023a4dc2265af4591e909f134757294b7be7a85ddb3443bb9b57f9c450502200294030a2f4b16b2da1f757b4548d25363f7c82c1bd6d810278bf68faffd50d30147304402202ce4bdf062ea43d3eeaefe3ea39615366e4a780fe8f5b55b5090ef303efa8dd60220601a0338adf17450931263689926e6c29a133bb6abdc1c7358f420d0cd488c27014752210297caf9339977406957b532b9f21c5f53cbc6100bc89b827c2aa3a1f854dd6a7221030880a72c683a2507eb41e304419eb548f2d32bf6ad6f323b4d7c86c51052fcda52aeffffffff6a85269de3435b407b2a18af015d7149968f1208efd4c947385287e2f203e35700000000da00483045022100ebcf44f8e94dd8159734f1fd0ef3f6cf9d5e0d805a15db3b7b7dd8a55d55f17d02207e78ffbbc9a211ce1423f98d20eae4215354b50c4674bc9193a927709bdaa62d01473044022052de748c18068338980788dccc25665d3f13ca4594782535ae62d246a6c6d3f00220533e3183acbef21bc2f67e806528ef3001253ec32f51a09af83975c81dc28591014752210297caf9339977406957b532b9f21c5f53cbc6100bc89b827c2aa3a1f854dd6a7221030880a72c683a2507eb41e304419eb548f2d32bf6ad6f323b4d7c86c51052fcda52aeffffffff0210b7940d000000001976a9147fc0989f60a3c46e3d3a75b315feb27907d81bb688ace821420e0000000017a914f85c04f98cf5dfb81eec7e183bf39a4c0d542e058700000000","status":"SIGNED","updatedTime":"2022-11-08T09:42:18.447Z"}
[32mINFO    [0m Common.Http:Http.py:493 2022-11-08 17:42:14.574778 | 
<-----Send----->
Url:https://api.cryptoless.net/vault/transactions/1589916201709449217

Headers:{"Content-Type": "application/json", "Authorization": "eyJ0eXAiOiJKV1QiLCJhbGciOiJIUzI1NiJ9.eyJhdWQiOiIxNTgzMDE5OTU1NTMwODk1MzYxIiwiZXhwIjoxNjY4NDA2MDg4LCJpYXQiOjE2Njc4MDEyODgsInVzZXJJZCI6MTU4MzAxOTk1NTUzMDg5NTM2MX0.t8TZeGPZfNhs1U3syLsqgadq1-RKf_GU2nGWQWoWW9w"}


[32mINFO    [0m Common.Http:Http.py:497 2022-11-08 17:42:14.574778 | 
<-----Send Response----->
{"balanceChanges":[],"blockHash":"","blockHeight":"0","blockTime":"2022-11-08T09:42:18.817Z","createdTime":"2022-11-08T09:42:16.000Z","description":"Custom Excution","estimatedFee":"672280","fee":"0","hash":"1e577f1dd1c3732ecd96d6d2ee18ccd0d0352c642beeeebd2155d56b2ae3eae7","id":"1589916201709449217","networkCode":"DOGE","serialized":"01000000027b28cc087bdfeb04960029db1d19b1b6267b73c98203046926907c96171476c301000000d9004730440220741dd023a4dc2265af4591e909f134757294b7be7a85ddb3443bb9b57f9c450502200294030a2f4b16b2da1f757b4548d25363f7c82c1bd6d810278bf68faffd50d30147304402202ce4bdf062ea43d3eeaefe3ea39615366e4a780fe8f5b55b5090ef303efa8dd60220601a0338adf17450931263689926e6c29a133bb6abdc1c7358f420d0cd488c27014752210297caf9339977406957b532b9f21c5f53cbc6100bc89b827c2aa3a1f854dd6a7221030880a72c683a2507eb41e304419eb548f2d32bf6ad6f323b4d7c86c51052fcda52aeffffffff6a85269de3435b407b2a18af015d7149968f1208efd4c947385287e2f203e35700000000da00483045022100ebcf44f8e94dd8159734f1fd0ef3f6cf9d5e0d805a15db3b7b7dd8a55d55f17d02207e78ffbbc9a211ce1423f98d20eae4215354b50c4674bc9193a927709bdaa62d01473044022052de748c18068338980788dccc25665d3f13ca4594782535ae62d246a6c6d3f00220533e3183acbef21bc2f67e806528ef3001253ec32f51a09af83975c81dc28591014752210297caf9339977406957b532b9f21c5f53cbc6100bc89b827c2aa3a1f854dd6a7221030880a72c683a2507eb41e304419eb548f2d32bf6ad6f323b4d7c86c51052fcda52aeffffffff0210b7940d000000001976a9147fc0989f60a3c46e3d3a75b315feb27907d81bb688ace821420e0000000017a914f85c04f98cf5dfb81eec7e183bf39a4c0d542e058700000000","status":"PENDING","updatedTime":"2022-11-08T09:42:18.817Z"}