[32mINFO    [0m Common.Http:Http.py:93 2022-12-13 16:34:44.848256 | 
<-----Query Accounts----->
Url:http://54.251.78.181:8888/escrow/api//accounts?networkCode=&address=tb1qxrunvz3ywjtpzaasfgjjek96a33sxks740v58x7lzke0kc9urvgs0cczgd&type=
Headers:{"Content-Type": "application/json", "Authorization": "eyJ0eXAiOiJKV1QiLCJhbGciOiJIUzI1NiJ9.eyJhdWQiOiIxNjAxMDQzOTMwMjg3NDExMjAyIiwiZXhwIjoxNzAyMDg5NjAwLCJpYXQiOjE2NzA1NTM2MDAsInVzZXJJZCI6MTYwMTA0MzkzMDI4NzQxMTIwMn0.fZVc267JNsgy5tB_Wn89l2Zgd3ZgXJfaMg_T9lc3j-o"}


[32mINFO    [0m Common.Http:Http.py:96 2022-12-13 16:34:44.848256 | 
<-----Query Accounts Response----->
{"current":1,"list":[{"address":"tb1qxrunvz3ywjtpzaasfgjjek96a33sxks740v58x7lzke0kc9urvgs0cczgd","createdTime":"2022-12-12T08:06:23.000Z","finalized":true,"id":"1602213259255169026","name":"safe","networkCode":"BTC","publicKeys":[{"source":"owner","type":"secp256k1","value":"02e8852463021b47fe5214c599e87e431f2eb1219044946bbff397afd0518b85a6"},{"source":"custodial","type":"secp256k1","value":"02d904da9e163db9784ef50b4fd64e709ff5f4f438c80f5265e2925aac6d99dcd7"}],"status":"enable","threshold":2,"type":"safe","updatedTime":"2022-12-12T08:29:52.000Z"}],"size":10,"total":1}


[32mINFO    [0m Common.Httpcore:Httpcore.py:305 2022-12-13 16:34:44.848256 | 
<-----Query UTXO----->
Url:https://api.bitcore.io/api/BTC/testnet/address/tb1qxrunvz3ywjtpzaasfgjjek96a33sxks740v58x7lzke0kc9urvgs0cczgd?unspent=true

Headers:{"Content-Type": "application/json"}


[32mINFO    [0m Common.Httpcore:Httpcore.py:308 2022-12-13 16:34:44.848256 | 
<-----Query UTXO Response----->
[
{"_id":"6396ffcfd3bfc9e8e10b23a4","chain":"BTC","network":"testnet","coinbase":false,"mintIndex":1,"spentTxid":"","mintTxid":"8f1424cae0410ea94f6e9f40a6ca928df945826aeaa41e1e51bf3e65661cb941","mintHeight":2410924,"spentHeight":-2,"address":"tb1qxrunvz3ywjtpzaasfgjjek96a33sxks740v58x7lzke0kc9urvgs0cczgd","script":"002030f9360a2474961177b04a252cd8baec63035a1eabd9439bdf15b2fb60bc1b11","value":98974,"confirmations":-1}
]
[32mINFO    [0m Common.Http:Http.py:283 2022-12-13 16:34:44.848256 | 
<-----Transactions----->
Url:http://54.251.78.181:8888/escrow/api//transactions
Headers:{"Content-Type": "application/json", "Authorization": "eyJ0eXAiOiJKV1QiLCJhbGciOiJIUzI1NiJ9.eyJhdWQiOiIxNjAxMDQzOTMwMjg3NDExMjAyIiwiZXhwIjoxNzAyMDg5NjAwLCJpYXQiOjE2NzA1NTM2MDAsInVzZXJJZCI6MTYwMTA0MzkzMDI4NzQxMTIwMn0.fZVc267JNsgy5tB_Wn89l2Zgd3ZgXJfaMg_T9lc3j-o"}
Body:{"networkCode": "BTC", "payload": {"changer": "tb1qxrunvz3ywjtpzaasfgjjek96a33sxks740v58x7lzke0kc9urvgs0cczgd", "recipients": [{"address": "tb1q0558s53xchyghw34tqm4x8t2n8swf666nvhffq", "value": "100"}], "utxos": [{"amount": 98974, "witnessScript": "522102e8852463021b47fe5214c599e87e431f2eb1219044946bbff397afd0518b85a62102d904da9e163db9784ef50b4fd64e709ff5f4f438c80f5265e2925aac6d99dcd752ae", "signers": ["02e8852463021b47fe5214c599e87e431f2eb1219044946bbff397afd0518b85a6", "02d904da9e163db9784ef50b4fd64e709ff5f4f438c80f5265e2925aac6d99dcd7"], "txid": "8f1424cae0410ea94f6e9f40a6ca928df945826aeaa41e1e51bf3e65661cb941", "vout": 1}]}, "type": "TRANSACTION"}


[32mINFO    [0m Common.Http:Http.py:286 2022-12-13 16:34:44.848256 | 
<-----Transactions Response----->
{"balanceChanges":[],"blockTime":"1970-01-01T00:00:00.000Z","createdTime":"2022-12-13T08:34:46.857Z","estimatedFee":"226","hash":"","id":"1602582791891173378","networkCode":"BTC","requiredSignings":[{"hash":"3a6f4209954dab0808f65460cde7ca7839ffb159417d5e45fff004300a2f7f80","publicKeys":["02e8852463021b47fe5214c599e87e431f2eb1219044946bbff397afd0518b85a6"],"threshold":1}],"serialized":"010000000141b91c66653ebf511e1ea4ea6a8245f98d92caa6409f6e4fa90e41e0ca24148f0100000000ffffffff0264000000000000001600147d28785226c5c88bba355837531d6a99e0e4eb5a588101000000000022002030f9360a2474961177b04a252cd8baec63035a1eabd9439bdf15b2fb60bc1b1100000000","status":0,"statusDesc":"BUILDING","updatedTime":"2022-12-13T08:34:46.857Z"}


[32mINFO    [0m Common.Http:Http.py:344 2022-12-13 16:34:44.848256 | 
<-----Sign----->
Url:http://54.251.78.181:8888/escrow/api/transactions/signatures
Headers:{"Content-Type": "application/json", "Authorization": "eyJ0eXAiOiJKV1QiLCJhbGciOiJIUzI1NiJ9.eyJhdWQiOiIxNjAxMDQzOTMwMjg3NDExMjAyIiwiZXhwIjoxNzAyMDg5NjAwLCJpYXQiOjE2NzA1NTM2MDAsInVzZXJJZCI6MTYwMTA0MzkzMDI4NzQxMTIwMn0.fZVc267JNsgy5tB_Wn89l2Zgd3ZgXJfaMg_T9lc3j-o"}
Body:{"id": "1602582791891173378", "signatures": [{"hash": "3a6f4209954dab0808f65460cde7ca7839ffb159417d5e45fff004300a2f7f80", "publicKey": "02e8852463021b47fe5214c599e87e431f2eb1219044946bbff397afd0518b85a6", "signature": "da69bf27eee1d2b9b5b14076cb71d7d06a42e5ddfeb39450aa5bf8d9c54fa3e022dc1c4ab041e8aabbfc65be0a235b4f5057f3fa7726817fd96b8ea71b2c942501"}]}


[32mINFO    [0m Common.Http:Http.py:348 2022-12-13 16:34:44.848256 | 
<-----Sign Response----->
{"balanceChanges":[],"blockHash":"","blockHeight":"0","blockTime":"1970-01-01T00:00:00.000Z","createdTime":"2022-12-13T08:34:47.000Z","description":"","estimatedFee":"226","fee":"-1","hash":"1247c7f58ee8fadcc5032e8a21b101eb24aa0025b368f67ea5cfee6e5fe7c018","id":"1602582791891173378","networkCode":"BTC","serialized":"0100000000010141b91c66653ebf511e1ea4ea6a8245f98d92caa6409f6e4fa90e41e0ca24148f0100000000ffffffff0264000000000000001600147d28785226c5c88bba355837531d6a99e0e4eb5a588101000000000022002030f9360a2474961177b04a252cd8baec63035a1eabd9439bdf15b2fb60bc1b110400483045022100da69bf27eee1d2b9b5b14076cb71d7d06a42e5ddfeb39450aa5bf8d9c54fa3e0022022dc1c4ab041e8aabbfc65be0a235b4f5057f3fa7726817fd96b8ea71b2c942501473044022059baba3075851acacae24ae26f2c6bc90452b9a1bcdb2e9ebd2a635d591c573002200d31ab97426b43931f1953e3584275253723abcd5dba231c4f695919104fe7b50147522102e8852463021b47fe5214c599e87e431f2eb1219044946bbff397afd0518b85a62102d904da9e163db9784ef50b4fd64e709ff5f4f438c80f5265e2925aac6d99dcd752ae00000000","status":2,"statusDesc":"SIGNED","updatedTime":"2022-12-13T08:34:49.651Z"}


[32mINFO    [0m Common.Http:Http.py:364 2022-12-13 16:34:44.848256 | 
<-----Send----->
Url:http://54.251.78.181:8888/escrow/api//transactions/send/1602582791891173378
Headers:{"Content-Type": "application/json", "Authorization": "eyJ0eXAiOiJKV1QiLCJhbGciOiJIUzI1NiJ9.eyJhdWQiOiIxNjAxMDQzOTMwMjg3NDExMjAyIiwiZXhwIjoxNzAyMDg5NjAwLCJpYXQiOjE2NzA1NTM2MDAsInVzZXJJZCI6MTYwMTA0MzkzMDI4NzQxMTIwMn0.fZVc267JNsgy5tB_Wn89l2Zgd3ZgXJfaMg_T9lc3j-o"}


[32mINFO    [0m Common.Http:Http.py:371 2022-12-13 16:34:44.848256 | 
<-----Send Response Error----->
400
{"code":2300000,"message":"send transaction fail"}