[32mINFO    [0m Common.Httpcore:Httpcore.py:224 2022-12-02 19:08:24.508181 | 
<-----Query UTXO----->
Url:https://api.bitcore.io/api/BTC/testnet/address/tb1q4t8jtp4fwjg4spfjh7ux5ckhrallj652kwrj48gcvd0rt5g9ea3q4vlm33?unspent=true

Headers:{"Content-Type": "application/json"}


[32mINFO    [0m Common.Httpcore:Httpcore.py:227 2022-12-02 19:08:24.508181 | 
<-----Query UTXO Response----->
[
{"_id":"6385d239d3bfc9e8e120b72a","chain":"BTC","network":"testnet","coinbase":false,"mintIndex":0,"spentTxid":"","mintTxid":"96f20d3215de90d2a4722c39fe7eb9599958fc0b19839ee33254f9e779beb0de","mintHeight":2408949,"spentHeight":-2,"address":"tb1q4t8jtp4fwjg4spfjh7ux5ckhrallj652kwrj48gcvd0rt5g9ea3q4vlm33","script":"0020aacf2586a97491580532bfb86a62d71f7ff96a8ab3872a9d18635e35d105cf62","value":100000,"confirmations":-1}
]
[32mINFO    [0m Common.Httpcore:Httpcore.py:132 2022-12-02 19:08:24.508181 | 
<-----Core Build------>
Url:http://54.251.78.181:8888/core/api/transactions

Headers:{"Content-Type": "application/json", "Authorization": "eyJib2R5IjoiV2ViMyBUb2tlbiBWZXJzaW9uOiAyXG5Ob25jZTogMTU4NTEwMjc5MTQ2NjQ4NzgxMFxuSXNzdWVkIEF0OiBXZWQsIDI2IE9jdCAyMDIyIDAyOjU1OjI5IEdNVFxuRXhwaXJhdGlvbiBUaW1lOiBTYXQsIDIzIE9jdCAyMDMyIDAyOjU1OjI5IEdNVCIsInNpZ25hdHVyZSI6IjB4OTE1NWMyOGM3NjVjZjk1YTBjNjdiZGNhYzExNzIwYTRkNDQ4NDc4YmU5ZDZhNjE3ZWQzNDUzZDU3MDgzZjNjZTA2N2Q5OGUwMGI0YTVhMmJmOTlkY2I5Y2VmNzg5Yjc4OWViNzI5OTk4YzgxYWQzOWFhMTUzZTcxM2Q4M2FhYWUxYiJ9"}

body:{"networkCode": "BTC", "payload": {"changer": "tb1q4t8jtp4fwjg4spfjh7ux5ckhrallj652kwrj48gcvd0rt5g9ea3q4vlm33", "recipients": [{"address": "tb1qyczy479xgg8flr4amkrxp6s4an7huecg9mq2ay", "value": "100"}, {"address": "tb1q9ps855ksckycta6kqjecszvu39pg4nedkx540t", "value": "200"}, {"address": "tb1q0r3zhkjf408nf069dd9z7lal6zzyhva860pt3y", "value": "300"}], "utxos": [{"amount": 100000, "witnessScript": "522102e8852463021b47fe5214c599e87e431f2eb1219044946bbff397afd0518b85a6210231e263a7e95bf5107b88b85b49918841b937305cce5dae7dd7ba9b86fc460f7052ae", "signers": ["02e8852463021b47fe5214c599e87e431f2eb1219044946bbff397afd0518b85a6", "0231e263a7e95bf5107b88b85b49918841b937305cce5dae7dd7ba9b86fc460f70"], "txid": "96f20d3215de90d2a4722c39fe7eb9599958fc0b19839ee33254f9e779beb0de", "vout": 0}]}, "type": "TRANSACTION"}


[32mINFO    [0m Common.Httpcore:Httpcore.py:135 2022-12-02 19:08:24.508181 | 
<-----Core Build Response---->
{"balanceChanges":[],"blockTime":"1970-01-01T00:00:00.000Z","createdTime":"2022-12-02T11:08:25.879Z","description":"Custom Excution","estimatedFee":"294","hash":"","id":"1598635192645537794","networkCode":"BTC","requiredSignings":[{"hash":"eb9a871b958239a6bd78bf612c458404d1391d97c7e6b664529be54fc83f7cb7","publicKeys":["02e8852463021b47fe5214c599e87e431f2eb1219044946bbff397afd0518b85a6","0231e263a7e95bf5107b88b85b49918841b937305cce5dae7dd7ba9b86fc460f70"],"threshold":2}],"serialized":"0100000001deb0be79e7f95432e39e83190bfc589959b97efe392c72a4d290de15320df2960000000000ffffffff04640000000000000016001426044af8a6420e9f8ebddd8660ea15ecfd7e6708c80000000000000016001428607a52d0c58985f75604b388099c89428acf2d2c0100000000000016001478e22bda49abcf34bf456b4a2f7fbfd0844bb3a72283010000000000220020aacf2586a97491580532bfb86a62d71f7ff96a8ab3872a9d18635e35d105cf6200000000","status":0,"statusDesc":"BUILDING","updatedTime":"2022-12-02T11:08:25.879Z"}
[32mINFO    [0m Common.Httpcore:Httpcore.py:155 2022-12-02 19:08:24.508181 | 
<-----Core Sign------>
Url:http://54.251.78.181:8888/core/api/transactions/signatures

Headers:{"Content-Type": "application/json", "Authorization": "eyJib2R5IjoiV2ViMyBUb2tlbiBWZXJzaW9uOiAyXG5Ob25jZTogMTU4NTEwMjc5MTQ2NjQ4NzgxMFxuSXNzdWVkIEF0OiBXZWQsIDI2IE9jdCAyMDIyIDAyOjU1OjI5IEdNVFxuRXhwaXJhdGlvbiBUaW1lOiBTYXQsIDIzIE9jdCAyMDMyIDAyOjU1OjI5IEdNVCIsInNpZ25hdHVyZSI6IjB4OTE1NWMyOGM3NjVjZjk1YTBjNjdiZGNhYzExNzIwYTRkNDQ4NDc4YmU5ZDZhNjE3ZWQzNDUzZDU3MDgzZjNjZTA2N2Q5OGUwMGI0YTVhMmJmOTlkY2I5Y2VmNzg5Yjc4OWViNzI5OTk4YzgxYWQzOWFhMTUzZTcxM2Q4M2FhYWUxYiJ9"}

body:{"id": "1598635192645537794", "signatures": [{"hash": "eb9a871b958239a6bd78bf612c458404d1391d97c7e6b664529be54fc83f7cb7", "publicKey": "02e8852463021b47fe5214c599e87e431f2eb1219044946bbff397afd0518b85a6", "signature": "b456231c92e1bf7547d5e8922527031c47605504707a71982fea9f0b91d9f42b553d104df94cdb84be6c6233edb33122ca60da45e4d6f86d668c9fa1221b0af601"}, {"hash": "eb9a871b958239a6bd78bf612c458404d1391d97c7e6b664529be54fc83f7cb7", "publicKey": "0231e263a7e95bf5107b88b85b49918841b937305cce5dae7dd7ba9b86fc460f70", "signature": "bd1fe1b478218d1220ad9cd77ffcadf3e65123dd0f8fe7f5fa1922fb9c52dce97fa18f31166cb61f366e8ffdfd971cdd7f5cab5033a52346f2c2a55e17a2d8d000"}]}


[32mINFO    [0m Common.Httpcore:Httpcore.py:158 2022-12-02 19:08:24.508181 | 
<-----Core Sign Response---->
{"balanceChanges":[],"blockHash":"","blockHeight":"0","blockTime":"1970-01-01T00:00:00.000Z","createdTime":"2022-12-02T11:08:26.000Z","description":"Custom Excution","estimatedFee":"294","fee":"-1","hash":"d5f9bc0facfbc58af07b211ce48783121847fdc1831d1a1f5f5aae91d54aaac2","id":"1598635192645537794","networkCode":"BTC","serialized":"01000000000101deb0be79e7f95432e39e83190bfc589959b97efe392c72a4d290de15320df2960000000000ffffffff04640000000000000016001426044af8a6420e9f8ebddd8660ea15ecfd7e6708c80000000000000016001428607a52d0c58985f75604b388099c89428acf2d2c0100000000000016001478e22bda49abcf34bf456b4a2f7fbfd0844bb3a72283010000000000220020aacf2586a97491580532bfb86a62d71f7ff96a8ab3872a9d18635e35d105cf620400483045022100b456231c92e1bf7547d5e8922527031c47605504707a71982fea9f0b91d9f42b0220553d104df94cdb84be6c6233edb33122ca60da45e4d6f86d668c9fa1221b0af601483045022100bd1fe1b478218d1220ad9cd77ffcadf3e65123dd0f8fe7f5fa1922fb9c52dce902207fa18f31166cb61f366e8ffdfd971cdd7f5cab5033a52346f2c2a55e17a2d8d00147522102e8852463021b47fe5214c599e87e431f2eb1219044946bbff397afd0518b85a6210231e263a7e95bf5107b88b85b49918841b937305cce5dae7dd7ba9b86fc460f7052ae00000000","status":2,"statusDesc":"SIGNED","updatedTime":"2022-12-02T11:08:26.188Z"}
[32mINFO    [0m Common.Httpcore:Httpcore.py:174 2022-12-02 19:08:24.508181 | 
<-----Core Send------>
Url:http://54.251.78.181:8888/core/api/transactions/send/1598635192645537794

Headers:{"Content-Type": "application/json", "Authorization": "eyJib2R5IjoiV2ViMyBUb2tlbiBWZXJzaW9uOiAyXG5Ob25jZTogMTU4NTEwMjc5MTQ2NjQ4NzgxMFxuSXNzdWVkIEF0OiBXZWQsIDI2IE9jdCAyMDIyIDAyOjU1OjI5IEdNVFxuRXhwaXJhdGlvbiBUaW1lOiBTYXQsIDIzIE9jdCAyMDMyIDAyOjU1OjI5IEdNVCIsInNpZ25hdHVyZSI6IjB4OTE1NWMyOGM3NjVjZjk1YTBjNjdiZGNhYzExNzIwYTRkNDQ4NDc4YmU5ZDZhNjE3ZWQzNDUzZDU3MDgzZjNjZTA2N2Q5OGUwMGI0YTVhMmJmOTlkY2I5Y2VmNzg5Yjc4OWViNzI5OTk4YzgxYWQzOWFhMTUzZTcxM2Q4M2FhYWUxYiJ9"}


[31m[1mERROR   [0m Common.Httpcore:Httpcore.py:180 2022-12-02 19:08:24.508181 | 
<-----Core Send Response Error----->{"code":2400000,"message":"INTERNAL: 500 - {\"result\":null,\"error\":{\"code\":-26,\"message\":\"non-mandatory-script-verify-flag \u0028Witness program hash mismatch\u0029\"},\"id\":1669979306402}"}