[32mINFO    [0m Common.Http:Http.py:216 2022-11-08 10:32:55.160989 | 
<-----Holders----->
Url:https://api.cryptoless.net/cryptocurrencies/holders?address=A6eYDsPe5AhAdRnidjY4mJxxDC2w1tikjG&networkCode=DOGE&symbol=DOGE

Headers:{"Content-Type": "application/json", "Authorization": "eyJib2R5IjoiV2ViMyBUb2tlbiBWZXJzaW9uOiAyXG5Ob25jZTogMTU4MzAxOTk1NTUzMDg5NTM2MVxuSXNzdWVkIEF0OiBUaHUsIDIwIE9jdCAyMDIyIDA4OjU5OjAzIEdNVFxuRXhwaXJhdGlvbiBUaW1lOiBTdW4sIDE3IE9jdCAyMDMyIDA4OjU5OjAzIEdNVCIsInNpZ25hdHVyZSI6IjB4MDA4NTA0NmM1YmYwYWFkZjkwMjIyMWFhNGU0OTFjODllYTU5ZTAxZGQ2ODIwNTdkMDU0Y2U2MzcyNTdkYTE2ZTIyNTJlMzYxYWJmNjE4ZmEwOWJmODVmYjEwM2RjMmZhYzg4MzFkODNmMDcwNGZlMjdhZmUzYTdjYWY0NGE2YjYxYyJ9"}
[32mINFO    [0m Common.Http:Http.py:219 2022-11-08 10:32:55.160989 | 
<-----Query Holders Response----->
[]
[32mINFO    [0m Common.Http:Http.py:306 2022-11-08 10:32:55.160989 | 
<-----Instructions----->
Url:https://api.cryptoless.net/vault/instructions

Headers:{"Content-Type": "application/json", "Authorization": "eyJ0eXAiOiJKV1QiLCJhbGciOiJIUzI1NiJ9.eyJhdWQiOiIxNTgzMDE5OTU1NTMwODk1MzYxIiwiZXhwIjoxNjY4NDA2MDg4LCJpYXQiOjE2Njc4MDEyODgsInVzZXJJZCI6MTU4MzAxOTk1NTUzMDg5NTM2MX0.t8TZeGPZfNhs1U3syLsqgadq1-RKf_GU2nGWQWoWW9w"}

Body:{"body": {"from": "A6eYDsPe5AhAdRnidjY4mJxxDC2w1tikjG", "to": "DGnb5SNRnEyAx9xNuHGxbiY4ysHPsxegP9", "symbol": "DOGE", "amount": "2.4278"}, "networkCode": "DOGE", "type": "transfer", "definiteSignerPublicKeys": [], "transactionParams": {"memo": "han4jmkJl9"}}
[32mINFO    [0m Common.Http:Http.py:309 2022-11-08 10:32:55.160989 | 
<-----Instructions Response----->
{"_embedded":{"transactions":[{"balanceChanges":[],"blockHash":"","blockHeight":"0","blockTime":"2022-11-08T02:32:57.000Z","createdTime":"2022-11-08T02:32:57.000Z","description":"Custom Excution","estimatedFee":"738920","fee":"0","hash":"","id":"1589808160674656257","networkCode":"DOGE","requiredSignings":[{"hash":"5b241c7b6768693308bcefd3862da6cd733c9a6e56a085d085d5b68cb28d8d88","publicKeys":["02b63778a5aa4aee9f3ecc6da99b8322404a3c6907cf76645a96397ac5278e39ac","030880a72c683a2507eb41e304419eb548f2d32bf6ad6f323b4d7c86c51052fcda"],"threshold":1},{"hash":"d622e01324af205c46adb845fe50f2ac6505d44634dcc591b5951cc7c80a28c4","publicKeys":["02b63778a5aa4aee9f3ecc6da99b8322404a3c6907cf76645a96397ac5278e39ac","030880a72c683a2507eb41e304419eb548f2d32bf6ad6f323b4d7c86c51052fcda"],"threshold":1}],"serialized":"01000000021bbbd533448642b3ffbdad15306e7f62700031f13834479819643bcb61d3052e0100000000ffffffff3a770aed233e4d54edf3bd402dc77f6a1fcc60097b0408036ff13366438729760000000000ffffffff026087780e000000001976a9147fc0989f60a3c46e3d3a75b315feb27907d81bb688ac88f5520c0000000017a9149be3bdc8e18d2032911c2c970875857197606f0d8700000000","status":"BUILDING","updatedTime":"2022-11-08T02:32:57.000Z"}]},"body":{"symbol":"DOGE","amount":"2.4278","from":"A6eYDsPe5AhAdRnidjY4mJxxDC2w1tikjG","to":"DGnb5SNRnEyAx9xNuHGxbiY4ysHPsxegP9"},"createdTime":"2022-11-08T02:32:58.000Z","id":"1589808161526099970","networkCode":"DOGE","status":-2,"transactionParams":{"memo":"han4jmkJl9"},"type":"TRANSFER","updatedTime":"2022-11-08T02:32:58.000Z"}
[32mINFO    [0m Common.Http:Http.py:474 2022-11-08 10:32:55.160989 | 
<-----Sign----->
Url:https://api.cryptoless.net/vault/transactions/1589808160674656257/signatures

Headers:{"Content-Type": "application/json", "Authorization": "eyJ0eXAiOiJKV1QiLCJhbGciOiJIUzI1NiJ9.eyJhdWQiOiIxNTgzMDE5OTU1NTMwODk1MzYxIiwiZXhwIjoxNjY4NDA2MDg4LCJpYXQiOjE2Njc4MDEyODgsInVzZXJJZCI6MTU4MzAxOTk1NTUzMDg5NTM2MX0.t8TZeGPZfNhs1U3syLsqgadq1-RKf_GU2nGWQWoWW9w"}

Body:{"signatures": [{"hash": "5b241c7b6768693308bcefd3862da6cd733c9a6e56a085d085d5b68cb28d8d88", "publicKey": "02b63778a5aa4aee9f3ecc6da99b8322404a3c6907cf76645a96397ac5278e39ac", "signature": "89ba42d7c7b2b6c450fa00e398ae125610d5d0fdc3c263df711643505842e1f55122a74ec7a44fa3bf646b607d7009b8baa04fc22b2126c778f7d08344f2542300"}, {"hash": "d622e01324af205c46adb845fe50f2ac6505d44634dcc591b5951cc7c80a28c4", "publicKey": "02b63778a5aa4aee9f3ecc6da99b8322404a3c6907cf76645a96397ac5278e39ac", "signature": "e0e3a7741e9c1851f25d5e7970f9c7f8e5677481ac6fb254c41bc9a21b962b9f4e1c7ee6d853c1fca1ad9caff6f632d3c9b8dc7b0bc0cba107f6a27292295bf101"}], "serialized": "01000000021bbbd533448642b3ffbdad15306e7f62700031f13834479819643bcb61d3052e0100000000ffffffff3a770aed233e4d54edf3bd402dc77f6a1fcc60097b0408036ff13366438729760000000000ffffffff026087780e000000001976a9147fc0989f60a3c46e3d3a75b315feb27907d81bb688ac88f5520c0000000017a9149be3bdc8e18d2032911c2c970875857197606f0d8700000000"}
[32mINFO    [0m Common.Http:Http.py:478 2022-11-08 10:32:55.160989 | 
<-----Sign Response----->
{"balanceChanges":[],"blockHash":"","blockHeight":"0","blockTime":"1970-01-01T00:00:00.000Z","createdTime":"2022-11-08T02:32:57.000Z","description":"Custom Excution","estimatedFee":"738920","fee":"0","hash":"2d7942943336361e825ca969a77348dc1ed7866a3825dc419c6d1f86097d0c39","id":"1589808160674656257","networkCode":"DOGE","serialized":"01000000021bbbd533448642b3ffbdad15306e7f62700031f13834479819643bcb61d3052e01000000fdfe000048304502210089ba42d7c7b2b6c450fa00e398ae125610d5d0fdc3c263df711643505842e1f502205122a74ec7a44fa3bf646b607d7009b8baa04fc22b2126c778f7d08344f2542301483045022100e548026081fdf634a51d788462aa4914c0eea01210fd8892dce3276af052bdc6022039ebf5fc7f1845e87b07df962e95edc0f72ff0a7c45db61e5ee3416ed0b2b205014c69522102b63778a5aa4aee9f3ecc6da99b8322404a3c6907cf76645a96397ac5278e39ac21030880a72c683a2507eb41e304419eb548f2d32bf6ad6f323b4d7c86c51052fcda21033d79c3120b14df3da57d2333a587ddff7e18959141abd1e711674e27b878be7d53aeffffffff3a770aed233e4d54edf3bd402dc77f6a1fcc60097b0408036ff133664387297600000000fdfe0000483045022100e0e3a7741e9c1851f25d5e7970f9c7f8e5677481ac6fb254c41bc9a21b962b9f02204e1c7ee6d853c1fca1ad9caff6f632d3c9b8dc7b0bc0cba107f6a27292295bf101483045022100bb46af42761cb95927a24191b5541156e3fa8030c90c6fde2dad119c954dc9b50220712b1c52ace6f0a229c91f55d7daa927ffb5a07668367ec1e798e255199307f3014c69522102b63778a5aa4aee9f3ecc6da99b8322404a3c6907cf76645a96397ac5278e39ac21030880a72c683a2507eb41e304419eb548f2d32bf6ad6f323b4d7c86c51052fcda21033d79c3120b14df3da57d2333a587ddff7e18959141abd1e711674e27b878be7d53aeffffffff026087780e000000001976a9147fc0989f60a3c46e3d3a75b315feb27907d81bb688ac88f5520c0000000017a9149be3bdc8e18d2032911c2c970875857197606f0d8700000000","status":"SIGNED","updatedTime":"2022-11-08T02:32:59.839Z"}
[32mINFO    [0m Common.Http:Http.py:493 2022-11-08 10:32:55.160989 | 
<-----Send----->
Url:https://api.cryptoless.net/vault/transactions/1589808160674656257

Headers:{"Content-Type": "application/json", "Authorization": "eyJ0eXAiOiJKV1QiLCJhbGciOiJIUzI1NiJ9.eyJhdWQiOiIxNTgzMDE5OTU1NTMwODk1MzYxIiwiZXhwIjoxNjY4NDA2MDg4LCJpYXQiOjE2Njc4MDEyODgsInVzZXJJZCI6MTU4MzAxOTk1NTUzMDg5NTM2MX0.t8TZeGPZfNhs1U3syLsqgadq1-RKf_GU2nGWQWoWW9w"}


[32mINFO    [0m Common.Http:Http.py:497 2022-11-08 10:32:55.160989 | 
<-----Send Response----->
{"balanceChanges":[],"blockHash":"","blockHeight":"0","blockTime":"2022-11-08T02:33:00.307Z","createdTime":"2022-11-08T02:32:57.000Z","description":"Custom Excution","estimatedFee":"738920","fee":"0","hash":"2d7942943336361e825ca969a77348dc1ed7866a3825dc419c6d1f86097d0c39","id":"1589808160674656257","networkCode":"DOGE","serialized":"01000000021bbbd533448642b3ffbdad15306e7f62700031f13834479819643bcb61d3052e01000000fdfe000048304502210089ba42d7c7b2b6c450fa00e398ae125610d5d0fdc3c263df711643505842e1f502205122a74ec7a44fa3bf646b607d7009b8baa04fc22b2126c778f7d08344f2542301483045022100e548026081fdf634a51d788462aa4914c0eea01210fd8892dce3276af052bdc6022039ebf5fc7f1845e87b07df962e95edc0f72ff0a7c45db61e5ee3416ed0b2b205014c69522102b63778a5aa4aee9f3ecc6da99b8322404a3c6907cf76645a96397ac5278e39ac21030880a72c683a2507eb41e304419eb548f2d32bf6ad6f323b4d7c86c51052fcda21033d79c3120b14df3da57d2333a587ddff7e18959141abd1e711674e27b878be7d53aeffffffff3a770aed233e4d54edf3bd402dc77f6a1fcc60097b0408036ff133664387297600000000fdfe0000483045022100e0e3a7741e9c1851f25d5e7970f9c7f8e5677481ac6fb254c41bc9a21b962b9f02204e1c7ee6d853c1fca1ad9caff6f632d3c9b8dc7b0bc0cba107f6a27292295bf101483045022100bb46af42761cb95927a24191b5541156e3fa8030c90c6fde2dad119c954dc9b50220712b1c52ace6f0a229c91f55d7daa927ffb5a07668367ec1e798e255199307f3014c69522102b63778a5aa4aee9f3ecc6da99b8322404a3c6907cf76645a96397ac5278e39ac21030880a72c683a2507eb41e304419eb548f2d32bf6ad6f323b4d7c86c51052fcda21033d79c3120b14df3da57d2333a587ddff7e18959141abd1e711674e27b878be7d53aeffffffff026087780e000000001976a9147fc0989f60a3c46e3d3a75b315feb27907d81bb688ac88f5520c0000000017a9149be3bdc8e18d2032911c2c970875857197606f0d8700000000","status":"PENDING","updatedTime":"2022-11-08T02:33:00.307Z"}