[32mINFO    [0m Common.Httpcore:Httpcore.py:224 2022-12-02 10:49:13.472357 | 
<-----Query UTXO----->
Url:https://api.bitcore.io/api/BTC/testnet/address/tb1qhcuul2fcyv5rvr5mc5cy5saz0q5p3kx0gsy3c0?unspent=true

Headers:{"Content-Type": "application/json"}


[32mINFO    [0m Common.Httpcore:Httpcore.py:227 2022-12-02 10:49:13.472357 | 
<-----Query UTXO Response----->
[
{"_id":"6385d239d3bfc9e8e120b729","chain":"BTC","network":"testnet","coinbase":false,"mintIndex":1,"spentTxid":"","mintTxid":"96f20d3215de90d2a4722c39fe7eb9599958fc0b19839ee33254f9e779beb0de","mintHeight":2408949,"spentHeight":-2,"address":"tb1qhcuul2fcyv5rvr5mc5cy5saz0q5p3kx0gsy3c0","script":"0014be39cfa9382328360e9bc5304a43a2782818d8cf","value":898949,"confirmations":-1},
{"_id":"6385ac0fd3bfc9e8e17f09de","chain":"BTC","network":"testnet","coinbase":false,"mintIndex":0,"spentTxid":"","mintTxid":"9aa6d0c2e5b677480d08b1f90c989f599ec16342cdee9e1fe48a698030a38eae","mintHeight":2408923,"spentHeight":-2,"address":"tb1qhcuul2fcyv5rvr5mc5cy5saz0q5p3kx0gsy3c0","script":"0014be39cfa9382328360e9bc5304a43a2782818d8cf","value":100,"confirmations":-1}
]
[32mINFO    [0m Common.Httpcore:Httpcore.py:132 2022-12-02 10:49:13.472357 | 
<-----Core Build------>
Url:http://54.251.78.181:8888/core/api/transactions

Headers:{"Content-Type": "application/json", "Authorization": "eyJib2R5IjoiV2ViMyBUb2tlbiBWZXJzaW9uOiAyXG5Ob25jZTogMTU4NTEwMjc5MTQ2NjQ4NzgxMFxuSXNzdWVkIEF0OiBXZWQsIDI2IE9jdCAyMDIyIDAyOjU1OjI5IEdNVFxuRXhwaXJhdGlvbiBUaW1lOiBTYXQsIDIzIE9jdCAyMDMyIDAyOjU1OjI5IEdNVCIsInNpZ25hdHVyZSI6IjB4OTE1NWMyOGM3NjVjZjk1YTBjNjdiZGNhYzExNzIwYTRkNDQ4NDc4YmU5ZDZhNjE3ZWQzNDUzZDU3MDgzZjNjZTA2N2Q5OGUwMGI0YTVhMmJmOTlkY2I5Y2VmNzg5Yjc4OWViNzI5OTk4YzgxYWQzOWFhMTUzZTcxM2Q4M2FhYWUxYiJ9"}

body:{"networkCode": "BTC", "payload": {"changer": "tb1qhcuul2fcyv5rvr5mc5cy5saz0q5p3kx0gsy3c0", "recipients": [{"address": "tb1qhcuul2fcyv5rvr5mc5cy5saz0q5p3kx0gsy3c0", "value": "100"}], "utxos": [{"amount": 898949, "scriptPubKey": "0014be39cfa9382328360e9bc5304a43a2782818d8cf", "signers": ["02e8852463021b47fe5214c599e87e431f2eb1219044946bbff397afd0518b85a6"], "txid": "96f20d3215de90d2a4722c39fe7eb9599958fc0b19839ee33254f9e779beb0de", "vout": 1}]}, "type": "TRANSACTION"}


[32mINFO    [0m Common.Httpcore:Httpcore.py:135 2022-12-02 10:49:13.472357 | 
<-----Core Build Response---->
{"balanceChanges":[],"blockTime":"1970-01-01T00:00:00.000Z","createdTime":"2022-12-02T02:49:15.218Z","description":"Custom Excution","estimatedFee":"187","hash":"","id":"1598509570338193410","networkCode":"BTC","requiredSignings":[{"hash":"319aeb926a3e2118c1752d088ec07dd50b8981ddb43d64be0d148b996129370c","publicKeys":["02e8852463021b47fe5214c599e87e431f2eb1219044946bbff397afd0518b85a6"],"threshold":1}],"serialized":"0100000001deb0be79e7f95432e39e83190bfc589959b97efe392c72a4d290de15320df2960100000000ffffffff026400000000000000160014be39cfa9382328360e9bc5304a43a2782818d8cf66b60d0000000000160014be39cfa9382328360e9bc5304a43a2782818d8cf00000000","status":0,"statusDesc":"BUILDING","updatedTime":"2022-12-02T02:49:15.218Z"}
[32mINFO    [0m Common.Httpcore:Httpcore.py:155 2022-12-02 10:49:13.472357 | 
<-----Core Sign------>
Url:http://54.251.78.181:8888/core/api/transactions/signatures

Headers:{"Content-Type": "application/json", "Authorization": "eyJib2R5IjoiV2ViMyBUb2tlbiBWZXJzaW9uOiAyXG5Ob25jZTogMTU4NTEwMjc5MTQ2NjQ4NzgxMFxuSXNzdWVkIEF0OiBXZWQsIDI2IE9jdCAyMDIyIDAyOjU1OjI5IEdNVFxuRXhwaXJhdGlvbiBUaW1lOiBTYXQsIDIzIE9jdCAyMDMyIDAyOjU1OjI5IEdNVCIsInNpZ25hdHVyZSI6IjB4OTE1NWMyOGM3NjVjZjk1YTBjNjdiZGNhYzExNzIwYTRkNDQ4NDc4YmU5ZDZhNjE3ZWQzNDUzZDU3MDgzZjNjZTA2N2Q5OGUwMGI0YTVhMmJmOTlkY2I5Y2VmNzg5Yjc4OWViNzI5OTk4YzgxYWQzOWFhMTUzZTcxM2Q4M2FhYWUxYiJ9"}

body:{"id": "1598509570338193410", "signatures": [{"hash": "319aeb926a3e2118c1752d088ec07dd50b8981ddb43d64be0d148b996129370c", "publicKey": "02e8852463021b47fe5214c599e87e431f2eb1219044946bbff397afd0518b85a6", "signature": "71cdf99a6fca6453f9dcfe782aae3f9133e238ec5108d8db5821c9c4a1cc3601091387017cf212b320b60d565b1cc223930c3cef4c098eba62f3f6f532b331aa01"}]}


[32mINFO    [0m Common.Httpcore:Httpcore.py:158 2022-12-02 10:49:13.472357 | 
<-----Core Sign Response---->
{"balanceChanges":[],"blockHash":"","blockHeight":"0","blockTime":"1970-01-01T00:00:00.000Z","createdTime":"2022-12-02T02:49:15.000Z","description":"Custom Excution","estimatedFee":"187","fee":"-1","hash":"3bd055be1d1c03586c783b31fcf0b6bb9316cb2d058cf32172ae6af592ad37e3","id":"1598509570338193410","networkCode":"BTC","serialized":"01000000000101deb0be79e7f95432e39e83190bfc589959b97efe392c72a4d290de15320df2960100000000ffffffff026400000000000000160014be39cfa9382328360e9bc5304a43a2782818d8cf66b60d0000000000160014be39cfa9382328360e9bc5304a43a2782818d8cf02473044022071cdf99a6fca6453f9dcfe782aae3f9133e238ec5108d8db5821c9c4a1cc36010220091387017cf212b320b60d565b1cc223930c3cef4c098eba62f3f6f532b331aa012102e8852463021b47fe5214c599e87e431f2eb1219044946bbff397afd0518b85a600000000","status":2,"statusDesc":"SIGNED","updatedTime":"2022-12-02T02:49:16.143Z"}
[32mINFO    [0m Common.Httpcore:Httpcore.py:174 2022-12-02 10:49:13.472357 | 
<-----Core Send------>
Url:http://54.251.78.181:8888/core/api/transactions/send/1598509570338193410

Headers:{"Content-Type": "application/json", "Authorization": "eyJib2R5IjoiV2ViMyBUb2tlbiBWZXJzaW9uOiAyXG5Ob25jZTogMTU4NTEwMjc5MTQ2NjQ4NzgxMFxuSXNzdWVkIEF0OiBXZWQsIDI2IE9jdCAyMDIyIDAyOjU1OjI5IEdNVFxuRXhwaXJhdGlvbiBUaW1lOiBTYXQsIDIzIE9jdCAyMDMyIDAyOjU1OjI5IEdNVCIsInNpZ25hdHVyZSI6IjB4OTE1NWMyOGM3NjVjZjk1YTBjNjdiZGNhYzExNzIwYTRkNDQ4NDc4YmU5ZDZhNjE3ZWQzNDUzZDU3MDgzZjNjZTA2N2Q5OGUwMGI0YTVhMmJmOTlkY2I5Y2VmNzg5Yjc4OWViNzI5OTk4YzgxYWQzOWFhMTUzZTcxM2Q4M2FhYWUxYiJ9"}


[32mINFO    [0m Common.Httpcore:Httpcore.py:177 2022-12-02 10:49:13.472357 | 
<-----Core Send Response---->
{"balanceChanges":[],"blockHash":"","blockHeight":"0","blockTime":"2022-12-02T02:49:16.562Z","createdTime":"2022-12-02T02:49:15.000Z","description":"Custom Excution","estimatedFee":"187","fee":"-1","hash":"3bd055be1d1c03586c783b31fcf0b6bb9316cb2d058cf32172ae6af592ad37e3","id":"1598509570338193410","networkCode":"BTC","serialized":"01000000000101deb0be79e7f95432e39e83190bfc589959b97efe392c72a4d290de15320df2960100000000ffffffff026400000000000000160014be39cfa9382328360e9bc5304a43a2782818d8cf66b60d0000000000160014be39cfa9382328360e9bc5304a43a2782818d8cf02473044022071cdf99a6fca6453f9dcfe782aae3f9133e238ec5108d8db5821c9c4a1cc36010220091387017cf212b320b60d565b1cc223930c3cef4c098eba62f3f6f532b331aa012102e8852463021b47fe5214c599e87e431f2eb1219044946bbff397afd0518b85a600000000","status":3,"statusDesc":"PENDING","updatedTime":"2022-12-02T02:49:16.562Z"}