[32mINFO    [0m Common.Httpcore:Httpcore.py:224 2022-12-02 18:29:48.490505 | 
<-----Query UTXO----->
Url:https://api.bitcore.io/api/BTC/testnet/address/tb1qhcuul2fcyv5rvr5mc5cy5saz0q5p3kx0gsy3c0?unspent=true

Headers:{"Content-Type": "application/json"}


[32mINFO    [0m Common.Httpcore:Httpcore.py:227 2022-12-02 18:29:48.490505 | 
<-----Query UTXO Response----->
[
{"_id":"6389cfcfd3bfc9e8e15558fc","chain":"BTC","network":"testnet","coinbase":false,"mintIndex":1,"spentTxid":"","mintTxid":"b29e292cca726b7f8d3b13de26db0cca577716218320101bd7af70f01aa8025a","mintHeight":2409423,"spentHeight":-2,"address":"tb1qhcuul2fcyv5rvr5mc5cy5saz0q5p3kx0gsy3c0","script":"0014be39cfa9382328360e9bc5304a43a2782818d8cf","value":898357,"confirmations":-1},
{"_id":"6389cfcfd3bfc9e8e15558fb","chain":"BTC","network":"testnet","coinbase":false,"mintIndex":0,"spentTxid":"","mintTxid":"b29e292cca726b7f8d3b13de26db0cca577716218320101bd7af70f01aa8025a","mintHeight":2409423,"spentHeight":-2,"address":"tb1qhcuul2fcyv5rvr5mc5cy5saz0q5p3kx0gsy3c0","script":"0014be39cfa9382328360e9bc5304a43a2782818d8cf","value":100,"confirmations":-1}
]
[32mINFO    [0m Common.Httpcore:Httpcore.py:132 2022-12-02 18:29:48.490505 | 
<-----Core Build------>
Url:http://54.251.78.181:8888/core/api/transactions

Headers:{"Content-Type": "application/json", "Authorization": "eyJib2R5IjoiV2ViMyBUb2tlbiBWZXJzaW9uOiAyXG5Ob25jZTogMTU4NTEwMjc5MTQ2NjQ4NzgxMFxuSXNzdWVkIEF0OiBXZWQsIDI2IE9jdCAyMDIyIDAyOjU1OjI5IEdNVFxuRXhwaXJhdGlvbiBUaW1lOiBTYXQsIDIzIE9jdCAyMDMyIDAyOjU1OjI5IEdNVCIsInNpZ25hdHVyZSI6IjB4OTE1NWMyOGM3NjVjZjk1YTBjNjdiZGNhYzExNzIwYTRkNDQ4NDc4YmU5ZDZhNjE3ZWQzNDUzZDU3MDgzZjNjZTA2N2Q5OGUwMGI0YTVhMmJmOTlkY2I5Y2VmNzg5Yjc4OWViNzI5OTk4YzgxYWQzOWFhMTUzZTcxM2Q4M2FhYWUxYiJ9"}

body:{"networkCode": "BTC", "payload": {"changer": "tb1qhcuul2fcyv5rvr5mc5cy5saz0q5p3kx0gsy3c0", "recipients": [{"address": "tb1q0558s53xchyghw34tqm4x8t2n8swf666nvhffq", "value": "100"}, {"address": "tb1qn0qrq4zfxjc89c773s6k86faym3ugpcje9eras", "value": "200"}, {"address": "tb1qk50y4995th8tffhc90tz7533lygzwz57zxmhtj", "value": "300"}], "utxos": [{"amount": 898357, "scriptPubKey": "0014be39cfa9382328360e9bc5304a43a2782818d8cf", "signers": ["02e8852463021b47fe5214c599e87e431f2eb1219044946bbff397afd0518b85a6"], "txid": "b29e292cca726b7f8d3b13de26db0cca577716218320101bd7af70f01aa8025a", "vout": 1}, {"amount": 100, "scriptPubKey": "0014be39cfa9382328360e9bc5304a43a2782818d8cf", "signers": ["02e8852463021b47fe5214c599e87e431f2eb1219044946bbff397afd0518b85a6"], "txid": "b29e292cca726b7f8d3b13de26db0cca577716218320101bd7af70f01aa8025a", "vout": 0}]}, "type": "TRANSACTION"}


[32mINFO    [0m Common.Httpcore:Httpcore.py:135 2022-12-02 18:29:48.490505 | 
<-----Core Build Response---->
{"balanceChanges":[],"blockTime":"1970-01-01T00:00:00.000Z","createdTime":"2022-12-02T10:29:49.831Z","description":"Custom Excution","estimatedFee":"364","hash":"","id":"1598625478419369985","networkCode":"BTC","requiredSignings":[{"hash":"7088e3686d0bc59c125d173658ec23ae5f8ec5b4f70d055e8feec253aa372533","publicKeys":["02e8852463021b47fe5214c599e87e431f2eb1219044946bbff397afd0518b85a6"],"threshold":1},{"hash":"f03fcb13e552447b3f759502299cff92f6d7f2eda443010f9b9402ee4233ddd8","publicKeys":["02e8852463021b47fe5214c599e87e431f2eb1219044946bbff397afd0518b85a6"],"threshold":1}],"serialized":"01000000025a02a81af070afd71b10208321167757ca0cdb26de133b8d7f6b72ca2c299eb20100000000ffffffff5a02a81af070afd71b10208321167757ca0cdb26de133b8d7f6b72ca2c299eb20000000000ffffffff0464000000000000001600147d28785226c5c88bba355837531d6a99e0e4eb5ac8000000000000001600149bc030544934b072e3de8c3563e93d26e3c407122c01000000000000160014b51e4a94b45dceb4a6f82bd62f5231f910270a9ed5b10d0000000000160014be39cfa9382328360e9bc5304a43a2782818d8cf00000000","status":0,"statusDesc":"BUILDING","updatedTime":"2022-12-02T10:29:49.831Z"}
[32mINFO    [0m Common.Httpcore:Httpcore.py:155 2022-12-02 18:29:48.490505 | 
<-----Core Sign------>
Url:http://54.251.78.181:8888/core/api/transactions/signatures

Headers:{"Content-Type": "application/json", "Authorization": "eyJib2R5IjoiV2ViMyBUb2tlbiBWZXJzaW9uOiAyXG5Ob25jZTogMTU4NTEwMjc5MTQ2NjQ4NzgxMFxuSXNzdWVkIEF0OiBXZWQsIDI2IE9jdCAyMDIyIDAyOjU1OjI5IEdNVFxuRXhwaXJhdGlvbiBUaW1lOiBTYXQsIDIzIE9jdCAyMDMyIDAyOjU1OjI5IEdNVCIsInNpZ25hdHVyZSI6IjB4OTE1NWMyOGM3NjVjZjk1YTBjNjdiZGNhYzExNzIwYTRkNDQ4NDc4YmU5ZDZhNjE3ZWQzNDUzZDU3MDgzZjNjZTA2N2Q5OGUwMGI0YTVhMmJmOTlkY2I5Y2VmNzg5Yjc4OWViNzI5OTk4YzgxYWQzOWFhMTUzZTcxM2Q4M2FhYWUxYiJ9"}

body:{"id": "1598625478419369985", "signatures": [{"hash": "7088e3686d0bc59c125d173658ec23ae5f8ec5b4f70d055e8feec253aa372533", "publicKey": "02e8852463021b47fe5214c599e87e431f2eb1219044946bbff397afd0518b85a6", "signature": "03de6eb9150a82444dbaf0cce25972deb713a3f9d91f9392716e14c2624e2a9431954a075bf2293cb866717fd3acf4658492cb4c30941d071852fd73706247fe01"}, {"hash": "f03fcb13e552447b3f759502299cff92f6d7f2eda443010f9b9402ee4233ddd8", "publicKey": "02e8852463021b47fe5214c599e87e431f2eb1219044946bbff397afd0518b85a6", "signature": "3ccff4a4b06f2ffe96e44aa2fd44f2d0732285d550b59849d151981395f66e285810395a23e4dd35e8c0f019fc8dc9756fcdc6175565bcab9029f458e9f28afb00"}]}


[32mINFO    [0m Common.Httpcore:Httpcore.py:158 2022-12-02 18:29:48.490505 | 
<-----Core Sign Response---->
{"balanceChanges":[],"blockHash":"","blockHeight":"0","blockTime":"1970-01-01T00:00:00.000Z","createdTime":"2022-12-02T10:29:50.000Z","description":"Custom Excution","estimatedFee":"364","fee":"-1","hash":"c034b8b4f00a9e077301b1167ea2d4f99135f374be6887641bc758374ddaa096","id":"1598625478419369985","networkCode":"BTC","serialized":"010000000001025a02a81af070afd71b10208321167757ca0cdb26de133b8d7f6b72ca2c299eb20100000000ffffffff5a02a81af070afd71b10208321167757ca0cdb26de133b8d7f6b72ca2c299eb20000000000ffffffff0464000000000000001600147d28785226c5c88bba355837531d6a99e0e4eb5ac8000000000000001600149bc030544934b072e3de8c3563e93d26e3c407122c01000000000000160014b51e4a94b45dceb4a6f82bd62f5231f910270a9ed5b10d0000000000160014be39cfa9382328360e9bc5304a43a2782818d8cf0247304402203ccff4a4b06f2ffe96e44aa2fd44f2d0732285d550b59849d151981395f66e2802205810395a23e4dd35e8c0f019fc8dc9756fcdc6175565bcab9029f458e9f28afb012102e8852463021b47fe5214c599e87e431f2eb1219044946bbff397afd0518b85a602473044022003de6eb9150a82444dbaf0cce25972deb713a3f9d91f9392716e14c2624e2a94022031954a075bf2293cb866717fd3acf4658492cb4c30941d071852fd73706247fe012102e8852463021b47fe5214c599e87e431f2eb1219044946bbff397afd0518b85a600000000","status":2,"statusDesc":"SIGNED","updatedTime":"2022-12-02T10:29:50.150Z"}
[32mINFO    [0m Common.Httpcore:Httpcore.py:174 2022-12-02 18:29:48.490505 | 
<-----Core Send------>
Url:http://54.251.78.181:8888/core/api/transactions/send/1598625478419369985

Headers:{"Content-Type": "application/json", "Authorization": "eyJib2R5IjoiV2ViMyBUb2tlbiBWZXJzaW9uOiAyXG5Ob25jZTogMTU4NTEwMjc5MTQ2NjQ4NzgxMFxuSXNzdWVkIEF0OiBXZWQsIDI2IE9jdCAyMDIyIDAyOjU1OjI5IEdNVFxuRXhwaXJhdGlvbiBUaW1lOiBTYXQsIDIzIE9jdCAyMDMyIDAyOjU1OjI5IEdNVCIsInNpZ25hdHVyZSI6IjB4OTE1NWMyOGM3NjVjZjk1YTBjNjdiZGNhYzExNzIwYTRkNDQ4NDc4YmU5ZDZhNjE3ZWQzNDUzZDU3MDgzZjNjZTA2N2Q5OGUwMGI0YTVhMmJmOTlkY2I5Y2VmNzg5Yjc4OWViNzI5OTk4YzgxYWQzOWFhMTUzZTcxM2Q4M2FhYWUxYiJ9"}


[32mINFO    [0m Common.Httpcore:Httpcore.py:177 2022-12-02 18:29:48.490505 | 
<-----Core Send Response---->
{"balanceChanges":[],"blockHash":"","blockHeight":"0","blockTime":"2022-12-02T10:29:50.384Z","createdTime":"2022-12-02T10:29:50.000Z","description":"Custom Excution","estimatedFee":"364","fee":"-1","hash":"c034b8b4f00a9e077301b1167ea2d4f99135f374be6887641bc758374ddaa096","id":"1598625478419369985","networkCode":"BTC","serialized":"010000000001025a02a81af070afd71b10208321167757ca0cdb26de133b8d7f6b72ca2c299eb20100000000ffffffff5a02a81af070afd71b10208321167757ca0cdb26de133b8d7f6b72ca2c299eb20000000000ffffffff0464000000000000001600147d28785226c5c88bba355837531d6a99e0e4eb5ac8000000000000001600149bc030544934b072e3de8c3563e93d26e3c407122c01000000000000160014b51e4a94b45dceb4a6f82bd62f5231f910270a9ed5b10d0000000000160014be39cfa9382328360e9bc5304a43a2782818d8cf0247304402203ccff4a4b06f2ffe96e44aa2fd44f2d0732285d550b59849d151981395f66e2802205810395a23e4dd35e8c0f019fc8dc9756fcdc6175565bcab9029f458e9f28afb012102e8852463021b47fe5214c599e87e431f2eb1219044946bbff397afd0518b85a602473044022003de6eb9150a82444dbaf0cce25972deb713a3f9d91f9392716e14c2624e2a94022031954a075bf2293cb866717fd3acf4658492cb4c30941d071852fd73706247fe012102e8852463021b47fe5214c599e87e431f2eb1219044946bbff397afd0518b85a600000000","status":3,"statusDesc":"PENDING","updatedTime":"2022-12-02T10:29:50.384Z"}