[32mINFO    [0m Common.Http:Http.py:425 2022-12-29 18:29:06.156648 | 
<-----Query Holders----->
Url:https://api.dhandho.xyz/vault/proxy/assets/holders/?networkCode=BTC&address=tb1qhcuul2fcyv5rvr5mc5cy5saz0q5p3kx0gsy3c0&symbol=BTC
Headers:{"Content-Type": "application/json", "Authorization": "eyJ0eXAiOiJKV1QiLCJhbGciOiJIUzI1NiJ9.eyJhdWQiOiIxNjAxMDQzOTMwMjg3NDExMjAyIiwiZXhwIjoxNzAyMDg5NjAwLCJpYXQiOjE2NzA1NTM2MDAsInVzZXJJZCI6MTYwMTA0MzkzMDI4NzQxMTIwMn0.fZVc267JNsgy5tB_Wn89l2Zgd3ZgXJfaMg_T9lc3j-o"}


[32mINFO    [0m Common.Http:Http.py:428 2022-12-29 18:29:06.156648 | 
<-----Query Holders Response----->
{"current":1,"list":[{"address":"tb1qhcuul2fcyv5rvr5mc5cy5saz0q5p3kx0gsy3c0","createdTime":"2022-12-12T10:01:45.000Z","id":"1602242291732570114","networkCode":"BTC","quantity":"0.00884196","symbol":"BTC","updatedTime":"2022-12-23T07:02:00.000Z"}],"size":10,"total":1}


[32mINFO    [0m Common.Http:Http.py:265 2022-12-29 18:29:06.156648 | 
<-----Instructions----->
Url:https://api.dhandho.xyz/vault/instructions
Headers:{"Content-Type": "application/json", "Authorization": "eyJ0eXAiOiJKV1QiLCJhbGciOiJIUzI1NiJ9.eyJhdWQiOiIxNjAxMDQzOTMwMjg3NDExMjAyIiwiZXhwIjoxNzAyMDg5NjAwLCJpYXQiOjE2NzA1NTM2MDAsInVzZXJJZCI6MTYwMTA0MzkzMDI4NzQxMTIwMn0.fZVc267JNsgy5tB_Wn89l2Zgd3ZgXJfaMg_T9lc3j-o"}
Body:{"networkCode": "BTC", "type": "transfer", "body": {"from": "tb1qhcuul2fcyv5rvr5mc5cy5saz0q5p3kx0gsy3c0", "to": "tb1qagkvxdz2zq76atvr0rzh8n9lewjmlm25umq0xq", "symbol": "BTC", "amount": "0.000008"}, "transactionParams": {"memo": "qSX9DnRaps"}}


[32mINFO    [0m Common.Http:Http.py:268 2022-12-29 18:29:06.156648 | 
<-----Instructions Response----->
{"_embedded":{"transactions":[{"balanceChanges":[],"blockHash":"","blockHeight":"-1","blockTime":"1970-01-01T00:00:00.000Z","createdTime":"2022-12-29T10:29:09.000Z","description":"","estimatedFee":"187","fee":"-1","hash":"","id":"1608409776405094401","networkCode":"BTC","requiredSignings":[{"hash":"b9aad2c4a3b3ecdc4afe518f1d4b2ed6b24353e3a1eb42d6b7657278ee2c5520","publicKeys":["02e8852463021b47fe5214c599e87e431f2eb1219044946bbff397afd0518b85a6"],"threshold":1}],"serialized":"01000000011cdeed9fd14561a86c9b0042b14b296833ebdf3f2e3a0730bc9d91821efcae2f0100000000ffffffff022003000000000000160014ea2cc3344a103daead8378c573ccbfcba5bfed547f1b000000000000160014be39cfa9382328360e9bc5304a43a2782818d8cf00000000","status":0,"statusDesc":"BUILDING","updatedTime":"2022-12-29T10:29:09.000Z"}]},"body":{"symbol":"BTC","amount":"0.000008","from":"tb1qhcuul2fcyv5rvr5mc5cy5saz0q5p3kx0gsy3c0","to":"tb1qagkvxdz2zq76atvr0rzh8n9lewjmlm25umq0xq"},"createdTime":"2022-12-29T10:29:10.000Z","id":"1608409785757319170","networkCode":"BTC","status":-2,"transactionParams":{"memo":"qSX9DnRaps"},"type":"TRANSFER","updatedTime":"2022-12-29T10:29:10.000Z"}


[32mINFO    [0m Common.Http:Http.py:344 2022-12-29 18:29:06.156648 | 
<-----Sign----->
Url:https://api.dhandho.xyz/vault/transactions/signatures
Headers:{"Content-Type": "application/json", "Authorization": "eyJ0eXAiOiJKV1QiLCJhbGciOiJIUzI1NiJ9.eyJhdWQiOiIxNjAxMDQzOTMwMjg3NDExMjAyIiwiZXhwIjoxNzAyMDg5NjAwLCJpYXQiOjE2NzA1NTM2MDAsInVzZXJJZCI6MTYwMTA0MzkzMDI4NzQxMTIwMn0.fZVc267JNsgy5tB_Wn89l2Zgd3ZgXJfaMg_T9lc3j-o"}
Body:{"id": "1608409776405094401", "signatures": [{"hash": "b9aad2c4a3b3ecdc4afe518f1d4b2ed6b24353e3a1eb42d6b7657278ee2c5520", "publicKey": "02e8852463021b47fe5214c599e87e431f2eb1219044946bbff397afd0518b85a6", "signature": "9e9477489118341e2317a2416f7b88ffef5dc1699e2fd1b04bcc066d46554f9b2993cc050cdca4e8dfa38f2acccac907350e9fca63157c29e964f724e22523bf00"}]}


[32mINFO    [0m Common.Http:Http.py:348 2022-12-29 18:29:06.156648 | 
<-----Sign Response----->
{"balanceChanges":[],"blockHash":"","blockHeight":"-1","blockTime":"1970-01-01T00:00:00.000Z","createdTime":"2022-12-29T10:29:09.000Z","description":"","estimatedFee":"187","fee":"-1","hash":"09df9d0598ae74a824c68d1b594e00f925d77a2335e09fe4f521d0ed5d40bfed","id":"1608409776405094401","networkCode":"BTC","serialized":"010000000001011cdeed9fd14561a86c9b0042b14b296833ebdf3f2e3a0730bc9d91821efcae2f0100000000ffffffff022003000000000000160014ea2cc3344a103daead8378c573ccbfcba5bfed547f1b000000000000160014be39cfa9382328360e9bc5304a43a2782818d8cf024830450221009e9477489118341e2317a2416f7b88ffef5dc1699e2fd1b04bcc066d46554f9b02202993cc050cdca4e8dfa38f2acccac907350e9fca63157c29e964f724e22523bf012102e8852463021b47fe5214c599e87e431f2eb1219044946bbff397afd0518b85a600000000","status":2,"statusDesc":"SIGNED","updatedTime":"2022-12-29T10:29:12.311Z"}


[32mINFO    [0m Common.Http:Http.py:364 2022-12-29 18:29:06.156648 | 
<-----Send----->
Url:https://api.dhandho.xyz/vault/transactions/send/1608409776405094401
Headers:{"Content-Type": "application/json", "Authorization": "eyJ0eXAiOiJKV1QiLCJhbGciOiJIUzI1NiJ9.eyJhdWQiOiIxNjAxMDQzOTMwMjg3NDExMjAyIiwiZXhwIjoxNzAyMDg5NjAwLCJpYXQiOjE2NzA1NTM2MDAsInVzZXJJZCI6MTYwMTA0MzkzMDI4NzQxMTIwMn0.fZVc267JNsgy5tB_Wn89l2Zgd3ZgXJfaMg_T9lc3j-o"}


[32mINFO    [0m Common.Http:Http.py:368 2022-12-29 18:29:06.156648 | 
<-----Send Response----->
{"balanceChanges":[],"blockHash":"","blockHeight":"-1","blockTime":"2022-12-29T10:29:31.224Z","createdTime":"2022-12-29T10:29:09.000Z","description":"","estimatedFee":"187","fee":"-1","hash":"09df9d0598ae74a824c68d1b594e00f925d77a2335e09fe4f521d0ed5d40bfed","id":"1608409776405094401","networkCode":"BTC","serialized":"010000000001011cdeed9fd14561a86c9b0042b14b296833ebdf3f2e3a0730bc9d91821efcae2f0100000000ffffffff022003000000000000160014ea2cc3344a103daead8378c573ccbfcba5bfed547f1b000000000000160014be39cfa9382328360e9bc5304a43a2782818d8cf024830450221009e9477489118341e2317a2416f7b88ffef5dc1699e2fd1b04bcc066d46554f9b02202993cc050cdca4e8dfa38f2acccac907350e9fca63157c29e964f724e22523bf012102e8852463021b47fe5214c599e87e431f2eb1219044946bbff397afd0518b85a600000000","status":3,"statusDesc":"PENDING","updatedTime":"2022-12-29T10:29:31.224Z"}