[32mINFO    [0m Common.Httpcore:Httpcore.py:60 2022-12-21 10:42:05.866559 | 
<-----Core Holders List----->
Url:https://api.dhandho.xyz/assets/holders?networkCode=BTC&symbol=BTC&address=tb1qhcuul2fcyv5rvr5mc5cy5saz0q5p3kx0gsy3c0

Headers:{"Content-Type": "application/json", "Authorization": "eyJib2R5IjoiV2ViMyBUb2tlbiBWZXJzaW9uOiAyXG5Ob25jZTogMTYwMTA0MzkzMDI4NzQxMTIwMlxuSXNzdWVkIEF0OiBGcmksIDkgRGVjIDIwMjIgMDI6Mzk6NTMgR01UXG5FeHBpcmF0aW9uIFRpbWU6IE1vbiwgNiBEZWMgMjAzMiAwMjozOTo1MyBHTVQiLCJzaWduYXR1cmUiOiIweGU1OWE1Nzk4OGNhZWU4NmFmYzA3NzlhOTE4MDA5MDRmNjc3NmUxZGMxYTc5NGE2MjllY2Y5YmI0ZjAyZDllYjcwZDBiMGZiNDAxNjQ4NTc5ZTFiZDkzMmU2NmU0NjdjMzFkMDlmOGNjM2EwOGVjN2U1NGY2ZTJhNTM5ZWVjNTA5MWMifQ=="}
[32mINFO    [0m Common.Httpcore:Httpcore.py:63 2022-12-21 10:42:05.866559 | 
<-----Core Holders Response----->
{"current":1,"list":[{"address":"tb1qhcuul2fcyv5rvr5mc5cy5saz0q5p3kx0gsy3c0","id":"1602242291732570114","networkCode":"BTC","quantity":"0.00888331","symbol":"BTC","updatedTime":"2022-12-19T07:24:00.000Z"}],"size":10,"total":1}
[32mINFO    [0m Common.Httpcore:Httpcore.py:191 2022-12-21 10:42:05.866559 | 
<-----Core Instructions------>
Url:https://api.dhandho.xyz/instructions

Headers:{"Content-Type": "application/json", "Authorization": "eyJib2R5IjoiV2ViMyBUb2tlbiBWZXJzaW9uOiAyXG5Ob25jZTogMTYwMTA0MzkzMDI4NzQxMTIwMlxuSXNzdWVkIEF0OiBGcmksIDkgRGVjIDIwMjIgMDI6Mzk6NTMgR01UXG5FeHBpcmF0aW9uIFRpbWU6IE1vbiwgNiBEZWMgMjAzMiAwMjozOTo1MyBHTVQiLCJzaWduYXR1cmUiOiIweGU1OWE1Nzk4OGNhZWU4NmFmYzA3NzlhOTE4MDA5MDRmNjc3NmUxZGMxYTc5NGE2MjllY2Y5YmI0ZjAyZDllYjcwZDBiMGZiNDAxNjQ4NTc5ZTFiZDkzMmU2NmU0NjdjMzFkMDlmOGNjM2EwOGVjN2U1NGY2ZTJhNTM5ZWVjNTA5MWMifQ=="}

body:{"networkCode": "BTC", "type": "transfer", "body": {"from": "tb1qhcuul2fcyv5rvr5mc5cy5saz0q5p3kx0gsy3c0", "to": "tb1qagkvxdz2zq76atvr0rzh8n9lewjmlm25umq0xq", "symbol": "BTC", "amount": "0.000008"}, "transactionParams": {"memo": "F3kdDYZIfi"}}


[32mINFO    [0m Common.Httpcore:Httpcore.py:194 2022-12-21 10:42:05.866559 | 
<-----Core Instructions Response---->
{"_embedded":{"transactions":[{"balanceChanges":[],"blockHash":"","blockHeight":"-1","blockTime":"1970-01-01T00:00:00.000Z","createdTime":"2022-12-21T02:42:08.000Z","description":"","estimatedFee":"187","fee":"-1","hash":"","id":"1605393148644823042","networkCode":"BTC","requiredSignings":[{"hash":"508382ebcedece4b9f6543ff266c187c1b0ae7f829f3aef2921609b1893a42eb","publicKeys":["02e8852463021b47fe5214c599e87e431f2eb1219044946bbff397afd0518b85a6"],"threshold":1}],"serialized":"010000000154ecd72bdce110ee5f0c668877c283a77eebc068dd2cc192fcd4bb6a5515df720300000000ffffffff022003000000000000160014ea2cc3344a103daead8378c573ccbfcba5bfed54308a0d0000000000160014be39cfa9382328360e9bc5304a43a2782818d8cf00000000","status":0,"statusDesc":"BUILDING","updatedTime":"2022-12-21T02:42:08.000Z"}]},"body":{"amount":"0.000008","from":"tb1qhcuul2fcyv5rvr5mc5cy5saz0q5p3kx0gsy3c0","symbol":"BTC","to":"tb1qagkvxdz2zq76atvr0rzh8n9lewjmlm25umq0xq"},"createdTime":"2022-12-21T02:42:08.000Z","id":"1605393149714477058","networkCode":"BTC","status":-2,"transactionParams":{"memo":"F3kdDYZIfi"},"type":"TRANSFER","updatedTime":"2022-12-21T02:42:08.000Z"}
[32mINFO    [0m Common.Httpcore:Httpcore.py:214 2022-12-21 10:42:05.866559 | 
<-----Core Sign------>
Url:https://api.dhandho.xyz/transactions/signatures

Headers:{"Content-Type": "application/json", "Authorization": "eyJib2R5IjoiV2ViMyBUb2tlbiBWZXJzaW9uOiAyXG5Ob25jZTogMTYwMTA0MzkzMDI4NzQxMTIwMlxuSXNzdWVkIEF0OiBGcmksIDkgRGVjIDIwMjIgMDI6Mzk6NTMgR01UXG5FeHBpcmF0aW9uIFRpbWU6IE1vbiwgNiBEZWMgMjAzMiAwMjozOTo1MyBHTVQiLCJzaWduYXR1cmUiOiIweGU1OWE1Nzk4OGNhZWU4NmFmYzA3NzlhOTE4MDA5MDRmNjc3NmUxZGMxYTc5NGE2MjllY2Y5YmI0ZjAyZDllYjcwZDBiMGZiNDAxNjQ4NTc5ZTFiZDkzMmU2NmU0NjdjMzFkMDlmOGNjM2EwOGVjN2U1NGY2ZTJhNTM5ZWVjNTA5MWMifQ=="}

body:{"id": "1605393148644823042", "signatures": [{"hash": "508382ebcedece4b9f6543ff266c187c1b0ae7f829f3aef2921609b1893a42eb", "publicKey": "02e8852463021b47fe5214c599e87e431f2eb1219044946bbff397afd0518b85a6", "signature": "167d8c0b54d5eb822d2bc2de72b2c5d43b258cb611d73baad723a834ee0a9e080ff85e8b9e732c72df71d6e1a30f9a6f18e84b545a0499506369ddfd166757a101"}]}


[32mINFO    [0m Common.Httpcore:Httpcore.py:217 2022-12-21 10:42:05.866559 | 
<-----Core Sign Response---->
{"balanceChanges":[],"blockHash":"","blockHeight":"-1","blockTime":"1970-01-01T00:00:00.000Z","createdTime":"2022-12-21T02:42:08.000Z","description":"","estimatedFee":"187","fee":"-1","hash":"607ef937b34b3a25307c713e2d110ee6a24dcca4585ccf191ac468e1c275e390","id":"1605393148644823042","networkCode":"BTC","serialized":"0100000000010154ecd72bdce110ee5f0c668877c283a77eebc068dd2cc192fcd4bb6a5515df720300000000ffffffff022003000000000000160014ea2cc3344a103daead8378c573ccbfcba5bfed54308a0d0000000000160014be39cfa9382328360e9bc5304a43a2782818d8cf024730440220167d8c0b54d5eb822d2bc2de72b2c5d43b258cb611d73baad723a834ee0a9e0802200ff85e8b9e732c72df71d6e1a30f9a6f18e84b545a0499506369ddfd166757a1012102e8852463021b47fe5214c599e87e431f2eb1219044946bbff397afd0518b85a600000000","status":2,"statusDesc":"SIGNED","updatedTime":"2022-12-21T02:42:08.844Z"}
[32mINFO    [0m Common.Httpcore:Httpcore.py:233 2022-12-21 10:42:05.866559 | 
<-----Core Send------>
Url:https://api.dhandho.xyz/transactions/send/1605393148644823042

Headers:{"Content-Type": "application/json", "Authorization": "eyJib2R5IjoiV2ViMyBUb2tlbiBWZXJzaW9uOiAyXG5Ob25jZTogMTYwMTA0MzkzMDI4NzQxMTIwMlxuSXNzdWVkIEF0OiBGcmksIDkgRGVjIDIwMjIgMDI6Mzk6NTMgR01UXG5FeHBpcmF0aW9uIFRpbWU6IE1vbiwgNiBEZWMgMjAzMiAwMjozOTo1MyBHTVQiLCJzaWduYXR1cmUiOiIweGU1OWE1Nzk4OGNhZWU4NmFmYzA3NzlhOTE4MDA5MDRmNjc3NmUxZGMxYTc5NGE2MjllY2Y5YmI0ZjAyZDllYjcwZDBiMGZiNDAxNjQ4NTc5ZTFiZDkzMmU2NmU0NjdjMzFkMDlmOGNjM2EwOGVjN2U1NGY2ZTJhNTM5ZWVjNTA5MWMifQ=="}