[32mINFO    [0m Common.Httpcore:Httpcore.py:224 2022-12-02 10:29:33.438174 | 
<-----Query UTXO----->
Url:https://api.bitcore.io/api/BTC/testnet/address/tb1qhcuul2fcyv5rvr5mc5cy5saz0q5p3kx0gsy3c0?unspent=true

Headers:{"Content-Type": "application/json"}


[32mINFO    [0m Common.Httpcore:Httpcore.py:227 2022-12-02 10:29:33.438174 | 
<-----Query UTXO Response----->
[
{"_id":"6385d239d3bfc9e8e120b729","chain":"BTC","network":"testnet","coinbase":false,"mintIndex":1,"spentTxid":"","mintTxid":"96f20d3215de90d2a4722c39fe7eb9599958fc0b19839ee33254f9e779beb0de","mintHeight":2408949,"spentHeight":-2,"address":"tb1qhcuul2fcyv5rvr5mc5cy5saz0q5p3kx0gsy3c0","script":"0014be39cfa9382328360e9bc5304a43a2782818d8cf","value":898949,"confirmations":-1},
{"_id":"6385ac0fd3bfc9e8e17f09de","chain":"BTC","network":"testnet","coinbase":false,"mintIndex":0,"spentTxid":"","mintTxid":"9aa6d0c2e5b677480d08b1f90c989f599ec16342cdee9e1fe48a698030a38eae","mintHeight":2408923,"spentHeight":-2,"address":"tb1qhcuul2fcyv5rvr5mc5cy5saz0q5p3kx0gsy3c0","script":"0014be39cfa9382328360e9bc5304a43a2782818d8cf","value":100,"confirmations":-1}
]
[32mINFO    [0m Common.Httpcore:Httpcore.py:132 2022-12-02 10:29:33.438174 | 
<-----Core Build------>
Url:http://54.251.78.181:8888/core/api/transactions

Headers:{"Content-Type": "application/json", "Authorization": "eyJib2R5IjoiV2ViMyBUb2tlbiBWZXJzaW9uOiAyXG5Ob25jZTogMTU4NTEwMjc5MTQ2NjQ4NzgxMFxuSXNzdWVkIEF0OiBXZWQsIDI2IE9jdCAyMDIyIDAyOjU1OjI5IEdNVFxuRXhwaXJhdGlvbiBUaW1lOiBTYXQsIDIzIE9jdCAyMDMyIDAyOjU1OjI5IEdNVCIsInNpZ25hdHVyZSI6IjB4OTE1NWMyOGM3NjVjZjk1YTBjNjdiZGNhYzExNzIwYTRkNDQ4NDc4YmU5ZDZhNjE3ZWQzNDUzZDU3MDgzZjNjZTA2N2Q5OGUwMGI0YTVhMmJmOTlkY2I5Y2VmNzg5Yjc4OWViNzI5OTk4YzgxYWQzOWFhMTUzZTcxM2Q4M2FhYWUxYiJ9"}

body:{"networkCode": "BTC", "payload": {"changer": "tb1qhcuul2fcyv5rvr5mc5cy5saz0q5p3kx0gsy3c0", "recipients": [{"address": "tb1qhcuul2fcyv5rvr5mc5cy5saz0q5p3kx0gsy3c0", "value": "100"}], "utxos": [{"amount": 898949, "signers": ["02e8852463021b47fe5214c599e87e431f2eb1219044946bbff397afd0518b85a6"], "txid": "96f20d3215de90d2a4722c39fe7eb9599958fc0b19839ee33254f9e779beb0de", "vout": 1}, {"amount": 100, "signers": ["02e8852463021b47fe5214c599e87e431f2eb1219044946bbff397afd0518b85a6"], "txid": "9aa6d0c2e5b677480d08b1f90c989f599ec16342cdee9e1fe48a698030a38eae", "vout": 0}]}, "type": "TRANSACTION"}


[32mINFO    [0m Common.Httpcore:Httpcore.py:135 2022-12-02 10:29:33.438174 | 
<-----Core Build Response---->
{"balanceChanges":[],"blockTime":"1970-01-01T00:00:00.000Z","createdTime":"2022-12-02T02:29:34.793Z","description":"Custom Excution","estimatedFee":"374","hash":"","id":"1598504618756800514","networkCode":"BTC","requiredSignings":[{"hash":"788833392ecbd8249bb443c814310e2e31bad8a4434a38e6042953ceb9ab0689","publicKeys":["02e8852463021b47fe5214c599e87e431f2eb1219044946bbff397afd0518b85a6"],"threshold":1},{"hash":"b8ff1285e033b231c65f58ff75942491d9af3c5cc7c051924266f76cf8e540d7","publicKeys":["02e8852463021b47fe5214c599e87e431f2eb1219044946bbff397afd0518b85a6"],"threshold":1}],"serialized":"0100000002deb0be79e7f95432e39e83190bfc589959b97efe392c72a4d290de15320df2960100000000ffffffffae8ea33080698ae41f9eeecd4263c19e599f980cf9b1080d4877b6e5c2d0a69a0000000000ffffffff026400000000000000160014be39cfa9382328360e9bc5304a43a2782818d8cf0fb60d0000000000160014be39cfa9382328360e9bc5304a43a2782818d8cf00000000","status":0,"statusDesc":"BUILDING","updatedTime":"2022-12-02T02:29:34.793Z"}
[32mINFO    [0m Common.Httpcore:Httpcore.py:155 2022-12-02 10:29:33.438174 | 
<-----Core Sign------>
Url:http://54.251.78.181:8888/core/api/transactions/signatures

Headers:{"Content-Type": "application/json", "Authorization": "eyJib2R5IjoiV2ViMyBUb2tlbiBWZXJzaW9uOiAyXG5Ob25jZTogMTU4NTEwMjc5MTQ2NjQ4NzgxMFxuSXNzdWVkIEF0OiBXZWQsIDI2IE9jdCAyMDIyIDAyOjU1OjI5IEdNVFxuRXhwaXJhdGlvbiBUaW1lOiBTYXQsIDIzIE9jdCAyMDMyIDAyOjU1OjI5IEdNVCIsInNpZ25hdHVyZSI6IjB4OTE1NWMyOGM3NjVjZjk1YTBjNjdiZGNhYzExNzIwYTRkNDQ4NDc4YmU5ZDZhNjE3ZWQzNDUzZDU3MDgzZjNjZTA2N2Q5OGUwMGI0YTVhMmJmOTlkY2I5Y2VmNzg5Yjc4OWViNzI5OTk4YzgxYWQzOWFhMTUzZTcxM2Q4M2FhYWUxYiJ9"}

body:{"id": "1598504618756800514", "signatures": [{"hash": "788833392ecbd8249bb443c814310e2e31bad8a4434a38e6042953ceb9ab0689", "publicKey": "02e8852463021b47fe5214c599e87e431f2eb1219044946bbff397afd0518b85a6", "signature": "6df90c554e7578b0df5db3486b8fc6bb06e4a30f1432042320300b44087b803a5c04e7c5a5b62d674fa48d53c63a6fbc92ae9fe86d0cceb748dff8e43af32fab01"}, {"hash": "b8ff1285e033b231c65f58ff75942491d9af3c5cc7c051924266f76cf8e540d7", "publicKey": "02e8852463021b47fe5214c599e87e431f2eb1219044946bbff397afd0518b85a6", "signature": "5c92d5383fc780ba69d665a08b2a6741f9ba5fab1f526953067228f6faf1125939fb55fb790c18d4650063e691c4640f33a4e50b6776f0e4f71e9282477e2f5c01"}]}


[31m[1mERROR   [0m Common.Httpcore:Httpcore.py:161 2022-12-02 10:29:33.438174 | 
<-----Core Sign Response Error----->{"code":2400000,"message":"INVALID_ARGUMENT: Invalid signatures"}