[32mINFO    [0m Common.Httpcore:Httpcore.py:201 2022-12-05 17:20:04.191293 | 
<-----Relay estimate----->
Url:http://16.163.105.179:18000/api/v2/safes/0x6490C1b13A4576128159576F9d3acadF79e8dd6f/transactions/estimate/

Headers:{"Content-Type": "application/json"}

Body:{"gasToken": "0x0000000000000000000000000000000000000000", "operation": "0", "safe": "0x6490C1b13A4576128159576F9d3acadF79e8dd6f", "to": "0x6490C1b13A4576128159576F9d3acadF79e8dd6f", "data": "0x", "value": "100"}
[32mINFO    [0m Common.Httpcore:Httpcore.py:204 2022-12-05 17:20:04.191293 | 
<-----Relay estimate Response----->
{"safeTxGas":"45006","baseGas":"54900","dataGas":"54900","operationalGas":"0","gasPrice":"35799542485","lastUsedNonce":14,"gasToken":"0x0000000000000000000000000000000000000000","refundReceiver":"0xbA7024EE0273C30a479838DA4Ad31718436b453e"}
[32mINFO    [0m Common.Httpcore:Httpcore.py:132 2022-12-05 17:20:04.191293 | 
<-----Core Build------>
Url:http://54.251.78.181:8888/core/api/transactions

Headers:{"Content-Type": "application/json", "Authorization": "eyJib2R5IjoiV2ViMyBUb2tlbiBWZXJzaW9uOiAyXG5Ob25jZTogMTU4NTEwMjc5MTQ2NjQ4NzgxMFxuSXNzdWVkIEF0OiBXZWQsIDI2IE9jdCAyMDIyIDAyOjU1OjI5IEdNVFxuRXhwaXJhdGlvbiBUaW1lOiBTYXQsIDIzIE9jdCAyMDMyIDAyOjU1OjI5IEdNVCIsInNpZ25hdHVyZSI6IjB4OTE1NWMyOGM3NjVjZjk1YTBjNjdiZGNhYzExNzIwYTRkNDQ4NDc4YmU5ZDZhNjE3ZWQzNDUzZDU3MDgzZjNjZTA2N2Q5OGUwMGI0YTVhMmJmOTlkY2I5Y2VmNzg5Yjc4OWViNzI5OTk4YzgxYWQzOWFhMTUzZTcxM2Q4M2FhYWUxYiJ9"}

body:{"networkCode": "MATIC", "payload": {"from": "0xe525E7cd17f6Dc950492755A089E452fd5d9d44f", "inputRequest": {"to": "0x6490C1b13A4576128159576F9d3acadF79e8dd6f", "value": "0x64"}, "safeInputRequest": {"contract": "0x6490C1b13A4576128159576F9d3acadF79e8dd6f", "participants": ["0244fb46bba2e912f26a73126b89742ed7f521f593ee084953ae008172553a0113", "03c420167aaf4fc7106646b2fe485519e5569ceb1584ae31d62537e349a4e4b5a9"], "refundReceiver": "0xe525E7cd17f6Dc950492755A089E452fd5d9d44f", "gasToken": "0x0000000000000000000000000000000000000000", "baseGas": "54900", "safeTxGas": "45006", "gasPrice": "35799542485", "to": "0x2791Bca1f2de4661ED88A30C99A7a9449Aa84174"}}, "type": "SAFE_TOKEN_TRANSFER_TRANSACTION"}


[32mINFO    [0m Common.Httpcore:Httpcore.py:135 2022-12-05 17:20:04.191293 | 
<-----Core Build Response---->
{"balanceChanges":[],"blockTime":"1970-01-01T00:00:00.000Z","createdTime":"2022-12-05T09:20:08.690Z","description":"Custom Excution","estimatedFee":"","hash":"","id":"1599695103982780417","networkCode":"MATIC","requiredSignings":[{"hash":"6e2aa62b04a867181c0509616544889a0bc794ff4df7f24b7fb3e0457846b335","publicKeys":["0244fb46bba2e912f26a73126b89742ed7f521f593ee084953ae008172553a0113","03c420167aaf4fc7106646b2fe485519e5569ceb1584ae31d62537e349a4e4b5a9"],"threshold":2}],"serialized":"6a7612020000000000000000000000002791bca1f2de4661ed88a30c99a7a9449aa84174000000000000000000000000000000000000000000000000000000000000000000000000000000000000000000000000000000000000000000000000000001400000000000000000000000000000000000000000000000000000000000000000000000000000000000000000000000000000000000000000000000000000afce000000000000000000000000000000000000000000000000000000000000d6740000000000000000000000000000000000000000000000000000000855d1aad50000000000000000000000000000000000000000000000000000000000000000000000000000000000000000e525e7cd17f6dc950492755a089e452fd5d9d44f00000000000000000000000000000000000000000000000000000000000001c00000000000000000000000000000000000000000000000000000000000000044a9059cbb0000000000000000000000006490c1b13a4576128159576f9d3acadf79e8dd6f0000000000000000000000000000000000000000000000000000000000000064000000000000000000000000000000000000000000000000000000000000000000000000000000000000000000000000000000000000000000000000","status":0,"statusDesc":"BUILDING","updatedTime":"2022-12-05T09:20:08.690Z"}
[32mINFO    [0m Common.Httpcore:Httpcore.py:155 2022-12-05 17:20:04.191293 | 
<-----Core Sign------>
Url:http://54.251.78.181:8888/core/api/transactions/signatures

Headers:{"Content-Type": "application/json", "Authorization": "eyJib2R5IjoiV2ViMyBUb2tlbiBWZXJzaW9uOiAyXG5Ob25jZTogMTU4NTEwMjc5MTQ2NjQ4NzgxMFxuSXNzdWVkIEF0OiBXZWQsIDI2IE9jdCAyMDIyIDAyOjU1OjI5IEdNVFxuRXhwaXJhdGlvbiBUaW1lOiBTYXQsIDIzIE9jdCAyMDMyIDAyOjU1OjI5IEdNVCIsInNpZ25hdHVyZSI6IjB4OTE1NWMyOGM3NjVjZjk1YTBjNjdiZGNhYzExNzIwYTRkNDQ4NDc4YmU5ZDZhNjE3ZWQzNDUzZDU3MDgzZjNjZTA2N2Q5OGUwMGI0YTVhMmJmOTlkY2I5Y2VmNzg5Yjc4OWViNzI5OTk4YzgxYWQzOWFhMTUzZTcxM2Q4M2FhYWUxYiJ9"}

body:{"id": "1599695103982780417", "signatures": [{"hash": "6e2aa62b04a867181c0509616544889a0bc794ff4df7f24b7fb3e0457846b335", "publicKey": "0244fb46bba2e912f26a73126b89742ed7f521f593ee084953ae008172553a0113", "signature": "00710fd066ee19d35a4c2cab2cc4bdc4eb35f7ca5de09379a8a1bf9fa18cadc8303024d4264e848121e87067ad956cc1ccc74cde0ccf3a4f39e0875dc9fdf11c01"}, {"hash": "6e2aa62b04a867181c0509616544889a0bc794ff4df7f24b7fb3e0457846b335", "publicKey": "03c420167aaf4fc7106646b2fe485519e5569ceb1584ae31d62537e349a4e4b5a9", "signature": "8cc91ba28442227ba60430110d6acd57cb50d2327305202f611966ffee27a37b3d9ed6ee37355f825a72f4b53db0b2c616dc11f5876278b384273025d8c1031e01"}]}


[32mINFO    [0m Common.Httpcore:Httpcore.py:158 2022-12-05 17:20:04.191293 | 
<-----Core Sign Response---->
{"balanceChanges":[],"blockHash":"","blockHeight":"0","blockTime":"1970-01-01T00:00:00.000Z","createdTime":"2022-12-05T09:20:09.000Z","description":"Contract Execution","estimatedFee":"3407692125647232","fee":"-1","hash":"","id":"1599695103982780417","networkCode":"MATIC","requiredSignings":[{"hash":"daead8b2f96828a5ce8a2a895ca1187100160dc2d3966562fd663e5dfd8a7c3f","threshold":1}],"serialized":"02f902b48189408506fcdc1130850724b1d51a8301bb88946490c1b13a4576128159576f9d3acadf79e8dd6f80b902846a7612020000000000000000000000002791bca1f2de4661ed88a30c99a7a9449aa84174000000000000000000000000000000000000000000000000000000000000000000000000000000000000000000000000000000000000000000000000000001400000000000000000000000000000000000000000000000000000000000000000000000000000000000000000000000000000000000000000000000000000afce000000000000000000000000000000000000000000000000000000000000d6740000000000000000000000000000000000000000000000000000000855d1aad50000000000000000000000000000000000000000000000000000000000000000000000000000000000000000e525e7cd17f6dc950492755a089e452fd5d9d44f00000000000000000000000000000000000000000000000000000000000001c00000000000000000000000000000000000000000000000000000000000000044a9059cbb0000000000000000000000006490c1b13a4576128159576f9d3acadf79e8dd6f00000000000000000000000000000000000000000000000000000000000000640000000000000000000000000000000000000000000000000000000000000000000000000000000000000000000000000000000000000000000000828cc91ba28442227ba60430110d6acd57cb50d2327305202f611966ffee27a37b3d9ed6ee37355f825a72f4b53db0b2c616dc11f5876278b384273025d8c1031e1c00710fd066ee19d35a4c2cab2cc4bdc4eb35f7ca5de09379a8a1bf9fa18cadc8303024d4264e848121e87067ad956cc1ccc74cde0ccf3a4f39e0875dc9fdf11c1c000000000000000000000000000000000000000000000000000000000000c0808080","status":0,"statusDesc":"BUILDING","updatedTime":"2022-12-05T09:20:10.478Z"}
[32mINFO    [0m Common.Httpcore:Httpcore.py:155 2022-12-05 17:20:04.191293 | 
<-----Core Sign------>
Url:http://54.251.78.181:8888/core/api/transactions/signatures

Headers:{"Content-Type": "application/json", "Authorization": "eyJib2R5IjoiV2ViMyBUb2tlbiBWZXJzaW9uOiAyXG5Ob25jZTogMTU4NTEwMjc5MTQ2NjQ4NzgxMFxuSXNzdWVkIEF0OiBXZWQsIDI2IE9jdCAyMDIyIDAyOjU1OjI5IEdNVFxuRXhwaXJhdGlvbiBUaW1lOiBTYXQsIDIzIE9jdCAyMDMyIDAyOjU1OjI5IEdNVCIsInNpZ25hdHVyZSI6IjB4OTE1NWMyOGM3NjVjZjk1YTBjNjdiZGNhYzExNzIwYTRkNDQ4NDc4YmU5ZDZhNjE3ZWQzNDUzZDU3MDgzZjNjZTA2N2Q5OGUwMGI0YTVhMmJmOTlkY2I5Y2VmNzg5Yjc4OWViNzI5OTk4YzgxYWQzOWFhMTUzZTcxM2Q4M2FhYWUxYiJ9"}

body:{"id": "1599695103982780417", "signatures": [{"hash": "daead8b2f96828a5ce8a2a895ca1187100160dc2d3966562fd663e5dfd8a7c3f", "publicKey": "0244fb46bba2e912f26a73126b89742ed7f521f593ee084953ae008172553a0113", "signature": "73811c5ca856886362f4269ea3e2b081762c1806fb555739394da20e51eee09b1571fe709fe1df22a80e4810e249646776baa26b52324506a8e44d51b2e3204000"}]}


[32mINFO    [0m Common.Httpcore:Httpcore.py:158 2022-12-05 17:20:04.191293 | 
<-----Core Sign Response---->
{"balanceChanges":[],"blockHash":"","blockHeight":"0","blockTime":"1970-01-01T00:00:00.000Z","createdTime":"2022-12-05T09:20:09.000Z","description":"Contract Execution","estimatedFee":"3407692125647232","fee":"-1","hash":"0x9c5187b04858ecb1a7bb821251f8fe1a421c5f77f6cefd488cd05fe6d3074eb5","id":"1599695103982780417","networkCode":"MATIC","serialized":"02f902f48189408506fcdc1130850724b1d51a8301bb88946490c1b13a4576128159576f9d3acadf79e8dd6f80b902846a7612020000000000000000000000002791bca1f2de4661ed88a30c99a7a9449aa84174000000000000000000000000000000000000000000000000000000000000000000000000000000000000000000000000000000000000000000000000000001400000000000000000000000000000000000000000000000000000000000000000000000000000000000000000000000000000000000000000000000000000afce000000000000000000000000000000000000000000000000000000000000d6740000000000000000000000000000000000000000000000000000000855d1aad50000000000000000000000000000000000000000000000000000000000000000000000000000000000000000e525e7cd17f6dc950492755a089e452fd5d9d44f00000000000000000000000000000000000000000000000000000000000001c00000000000000000000000000000000000000000000000000000000000000044a9059cbb0000000000000000000000006490c1b13a4576128159576f9d3acadf79e8dd6f00000000000000000000000000000000000000000000000000000000000000640000000000000000000000000000000000000000000000000000000000000000000000000000000000000000000000000000000000000000000000828cc91ba28442227ba60430110d6acd57cb50d2327305202f611966ffee27a37b3d9ed6ee37355f825a72f4b53db0b2c616dc11f5876278b384273025d8c1031e1c00710fd066ee19d35a4c2cab2cc4bdc4eb35f7ca5de09379a8a1bf9fa18cadc8303024d4264e848121e87067ad956cc1ccc74cde0ccf3a4f39e0875dc9fdf11c1c000000000000000000000000000000000000000000000000000000000000c080a073811c5ca856886362f4269ea3e2b081762c1806fb555739394da20e51eee09ba01571fe709fe1df22a80e4810e249646776baa26b52324506a8e44d51b2e32040","status":2,"statusDesc":"SIGNED","updatedTime":"2022-12-05T09:20:10.732Z"}
[32mINFO    [0m Common.Httpcore:Httpcore.py:174 2022-12-05 17:20:04.191293 | 
<-----Core Send------>
Url:http://54.251.78.181:8888/core/api/transactions/send/1599695103982780417

Headers:{"Content-Type": "application/json", "Authorization": "eyJib2R5IjoiV2ViMyBUb2tlbiBWZXJzaW9uOiAyXG5Ob25jZTogMTU4NTEwMjc5MTQ2NjQ4NzgxMFxuSXNzdWVkIEF0OiBXZWQsIDI2IE9jdCAyMDIyIDAyOjU1OjI5IEdNVFxuRXhwaXJhdGlvbiBUaW1lOiBTYXQsIDIzIE9jdCAyMDMyIDAyOjU1OjI5IEdNVCIsInNpZ25hdHVyZSI6IjB4OTE1NWMyOGM3NjVjZjk1YTBjNjdiZGNhYzExNzIwYTRkNDQ4NDc4YmU5ZDZhNjE3ZWQzNDUzZDU3MDgzZjNjZTA2N2Q5OGUwMGI0YTVhMmJmOTlkY2I5Y2VmNzg5Yjc4OWViNzI5OTk4YzgxYWQzOWFhMTUzZTcxM2Q4M2FhYWUxYiJ9"}


[32mINFO    [0m Common.Httpcore:Httpcore.py:177 2022-12-05 17:20:04.191293 | 
<-----Core Send Response---->
{"balanceChanges":[],"blockHash":"","blockHeight":"0","blockTime":"2022-12-05T09:20:11.245Z","createdTime":"2022-12-05T09:20:09.000Z","description":"Contract Execution","estimatedFee":"3407692125647232","fee":"-1","hash":"0x9c5187b04858ecb1a7bb821251f8fe1a421c5f77f6cefd488cd05fe6d3074eb5","id":"1599695103982780417","networkCode":"MATIC","serialized":"02f902f48189408506fcdc1130850724b1d51a8301bb88946490c1b13a4576128159576f9d3acadf79e8dd6f80b902846a7612020000000000000000000000002791bca1f2de4661ed88a30c99a7a9449aa84174000000000000000000000000000000000000000000000000000000000000000000000000000000000000000000000000000000000000000000000000000001400000000000000000000000000000000000000000000000000000000000000000000000000000000000000000000000000000000000000000000000000000afce000000000000000000000000000000000000000000000000000000000000d6740000000000000000000000000000000000000000000000000000000855d1aad50000000000000000000000000000000000000000000000000000000000000000000000000000000000000000e525e7cd17f6dc950492755a089e452fd5d9d44f00000000000000000000000000000000000000000000000000000000000001c00000000000000000000000000000000000000000000000000000000000000044a9059cbb0000000000000000000000006490c1b13a4576128159576f9d3acadf79e8dd6f00000000000000000000000000000000000000000000000000000000000000640000000000000000000000000000000000000000000000000000000000000000000000000000000000000000000000000000000000000000000000828cc91ba28442227ba60430110d6acd57cb50d2327305202f611966ffee27a37b3d9ed6ee37355f825a72f4b53db0b2c616dc11f5876278b384273025d8c1031e1c00710fd066ee19d35a4c2cab2cc4bdc4eb35f7ca5de09379a8a1bf9fa18cadc8303024d4264e848121e87067ad956cc1ccc74cde0ccf3a4f39e0875dc9fdf11c1c000000000000000000000000000000000000000000000000000000000000c080a073811c5ca856886362f4269ea3e2b081762c1806fb555739394da20e51eee09ba01571fe709fe1df22a80e4810e249646776baa26b52324506a8e44d51b2e32040","status":3,"statusDesc":"PENDING","updatedTime":"2022-12-05T09:20:11.245Z"}