[32mINFO    [0m Common.Http:Http.py:93 2022-12-19 15:00:05.989079 | 
<-----Query Accounts----->
Url:http://54.251.78.181:8888/escrow/api//accounts?networkCode=&address=tb1q7ymdm79ryug7vttw4jrf87pdcmn67n3p9rgc5x&type=
Headers:{"Content-Type": "application/json", "Authorization": "eyJ0eXAiOiJKV1QiLCJhbGciOiJIUzI1NiJ9.eyJhdWQiOiIxNjAxMDQzOTMwMjg3NDExMjAyIiwiZXhwIjoxNzAyMDg5NjAwLCJpYXQiOjE2NzA1NTM2MDAsInVzZXJJZCI6MTYwMTA0MzkzMDI4NzQxMTIwMn0.fZVc267JNsgy5tB_Wn89l2Zgd3ZgXJfaMg_T9lc3j-o"}


[32mINFO    [0m Common.Http:Http.py:96 2022-12-19 15:00:05.989079 | 
<-----Query Accounts Response----->
{"current":1,"list":[{"address":"tb1q7ymdm79ryug7vttw4jrf87pdcmn67n3p9rgc5x","createdTime":"2022-12-12T07:16:00.000Z","finalized":true,"id":"1602200578745896961","name":"custodial","networkCode":"BTC","publicKeys":[{"source":"custodial","type":"secp256k1","value":"03fc4bdc2e6a1337c9e0dfbb888b4e7178cd1746ee789477a42695d971afd8d679"}],"status":"enable","threshold":1,"type":"custodial","updatedTime":"2022-12-12T07:21:58.000Z"}],"size":10,"total":1}


[32mINFO    [0m Common.Httpcore:Httpcore.py:340 2022-12-19 15:00:05.989079 | 
<-----Query UTXO----->
Url:https://api.bitcore.io/api/BTC/testnet/address/tb1q7ymdm79ryug7vttw4jrf87pdcmn67n3p9rgc5x?unspent=true

Headers:{"Content-Type": "application/json"}


[32mINFO    [0m Common.Httpcore:Httpcore.py:343 2022-12-19 15:00:05.989079 | 
<-----Query UTXO Response----->
[
{"_id":"63a004cdd3bfc9e8e1d2c0c3","chain":"BTC","network":"testnet","coinbase":false,"mintIndex":1,"spentTxid":"","mintTxid":"2db878a672a4a5b8473bc4eff08c0e8f0d9ae648f4d464bde2374127670b1a4b","mintHeight":2411858,"spentHeight":-2,"address":"tb1q7ymdm79ryug7vttw4jrf87pdcmn67n3p9rgc5x","script":"0014f136ddf8a32711e62d6eac8693f82dc6e7af4e21","value":1530161,"confirmations":-1}
]
[32mINFO    [0m Common.Http:Http.py:283 2022-12-19 15:00:05.989079 | 
<-----Transactions----->
Url:http://54.251.78.181:8888/escrow/api//transactions
Headers:{"Content-Type": "application/json", "Authorization": "eyJ0eXAiOiJKV1QiLCJhbGciOiJIUzI1NiJ9.eyJhdWQiOiIxNjAxMDQzOTMwMjg3NDExMjAyIiwiZXhwIjoxNzAyMDg5NjAwLCJpYXQiOjE2NzA1NTM2MDAsInVzZXJJZCI6MTYwMTA0MzkzMDI4NzQxMTIwMn0.fZVc267JNsgy5tB_Wn89l2Zgd3ZgXJfaMg_T9lc3j-o"}
Body:{"networkCode": "BTC", "payload": {"changer": "tb1q7ymdm79ryug7vttw4jrf87pdcmn67n3p9rgc5x", "recipients": [{"address": "tb1qhcuul2fcyv5rvr5mc5cy5saz0q5p3kx0gsy3c0", "value": "100"}], "utxos": [{"amount": 1530161, "scriptPubKey": "0014f136ddf8a32711e62d6eac8693f82dc6e7af4e21", "signers": ["03fc4bdc2e6a1337c9e0dfbb888b4e7178cd1746ee789477a42695d971afd8d679"], "txid": "2db878a672a4a5b8473bc4eff08c0e8f0d9ae648f4d464bde2374127670b1a4b", "vout": 1}]}, "type": "TRANSACTION"}


[32mINFO    [0m Common.Http:Http.py:286 2022-12-19 15:00:05.989079 | 
<-----Transactions Response----->
{"balanceChanges":[],"blockHash":"","blockHeight":"-1","blockTime":"1970-01-01T00:00:00.000Z","createdTime":"2022-12-19T07:00:08.000Z","description":"","estimatedFee":"187","fee":"-1","hash":"868c6450b25a7dea54f3ca7dc7d8f852d92b50b23f24932314d1d224277afec9","id":"1604733299116396546","networkCode":"BTC","serialized":"010000000001014b1a0b67274137e2bd64d4f448e69a0d8f0e8cf0efc43b47b8a5a472a678b82d0100000000ffffffff026400000000000000160014be39cfa9382328360e9bc5304a43a2782818d8cf1258170000000000160014f136ddf8a32711e62d6eac8693f82dc6e7af4e2102473044022057f611bcf6518921c539abd4a9f7c2fec6c30d18b1ef0ca2d49ea278fecc1aa4022039423a65404ab6741b672cfdaf71f12714140aead82d8da5f652411ec2be75c6012103fc4bdc2e6a1337c9e0dfbb888b4e7178cd1746ee789477a42695d971afd8d67900000000","status":2,"statusDesc":"SIGNED","updatedTime":"2022-12-19T07:00:10.375Z"}


[32mINFO    [0m Common.Http:Http.py:364 2022-12-19 15:00:05.989079 | 
<-----Send----->
Url:http://54.251.78.181:8888/escrow/api//transactions/send/1604733299116396546
Headers:{"Content-Type": "application/json", "Authorization": "eyJ0eXAiOiJKV1QiLCJhbGciOiJIUzI1NiJ9.eyJhdWQiOiIxNjAxMDQzOTMwMjg3NDExMjAyIiwiZXhwIjoxNzAyMDg5NjAwLCJpYXQiOjE2NzA1NTM2MDAsInVzZXJJZCI6MTYwMTA0MzkzMDI4NzQxMTIwMn0.fZVc267JNsgy5tB_Wn89l2Zgd3ZgXJfaMg_T9lc3j-o"}


[32mINFO    [0m Common.Http:Http.py:368 2022-12-19 15:00:05.989079 | 
<-----Send Response----->
{"balanceChanges":[],"blockHash":"","blockHeight":"-1","blockTime":"2022-12-19T07:00:10.692Z","createdTime":"2022-12-19T07:00:08.000Z","description":"","estimatedFee":"187","fee":"-1","hash":"868c6450b25a7dea54f3ca7dc7d8f852d92b50b23f24932314d1d224277afec9","id":"1604733299116396546","networkCode":"BTC","serialized":"010000000001014b1a0b67274137e2bd64d4f448e69a0d8f0e8cf0efc43b47b8a5a472a678b82d0100000000ffffffff026400000000000000160014be39cfa9382328360e9bc5304a43a2782818d8cf1258170000000000160014f136ddf8a32711e62d6eac8693f82dc6e7af4e2102473044022057f611bcf6518921c539abd4a9f7c2fec6c30d18b1ef0ca2d49ea278fecc1aa4022039423a65404ab6741b672cfdaf71f12714140aead82d8da5f652411ec2be75c6012103fc4bdc2e6a1337c9e0dfbb888b4e7178cd1746ee789477a42695d971afd8d67900000000","status":3,"statusDesc":"PENDING","updatedTime":"2022-12-19T07:00:10.692Z"}