[32mINFO    [0m Common.Http:Http.py:198 2022-11-03 17:39:45.755279 | 
<-----Holders----->
Url:https://api.cryptoless.io/cryptocurrencies/holders?address=0x1037477a2e863DA6f242ee06E106E8116857bF6E&networkCode=MATIC&symbol=MATIC

Headers:{"Content-Type": "application/json", "Authorization": "eyJib2R5IjoiV2ViMyBUb2tlbiBWZXJzaW9uOiAyXG5Ob25jZTogMTU4NTEwMjc5MTQ2NjQ4NzgxMFxuSXNzdWVkIEF0OiBXZWQsIDI2IE9jdCAyMDIyIDAyOjU1OjI5IEdNVFxuRXhwaXJhdGlvbiBUaW1lOiBTYXQsIDIzIE9jdCAyMDMyIDAyOjU1OjI5IEdNVCIsInNpZ25hdHVyZSI6IjB4OTE1NWMyOGM3NjVjZjk1YTBjNjdiZGNhYzExNzIwYTRkNDQ4NDc4YmU5ZDZhNjE3ZWQzNDUzZDU3MDgzZjNjZTA2N2Q5OGUwMGI0YTVhMmJmOTlkY2I5Y2VmNzg5Yjc4OWViNzI5OTk4YzgxYWQzOWFhMTUzZTcxM2Q4M2FhYWUxYiJ9"}
[32mINFO    [0m Common.Http:Http.py:201 2022-11-03 17:39:45.755279 | 
<-----Query Holders Response----->
[{"address":"0x1037477a2e863DA6f242ee06E106E8116857bF6E","createdTime":"2022-10-27T09:27:07.000Z","id":"1585563731722973186","networkCode":"MATIC","quantity":"0.1","symbol":"MATIC","updatedTime":"2022-10-27T09:27:07.000Z"}]
[32mINFO    [0m Common.Http:Http.py:288 2022-11-03 17:39:45.755279 | 
<-----Instructions----->
Url:https://api.cryptoless.io/vault/instructions

Headers:{"Content-Type": "application/json", "Authorization": "eyJ0eXAiOiJKV1QiLCJhbGciOiJIUzI1NiJ9.eyJhdWQiOiIxNTg1MTAyNzkxNDY2NDg3ODEwIiwiZXhwIjoxNjk4Mjg4OTM1LCJpYXQiOjE2NjY3NTI5MzUsInVzZXJJZCI6MTU4NTEwMjc5MTQ2NjQ4NzgxMH0.4o43r1upI2Qzcs46wf3gqb2Kq6kq0I7qGST6qPspfjY"}

Body:{"body": {"from": "0x1037477a2e863DA6f242ee06E106E8116857bF6E", "to": "0xDBA67bAa3CA1e89a2BDf0fEeE4592595b130888A", "symbol": "MATIC", "amount": "0.0000008", "contractNonce": 0}, "networkCode": "MATIC", "type": "transfer", "definiteSignerPublicKeys": [], "transactionParams": {"memo": "qdGRjeV9sm"}}
[32mINFO    [0m Common.Http:Http.py:291 2022-11-03 17:39:45.755279 | 
<-----Instructions Response----->
{"_embedded":{"transactions":[{"balanceChanges":[],"blockHash":"","blockHeight":"0","blockTime":"2022-11-03T09:39:49.000Z","createdTime":"2022-11-03T09:39:49.000Z","description":"Custom Excution","estimatedFee":"-1","fee":"-1","hash":"","id":"1588103637636689922","networkCode":"MATIC","requiredSignings":[{"hash":"979c23475f0822a617ddc6a666abf0460ddbba5e17c87a4ebb54bf6ed4b38f90","publicKeys":["0244fb46bba2e912f26a73126b89742ed7f521f593ee084953ae008172553a0113"],"threshold":1}],"serialized":"6a761202000000000000000000000000dba67baa3ca1e89a2bdf0feee4592595b130888a000000000000000000000000000000000000000000000000000000ba43b740000000000000000000000000000000000000000000000000000000000000000140000000000000000000000000000000000000000000000000000000000000000000000000000000000000000000000000000000000000000000000000000000000000000000000000000000000000000000000000000000000000000000000000000000000000000000000000000000000000000000000000000000000000000000000000000000000000000000000000000000000000000000000000000000000000000000000000000000000000000000000000000000000000000000000000000000000000000000000000000000000000000000000000000000000000016000000000000000000000000000000000000000000000000000000000000000000000000000000000000000000000000000000000000000000000000000000000","status":"BUILDING","updatedTime":"2022-11-03T09:39:49.000Z"}]},"body":{"symbol":"MATIC","amount":"0.0000008","from":"0x1037477a2e863DA6f242ee06E106E8116857bF6E","to":"0xDBA67bAa3CA1e89a2BDf0fEeE4592595b130888A"},"createdTime":"2022-11-03T09:39:49.000Z","id":"1588103642556596225","networkCode":"MATIC","status":-2,"transactionParams":{"memo":"qdGRjeV9sm"},"type":"TRANSFER","updatedTime":"2022-11-03T09:39:49.000Z"}
[32mINFO    [0m Common.Http:Http.py:456 2022-11-03 17:39:45.755279 | 
<-----Sign----->
Url:https://api.cryptoless.io/vault/transactions/1588103637636689922/signatures

Headers:{"Content-Type": "application/json", "Authorization": "eyJ0eXAiOiJKV1QiLCJhbGciOiJIUzI1NiJ9.eyJhdWQiOiIxNTg1MTAyNzkxNDY2NDg3ODEwIiwiZXhwIjoxNjk4Mjg4OTM1LCJpYXQiOjE2NjY3NTI5MzUsInVzZXJJZCI6MTU4NTEwMjc5MTQ2NjQ4NzgxMH0.4o43r1upI2Qzcs46wf3gqb2Kq6kq0I7qGST6qPspfjY"}

Body:{"signatures": [{"hash": "979c23475f0822a617ddc6a666abf0460ddbba5e17c87a4ebb54bf6ed4b38f90", "publicKey": "0244fb46bba2e912f26a73126b89742ed7f521f593ee084953ae008172553a0113", "signature": "bce10a2d7b7b26f4ba6d96e0fc1eaf62160396846bdbd0e46b3fed5ab7fa13fc2c1d6caee5bb5c8619d0b392db60661edd07809803b5fb7d904cfc684d68140f00"}], "serialized": "6a761202000000000000000000000000dba67baa3ca1e89a2bdf0feee4592595b130888a000000000000000000000000000000000000000000000000000000ba43b740000000000000000000000000000000000000000000000000000000000000000140000000000000000000000000000000000000000000000000000000000000000000000000000000000000000000000000000000000000000000000000000000000000000000000000000000000000000000000000000000000000000000000000000000000000000000000000000000000000000000000000000000000000000000000000000000000000000000000000000000000000000000000000000000000000000000000000000000000000000000000000000000000000000000000000000000000000000000000000000000000000000000000000000000000000016000000000000000000000000000000000000000000000000000000000000000000000000000000000000000000000000000000000000000000000000000000000"}
[32mINFO    [0m Common.Http:Http.py:460 2022-11-03 17:39:45.755279 | 
<-----Sign Response----->
{"balanceChanges":[],"blockHash":"","blockHeight":"0","blockTime":"2022-11-03T09:39:55.163Z","createdTime":"2022-11-03T09:39:49.000Z","description":"Contract Execution","estimatedFee":"2619016001168290","fee":"-1","hash":"0x5096040b784f4abd0dd2b8dcc025e284593f53aca6fc60057a89fd1cfb77a077","id":"1588103637636689922","networkCode":"MATIC","serialized":"02f90296818982015285073ee8f7cf8514f1b2174d830148be941037477a2e863da6f242ee06e106e8116857bf6e80b902246a761202000000000000000000000000dba67baa3ca1e89a2bdf0feee4592595b130888a000000000000000000000000000000000000000000000000000000ba43b740000000000000000000000000000000000000000000000000000000000000000140000000000000000000000000000000000000000000000000000000000000000000000000000000000000000000000000000000000000000000000000000000000000000000000000000000000000000000000000000000000000000000000000000000000000000000000000000000000000000000000000000000000000000000000000000000000000000000000000000000000000000000000000000000000000000000000000000000000000000000000000000000000000000000000000000000000000000000000000000000000000000000000000000000000000016000000000000000000000000000000000000000000000000000000000000000000000000000000000000000000000000000000000000000000000000000000082883e6bb457e62cb57bd8408c8d4e243211520a32e75039fd8bd89eb7c8cda3d27dbaa5d6da0919b4ceaf734eef8c13410365c4adf9427270b046506c736c719a1bbce10a2d7b7b26f4ba6d96e0fc1eaf62160396846bdbd0e46b3fed5ab7fa13fc2c1d6caee5bb5c8619d0b392db60661edd07809803b5fb7d904cfc684d68140f1b000000000000000000000000000000000000000000000000000000000000c080a0d25c422cad4a7d3c5682826e016fcde3b8de92174241b2f9e977d83b44b2def5a0067ad705912433cef037eef5891848fc2c60b0e9b3faa5a222f550037b81cf9f","status":"PENDING","updatedTime":"2022-11-03T09:39:55.163Z"}