[32mINFO    [0m Common.Httpcore:Httpcore.py:60 2022-12-21 11:33:13.825726 | 
<-----Core Holders List----->
Url:https://api.dhandho.xyz/assets/holders?networkCode=BTC&symbol=BTC&address=tb1q4t8jtp4fwjg4spfjh7ux5ckhrallj652kwrj48gcvd0rt5g9ea3q4vlm33

Headers:{"Content-Type": "application/json", "Authorization": "eyJib2R5IjoiV2ViMyBUb2tlbiBWZXJzaW9uOiAyXG5Ob25jZTogMTYwMTA0MzkzMDI4NzQxMTIwMlxuSXNzdWVkIEF0OiBGcmksIDkgRGVjIDIwMjIgMDI6Mzk6NTMgR01UXG5FeHBpcmF0aW9uIFRpbWU6IE1vbiwgNiBEZWMgMjAzMiAwMjozOTo1MyBHTVQiLCJzaWduYXR1cmUiOiIweGU1OWE1Nzk4OGNhZWU4NmFmYzA3NzlhOTE4MDA5MDRmNjc3NmUxZGMxYTc5NGE2MjllY2Y5YmI0ZjAyZDllYjcwZDBiMGZiNDAxNjQ4NTc5ZTFiZDkzMmU2NmU0NjdjMzFkMDlmOGNjM2EwOGVjN2U1NGY2ZTJhNTM5ZWVjNTA5MWMifQ=="}
[32mINFO    [0m Common.Httpcore:Httpcore.py:63 2022-12-21 11:33:13.825726 | 
<-----Core Holders Response----->
{"current":1,"list":[{"address":"tb1q4t8jtp4fwjg4spfjh7ux5ckhrallj652kwrj48gcvd0rt5g9ea3q4vlm33","id":"1603217983278403585","networkCode":"BTC","quantity":"0.00098128","symbol":"BTC","updatedTime":"2022-12-19T07:24:00.000Z"}],"size":10,"total":1}
[32mINFO    [0m Common.Httpcore:Httpcore.py:190 2022-12-21 11:33:13.825726 | 
<-----Core Instructions------>
Url:https://api.dhandho.xyz/instructions

Headers:{"Content-Type": "application/json", "Authorization": "eyJib2R5IjoiV2ViMyBUb2tlbiBWZXJzaW9uOiAyXG5Ob25jZTogMTYwMTA0MzkzMDI4NzQxMTIwMlxuSXNzdWVkIEF0OiBGcmksIDkgRGVjIDIwMjIgMDI6Mzk6NTMgR01UXG5FeHBpcmF0aW9uIFRpbWU6IE1vbiwgNiBEZWMgMjAzMiAwMjozOTo1MyBHTVQiLCJzaWduYXR1cmUiOiIweGU1OWE1Nzk4OGNhZWU4NmFmYzA3NzlhOTE4MDA5MDRmNjc3NmUxZGMxYTc5NGE2MjllY2Y5YmI0ZjAyZDllYjcwZDBiMGZiNDAxNjQ4NTc5ZTFiZDkzMmU2NmU0NjdjMzFkMDlmOGNjM2EwOGVjN2U1NGY2ZTJhNTM5ZWVjNTA5MWMifQ=="}

body:{"networkCode": "BTC", "type": "transfer", "body": {"from": "tb1q4t8jtp4fwjg4spfjh7ux5ckhrallj652kwrj48gcvd0rt5g9ea3q4vlm33", "to": "tb1q4t8jtp4fwjg4spfjh7ux5ckhrallj652kwrj48gcvd0rt5g9ea3q4vlm33", "symbol": "BTC", "amount": "0.0000001"}, "transactionParams": {"memo": "tSP7bleKqx"}}


[32mINFO    [0m Common.Httpcore:Httpcore.py:193 2022-12-21 11:33:13.825726 | 
<-----Core Instructions Response---->
{"_embedded":{"transactions":[{"balanceChanges":[],"blockHash":"","blockHeight":"-1","blockTime":"1970-01-01T00:00:00.000Z","createdTime":"2022-12-21T03:33:16.000Z","description":"","estimatedFee":"226","fee":"-1","hash":"","id":"1605406015122325506","networkCode":"BTC","requiredSignings":[{"hash":"322e5af3af772a51b6412927eea7878d3c4806bac4935370455b06e0cc70ff49","publicKeys":["0231e263a7e95bf5107b88b85b49918841b937305cce5dae7dd7ba9b86fc460f70","02e8852463021b47fe5214c599e87e431f2eb1219044946bbff397afd0518b85a6"],"threshold":2}],"serialized":"010000000150f0865d712c293d002480eccc5051da7e9421f95d4fe67d7bd35d142b68106c0100000000ffffffff020a00000000000000220020aacf2586a97491580532bfb86a62d71f7ff96a8ab3872a9d18635e35d105cf62647e010000000000220020aacf2586a97491580532bfb86a62d71f7ff96a8ab3872a9d18635e35d105cf6200000000","status":0,"statusDesc":"BUILDING","updatedTime":"2022-12-21T03:33:16.000Z"}]},"body":{"amount":"0.0000001","from":"tb1q4t8jtp4fwjg4spfjh7ux5ckhrallj652kwrj48gcvd0rt5g9ea3q4vlm33","symbol":"BTC","to":"tb1q4t8jtp4fwjg4spfjh7ux5ckhrallj652kwrj48gcvd0rt5g9ea3q4vlm33"},"createdTime":"2022-12-21T03:33:15.000Z","id":"1605406015565836289","networkCode":"BTC","status":-2,"transactionParams":{"memo":"tSP7bleKqx"},"type":"TRANSFER","updatedTime":"2022-12-21T03:33:15.000Z"}
[32mINFO    [0m Common.Httpcore:Httpcore.py:213 2022-12-21 11:33:13.825726 | 
<-----Core Sign------>
Url:https://api.dhandho.xyz/transactions/signatures

Headers:{"Content-Type": "application/json", "Authorization": "eyJib2R5IjoiV2ViMyBUb2tlbiBWZXJzaW9uOiAyXG5Ob25jZTogMTYwMTA0MzkzMDI4NzQxMTIwMlxuSXNzdWVkIEF0OiBGcmksIDkgRGVjIDIwMjIgMDI6Mzk6NTMgR01UXG5FeHBpcmF0aW9uIFRpbWU6IE1vbiwgNiBEZWMgMjAzMiAwMjozOTo1MyBHTVQiLCJzaWduYXR1cmUiOiIweGU1OWE1Nzk4OGNhZWU4NmFmYzA3NzlhOTE4MDA5MDRmNjc3NmUxZGMxYTc5NGE2MjllY2Y5YmI0ZjAyZDllYjcwZDBiMGZiNDAxNjQ4NTc5ZTFiZDkzMmU2NmU0NjdjMzFkMDlmOGNjM2EwOGVjN2U1NGY2ZTJhNTM5ZWVjNTA5MWMifQ=="}

body:{"id": "1605406015122325506", "signatures": [{"hash": "322e5af3af772a51b6412927eea7878d3c4806bac4935370455b06e0cc70ff49", "publicKey": "0231e263a7e95bf5107b88b85b49918841b937305cce5dae7dd7ba9b86fc460f70", "signature": "c685986b37cf2b05d63d5f1e6612a6843e83c0439f6c3e44036bce4d1400153d3cf11d7ff5aa7bd10f9047393e63f1a544d0f22baafb92d7e98adc97ddd120e401"}, {"hash": "322e5af3af772a51b6412927eea7878d3c4806bac4935370455b06e0cc70ff49", "publicKey": "02e8852463021b47fe5214c599e87e431f2eb1219044946bbff397afd0518b85a6", "signature": "575a1b2c458dbd2badecf04c2028aa94e8cf3ad84b672bfa00f9e323f9692d33046bb797fcc42f2b77b20b8f974d808a74bbd5c208433469d117acd10a3b071a01"}]}


[32mINFO    [0m Common.Httpcore:Httpcore.py:216 2022-12-21 11:33:13.825726 | 
<-----Core Sign Response---->
{"balanceChanges":[],"blockHash":"","blockHeight":"-1","blockTime":"1970-01-01T00:00:00.000Z","createdTime":"2022-12-21T03:33:16.000Z","description":"","estimatedFee":"226","fee":"-1","hash":"4fd80da0b53d6f9a63bb707d3b3911f7f810282fcab34e93b219699b7ba60705","id":"1605406015122325506","networkCode":"BTC","serialized":"0100000000010150f0865d712c293d002480eccc5051da7e9421f95d4fe67d7bd35d142b68106c0100000000ffffffff020a00000000000000220020aacf2586a97491580532bfb86a62d71f7ff96a8ab3872a9d18635e35d105cf62647e010000000000220020aacf2586a97491580532bfb86a62d71f7ff96a8ab3872a9d18635e35d105cf620400483045022100c685986b37cf2b05d63d5f1e6612a6843e83c0439f6c3e44036bce4d1400153d02203cf11d7ff5aa7bd10f9047393e63f1a544d0f22baafb92d7e98adc97ddd120e4014730440220575a1b2c458dbd2badecf04c2028aa94e8cf3ad84b672bfa00f9e323f9692d330220046bb797fcc42f2b77b20b8f974d808a74bbd5c208433469d117acd10a3b071a014752210231e263a7e95bf5107b88b85b49918841b937305cce5dae7dd7ba9b86fc460f702102e8852463021b47fe5214c599e87e431f2eb1219044946bbff397afd0518b85a652ae00000000","status":2,"statusDesc":"SIGNED","updatedTime":"2022-12-21T03:33:16.166Z"}
[32mINFO    [0m Common.Httpcore:Httpcore.py:232 2022-12-21 11:33:13.825726 | 
<-----Core Send------>
Url:https://api.dhandho.xyz/transactions/send/1605406015122325506

Headers:{"Content-Type": "application/json", "Authorization": "eyJib2R5IjoiV2ViMyBUb2tlbiBWZXJzaW9uOiAyXG5Ob25jZTogMTYwMTA0MzkzMDI4NzQxMTIwMlxuSXNzdWVkIEF0OiBGcmksIDkgRGVjIDIwMjIgMDI6Mzk6NTMgR01UXG5FeHBpcmF0aW9uIFRpbWU6IE1vbiwgNiBEZWMgMjAzMiAwMjozOTo1MyBHTVQiLCJzaWduYXR1cmUiOiIweGU1OWE1Nzk4OGNhZWU4NmFmYzA3NzlhOTE4MDA5MDRmNjc3NmUxZGMxYTc5NGE2MjllY2Y5YmI0ZjAyZDllYjcwZDBiMGZiNDAxNjQ4NTc5ZTFiZDkzMmU2NmU0NjdjMzFkMDlmOGNjM2EwOGVjN2U1NGY2ZTJhNTM5ZWVjNTA5MWMifQ=="}


[32mINFO    [0m Common.Httpcore:Httpcore.py:235 2022-12-21 11:33:13.825726 | 
<-----Core Send Response---->
{"balanceChanges":[],"blockHash":"","blockHeight":"-1","blockTime":"2022-12-21T03:33:16.542Z","createdTime":"2022-12-21T03:33:16.000Z","description":"","estimatedFee":"226","fee":"-1","hash":"4fd80da0b53d6f9a63bb707d3b3911f7f810282fcab34e93b219699b7ba60705","id":"1605406015122325506","networkCode":"BTC","serialized":"0100000000010150f0865d712c293d002480eccc5051da7e9421f95d4fe67d7bd35d142b68106c0100000000ffffffff020a00000000000000220020aacf2586a97491580532bfb86a62d71f7ff96a8ab3872a9d18635e35d105cf62647e010000000000220020aacf2586a97491580532bfb86a62d71f7ff96a8ab3872a9d18635e35d105cf620400483045022100c685986b37cf2b05d63d5f1e6612a6843e83c0439f6c3e44036bce4d1400153d02203cf11d7ff5aa7bd10f9047393e63f1a544d0f22baafb92d7e98adc97ddd120e4014730440220575a1b2c458dbd2badecf04c2028aa94e8cf3ad84b672bfa00f9e323f9692d330220046bb797fcc42f2b77b20b8f974d808a74bbd5c208433469d117acd10a3b071a014752210231e263a7e95bf5107b88b85b49918841b937305cce5dae7dd7ba9b86fc460f702102e8852463021b47fe5214c599e87e431f2eb1219044946bbff397afd0518b85a652ae00000000","status":3,"statusDesc":"PENDING","updatedTime":"2022-12-21T03:33:16.542Z"}