[32mINFO    [0m Common.Http:Http.py:265 2022-12-20 17:25:13.136039 | 
<-----Instructions----->
Url:https://api.dhandho.xyz/vault/instructions
Headers:{"Content-Type": "application/json", "Authorization": "eyJ0eXAiOiJKV1QiLCJhbGciOiJIUzI1NiJ9.eyJhdWQiOiIxNjAxMDQzOTMwMjg3NDExMjAyIiwiZXhwIjoxNzAyMDg5NjAwLCJpYXQiOjE2NzA1NTM2MDAsInVzZXJJZCI6MTYwMTA0MzkzMDI4NzQxMTIwMn0.fZVc267JNsgy5tB_Wn89l2Zgd3ZgXJfaMg_T9lc3j-o"}
Body:{"networkCode": "BTC", "type": "transfer", "body": {"from": "tb1qxrunvz3ywjtpzaasfgjjek96a33sxks740v58x7lzke0kc9urvgs0cczgd", "to": "tb1qagkvxdz2zq76atvr0rzh8n9lewjmlm25umq0xq", "symbol": "BTC", "amount": "maximum"}, "transactionParams": {"memo": "4nszeYwvk7"}}


[32mINFO    [0m Common.Http:Http.py:268 2022-12-20 17:25:13.136039 | 
<-----Instructions Response----->
{"_embedded":{"transactions":[{"balanceChanges":[],"blockHash":"","blockHeight":"-1","blockTime":"1970-01-01T00:00:00.000Z","createdTime":"2022-12-20T09:25:15.000Z","description":"","estimatedFee":"192","fee":"-1","hash":"","id":"1605132209722966018","networkCode":"BTC","requiredSignings":[{"hash":"188079358e058a34865bf73135c69dbfb8059764b2dd5fbe69fcf0721bcb0f7e","publicKeys":["02e8852463021b47fe5214c599e87e431f2eb1219044946bbff397afd0518b85a6"],"threshold":1}],"serialized":"0100000001c0b907d722a06251cabe1cd141225a97fcd34abb0e8d0629fa58ff32418760540100000000ffffffff01126d010000000000160014ea2cc3344a103daead8378c573ccbfcba5bfed5400000000","status":1,"statusDesc":"SIGNING","updatedTime":"2022-12-20T09:25:18.000Z"}]},"body":{"symbol":"BTC","amount":"0.0009365","from":"tb1qxrunvz3ywjtpzaasfgjjek96a33sxks740v58x7lzke0kc9urvgs0cczgd","to":"tb1qagkvxdz2zq76atvr0rzh8n9lewjmlm25umq0xq"},"createdTime":"2022-12-20T09:25:15.000Z","id":"1605132210209550337","networkCode":"BTC","status":-2,"transactionParams":{"memo":"4nszeYwvk7"},"type":"TRANSFER","updatedTime":"2022-12-20T09:25:15.000Z"}


[32mINFO    [0m Common.Http:Http.py:344 2022-12-20 17:25:13.136039 | 
<-----Sign----->
Url:https://api.dhandho.xyz/vault/transactions/signatures
Headers:{"Content-Type": "application/json", "Authorization": "eyJ0eXAiOiJKV1QiLCJhbGciOiJIUzI1NiJ9.eyJhdWQiOiIxNjAxMDQzOTMwMjg3NDExMjAyIiwiZXhwIjoxNzAyMDg5NjAwLCJpYXQiOjE2NzA1NTM2MDAsInVzZXJJZCI6MTYwMTA0MzkzMDI4NzQxMTIwMn0.fZVc267JNsgy5tB_Wn89l2Zgd3ZgXJfaMg_T9lc3j-o"}
Body:{"id": "1605132209722966018", "signatures": [{"hash": "188079358e058a34865bf73135c69dbfb8059764b2dd5fbe69fcf0721bcb0f7e", "publicKey": "02e8852463021b47fe5214c599e87e431f2eb1219044946bbff397afd0518b85a6", "signature": "4647504bfb899f0970a5ed4c2bdb41efb58d6b68b6076b196cd17b54072c0ade29b3019d215eacace1ba82a7cb4b43374e30d33c07b347337b80904a6ad1295401"}]}


[32mINFO    [0m Common.Http:Http.py:348 2022-12-20 17:25:13.136039 | 
<-----Sign Response----->
{"balanceChanges":[],"blockHash":"","blockHeight":"-1","blockTime":"1970-01-01T00:00:00.000Z","createdTime":"2022-12-20T09:25:15.000Z","description":"","estimatedFee":"192","fee":"-1","hash":"eecfc3eb94ff12ce8747f7f13f6338b8add2963268d97894e80f6883d8ad16dc","id":"1605132209722966018","networkCode":"BTC","serialized":"01000000000101c0b907d722a06251cabe1cd141225a97fcd34abb0e8d0629fa58ff32418760540100000000ffffffff01126d010000000000160014ea2cc3344a103daead8378c573ccbfcba5bfed5404004830450221009831f4979e0ff5e4f46a1beee8110f9f5f16426ac169ea29f295dfbd6a2bba4002202a67c759365219a3c88e93e1c8f8778733248702800de7d4d16c2909157df80a0147304402204647504bfb899f0970a5ed4c2bdb41efb58d6b68b6076b196cd17b54072c0ade022029b3019d215eacace1ba82a7cb4b43374e30d33c07b347337b80904a6ad129540147522102d904da9e163db9784ef50b4fd64e709ff5f4f438c80f5265e2925aac6d99dcd72102e8852463021b47fe5214c599e87e431f2eb1219044946bbff397afd0518b85a652ae00000000","status":2,"statusDesc":"SIGNED","updatedTime":"2022-12-20T09:25:20.947Z"}


[32mINFO    [0m Common.Http:Http.py:364 2022-12-20 17:25:13.136039 | 
<-----Send----->
Url:https://api.dhandho.xyz/vault/transactions/send/1605132209722966018
Headers:{"Content-Type": "application/json", "Authorization": "eyJ0eXAiOiJKV1QiLCJhbGciOiJIUzI1NiJ9.eyJhdWQiOiIxNjAxMDQzOTMwMjg3NDExMjAyIiwiZXhwIjoxNzAyMDg5NjAwLCJpYXQiOjE2NzA1NTM2MDAsInVzZXJJZCI6MTYwMTA0MzkzMDI4NzQxMTIwMn0.fZVc267JNsgy5tB_Wn89l2Zgd3ZgXJfaMg_T9lc3j-o"}


[32mINFO    [0m Common.Http:Http.py:368 2022-12-20 17:25:13.136039 | 
<-----Send Response----->
{"balanceChanges":[],"blockHash":"","blockHeight":"-1","blockTime":"2022-12-20T09:25:21.327Z","createdTime":"2022-12-20T09:25:15.000Z","description":"","estimatedFee":"192","fee":"-1","hash":"eecfc3eb94ff12ce8747f7f13f6338b8add2963268d97894e80f6883d8ad16dc","id":"1605132209722966018","networkCode":"BTC","serialized":"01000000000101c0b907d722a06251cabe1cd141225a97fcd34abb0e8d0629fa58ff32418760540100000000ffffffff01126d010000000000160014ea2cc3344a103daead8378c573ccbfcba5bfed5404004830450221009831f4979e0ff5e4f46a1beee8110f9f5f16426ac169ea29f295dfbd6a2bba4002202a67c759365219a3c88e93e1c8f8778733248702800de7d4d16c2909157df80a0147304402204647504bfb899f0970a5ed4c2bdb41efb58d6b68b6076b196cd17b54072c0ade022029b3019d215eacace1ba82a7cb4b43374e30d33c07b347337b80904a6ad129540147522102d904da9e163db9784ef50b4fd64e709ff5f4f438c80f5265e2925aac6d99dcd72102e8852463021b47fe5214c599e87e431f2eb1219044946bbff397afd0518b85a652ae00000000","status":3,"statusDesc":"PENDING","updatedTime":"2022-12-20T09:25:21.327Z"}