[32mINFO    [0m Common.Http:Http.py:425 2022-12-14 15:32:38.499161 | 
<-----Query Holders----->
Url:http://54.251.78.181:8888/escrow/api//proxy/core/api/assets/holders/?networkCode=GOERLI&address=0x9D055026eB8D83eF561D5D8084F2DD02e7AD2C17&symbol=GoerliETH
Headers:{"Content-Type": "application/json", "Authorization": "eyJ0eXAiOiJKV1QiLCJhbGciOiJIUzI1NiJ9.eyJhdWQiOiIxNjAxMDQzOTMwMjg3NDExMjAyIiwiZXhwIjoxNzAyMDg5NjAwLCJpYXQiOjE2NzA1NTM2MDAsInVzZXJJZCI6MTYwMTA0MzkzMDI4NzQxMTIwMn0.fZVc267JNsgy5tB_Wn89l2Zgd3ZgXJfaMg_T9lc3j-o"}


[32mINFO    [0m Common.Http:Http.py:428 2022-12-14 15:32:38.499161 | 
<-----Query Holders Response----->
{"current":1,"list":[{"address":"0x9d055026eb8d83ef561d5d8084f2dd02e7ad2c17","id":"1602265931102535681","networkCode":"GOERLI","quantity":"0.008372492608779054","symbol":"GoerliETH","updatedTime":"2022-12-14T06:28:15.000Z"}],"size":10,"total":1}


[32mINFO    [0m Common.Http:Http.py:265 2022-12-14 15:32:38.499161 | 
<-----Instructions----->
Url:http://54.251.78.181:8888/escrow/api//instructions
Headers:{"Content-Type": "application/json", "Authorization": "eyJ0eXAiOiJKV1QiLCJhbGciOiJIUzI1NiJ9.eyJhdWQiOiIxNjAxMDQzOTMwMjg3NDExMjAyIiwiZXhwIjoxNzAyMDg5NjAwLCJpYXQiOjE2NzA1NTM2MDAsInVzZXJJZCI6MTYwMTA0MzkzMDI4NzQxMTIwMn0.fZVc267JNsgy5tB_Wn89l2Zgd3ZgXJfaMg_T9lc3j-o"}
Body:{"networkCode": "GOERLI", "type": "transfer", "body": {"from": "0x9D055026eB8D83eF561D5D8084F2DD02e7AD2C17", "contractNonce": "0x98", "to": "0xa7A9E710f9A3B4184D4F8B7d379CEC262f2382c2", "symbol": "GoerliETH", "amount": "0.00012"}, "transactionParams": {"memo": "S3xBzAJj1Y"}}


[32mINFO    [0m Common.Http:Http.py:268 2022-12-14 15:32:38.499161 | 
<-----Instructions Response----->
{"_embedded":{"transactions":[{"balanceChanges":[],"blockHash":"","blockHeight":"0","blockTime":"1970-01-01T00:00:00.000Z","createdTime":"2022-12-14T07:32:43.000Z","description":"","estimatedFee":"","fee":"-1","hash":"","id":"1602929546264555522","networkCode":"GOERLI","requiredSignings":[{"hash":"d3367a645ac93d722d3ba01f747320977995cbdd09777ab03db70d17b8e5487a","publicKeys":["0244fb46bba2e912f26a73126b89742ed7f521f593ee084953ae008172553a0113"],"threshold":1}],"serialized":"6a761202000000000000000000000000a7a9e710f9a3b4184d4f8b7d379cec262f2382c200000000000000000000000000000000000000000000000000006d23ad5f800000000000000000000000000000000000000000000000000000000000000001400000000000000000000000000000000000000000000000000000000000000000000000000000000000000000000000000000000000000000000000000000b26d000000000000000000000000000000000000000000000000000000000000d6a4000000000000000000000000000000000000000000000000000000003b9eb2a7000000000000000000000000000000000000000000000000000000000000000000000000000000000000000010f564f105ba1dec06087fe09329959dbd6b862d000000000000000000000000000000000000000000000000000000000000016000000000000000000000000000000000000000000000000000000000000000000000000000000000000000000000000000000000000000000000000000000000","status":0,"statusDesc":"BUILDING","updatedTime":"2022-12-14T07:32:43.000Z"}]},"body":{"symbol":"GoerliETH","amount":"0.00012","from":"0x9d055026eb8d83ef561d5d8084f2dd02e7ad2c17","to":"0xa7a9e710f9a3b4184d4f8b7d379cec262f2382c2"},"createdTime":"2022-12-14T07:32:42.000Z","id":"1602929559753449473","networkCode":"GOERLI","status":-2,"transactionParams":{"memo":"S3xBzAJj1Y"},"type":"TRANSFER","updatedTime":"2022-12-14T07:32:42.000Z"}


[32mINFO    [0m Common.Http:Http.py:344 2022-12-14 15:32:38.499161 | 
<-----Sign----->
Url:http://54.251.78.181:8888/escrow/api/transactions/signatures
Headers:{"Content-Type": "application/json", "Authorization": "eyJ0eXAiOiJKV1QiLCJhbGciOiJIUzI1NiJ9.eyJhdWQiOiIxNjAxMDQzOTMwMjg3NDExMjAyIiwiZXhwIjoxNzAyMDg5NjAwLCJpYXQiOjE2NzA1NTM2MDAsInVzZXJJZCI6MTYwMTA0MzkzMDI4NzQxMTIwMn0.fZVc267JNsgy5tB_Wn89l2Zgd3ZgXJfaMg_T9lc3j-o"}
Body:{"id": "1602929546264555522", "signatures": [{"hash": "d3367a645ac93d722d3ba01f747320977995cbdd09777ab03db70d17b8e5487a", "publicKey": "0244fb46bba2e912f26a73126b89742ed7f521f593ee084953ae008172553a0113", "signature": "b2749e79e3ebaaeab295ec24e7fe0842447bcdce3157b87e086150513ac7673d350f722d91537627b01cbfbab21335e22a9972c99a002f7058ed5585f277ca9900"}]}


[32mINFO    [0m Common.Http:Http.py:348 2022-12-14 15:32:38.499161 | 
<-----Sign Response----->
{"balanceChanges":[],"blockHash":"","blockHeight":"0","blockTime":"1970-01-01T00:00:00.000Z","createdTime":"2022-12-14T07:32:43.000Z","description":"","estimatedFee":"456377794722","fee":"-1","hash":"0x7caafa79d8106148b2c1914c41abf5af199ba649290cfd31527472800b696a73","id":"1602929546264555522","networkCode":"GOERLI","serialized":"02f9028f0501833b8a948342b272830197d9949d055026eb8d83ef561d5d8084f2dd02e7ad2c1780b902246a761202000000000000000000000000a7a9e710f9a3b4184d4f8b7d379cec262f2382c200000000000000000000000000000000000000000000000000006d23ad5f800000000000000000000000000000000000000000000000000000000000000001400000000000000000000000000000000000000000000000000000000000000000000000000000000000000000000000000000000000000000000000000000b26d000000000000000000000000000000000000000000000000000000000000d6a4000000000000000000000000000000000000000000000000000000003b9eb2a7000000000000000000000000000000000000000000000000000000000000000000000000000000000000000010f564f105ba1dec06087fe09329959dbd6b862d000000000000000000000000000000000000000000000000000000000000016000000000000000000000000000000000000000000000000000000000000000000000000000000000000000000000000000000000000000000000000000000082a2c981215092c5c96202236cd9559650261e6e6ee943f7855a198cf24f7990c13f37ca662ec79e521c2a8010ca929a5726da37023d13b1cba0ecd12b644c0d011bb2749e79e3ebaaeab295ec24e7fe0842447bcdce3157b87e086150513ac7673d350f722d91537627b01cbfbab21335e22a9972c99a002f7058ed5585f277ca991b000000000000000000000000000000000000000000000000000000000000c080a00df6d5bb38308256f08907c59961961c067f5685826e40cfb3f37738a0d459b1a061aa41cac999241db2f718b2a3fd3f9ba3a8248b87bef5af482e199f3e8d4b1b","status":2,"statusDesc":"SIGNED","updatedTime":"2022-12-14T07:32:47.216Z"}


[32mINFO    [0m Common.Http:Http.py:364 2022-12-14 15:32:38.499161 | 
<-----Send----->
Url:http://54.251.78.181:8888/escrow/api//transactions/send/1602929546264555522
Headers:{"Content-Type": "application/json", "Authorization": "eyJ0eXAiOiJKV1QiLCJhbGciOiJIUzI1NiJ9.eyJhdWQiOiIxNjAxMDQzOTMwMjg3NDExMjAyIiwiZXhwIjoxNzAyMDg5NjAwLCJpYXQiOjE2NzA1NTM2MDAsInVzZXJJZCI6MTYwMTA0MzkzMDI4NzQxMTIwMn0.fZVc267JNsgy5tB_Wn89l2Zgd3ZgXJfaMg_T9lc3j-o"}


[32mINFO    [0m Common.Http:Http.py:371 2022-12-14 15:32:38.499161 | 
<-----Send Response Error----->
400
{"code":2300000,"message":"send transaction fail"}