[32mINFO    [0m Common.Httpcore:Httpcore.py:224 2022-12-02 18:13:21.337476 | 
<-----Query UTXO----->
Url:https://api.bitcore.io/api/BTC/testnet/address/tb1qhcuul2fcyv5rvr5mc5cy5saz0q5p3kx0gsy3c0?unspent=true

Headers:{"Content-Type": "application/json"}


[32mINFO    [0m Common.Httpcore:Httpcore.py:227 2022-12-02 18:13:21.337476 | 
<-----Query UTXO Response----->
[
{"_id":"638967b1d3bfc9e8e1a2533f","chain":"BTC","network":"testnet","coinbase":false,"mintIndex":1,"spentTxid":"","mintTxid":"3bd055be1d1c03586c783b31fcf0b6bb9316cb2d058cf32172ae6af592ad37e3","mintHeight":2409372,"spentHeight":-2,"address":"tb1qhcuul2fcyv5rvr5mc5cy5saz0q5p3kx0gsy3c0","script":"0014be39cfa9382328360e9bc5304a43a2782818d8cf","value":898662,"confirmations":-1},
{"_id":"638967b1d3bfc9e8e1a2533e","chain":"BTC","network":"testnet","coinbase":false,"mintIndex":0,"spentTxid":"","mintTxid":"3bd055be1d1c03586c783b31fcf0b6bb9316cb2d058cf32172ae6af592ad37e3","mintHeight":2409372,"spentHeight":-2,"address":"tb1qhcuul2fcyv5rvr5mc5cy5saz0q5p3kx0gsy3c0","script":"0014be39cfa9382328360e9bc5304a43a2782818d8cf","value":100,"confirmations":-1},
{"_id":"6385ac0fd3bfc9e8e17f09de","chain":"BTC","network":"testnet","coinbase":false,"mintIndex":0,"spentTxid":"","mintTxid":"9aa6d0c2e5b677480d08b1f90c989f599ec16342cdee9e1fe48a698030a38eae","mintHeight":2408923,"spentHeight":-2,"address":"tb1qhcuul2fcyv5rvr5mc5cy5saz0q5p3kx0gsy3c0","script":"0014be39cfa9382328360e9bc5304a43a2782818d8cf","value":100,"confirmations":-1}
]
[32mINFO    [0m Common.Httpcore:Httpcore.py:132 2022-12-02 18:13:21.337476 | 
<-----Core Build------>
Url:http://54.251.78.181:8888/core/api/transactions

Headers:{"Content-Type": "application/json", "Authorization": "eyJib2R5IjoiV2ViMyBUb2tlbiBWZXJzaW9uOiAyXG5Ob25jZTogMTU4NTEwMjc5MTQ2NjQ4NzgxMFxuSXNzdWVkIEF0OiBXZWQsIDI2IE9jdCAyMDIyIDAyOjU1OjI5IEdNVFxuRXhwaXJhdGlvbiBUaW1lOiBTYXQsIDIzIE9jdCAyMDMyIDAyOjU1OjI5IEdNVCIsInNpZ25hdHVyZSI6IjB4OTE1NWMyOGM3NjVjZjk1YTBjNjdiZGNhYzExNzIwYTRkNDQ4NDc4YmU5ZDZhNjE3ZWQzNDUzZDU3MDgzZjNjZTA2N2Q5OGUwMGI0YTVhMmJmOTlkY2I5Y2VmNzg5Yjc4OWViNzI5OTk4YzgxYWQzOWFhMTUzZTcxM2Q4M2FhYWUxYiJ9"}

body:{"networkCode": "BTC", "payload": {"changer": "tb1qhcuul2fcyv5rvr5mc5cy5saz0q5p3kx0gsy3c0", "recipients": [{"address": "tb1qhcuul2fcyv5rvr5mc5cy5saz0q5p3kx0gsy3c0", "value": "100"}], "utxos": [{"amount": 898662, "scriptPubKey": "0014be39cfa9382328360e9bc5304a43a2782818d8cf", "signers": ["02e8852463021b47fe5214c599e87e431f2eb1219044946bbff397afd0518b85a6"], "txid": "3bd055be1d1c03586c783b31fcf0b6bb9316cb2d058cf32172ae6af592ad37e3", "vout": 1}, {"amount": 100, "scriptPubKey": "0014be39cfa9382328360e9bc5304a43a2782818d8cf", "signers": ["02e8852463021b47fe5214c599e87e431f2eb1219044946bbff397afd0518b85a6"], "txid": "3bd055be1d1c03586c783b31fcf0b6bb9316cb2d058cf32172ae6af592ad37e3", "vout": 0}, {"amount": 100, "scriptPubKey": "0014be39cfa9382328360e9bc5304a43a2782818d8cf", "signers": ["02e8852463021b47fe5214c599e87e431f2eb1219044946bbff397afd0518b85a6"], "txid": "9aa6d0c2e5b677480d08b1f90c989f599ec16342cdee9e1fe48a698030a38eae", "vout": 0}]}, "type": "TRANSACTION"}


[32mINFO    [0m Common.Httpcore:Httpcore.py:135 2022-12-02 18:13:21.337476 | 
<-----Core Build Response---->
{"balanceChanges":[],"blockTime":"1970-01-01T00:00:00.000Z","createdTime":"2022-12-02T10:13:22.984Z","description":"Custom Excution","estimatedFee":"405","hash":"","id":"1598621338096062466","networkCode":"BTC","requiredSignings":[{"hash":"f869cd66484f2b733befaf48c4861e64e292341016e49730396c9a8689fb59d9","publicKeys":["02e8852463021b47fe5214c599e87e431f2eb1219044946bbff397afd0518b85a6"],"threshold":1},{"hash":"667581b609ee2ade183e79282a283ebe6065d0a84aa40775dcef3c11ced76dcb","publicKeys":["02e8852463021b47fe5214c599e87e431f2eb1219044946bbff397afd0518b85a6"],"threshold":1},{"hash":"06a7df893ee9cbec3fbb5e5272d647c255df71cc1048c3f463b64df54fc7bb1e","publicKeys":["02e8852463021b47fe5214c599e87e431f2eb1219044946bbff397afd0518b85a6"],"threshold":1}],"serialized":"0100000003e337ad92f56aae7221f38c052dcb1693bbb6f0fc313b786c58031c1dbe55d03b0100000000ffffffffe337ad92f56aae7221f38c052dcb1693bbb6f0fc313b786c58031c1dbe55d03b0000000000ffffffffae8ea33080698ae41f9eeecd4263c19e599f980cf9b1080d4877b6e5c2d0a69a0000000000ffffffff026400000000000000160014be39cfa9382328360e9bc5304a43a2782818d8cf35b50d0000000000160014be39cfa9382328360e9bc5304a43a2782818d8cf00000000","status":0,"statusDesc":"BUILDING","updatedTime":"2022-12-02T10:13:22.984Z"}
[32mINFO    [0m Common.Httpcore:Httpcore.py:155 2022-12-02 18:13:21.337476 | 
<-----Core Sign------>
Url:http://54.251.78.181:8888/core/api/transactions/signatures

Headers:{"Content-Type": "application/json", "Authorization": "eyJib2R5IjoiV2ViMyBUb2tlbiBWZXJzaW9uOiAyXG5Ob25jZTogMTU4NTEwMjc5MTQ2NjQ4NzgxMFxuSXNzdWVkIEF0OiBXZWQsIDI2IE9jdCAyMDIyIDAyOjU1OjI5IEdNVFxuRXhwaXJhdGlvbiBUaW1lOiBTYXQsIDIzIE9jdCAyMDMyIDAyOjU1OjI5IEdNVCIsInNpZ25hdHVyZSI6IjB4OTE1NWMyOGM3NjVjZjk1YTBjNjdiZGNhYzExNzIwYTRkNDQ4NDc4YmU5ZDZhNjE3ZWQzNDUzZDU3MDgzZjNjZTA2N2Q5OGUwMGI0YTVhMmJmOTlkY2I5Y2VmNzg5Yjc4OWViNzI5OTk4YzgxYWQzOWFhMTUzZTcxM2Q4M2FhYWUxYiJ9"}

body:{"id": "1598621338096062466", "signatures": [{"hash": "f869cd66484f2b733befaf48c4861e64e292341016e49730396c9a8689fb59d9", "publicKey": "02e8852463021b47fe5214c599e87e431f2eb1219044946bbff397afd0518b85a6", "signature": "f2403504e645975046e7c2e2b843304047558cf1982a90708a88f388830a9a132ad21d318eee7c2ccbcd5d2344dcd2fb4cfcc00bce0b2bc01219e832c3ee0f0000"}, {"hash": "667581b609ee2ade183e79282a283ebe6065d0a84aa40775dcef3c11ced76dcb", "publicKey": "02e8852463021b47fe5214c599e87e431f2eb1219044946bbff397afd0518b85a6", "signature": "8d83c0d7dee28757b6dfce08ceed53bacedcd5ec0c0c7656109abf9249a9539134203400b3f2949509d6660f71b1205588902a8cf95b59e8ba30069e65f109da00"}, {"hash": "06a7df893ee9cbec3fbb5e5272d647c255df71cc1048c3f463b64df54fc7bb1e", "publicKey": "02e8852463021b47fe5214c599e87e431f2eb1219044946bbff397afd0518b85a6", "signature": "0a524d23095092d6eb602dd5007d7219edfdba34adbba3969f720e1d26fac58f304bb6a5c2c3948373a2230e5a12688341d4a29771ec156422dbacc6c41967f900"}]}


[32mINFO    [0m Common.Httpcore:Httpcore.py:158 2022-12-02 18:13:21.337476 | 
<-----Core Sign Response---->
{"balanceChanges":[],"blockHash":"","blockHeight":"0","blockTime":"1970-01-01T00:00:00.000Z","createdTime":"2022-12-02T10:13:23.000Z","description":"Custom Excution","estimatedFee":"405","fee":"-1","hash":"b29e292cca726b7f8d3b13de26db0cca577716218320101bd7af70f01aa8025a","id":"1598621338096062466","networkCode":"BTC","serialized":"01000000000103e337ad92f56aae7221f38c052dcb1693bbb6f0fc313b786c58031c1dbe55d03b0100000000ffffffffe337ad92f56aae7221f38c052dcb1693bbb6f0fc313b786c58031c1dbe55d03b0000000000ffffffffae8ea33080698ae41f9eeecd4263c19e599f980cf9b1080d4877b6e5c2d0a69a0000000000ffffffff026400000000000000160014be39cfa9382328360e9bc5304a43a2782818d8cf35b50d0000000000160014be39cfa9382328360e9bc5304a43a2782818d8cf024830450221008d83c0d7dee28757b6dfce08ceed53bacedcd5ec0c0c7656109abf9249a95391022034203400b3f2949509d6660f71b1205588902a8cf95b59e8ba30069e65f109da012102e8852463021b47fe5214c599e87e431f2eb1219044946bbff397afd0518b85a602483045022100f2403504e645975046e7c2e2b843304047558cf1982a90708a88f388830a9a1302202ad21d318eee7c2ccbcd5d2344dcd2fb4cfcc00bce0b2bc01219e832c3ee0f00012102e8852463021b47fe5214c599e87e431f2eb1219044946bbff397afd0518b85a60247304402200a524d23095092d6eb602dd5007d7219edfdba34adbba3969f720e1d26fac58f0220304bb6a5c2c3948373a2230e5a12688341d4a29771ec156422dbacc6c41967f9012102e8852463021b47fe5214c599e87e431f2eb1219044946bbff397afd0518b85a600000000","status":2,"statusDesc":"SIGNED","updatedTime":"2022-12-02T10:13:23.336Z"}
[32mINFO    [0m Common.Httpcore:Httpcore.py:174 2022-12-02 18:13:21.337476 | 
<-----Core Send------>
Url:http://54.251.78.181:8888/core/api/transactions/send/1598621338096062466

Headers:{"Content-Type": "application/json", "Authorization": "eyJib2R5IjoiV2ViMyBUb2tlbiBWZXJzaW9uOiAyXG5Ob25jZTogMTU4NTEwMjc5MTQ2NjQ4NzgxMFxuSXNzdWVkIEF0OiBXZWQsIDI2IE9jdCAyMDIyIDAyOjU1OjI5IEdNVFxuRXhwaXJhdGlvbiBUaW1lOiBTYXQsIDIzIE9jdCAyMDMyIDAyOjU1OjI5IEdNVCIsInNpZ25hdHVyZSI6IjB4OTE1NWMyOGM3NjVjZjk1YTBjNjdiZGNhYzExNzIwYTRkNDQ4NDc4YmU5ZDZhNjE3ZWQzNDUzZDU3MDgzZjNjZTA2N2Q5OGUwMGI0YTVhMmJmOTlkY2I5Y2VmNzg5Yjc4OWViNzI5OTk4YzgxYWQzOWFhMTUzZTcxM2Q4M2FhYWUxYiJ9"}


[32mINFO    [0m Common.Httpcore:Httpcore.py:177 2022-12-02 18:13:21.337476 | 
<-----Core Send Response---->
{"balanceChanges":[],"blockHash":"","blockHeight":"0","blockTime":"2022-12-02T10:13:23.604Z","createdTime":"2022-12-02T10:13:23.000Z","description":"Custom Excution","estimatedFee":"405","fee":"-1","hash":"b29e292cca726b7f8d3b13de26db0cca577716218320101bd7af70f01aa8025a","id":"1598621338096062466","networkCode":"BTC","serialized":"01000000000103e337ad92f56aae7221f38c052dcb1693bbb6f0fc313b786c58031c1dbe55d03b0100000000ffffffffe337ad92f56aae7221f38c052dcb1693bbb6f0fc313b786c58031c1dbe55d03b0000000000ffffffffae8ea33080698ae41f9eeecd4263c19e599f980cf9b1080d4877b6e5c2d0a69a0000000000ffffffff026400000000000000160014be39cfa9382328360e9bc5304a43a2782818d8cf35b50d0000000000160014be39cfa9382328360e9bc5304a43a2782818d8cf024830450221008d83c0d7dee28757b6dfce08ceed53bacedcd5ec0c0c7656109abf9249a95391022034203400b3f2949509d6660f71b1205588902a8cf95b59e8ba30069e65f109da012102e8852463021b47fe5214c599e87e431f2eb1219044946bbff397afd0518b85a602483045022100f2403504e645975046e7c2e2b843304047558cf1982a90708a88f388830a9a1302202ad21d318eee7c2ccbcd5d2344dcd2fb4cfcc00bce0b2bc01219e832c3ee0f00012102e8852463021b47fe5214c599e87e431f2eb1219044946bbff397afd0518b85a60247304402200a524d23095092d6eb602dd5007d7219edfdba34adbba3969f720e1d26fac58f0220304bb6a5c2c3948373a2230e5a12688341d4a29771ec156422dbacc6c41967f9012102e8852463021b47fe5214c599e87e431f2eb1219044946bbff397afd0518b85a600000000","status":3,"statusDesc":"PENDING","updatedTime":"2022-12-02T10:13:23.604Z"}