[32mINFO    [0m Common.Httpcore:Httpcore.py:201 2022-12-01 18:29:20.494310 | 
<-----Relay estimate----->
Url:http://16.163.105.179:18000/api/v2/safes/0x6490C1b13A4576128159576F9d3acadF79e8dd6f/transactions/estimate/

Headers:{"Content-Type": "application/json"}

Body:{"gasToken": "0x0000000000000000000000000000000000000000", "operation": "0", "safe": "0x6490C1b13A4576128159576F9d3acadF79e8dd6f", "to": "0x6490C1b13A4576128159576F9d3acadF79e8dd6f", "data": "0x", "value": "100"}
[32mINFO    [0m Common.Httpcore:Httpcore.py:204 2022-12-01 18:29:20.494310 | 
<-----Relay estimate Response----->
{"safeTxGas":"45006","baseGas":"54900","dataGas":"54900","operationalGas":"0","gasPrice":"31826817100","lastUsedNonce":7,"gasToken":"0x0000000000000000000000000000000000000000","refundReceiver":"0xbA7024EE0273C30a479838DA4Ad31718436b453e"}
[32mINFO    [0m Common.Httpcore:Httpcore.py:132 2022-12-01 18:29:20.494310 | 
<-----Core Build------>
Url:http://54.251.78.181:8888/core/api/transactions

Headers:{"Content-Type": "application/json", "Authorization": "eyJib2R5IjoiV2ViMyBUb2tlbiBWZXJzaW9uOiAyXG5Ob25jZTogMTU4NTEwMjc5MTQ2NjQ4NzgxMFxuSXNzdWVkIEF0OiBXZWQsIDI2IE9jdCAyMDIyIDAyOjU1OjI5IEdNVFxuRXhwaXJhdGlvbiBUaW1lOiBTYXQsIDIzIE9jdCAyMDMyIDAyOjU1OjI5IEdNVCIsInNpZ25hdHVyZSI6IjB4OTE1NWMyOGM3NjVjZjk1YTBjNjdiZGNhYzExNzIwYTRkNDQ4NDc4YmU5ZDZhNjE3ZWQzNDUzZDU3MDgzZjNjZTA2N2Q5OGUwMGI0YTVhMmJmOTlkY2I5Y2VmNzg5Yjc4OWViNzI5OTk4YzgxYWQzOWFhMTUzZTcxM2Q4M2FhYWUxYiJ9"}

body:{"networkCode": "MATIC", "payload": {"from": "0xe525E7cd17f6Dc950492755A089E452fd5d9d44f", "inputRequest": {"to": "0x6490C1b13A4576128159576F9d3acadF79e8dd6f", "value": "0x64"}, "safeInputRequest": {"contract": "0x6490C1b13A4576128159576F9d3acadF79e8dd6f", "participants": ["0244fb46bba2e912f26a73126b89742ed7f521f593ee084953ae008172553a0113", "03c420167aaf4fc7106646b2fe485519e5569ceb1584ae31d62537e349a4e4b5a9"], "refundReceiver": "0xe525E7cd17f6Dc950492755A089E452fd5d9d44f", "gasToken": "0x0000000000000000000000000000000000000000", "baseGas": "54900", "safeTxGas": "45006", "gasPrice": "31826817100", "to": "0x2791Bca1f2de4661ED88A30C99A7a9449Aa84174"}}, "type": "SAFE_TOKEN_TRANSFER_TRANSACTION"}


[32mINFO    [0m Common.Httpcore:Httpcore.py:135 2022-12-01 18:29:20.494310 | 
<-----Core Build Response---->
{"balanceChanges":[],"blockTime":"1970-01-01T00:00:00.000Z","createdTime":"2022-12-01T10:29:22.389Z","description":"Custom Excution","estimatedFee":"","hash":"","id":"1598262974187024386","networkCode":"MATIC","requiredSignings":[{"hash":"4c81a12e35d45d7153f52698d4992bc1bdf185cd56596dbf87593aa26b319cbc","publicKeys":["0244fb46bba2e912f26a73126b89742ed7f521f593ee084953ae008172553a0113","03c420167aaf4fc7106646b2fe485519e5569ceb1584ae31d62537e349a4e4b5a9"],"threshold":2}],"serialized":"6a7612020000000000000000000000002791bca1f2de4661ed88a30c99a7a9449aa84174000000000000000000000000000000000000000000000000000000000000000000000000000000000000000000000000000000000000000000000000000001400000000000000000000000000000000000000000000000000000000000000000000000000000000000000000000000000000000000000000000000000000afce000000000000000000000000000000000000000000000000000000000000d674000000000000000000000000000000000000000000000000000000076906b04c0000000000000000000000000000000000000000000000000000000000000000000000000000000000000000e525e7cd17f6dc950492755a089e452fd5d9d44f00000000000000000000000000000000000000000000000000000000000001c00000000000000000000000000000000000000000000000000000000000000044a9059cbb0000000000000000000000006490c1b13a4576128159576f9d3acadf79e8dd6f0000000000000000000000000000000000000000000000000000000000000064000000000000000000000000000000000000000000000000000000000000000000000000000000000000000000000000000000000000000000000000","status":0,"statusDesc":"BUILDING","updatedTime":"2022-12-01T10:29:22.389Z"}
[32mINFO    [0m Common.Httpcore:Httpcore.py:155 2022-12-01 18:29:20.494310 | 
<-----Core Sign------>
Url:http://54.251.78.181:8888/core/api/transactions/signatures

Headers:{"Content-Type": "application/json", "Authorization": "eyJib2R5IjoiV2ViMyBUb2tlbiBWZXJzaW9uOiAyXG5Ob25jZTogMTU4NTEwMjc5MTQ2NjQ4NzgxMFxuSXNzdWVkIEF0OiBXZWQsIDI2IE9jdCAyMDIyIDAyOjU1OjI5IEdNVFxuRXhwaXJhdGlvbiBUaW1lOiBTYXQsIDIzIE9jdCAyMDMyIDAyOjU1OjI5IEdNVCIsInNpZ25hdHVyZSI6IjB4OTE1NWMyOGM3NjVjZjk1YTBjNjdiZGNhYzExNzIwYTRkNDQ4NDc4YmU5ZDZhNjE3ZWQzNDUzZDU3MDgzZjNjZTA2N2Q5OGUwMGI0YTVhMmJmOTlkY2I5Y2VmNzg5Yjc4OWViNzI5OTk4YzgxYWQzOWFhMTUzZTcxM2Q4M2FhYWUxYiJ9"}

body:{"id": "1598262974187024386", "signatures": [{"hash": "4c81a12e35d45d7153f52698d4992bc1bdf185cd56596dbf87593aa26b319cbc", "publicKey": "0244fb46bba2e912f26a73126b89742ed7f521f593ee084953ae008172553a0113", "signature": "5d763f8acfdf6f3b9b6b05db9245522f9fd45d2de7af5e523ff505bf935deb363319d3947512c8a738b4b4e9432d717d0e68b39f07fd0ca72963cd070e170edf01"}, {"hash": "4c81a12e35d45d7153f52698d4992bc1bdf185cd56596dbf87593aa26b319cbc", "publicKey": "03c420167aaf4fc7106646b2fe485519e5569ceb1584ae31d62537e349a4e4b5a9", "signature": "f54eaba5b6e83bbad5337a717647c349abd65aba77784ee4f8504c3f23f32510417c5075418b083dd9b05924adea3e797665c39d87ca53b1f47bd50b3266c24001"}]}


[32mINFO    [0m Common.Httpcore:Httpcore.py:158 2022-12-01 18:29:20.494310 | 
<-----Core Sign Response---->
{"balanceChanges":[],"blockHash":"","blockHeight":"0","blockTime":"1970-01-01T00:00:00.000Z","createdTime":"2022-12-01T10:29:22.000Z","description":"Contract Execution","estimatedFee":"3406680000000000","fee":"-1","hash":"","id":"1598262974187024386","networkCode":"MATIC","requiredSignings":[{"hash":"51754db7c92d4318a0b192e557791e268186d3cffacca8e560207347c8e5224d","threshold":1}],"serialized":"02f902b481892f8506fc23ac008506fc23ad908301bb94946490c1b13a4576128159576f9d3acadf79e8dd6f80b902846a7612020000000000000000000000002791bca1f2de4661ed88a30c99a7a9449aa84174000000000000000000000000000000000000000000000000000000000000000000000000000000000000000000000000000000000000000000000000000001400000000000000000000000000000000000000000000000000000000000000000000000000000000000000000000000000000000000000000000000000000afce000000000000000000000000000000000000000000000000000000000000d674000000000000000000000000000000000000000000000000000000076906b04c0000000000000000000000000000000000000000000000000000000000000000000000000000000000000000e525e7cd17f6dc950492755a089e452fd5d9d44f00000000000000000000000000000000000000000000000000000000000001c00000000000000000000000000000000000000000000000000000000000000044a9059cbb0000000000000000000000006490c1b13a4576128159576f9d3acadf79e8dd6f0000000000000000000000000000000000000000000000000000000000000064000000000000000000000000000000000000000000000000000000000000000000000000000000000000000000000000000000000000000000000082f54eaba5b6e83bbad5337a717647c349abd65aba77784ee4f8504c3f23f32510417c5075418b083dd9b05924adea3e797665c39d87ca53b1f47bd50b3266c2401c5d763f8acfdf6f3b9b6b05db9245522f9fd45d2de7af5e523ff505bf935deb363319d3947512c8a738b4b4e9432d717d0e68b39f07fd0ca72963cd070e170edf1c000000000000000000000000000000000000000000000000000000000000c0808080","status":0,"statusDesc":"BUILDING","updatedTime":"2022-12-01T10:29:24.179Z"}
[32mINFO    [0m Common.Httpcore:Httpcore.py:155 2022-12-01 18:29:20.494310 | 
<-----Core Sign------>
Url:http://54.251.78.181:8888/core/api/transactions/signatures

Headers:{"Content-Type": "application/json", "Authorization": "eyJib2R5IjoiV2ViMyBUb2tlbiBWZXJzaW9uOiAyXG5Ob25jZTogMTU4NTEwMjc5MTQ2NjQ4NzgxMFxuSXNzdWVkIEF0OiBXZWQsIDI2IE9jdCAyMDIyIDAyOjU1OjI5IEdNVFxuRXhwaXJhdGlvbiBUaW1lOiBTYXQsIDIzIE9jdCAyMDMyIDAyOjU1OjI5IEdNVCIsInNpZ25hdHVyZSI6IjB4OTE1NWMyOGM3NjVjZjk1YTBjNjdiZGNhYzExNzIwYTRkNDQ4NDc4YmU5ZDZhNjE3ZWQzNDUzZDU3MDgzZjNjZTA2N2Q5OGUwMGI0YTVhMmJmOTlkY2I5Y2VmNzg5Yjc4OWViNzI5OTk4YzgxYWQzOWFhMTUzZTcxM2Q4M2FhYWUxYiJ9"}

body:{"id": "1598262974187024386", "signatures": [{"hash": "51754db7c92d4318a0b192e557791e268186d3cffacca8e560207347c8e5224d", "publicKey": "0244fb46bba2e912f26a73126b89742ed7f521f593ee084953ae008172553a0113", "signature": "cf24afb497f317b7804b65d481f67b48562958eca4e4c782c34cbe95a4eec0af5fcaccc33e730c2fedb9d4360d1efece14b1525630c4a3302769c2d20aa23a9100"}]}


[32mINFO    [0m Common.Httpcore:Httpcore.py:158 2022-12-01 18:29:20.494310 | 
<-----Core Sign Response---->
{"balanceChanges":[],"blockHash":"","blockHeight":"0","blockTime":"1970-01-01T00:00:00.000Z","createdTime":"2022-12-01T10:29:22.000Z","description":"Contract Execution","estimatedFee":"3406680000000000","fee":"-1","hash":"0xe4bf1d93861aef683052394f472a68e3c41f057cb41c2582742f7f00dcfb57b1","id":"1598262974187024386","networkCode":"MATIC","serialized":"02f902f481892f8506fc23ac008506fc23ad908301bb94946490c1b13a4576128159576f9d3acadf79e8dd6f80b902846a7612020000000000000000000000002791bca1f2de4661ed88a30c99a7a9449aa84174000000000000000000000000000000000000000000000000000000000000000000000000000000000000000000000000000000000000000000000000000001400000000000000000000000000000000000000000000000000000000000000000000000000000000000000000000000000000000000000000000000000000afce000000000000000000000000000000000000000000000000000000000000d674000000000000000000000000000000000000000000000000000000076906b04c0000000000000000000000000000000000000000000000000000000000000000000000000000000000000000e525e7cd17f6dc950492755a089e452fd5d9d44f00000000000000000000000000000000000000000000000000000000000001c00000000000000000000000000000000000000000000000000000000000000044a9059cbb0000000000000000000000006490c1b13a4576128159576f9d3acadf79e8dd6f0000000000000000000000000000000000000000000000000000000000000064000000000000000000000000000000000000000000000000000000000000000000000000000000000000000000000000000000000000000000000082f54eaba5b6e83bbad5337a717647c349abd65aba77784ee4f8504c3f23f32510417c5075418b083dd9b05924adea3e797665c39d87ca53b1f47bd50b3266c2401c5d763f8acfdf6f3b9b6b05db9245522f9fd45d2de7af5e523ff505bf935deb363319d3947512c8a738b4b4e9432d717d0e68b39f07fd0ca72963cd070e170edf1c000000000000000000000000000000000000000000000000000000000000c080a0cf24afb497f317b7804b65d481f67b48562958eca4e4c782c34cbe95a4eec0afa05fcaccc33e730c2fedb9d4360d1efece14b1525630c4a3302769c2d20aa23a91","status":2,"statusDesc":"SIGNED","updatedTime":"2022-12-01T10:29:24.414Z"}
[32mINFO    [0m Common.Httpcore:Httpcore.py:174 2022-12-01 18:29:20.494310 | 
<-----Core Send------>
Url:http://54.251.78.181:8888/core/api/transactions/send/1598262974187024386

Headers:{"Content-Type": "application/json", "Authorization": "eyJib2R5IjoiV2ViMyBUb2tlbiBWZXJzaW9uOiAyXG5Ob25jZTogMTU4NTEwMjc5MTQ2NjQ4NzgxMFxuSXNzdWVkIEF0OiBXZWQsIDI2IE9jdCAyMDIyIDAyOjU1OjI5IEdNVFxuRXhwaXJhdGlvbiBUaW1lOiBTYXQsIDIzIE9jdCAyMDMyIDAyOjU1OjI5IEdNVCIsInNpZ25hdHVyZSI6IjB4OTE1NWMyOGM3NjVjZjk1YTBjNjdiZGNhYzExNzIwYTRkNDQ4NDc4YmU5ZDZhNjE3ZWQzNDUzZDU3MDgzZjNjZTA2N2Q5OGUwMGI0YTVhMmJmOTlkY2I5Y2VmNzg5Yjc4OWViNzI5OTk4YzgxYWQzOWFhMTUzZTcxM2Q4M2FhYWUxYiJ9"}


[32mINFO    [0m Common.Httpcore:Httpcore.py:177 2022-12-01 18:29:20.494310 | 
<-----Core Send Response---->
{"balanceChanges":[],"blockHash":"","blockHeight":"0","blockTime":"2022-12-01T10:29:27.738Z","createdTime":"2022-12-01T10:29:22.000Z","description":"Contract Execution","estimatedFee":"3406680000000000","fee":"-1","hash":"0xe4bf1d93861aef683052394f472a68e3c41f057cb41c2582742f7f00dcfb57b1","id":"1598262974187024386","networkCode":"MATIC","serialized":"02f902f481892f8506fc23ac008506fc23ad908301bb94946490c1b13a4576128159576f9d3acadf79e8dd6f80b902846a7612020000000000000000000000002791bca1f2de4661ed88a30c99a7a9449aa84174000000000000000000000000000000000000000000000000000000000000000000000000000000000000000000000000000000000000000000000000000001400000000000000000000000000000000000000000000000000000000000000000000000000000000000000000000000000000000000000000000000000000afce000000000000000000000000000000000000000000000000000000000000d674000000000000000000000000000000000000000000000000000000076906b04c0000000000000000000000000000000000000000000000000000000000000000000000000000000000000000e525e7cd17f6dc950492755a089e452fd5d9d44f00000000000000000000000000000000000000000000000000000000000001c00000000000000000000000000000000000000000000000000000000000000044a9059cbb0000000000000000000000006490c1b13a4576128159576f9d3acadf79e8dd6f0000000000000000000000000000000000000000000000000000000000000064000000000000000000000000000000000000000000000000000000000000000000000000000000000000000000000000000000000000000000000082f54eaba5b6e83bbad5337a717647c349abd65aba77784ee4f8504c3f23f32510417c5075418b083dd9b05924adea3e797665c39d87ca53b1f47bd50b3266c2401c5d763f8acfdf6f3b9b6b05db9245522f9fd45d2de7af5e523ff505bf935deb363319d3947512c8a738b4b4e9432d717d0e68b39f07fd0ca72963cd070e170edf1c000000000000000000000000000000000000000000000000000000000000c080a0cf24afb497f317b7804b65d481f67b48562958eca4e4c782c34cbe95a4eec0afa05fcaccc33e730c2fedb9d4360d1efece14b1525630c4a3302769c2d20aa23a91","status":3,"statusDesc":"PENDING","updatedTime":"2022-12-01T10:29:27.738Z"}