[32mINFO    [0m Common.Httpcore:Httpcore.py:224 2022-12-02 18:21:35.338494 | 
<-----Query UTXO----->
Url:https://api.bitcore.io/api/BTC/testnet/address/tb1qhcuul2fcyv5rvr5mc5cy5saz0q5p3kx0gsy3c0?unspent=true

Headers:{"Content-Type": "application/json"}


[32mINFO    [0m Common.Httpcore:Httpcore.py:227 2022-12-02 18:21:35.338494 | 
<-----Query UTXO Response----->
[
{"_id":"6389cfcfd3bfc9e8e15558fc","chain":"BTC","network":"testnet","coinbase":false,"mintIndex":1,"spentTxid":"","mintTxid":"b29e292cca726b7f8d3b13de26db0cca577716218320101bd7af70f01aa8025a","mintHeight":-1,"spentHeight":-2,"address":"tb1qhcuul2fcyv5rvr5mc5cy5saz0q5p3kx0gsy3c0","script":"0014be39cfa9382328360e9bc5304a43a2782818d8cf","value":898357,"confirmations":-1},
{"_id":"6389cfcfd3bfc9e8e15558fb","chain":"BTC","network":"testnet","coinbase":false,"mintIndex":0,"spentTxid":"","mintTxid":"b29e292cca726b7f8d3b13de26db0cca577716218320101bd7af70f01aa8025a","mintHeight":-1,"spentHeight":-2,"address":"tb1qhcuul2fcyv5rvr5mc5cy5saz0q5p3kx0gsy3c0","script":"0014be39cfa9382328360e9bc5304a43a2782818d8cf","value":100,"confirmations":-1},
{"_id":"638967b1d3bfc9e8e1a2533f","chain":"BTC","network":"testnet","coinbase":false,"mintIndex":1,"spentTxid":"b29e292cca726b7f8d3b13de26db0cca577716218320101bd7af70f01aa8025a","mintTxid":"3bd055be1d1c03586c783b31fcf0b6bb9316cb2d058cf32172ae6af592ad37e3","mintHeight":2409372,"spentHeight":-1,"address":"tb1qhcuul2fcyv5rvr5mc5cy5saz0q5p3kx0gsy3c0","script":"0014be39cfa9382328360e9bc5304a43a2782818d8cf","value":898662,"confirmations":-1,"sequenceNumber":4294967295},
{"_id":"638967b1d3bfc9e8e1a2533e","chain":"BTC","network":"testnet","coinbase":false,"mintIndex":0,"spentTxid":"b29e292cca726b7f8d3b13de26db0cca577716218320101bd7af70f01aa8025a","mintTxid":"3bd055be1d1c03586c783b31fcf0b6bb9316cb2d058cf32172ae6af592ad37e3","mintHeight":2409372,"spentHeight":-1,"address":"tb1qhcuul2fcyv5rvr5mc5cy5saz0q5p3kx0gsy3c0","script":"0014be39cfa9382328360e9bc5304a43a2782818d8cf","value":100,"confirmations":-1,"sequenceNumber":4294967295},
{"_id":"6385ac0fd3bfc9e8e17f09de","chain":"BTC","network":"testnet","coinbase":false,"mintIndex":0,"spentTxid":"b29e292cca726b7f8d3b13de26db0cca577716218320101bd7af70f01aa8025a","mintTxid":"9aa6d0c2e5b677480d08b1f90c989f599ec16342cdee9e1fe48a698030a38eae","mintHeight":2408923,"spentHeight":-1,"address":"tb1qhcuul2fcyv5rvr5mc5cy5saz0q5p3kx0gsy3c0","script":"0014be39cfa9382328360e9bc5304a43a2782818d8cf","value":100,"confirmations":-1,"sequenceNumber":4294967295}
]
[32mINFO    [0m Common.Httpcore:Httpcore.py:132 2022-12-02 18:21:35.338494 | 
<-----Core Build------>
Url:http://54.251.78.181:8888/core/api/transactions

Headers:{"Content-Type": "application/json", "Authorization": "eyJib2R5IjoiV2ViMyBUb2tlbiBWZXJzaW9uOiAyXG5Ob25jZTogMTU4NTEwMjc5MTQ2NjQ4NzgxMFxuSXNzdWVkIEF0OiBXZWQsIDI2IE9jdCAyMDIyIDAyOjU1OjI5IEdNVFxuRXhwaXJhdGlvbiBUaW1lOiBTYXQsIDIzIE9jdCAyMDMyIDAyOjU1OjI5IEdNVCIsInNpZ25hdHVyZSI6IjB4OTE1NWMyOGM3NjVjZjk1YTBjNjdiZGNhYzExNzIwYTRkNDQ4NDc4YmU5ZDZhNjE3ZWQzNDUzZDU3MDgzZjNjZTA2N2Q5OGUwMGI0YTVhMmJmOTlkY2I5Y2VmNzg5Yjc4OWViNzI5OTk4YzgxYWQzOWFhMTUzZTcxM2Q4M2FhYWUxYiJ9"}

body:{"networkCode": "BTC", "payload": {"changer": "tb1qhcuul2fcyv5rvr5mc5cy5saz0q5p3kx0gsy3c0", "recipients": [{"address": "tb1qhcuul2fcyv5rvr5mc5cy5saz0q5p3kx0gsy3c0", "value": "100"}, {"address": "tb1qhcuul2fcyv5rvr5mc5cy5saz0q5p3kx0gsy3c0", "value": "200"}, {"address": "tb1qhcuul2fcyv5rvr5mc5cy5saz0q5p3kx0gsy3c0", "value": "300"}], "utxos": [{"amount": 898357, "scriptPubKey": "0014be39cfa9382328360e9bc5304a43a2782818d8cf", "signers": ["02e8852463021b47fe5214c599e87e431f2eb1219044946bbff397afd0518b85a6"], "txid": "b29e292cca726b7f8d3b13de26db0cca577716218320101bd7af70f01aa8025a", "vout": 1}, {"amount": 100, "scriptPubKey": "0014be39cfa9382328360e9bc5304a43a2782818d8cf", "signers": ["02e8852463021b47fe5214c599e87e431f2eb1219044946bbff397afd0518b85a6"], "txid": "b29e292cca726b7f8d3b13de26db0cca577716218320101bd7af70f01aa8025a", "vout": 0}, {"amount": 898662, "scriptPubKey": "0014be39cfa9382328360e9bc5304a43a2782818d8cf", "signers": ["02e8852463021b47fe5214c599e87e431f2eb1219044946bbff397afd0518b85a6"], "txid": "3bd055be1d1c03586c783b31fcf0b6bb9316cb2d058cf32172ae6af592ad37e3", "vout": 1}, {"amount": 100, "scriptPubKey": "0014be39cfa9382328360e9bc5304a43a2782818d8cf", "signers": ["02e8852463021b47fe5214c599e87e431f2eb1219044946bbff397afd0518b85a6"], "txid": "3bd055be1d1c03586c783b31fcf0b6bb9316cb2d058cf32172ae6af592ad37e3", "vout": 0}, {"amount": 100, "scriptPubKey": "0014be39cfa9382328360e9bc5304a43a2782818d8cf", "signers": ["02e8852463021b47fe5214c599e87e431f2eb1219044946bbff397afd0518b85a6"], "txid": "9aa6d0c2e5b677480d08b1f90c989f599ec16342cdee9e1fe48a698030a38eae", "vout": 0}]}, "type": "TRANSACTION"}


[32mINFO    [0m Common.Httpcore:Httpcore.py:135 2022-12-02 18:21:35.338494 | 
<-----Core Build Response---->
{"balanceChanges":[],"blockTime":"1970-01-01T00:00:00.000Z","createdTime":"2022-12-02T10:21:36.802Z","description":"Custom Excution","estimatedFee":"691","hash":"","id":"1598623410426171394","networkCode":"BTC","requiredSignings":[{"hash":"ca0561fd57665375761f22cede656758d924ba5c1b9d746cd0094e040639e64e","publicKeys":["02e8852463021b47fe5214c599e87e431f2eb1219044946bbff397afd0518b85a6"],"threshold":1},{"hash":"a189f672138502b11e3eec7e23d3445a8eeb2483b51abb44d556cef6c86068b9","publicKeys":["02e8852463021b47fe5214c599e87e431f2eb1219044946bbff397afd0518b85a6"],"threshold":1},{"hash":"e83c513c4274683b1f05fa14179210dcfcce4cbc7ad5db6ae4e1480db95eb26d","publicKeys":["02e8852463021b47fe5214c599e87e431f2eb1219044946bbff397afd0518b85a6"],"threshold":1},{"hash":"8553d007c4cee8974175be299080439f4c337d942d4de7f6e09402dde3203dd8","publicKeys":["02e8852463021b47fe5214c599e87e431f2eb1219044946bbff397afd0518b85a6"],"threshold":1},{"hash":"c5ad83621d7161dbe6b29f9e768cbec19d5753e0ea43ccd6cad19988b7431e09","publicKeys":["02e8852463021b47fe5214c599e87e431f2eb1219044946bbff397afd0518b85a6"],"threshold":1}],"serialized":"01000000055a02a81af070afd71b10208321167757ca0cdb26de133b8d7f6b72ca2c299eb20100000000ffffffff5a02a81af070afd71b10208321167757ca0cdb26de133b8d7f6b72ca2c299eb20000000000ffffffffe337ad92f56aae7221f38c052dcb1693bbb6f0fc313b786c58031c1dbe55d03b0100000000ffffffffe337ad92f56aae7221f38c052dcb1693bbb6f0fc313b786c58031c1dbe55d03b0000000000ffffffffae8ea33080698ae41f9eeecd4263c19e599f980cf9b1080d4877b6e5c2d0a69a0000000000ffffffff046400000000000000160014be39cfa9382328360e9bc5304a43a2782818d8cfc800000000000000160014be39cfa9382328360e9bc5304a43a2782818d8cf2c01000000000000160014be39cfa9382328360e9bc5304a43a2782818d8cfbc671b0000000000160014be39cfa9382328360e9bc5304a43a2782818d8cf00000000","status":0,"statusDesc":"BUILDING","updatedTime":"2022-12-02T10:21:36.802Z"}
[32mINFO    [0m Common.Httpcore:Httpcore.py:155 2022-12-02 18:21:35.338494 | 
<-----Core Sign------>
Url:http://54.251.78.181:8888/core/api/transactions/signatures

Headers:{"Content-Type": "application/json", "Authorization": "eyJib2R5IjoiV2ViMyBUb2tlbiBWZXJzaW9uOiAyXG5Ob25jZTogMTU4NTEwMjc5MTQ2NjQ4NzgxMFxuSXNzdWVkIEF0OiBXZWQsIDI2IE9jdCAyMDIyIDAyOjU1OjI5IEdNVFxuRXhwaXJhdGlvbiBUaW1lOiBTYXQsIDIzIE9jdCAyMDMyIDAyOjU1OjI5IEdNVCIsInNpZ25hdHVyZSI6IjB4OTE1NWMyOGM3NjVjZjk1YTBjNjdiZGNhYzExNzIwYTRkNDQ4NDc4YmU5ZDZhNjE3ZWQzNDUzZDU3MDgzZjNjZTA2N2Q5OGUwMGI0YTVhMmJmOTlkY2I5Y2VmNzg5Yjc4OWViNzI5OTk4YzgxYWQzOWFhMTUzZTcxM2Q4M2FhYWUxYiJ9"}

body:{"id": "1598623410426171394", "signatures": [{"hash": "ca0561fd57665375761f22cede656758d924ba5c1b9d746cd0094e040639e64e", "publicKey": "02e8852463021b47fe5214c599e87e431f2eb1219044946bbff397afd0518b85a6", "signature": "7dc23db64a93ed31ba296782c65c734ba58c561a562fca3571dde327aa11a3993f8266e42dc1f957a419dc40fc2e7ed90955e7d178ddfe96eeb8074071d6726100"}, {"hash": "a189f672138502b11e3eec7e23d3445a8eeb2483b51abb44d556cef6c86068b9", "publicKey": "02e8852463021b47fe5214c599e87e431f2eb1219044946bbff397afd0518b85a6", "signature": "bded1c810160880774adeffb6cf0319413bbf608f9d9c826d26922ba816034bc4d2b6064853652325e91eddf93077e5e856acb0e7e23fd5b15912fa5f7084cfb00"}, {"hash": "e83c513c4274683b1f05fa14179210dcfcce4cbc7ad5db6ae4e1480db95eb26d", "publicKey": "02e8852463021b47fe5214c599e87e431f2eb1219044946bbff397afd0518b85a6", "signature": "56c1f5a1829c1dc6c1803d0d9bd74fd27f4f9667c94905806507fc2edf6e5ad56ccd91abc4913e062cd8ae184410a5b357c148533680c726a5279666e173366701"}, {"hash": "8553d007c4cee8974175be299080439f4c337d942d4de7f6e09402dde3203dd8", "publicKey": "02e8852463021b47fe5214c599e87e431f2eb1219044946bbff397afd0518b85a6", "signature": "8d729ff08f59d49fd73cc3a38c789c36ff02c36517178cee12a6b953bd5bf669295a1ff7fc740bcf1402a02d8d47b5ffc33652d43868ce2e98e4c5c4245da29000"}, {"hash": "c5ad83621d7161dbe6b29f9e768cbec19d5753e0ea43ccd6cad19988b7431e09", "publicKey": "02e8852463021b47fe5214c599e87e431f2eb1219044946bbff397afd0518b85a6", "signature": "83b91e9567309ac1e93b2a8c9ab9495ab28e4007d3d216d8cbd2a1eecce9c5106d7d14f6af020ccdf3a084ddeca338e3857caddfd97121b44386bcb7b9f4ecbb00"}]}


[32mINFO    [0m Common.Httpcore:Httpcore.py:158 2022-12-02 18:21:35.338494 | 
<-----Core Sign Response---->
{"balanceChanges":[],"blockHash":"","blockHeight":"0","blockTime":"1970-01-01T00:00:00.000Z","createdTime":"2022-12-02T10:21:37.000Z","description":"Custom Excution","estimatedFee":"691","fee":"-1","hash":"dc78395cb6cea276f4f7694b6e0559952df6e835e29295b4a0d6ebec8f223bb4","id":"1598623410426171394","networkCode":"BTC","serialized":"010000000001055a02a81af070afd71b10208321167757ca0cdb26de133b8d7f6b72ca2c299eb20100000000ffffffff5a02a81af070afd71b10208321167757ca0cdb26de133b8d7f6b72ca2c299eb20000000000ffffffffe337ad92f56aae7221f38c052dcb1693bbb6f0fc313b786c58031c1dbe55d03b0100000000ffffffffe337ad92f56aae7221f38c052dcb1693bbb6f0fc313b786c58031c1dbe55d03b0000000000ffffffffae8ea33080698ae41f9eeecd4263c19e599f980cf9b1080d4877b6e5c2d0a69a0000000000ffffffff046400000000000000160014be39cfa9382328360e9bc5304a43a2782818d8cfc800000000000000160014be39cfa9382328360e9bc5304a43a2782818d8cf2c01000000000000160014be39cfa9382328360e9bc5304a43a2782818d8cfbc671b0000000000160014be39cfa9382328360e9bc5304a43a2782818d8cf02473044022056c1f5a1829c1dc6c1803d0d9bd74fd27f4f9667c94905806507fc2edf6e5ad502206ccd91abc4913e062cd8ae184410a5b357c148533680c726a5279666e1733667012102e8852463021b47fe5214c599e87e431f2eb1219044946bbff397afd0518b85a6024830450221008d729ff08f59d49fd73cc3a38c789c36ff02c36517178cee12a6b953bd5bf6690220295a1ff7fc740bcf1402a02d8d47b5ffc33652d43868ce2e98e4c5c4245da290012102e8852463021b47fe5214c599e87e431f2eb1219044946bbff397afd0518b85a60248304502210083b91e9567309ac1e93b2a8c9ab9495ab28e4007d3d216d8cbd2a1eecce9c51002206d7d14f6af020ccdf3a084ddeca338e3857caddfd97121b44386bcb7b9f4ecbb012102e8852463021b47fe5214c599e87e431f2eb1219044946bbff397afd0518b85a602483045022100bded1c810160880774adeffb6cf0319413bbf608f9d9c826d26922ba816034bc02204d2b6064853652325e91eddf93077e5e856acb0e7e23fd5b15912fa5f7084cfb012102e8852463021b47fe5214c599e87e431f2eb1219044946bbff397afd0518b85a60247304402207dc23db64a93ed31ba296782c65c734ba58c561a562fca3571dde327aa11a39902203f8266e42dc1f957a419dc40fc2e7ed90955e7d178ddfe96eeb8074071d67261012102e8852463021b47fe5214c599e87e431f2eb1219044946bbff397afd0518b85a600000000","status":2,"statusDesc":"SIGNED","updatedTime":"2022-12-02T10:21:37.202Z"}
[32mINFO    [0m Common.Httpcore:Httpcore.py:174 2022-12-02 18:21:35.338494 | 
<-----Core Send------>
Url:http://54.251.78.181:8888/core/api/transactions/send/1598623410426171394

Headers:{"Content-Type": "application/json", "Authorization": "eyJib2R5IjoiV2ViMyBUb2tlbiBWZXJzaW9uOiAyXG5Ob25jZTogMTU4NTEwMjc5MTQ2NjQ4NzgxMFxuSXNzdWVkIEF0OiBXZWQsIDI2IE9jdCAyMDIyIDAyOjU1OjI5IEdNVFxuRXhwaXJhdGlvbiBUaW1lOiBTYXQsIDIzIE9jdCAyMDMyIDAyOjU1OjI5IEdNVCIsInNpZ25hdHVyZSI6IjB4OTE1NWMyOGM3NjVjZjk1YTBjNjdiZGNhYzExNzIwYTRkNDQ4NDc4YmU5ZDZhNjE3ZWQzNDUzZDU3MDgzZjNjZTA2N2Q5OGUwMGI0YTVhMmJmOTlkY2I5Y2VmNzg5Yjc4OWViNzI5OTk4YzgxYWQzOWFhMTUzZTcxM2Q4M2FhYWUxYiJ9"}


[31m[1mERROR   [0m Common.Httpcore:Httpcore.py:180 2022-12-02 18:21:35.338494 | 
<-----Core Send Response Error----->{"code":2400000,"message":"INTERNAL: 500 - {\"result\":null,\"error\":{\"code\":-26,\"message\":\"txn-mempool-conflict\"},\"id\":1669976497426}"}