[32mINFO    [0m Common.Httpcore:Httpcore.py:220 2022-12-07 17:05:39.765536 | 
<-----Relay estimate----->
Url:http://16.163.105.179:18000/api/v2/safes/0x6490C1b13A4576128159576F9d3acadF79e8dd6f/transactions/estimate/

Headers:{"Content-Type": "application/json"}

Body:{"gasToken": "0x0000000000000000000000000000000000000000", "operation": "0", "safe": "0x6490C1b13A4576128159576F9d3acadF79e8dd6f", "to": "0x6490C1b13A4576128159576F9d3acadF79e8dd6f", "data": "0x", "value": "100"}
[32mINFO    [0m Common.Httpcore:Httpcore.py:223 2022-12-07 17:05:39.765536 | 
<-----Relay estimate Response----->
{"safeTxGas":"45006","baseGas":"54900","dataGas":"54900","operationalGas":"0","gasPrice":"37921789594","lastUsedNonce":26,"gasToken":"0x0000000000000000000000000000000000000000","refundReceiver":"0xbA7024EE0273C30a479838DA4Ad31718436b453e"}
[32mINFO    [0m Common.Httpcore:Httpcore.py:132 2022-12-07 17:05:39.765536 | 
<-----Core Build------>
Url:http://54.251.78.181:8888/core/api/transactions

Headers:{"Content-Type": "application/json", "Authorization": "eyJib2R5IjoiV2ViMyBUb2tlbiBWZXJzaW9uOiAyXG5Ob25jZTogMTU4NTEwMjc5MTQ2NjQ4NzgxMFxuSXNzdWVkIEF0OiBXZWQsIDI2IE9jdCAyMDIyIDAyOjU1OjI5IEdNVFxuRXhwaXJhdGlvbiBUaW1lOiBTYXQsIDIzIE9jdCAyMDMyIDAyOjU1OjI5IEdNVCIsInNpZ25hdHVyZSI6IjB4OTE1NWMyOGM3NjVjZjk1YTBjNjdiZGNhYzExNzIwYTRkNDQ4NDc4YmU5ZDZhNjE3ZWQzNDUzZDU3MDgzZjNjZTA2N2Q5OGUwMGI0YTVhMmJmOTlkY2I5Y2VmNzg5Yjc4OWViNzI5OTk4YzgxYWQzOWFhMTUzZTcxM2Q4M2FhYWUxYiJ9"}

body:{"networkCode": "MATIC", "payload": {"from": "0x10f564F105Ba1DeC06087FE09329959dbD6b862D", "inputRequest": {"to": "0x6490C1b13A4576128159576F9d3acadF79e8dd6f", "value": "0x64"}, "safeInputRequest": {"contract": "0x6490C1b13A4576128159576F9d3acadF79e8dd6f", "participants": ["0244fb46bba2e912f26a73126b89742ed7f521f593ee084953ae008172553a0113", "03c420167aaf4fc7106646b2fe485519e5569ceb1584ae31d62537e349a4e4b5a9"], "to": "0x2791Bca1f2de4661ED88A30C99A7a9449Aa84174"}}, "type": "SAFE_TOKEN_TRANSFER_TRANSACTION"}


[32mINFO    [0m Common.Httpcore:Httpcore.py:135 2022-12-07 17:05:39.765536 | 
<-----Core Build Response---->
{"balanceChanges":[],"blockTime":"1970-01-01T00:00:00.000Z","createdTime":"2022-12-07T09:05:47.080Z","description":"Custom Excution","estimatedFee":"","hash":"","id":"1600416262680453121","networkCode":"MATIC","requiredSignings":[{"hash":"2ee3f85e2f80c4bb9ca7a8d932ab27138c84a994c32fd176c64989d77f76d1b3","publicKeys":["0244fb46bba2e912f26a73126b89742ed7f521f593ee084953ae008172553a0113","03c420167aaf4fc7106646b2fe485519e5569ceb1584ae31d62537e349a4e4b5a9"],"threshold":2}],"serialized":"6a7612020000000000000000000000002791bca1f2de4661ed88a30c99a7a9449aa841740000000000000000000000000000000000000000000000000000000000000000000000000000000000000000000000000000000000000000000000000000014000000000000000000000000000000000000000000000000000000000000000000000000000000000000000000000000000000000000000000000000000000000000000000000000000000000000000000000000000000000000000000000000000000000000000000000000000000000000000000000000000000000000000000000000000000000000000000000000000000000000000000000000000000000000000000000000000000000000000000000000000000000000000000000000000000000000000000000000000000000000000000000000000000000000001c00000000000000000000000000000000000000000000000000000000000000044a9059cbb0000000000000000000000006490c1b13a4576128159576f9d3acadf79e8dd6f0000000000000000000000000000000000000000000000000000000000000064000000000000000000000000000000000000000000000000000000000000000000000000000000000000000000000000000000000000000000000000","status":0,"statusDesc":"BUILDING","updatedTime":"2022-12-07T09:05:47.080Z"}
[32mINFO    [0m Common.Httpcore:Httpcore.py:174 2022-12-07 17:05:39.765536 | 
<-----Core Sign------>
Url:http://54.251.78.181:8888/core/api/transactions/signatures

Headers:{"Content-Type": "application/json", "Authorization": "eyJib2R5IjoiV2ViMyBUb2tlbiBWZXJzaW9uOiAyXG5Ob25jZTogMTU4NTEwMjc5MTQ2NjQ4NzgxMFxuSXNzdWVkIEF0OiBXZWQsIDI2IE9jdCAyMDIyIDAyOjU1OjI5IEdNVFxuRXhwaXJhdGlvbiBUaW1lOiBTYXQsIDIzIE9jdCAyMDMyIDAyOjU1OjI5IEdNVCIsInNpZ25hdHVyZSI6IjB4OTE1NWMyOGM3NjVjZjk1YTBjNjdiZGNhYzExNzIwYTRkNDQ4NDc4YmU5ZDZhNjE3ZWQzNDUzZDU3MDgzZjNjZTA2N2Q5OGUwMGI0YTVhMmJmOTlkY2I5Y2VmNzg5Yjc4OWViNzI5OTk4YzgxYWQzOWFhMTUzZTcxM2Q4M2FhYWUxYiJ9"}

body:{"id": "1600416262680453121", "signatures": [{"hash": "2ee3f85e2f80c4bb9ca7a8d932ab27138c84a994c32fd176c64989d77f76d1b3", "publicKey": "0244fb46bba2e912f26a73126b89742ed7f521f593ee084953ae008172553a0113", "signature": "0af374d3b24160f3c8b8b2a89798e0ff4d8e2bce43c61941b4bcbb9c0e3ef0ac000c8c3d873fb0f9a789e1a9c0b8943512c9cac73c59fb1fd9e5cc367f98242301"}, {"hash": "2ee3f85e2f80c4bb9ca7a8d932ab27138c84a994c32fd176c64989d77f76d1b3", "publicKey": "03c420167aaf4fc7106646b2fe485519e5569ceb1584ae31d62537e349a4e4b5a9", "signature": "6a069ee27c0a1f077f6a7794798ae361bdfacdec18980c19a9165267d44352de0b73bf66690f156d7ea77033f867ffce75db13e4616d39921fd372cc5fc0a7d900"}]}


[32mINFO    [0m Common.Httpcore:Httpcore.py:177 2022-12-07 17:05:39.765536 | 
<-----Core Sign Response---->
{"balanceChanges":[],"blockHash":"","blockHeight":"0","blockTime":"1970-01-01T00:00:00.000Z","createdTime":"2022-12-07T09:05:47.000Z","description":"Contract Execution","estimatedFee":"2818680000000000","fee":"-1","hash":"","id":"1600416262680453121","networkCode":"MATIC","requiredSignings":[{"hash":"8ffc2265ed874bba03c85cecc41c58f66c9364f6b46fdc4416de4197d44bcd09","threshold":1}],"serialized":"02f902b5818981af8506fc23ac00850b08b9f30283016f04946490c1b13a4576128159576f9d3acadf79e8dd6f80b902846a7612020000000000000000000000002791bca1f2de4661ed88a30c99a7a9449aa841740000000000000000000000000000000000000000000000000000000000000000000000000000000000000000000000000000000000000000000000000000014000000000000000000000000000000000000000000000000000000000000000000000000000000000000000000000000000000000000000000000000000000000000000000000000000000000000000000000000000000000000000000000000000000000000000000000000000000000000000000000000000000000000000000000000000000000000000000000000000000000000000000000000000000000000000000000000000000000000000000000000000000000000000000000000000000000000000000000000000000000000000000000000000000000000001c00000000000000000000000000000000000000000000000000000000000000044a9059cbb0000000000000000000000006490c1b13a4576128159576f9d3acadf79e8dd6f00000000000000000000000000000000000000000000000000000000000000640000000000000000000000000000000000000000000000000000000000000000000000000000000000000000000000000000000000000000000000826a069ee27c0a1f077f6a7794798ae361bdfacdec18980c19a9165267d44352de0b73bf66690f156d7ea77033f867ffce75db13e4616d39921fd372cc5fc0a7d91b0af374d3b24160f3c8b8b2a89798e0ff4d8e2bce43c61941b4bcbb9c0e3ef0ac000c8c3d873fb0f9a789e1a9c0b8943512c9cac73c59fb1fd9e5cc367f9824231c000000000000000000000000000000000000000000000000000000000000c0808080","status":0,"statusDesc":"BUILDING","updatedTime":"2022-12-07T09:05:48.942Z"}
[32mINFO    [0m Common.Httpcore:Httpcore.py:174 2022-12-07 17:05:39.765536 | 
<-----Core Sign------>
Url:http://54.251.78.181:8888/core/api/transactions/signatures

Headers:{"Content-Type": "application/json", "Authorization": "eyJib2R5IjoiV2ViMyBUb2tlbiBWZXJzaW9uOiAyXG5Ob25jZTogMTU4NTEwMjc5MTQ2NjQ4NzgxMFxuSXNzdWVkIEF0OiBXZWQsIDI2IE9jdCAyMDIyIDAyOjU1OjI5IEdNVFxuRXhwaXJhdGlvbiBUaW1lOiBTYXQsIDIzIE9jdCAyMDMyIDAyOjU1OjI5IEdNVCIsInNpZ25hdHVyZSI6IjB4OTE1NWMyOGM3NjVjZjk1YTBjNjdiZGNhYzExNzIwYTRkNDQ4NDc4YmU5ZDZhNjE3ZWQzNDUzZDU3MDgzZjNjZTA2N2Q5OGUwMGI0YTVhMmJmOTlkY2I5Y2VmNzg5Yjc4OWViNzI5OTk4YzgxYWQzOWFhMTUzZTcxM2Q4M2FhYWUxYiJ9"}

body:{"id": "1600416262680453121", "signatures": [{"hash": "8ffc2265ed874bba03c85cecc41c58f66c9364f6b46fdc4416de4197d44bcd09", "publicKey": "025c380e0b51894f3593a803fa38c79b4ac004f27c1d8ebd5567828a6d1634654e", "signature": "e71e1480fcc1874fbe4e01cf36e34af3a1438465666abf9f0180cfc09152149a3cd3c5ed87107a4d91e8306bf5020ea0e0b37c6a9cb97ab95ae954bd382122c701"}]}


[32mINFO    [0m Common.Httpcore:Httpcore.py:177 2022-12-07 17:05:39.765536 | 
<-----Core Sign Response---->
{"balanceChanges":[],"blockHash":"","blockHeight":"0","blockTime":"1970-01-01T00:00:00.000Z","createdTime":"2022-12-07T09:05:47.000Z","description":"Contract Execution","estimatedFee":"2818680000000000","fee":"-1","hash":"0x174ab9e373c60df66755ca6dbdbe50354ad1d8e8eeb8a1b331e5ce6ca22008fc","id":"1600416262680453121","networkCode":"MATIC","serialized":"02f902f5818981af8506fc23ac00850b08b9f30283016f04946490c1b13a4576128159576f9d3acadf79e8dd6f80b902846a7612020000000000000000000000002791bca1f2de4661ed88a30c99a7a9449aa841740000000000000000000000000000000000000000000000000000000000000000000000000000000000000000000000000000000000000000000000000000014000000000000000000000000000000000000000000000000000000000000000000000000000000000000000000000000000000000000000000000000000000000000000000000000000000000000000000000000000000000000000000000000000000000000000000000000000000000000000000000000000000000000000000000000000000000000000000000000000000000000000000000000000000000000000000000000000000000000000000000000000000000000000000000000000000000000000000000000000000000000000000000000000000000000001c00000000000000000000000000000000000000000000000000000000000000044a9059cbb0000000000000000000000006490c1b13a4576128159576f9d3acadf79e8dd6f00000000000000000000000000000000000000000000000000000000000000640000000000000000000000000000000000000000000000000000000000000000000000000000000000000000000000000000000000000000000000826a069ee27c0a1f077f6a7794798ae361bdfacdec18980c19a9165267d44352de0b73bf66690f156d7ea77033f867ffce75db13e4616d39921fd372cc5fc0a7d91b0af374d3b24160f3c8b8b2a89798e0ff4d8e2bce43c61941b4bcbb9c0e3ef0ac000c8c3d873fb0f9a789e1a9c0b8943512c9cac73c59fb1fd9e5cc367f9824231c000000000000000000000000000000000000000000000000000000000000c001a0e71e1480fcc1874fbe4e01cf36e34af3a1438465666abf9f0180cfc09152149aa03cd3c5ed87107a4d91e8306bf5020ea0e0b37c6a9cb97ab95ae954bd382122c7","status":2,"statusDesc":"SIGNED","updatedTime":"2022-12-07T09:05:49.287Z"}
[32mINFO    [0m Common.Httpcore:Httpcore.py:193 2022-12-07 17:05:39.765536 | 
<-----Core Send------>
Url:http://54.251.78.181:8888/core/api/transactions/send/1600416262680453121

Headers:{"Content-Type": "application/json", "Authorization": "eyJib2R5IjoiV2ViMyBUb2tlbiBWZXJzaW9uOiAyXG5Ob25jZTogMTU4NTEwMjc5MTQ2NjQ4NzgxMFxuSXNzdWVkIEF0OiBXZWQsIDI2IE9jdCAyMDIyIDAyOjU1OjI5IEdNVFxuRXhwaXJhdGlvbiBUaW1lOiBTYXQsIDIzIE9jdCAyMDMyIDAyOjU1OjI5IEdNVCIsInNpZ25hdHVyZSI6IjB4OTE1NWMyOGM3NjVjZjk1YTBjNjdiZGNhYzExNzIwYTRkNDQ4NDc4YmU5ZDZhNjE3ZWQzNDUzZDU3MDgzZjNjZTA2N2Q5OGUwMGI0YTVhMmJmOTlkY2I5Y2VmNzg5Yjc4OWViNzI5OTk4YzgxYWQzOWFhMTUzZTcxM2Q4M2FhYWUxYiJ9"}


[32mINFO    [0m Common.Httpcore:Httpcore.py:196 2022-12-07 17:05:39.765536 | 
<-----Core Send Response---->
{"balanceChanges":[],"blockHash":"","blockHeight":"0","blockTime":"2022-12-07T09:05:49.853Z","createdTime":"2022-12-07T09:05:47.000Z","description":"Contract Execution","estimatedFee":"2818680000000000","fee":"-1","hash":"0x174ab9e373c60df66755ca6dbdbe50354ad1d8e8eeb8a1b331e5ce6ca22008fc","id":"1600416262680453121","networkCode":"MATIC","serialized":"02f902f5818981af8506fc23ac00850b08b9f30283016f04946490c1b13a4576128159576f9d3acadf79e8dd6f80b902846a7612020000000000000000000000002791bca1f2de4661ed88a30c99a7a9449aa841740000000000000000000000000000000000000000000000000000000000000000000000000000000000000000000000000000000000000000000000000000014000000000000000000000000000000000000000000000000000000000000000000000000000000000000000000000000000000000000000000000000000000000000000000000000000000000000000000000000000000000000000000000000000000000000000000000000000000000000000000000000000000000000000000000000000000000000000000000000000000000000000000000000000000000000000000000000000000000000000000000000000000000000000000000000000000000000000000000000000000000000000000000000000000000000001c00000000000000000000000000000000000000000000000000000000000000044a9059cbb0000000000000000000000006490c1b13a4576128159576f9d3acadf79e8dd6f00000000000000000000000000000000000000000000000000000000000000640000000000000000000000000000000000000000000000000000000000000000000000000000000000000000000000000000000000000000000000826a069ee27c0a1f077f6a7794798ae361bdfacdec18980c19a9165267d44352de0b73bf66690f156d7ea77033f867ffce75db13e4616d39921fd372cc5fc0a7d91b0af374d3b24160f3c8b8b2a89798e0ff4d8e2bce43c61941b4bcbb9c0e3ef0ac000c8c3d873fb0f9a789e1a9c0b8943512c9cac73c59fb1fd9e5cc367f9824231c000000000000000000000000000000000000000000000000000000000000c001a0e71e1480fcc1874fbe4e01cf36e34af3a1438465666abf9f0180cfc09152149aa03cd3c5ed87107a4d91e8306bf5020ea0e0b37c6a9cb97ab95ae954bd382122c7","status":3,"statusDesc":"PENDING","updatedTime":"2022-12-07T09:05:49.853Z"}