[32mINFO    [0m Common.Httpcore:Httpcore.py:220 2022-12-07 17:04:17.382853 | 
<-----Relay estimate----->
Url:http://16.163.105.179:18000/api/v2/safes/0x6490C1b13A4576128159576F9d3acadF79e8dd6f/transactions/estimate/

Headers:{"Content-Type": "application/json"}

Body:{"gasToken": "0x0000000000000000000000000000000000000000", "operation": "0", "safe": "0x6490C1b13A4576128159576F9d3acadF79e8dd6f", "to": "0x6490C1b13A4576128159576F9d3acadF79e8dd6f", "data": "0x", "value": "100"}
[32mINFO    [0m Common.Httpcore:Httpcore.py:223 2022-12-07 17:04:17.382853 | 
<-----Relay estimate Response----->
{"safeTxGas":"45006","baseGas":"54900","dataGas":"54900","operationalGas":"0","gasPrice":"38276202921","lastUsedNonce":25,"gasToken":"0x0000000000000000000000000000000000000000","refundReceiver":"0xbA7024EE0273C30a479838DA4Ad31718436b453e"}
[32mINFO    [0m Common.Httpcore:Httpcore.py:132 2022-12-07 17:04:17.382853 | 
<-----Core Build------>
Url:http://54.251.78.181:8888/core/api/transactions

Headers:{"Content-Type": "application/json", "Authorization": "eyJib2R5IjoiV2ViMyBUb2tlbiBWZXJzaW9uOiAyXG5Ob25jZTogMTU4NTEwMjc5MTQ2NjQ4NzgxMFxuSXNzdWVkIEF0OiBXZWQsIDI2IE9jdCAyMDIyIDAyOjU1OjI5IEdNVFxuRXhwaXJhdGlvbiBUaW1lOiBTYXQsIDIzIE9jdCAyMDMyIDAyOjU1OjI5IEdNVCIsInNpZ25hdHVyZSI6IjB4OTE1NWMyOGM3NjVjZjk1YTBjNjdiZGNhYzExNzIwYTRkNDQ4NDc4YmU5ZDZhNjE3ZWQzNDUzZDU3MDgzZjNjZTA2N2Q5OGUwMGI0YTVhMmJmOTlkY2I5Y2VmNzg5Yjc4OWViNzI5OTk4YzgxYWQzOWFhMTUzZTcxM2Q4M2FhYWUxYiJ9"}

body:{"networkCode": "MATIC", "payload": {"from": "0x10f564F105Ba1DeC06087FE09329959dbD6b862D", "inputRequest": {"to": "0x6490C1b13A4576128159576F9d3acadF79e8dd6f", "value": "0x64"}, "safeInputRequest": {"contract": "0x6490C1b13A4576128159576F9d3acadF79e8dd6f", "participants": ["0244fb46bba2e912f26a73126b89742ed7f521f593ee084953ae008172553a0113", "03c420167aaf4fc7106646b2fe485519e5569ceb1584ae31d62537e349a4e4b5a9"], "refundReceiver": "0x10f564F105Ba1DeC06087FE09329959dbD6b862D", "gasToken": "0x0000000000000000000000000000000000000000", "baseGas": "54900", "safeTxGas": "45006", "gasPrice": "38276202921", "to": "0x2791Bca1f2de4661ED88A30C99A7a9449Aa84174"}}, "type": "SAFE_TOKEN_TRANSFER_TRANSACTION"}


[32mINFO    [0m Common.Httpcore:Httpcore.py:135 2022-12-07 17:04:17.382853 | 
<-----Core Build Response---->
{"balanceChanges":[],"blockTime":"1970-01-01T00:00:00.000Z","createdTime":"2022-12-07T09:04:24.703Z","description":"Custom Excution","estimatedFee":"","hash":"","id":"1600415917199826945","networkCode":"MATIC","requiredSignings":[{"hash":"aeb7cccf679aad14f9f59504c73d9af38b32e21506c381938d039d0f47ad1bae","publicKeys":["0244fb46bba2e912f26a73126b89742ed7f521f593ee084953ae008172553a0113","03c420167aaf4fc7106646b2fe485519e5569ceb1584ae31d62537e349a4e4b5a9"],"threshold":2}],"serialized":"6a7612020000000000000000000000002791bca1f2de4661ed88a30c99a7a9449aa84174000000000000000000000000000000000000000000000000000000000000000000000000000000000000000000000000000000000000000000000000000001400000000000000000000000000000000000000000000000000000000000000000000000000000000000000000000000000000000000000000000000000000afce000000000000000000000000000000000000000000000000000000000000d67400000000000000000000000000000000000000000000000000000008e97081a9000000000000000000000000000000000000000000000000000000000000000000000000000000000000000010f564f105ba1dec06087fe09329959dbd6b862d00000000000000000000000000000000000000000000000000000000000001c00000000000000000000000000000000000000000000000000000000000000044a9059cbb0000000000000000000000006490c1b13a4576128159576f9d3acadf79e8dd6f0000000000000000000000000000000000000000000000000000000000000064000000000000000000000000000000000000000000000000000000000000000000000000000000000000000000000000000000000000000000000000","status":0,"statusDesc":"BUILDING","updatedTime":"2022-12-07T09:04:24.703Z"}
[32mINFO    [0m Common.Httpcore:Httpcore.py:174 2022-12-07 17:04:17.382853 | 
<-----Core Sign------>
Url:http://54.251.78.181:8888/core/api/transactions/signatures

Headers:{"Content-Type": "application/json", "Authorization": "eyJib2R5IjoiV2ViMyBUb2tlbiBWZXJzaW9uOiAyXG5Ob25jZTogMTU4NTEwMjc5MTQ2NjQ4NzgxMFxuSXNzdWVkIEF0OiBXZWQsIDI2IE9jdCAyMDIyIDAyOjU1OjI5IEdNVFxuRXhwaXJhdGlvbiBUaW1lOiBTYXQsIDIzIE9jdCAyMDMyIDAyOjU1OjI5IEdNVCIsInNpZ25hdHVyZSI6IjB4OTE1NWMyOGM3NjVjZjk1YTBjNjdiZGNhYzExNzIwYTRkNDQ4NDc4YmU5ZDZhNjE3ZWQzNDUzZDU3MDgzZjNjZTA2N2Q5OGUwMGI0YTVhMmJmOTlkY2I5Y2VmNzg5Yjc4OWViNzI5OTk4YzgxYWQzOWFhMTUzZTcxM2Q4M2FhYWUxYiJ9"}

body:{"id": "1600415917199826945", "signatures": [{"hash": "aeb7cccf679aad14f9f59504c73d9af38b32e21506c381938d039d0f47ad1bae", "publicKey": "0244fb46bba2e912f26a73126b89742ed7f521f593ee084953ae008172553a0113", "signature": "58f6c912ebbcf3807e9c4b05565418904506c88466a4c5de52712d19d67f21ac340b26c487b4291519cf68c6fa5d8f7950c60a436d3b29bcd16e5ff6f7b2f80700"}, {"hash": "aeb7cccf679aad14f9f59504c73d9af38b32e21506c381938d039d0f47ad1bae", "publicKey": "03c420167aaf4fc7106646b2fe485519e5569ceb1584ae31d62537e349a4e4b5a9", "signature": "6d8d4d3a3a7e0b85e151c34692eb2f0ab92ed4f843f758f416c37a971480eb8e3ae82ef58d20458e617b988e4e32c57bf91904e5ff254f7490a7aa48738fa69501"}]}


[32mINFO    [0m Common.Httpcore:Httpcore.py:177 2022-12-07 17:04:17.382853 | 
<-----Core Sign Response---->
{"balanceChanges":[],"blockHash":"","blockHeight":"0","blockTime":"1970-01-01T00:00:00.000Z","createdTime":"2022-12-07T09:04:25.000Z","description":"Contract Execution","estimatedFee":"3407138254443108","fee":"-1","hash":"","id":"1600415917199826945","networkCode":"MATIC","requiredSignings":[{"hash":"32fd0f5374a2a85581c19ec91647a3c6c375095a5a1afd2b232739083453c49a","threshold":1}],"serialized":"02f902b5818981ae8506fc613fa5850b384b767f8301bb94946490c1b13a4576128159576f9d3acadf79e8dd6f80b902846a7612020000000000000000000000002791bca1f2de4661ed88a30c99a7a9449aa84174000000000000000000000000000000000000000000000000000000000000000000000000000000000000000000000000000000000000000000000000000001400000000000000000000000000000000000000000000000000000000000000000000000000000000000000000000000000000000000000000000000000000afce000000000000000000000000000000000000000000000000000000000000d67400000000000000000000000000000000000000000000000000000008e97081a9000000000000000000000000000000000000000000000000000000000000000000000000000000000000000010f564f105ba1dec06087fe09329959dbd6b862d00000000000000000000000000000000000000000000000000000000000001c00000000000000000000000000000000000000000000000000000000000000044a9059cbb0000000000000000000000006490c1b13a4576128159576f9d3acadf79e8dd6f00000000000000000000000000000000000000000000000000000000000000640000000000000000000000000000000000000000000000000000000000000000000000000000000000000000000000000000000000000000000000826d8d4d3a3a7e0b85e151c34692eb2f0ab92ed4f843f758f416c37a971480eb8e3ae82ef58d20458e617b988e4e32c57bf91904e5ff254f7490a7aa48738fa6951c58f6c912ebbcf3807e9c4b05565418904506c88466a4c5de52712d19d67f21ac340b26c487b4291519cf68c6fa5d8f7950c60a436d3b29bcd16e5ff6f7b2f8071b000000000000000000000000000000000000000000000000000000000000c0808080","status":0,"statusDesc":"BUILDING","updatedTime":"2022-12-07T09:04:26.774Z"}
[32mINFO    [0m Common.Httpcore:Httpcore.py:174 2022-12-07 17:04:17.382853 | 
<-----Core Sign------>
Url:http://54.251.78.181:8888/core/api/transactions/signatures

Headers:{"Content-Type": "application/json", "Authorization": "eyJib2R5IjoiV2ViMyBUb2tlbiBWZXJzaW9uOiAyXG5Ob25jZTogMTU4NTEwMjc5MTQ2NjQ4NzgxMFxuSXNzdWVkIEF0OiBXZWQsIDI2IE9jdCAyMDIyIDAyOjU1OjI5IEdNVFxuRXhwaXJhdGlvbiBUaW1lOiBTYXQsIDIzIE9jdCAyMDMyIDAyOjU1OjI5IEdNVCIsInNpZ25hdHVyZSI6IjB4OTE1NWMyOGM3NjVjZjk1YTBjNjdiZGNhYzExNzIwYTRkNDQ4NDc4YmU5ZDZhNjE3ZWQzNDUzZDU3MDgzZjNjZTA2N2Q5OGUwMGI0YTVhMmJmOTlkY2I5Y2VmNzg5Yjc4OWViNzI5OTk4YzgxYWQzOWFhMTUzZTcxM2Q4M2FhYWUxYiJ9"}

body:{"id": "1600415917199826945", "signatures": [{"hash": "32fd0f5374a2a85581c19ec91647a3c6c375095a5a1afd2b232739083453c49a", "publicKey": "025c380e0b51894f3593a803fa38c79b4ac004f27c1d8ebd5567828a6d1634654e", "signature": "bd15b9e5b55394502bf3ac355b59804837a47b29bccf075bfe4adf32af8a4eed5c7f26b409593c6e7430c5b120bf58ea2eda5979241f81aa16818bce13ddb74e00"}]}


[32mINFO    [0m Common.Httpcore:Httpcore.py:177 2022-12-07 17:04:17.382853 | 
<-----Core Sign Response---->
{"balanceChanges":[],"blockHash":"","blockHeight":"0","blockTime":"1970-01-01T00:00:00.000Z","createdTime":"2022-12-07T09:04:25.000Z","description":"Contract Execution","estimatedFee":"3407138254443108","fee":"-1","hash":"0x658c237c58a59c1df6afa2eeb3c5db2ed27103c710597c884a6b3b7febe4c34d","id":"1600415917199826945","networkCode":"MATIC","serialized":"02f902f5818981ae8506fc613fa5850b384b767f8301bb94946490c1b13a4576128159576f9d3acadf79e8dd6f80b902846a7612020000000000000000000000002791bca1f2de4661ed88a30c99a7a9449aa84174000000000000000000000000000000000000000000000000000000000000000000000000000000000000000000000000000000000000000000000000000001400000000000000000000000000000000000000000000000000000000000000000000000000000000000000000000000000000000000000000000000000000afce000000000000000000000000000000000000000000000000000000000000d67400000000000000000000000000000000000000000000000000000008e97081a9000000000000000000000000000000000000000000000000000000000000000000000000000000000000000010f564f105ba1dec06087fe09329959dbd6b862d00000000000000000000000000000000000000000000000000000000000001c00000000000000000000000000000000000000000000000000000000000000044a9059cbb0000000000000000000000006490c1b13a4576128159576f9d3acadf79e8dd6f00000000000000000000000000000000000000000000000000000000000000640000000000000000000000000000000000000000000000000000000000000000000000000000000000000000000000000000000000000000000000826d8d4d3a3a7e0b85e151c34692eb2f0ab92ed4f843f758f416c37a971480eb8e3ae82ef58d20458e617b988e4e32c57bf91904e5ff254f7490a7aa48738fa6951c58f6c912ebbcf3807e9c4b05565418904506c88466a4c5de52712d19d67f21ac340b26c487b4291519cf68c6fa5d8f7950c60a436d3b29bcd16e5ff6f7b2f8071b000000000000000000000000000000000000000000000000000000000000c080a0bd15b9e5b55394502bf3ac355b59804837a47b29bccf075bfe4adf32af8a4eeda05c7f26b409593c6e7430c5b120bf58ea2eda5979241f81aa16818bce13ddb74e","status":2,"statusDesc":"SIGNED","updatedTime":"2022-12-07T09:04:27.044Z"}
[32mINFO    [0m Common.Httpcore:Httpcore.py:193 2022-12-07 17:04:17.382853 | 
<-----Core Send------>
Url:http://54.251.78.181:8888/core/api/transactions/send/1600415917199826945

Headers:{"Content-Type": "application/json", "Authorization": "eyJib2R5IjoiV2ViMyBUb2tlbiBWZXJzaW9uOiAyXG5Ob25jZTogMTU4NTEwMjc5MTQ2NjQ4NzgxMFxuSXNzdWVkIEF0OiBXZWQsIDI2IE9jdCAyMDIyIDAyOjU1OjI5IEdNVFxuRXhwaXJhdGlvbiBUaW1lOiBTYXQsIDIzIE9jdCAyMDMyIDAyOjU1OjI5IEdNVCIsInNpZ25hdHVyZSI6IjB4OTE1NWMyOGM3NjVjZjk1YTBjNjdiZGNhYzExNzIwYTRkNDQ4NDc4YmU5ZDZhNjE3ZWQzNDUzZDU3MDgzZjNjZTA2N2Q5OGUwMGI0YTVhMmJmOTlkY2I5Y2VmNzg5Yjc4OWViNzI5OTk4YzgxYWQzOWFhMTUzZTcxM2Q4M2FhYWUxYiJ9"}


[32mINFO    [0m Common.Httpcore:Httpcore.py:196 2022-12-07 17:04:17.382853 | 
<-----Core Send Response---->
{"balanceChanges":[],"blockHash":"","blockHeight":"0","blockTime":"2022-12-07T09:04:27.551Z","createdTime":"2022-12-07T09:04:25.000Z","description":"Contract Execution","estimatedFee":"3407138254443108","fee":"-1","hash":"0x658c237c58a59c1df6afa2eeb3c5db2ed27103c710597c884a6b3b7febe4c34d","id":"1600415917199826945","networkCode":"MATIC","serialized":"02f902f5818981ae8506fc613fa5850b384b767f8301bb94946490c1b13a4576128159576f9d3acadf79e8dd6f80b902846a7612020000000000000000000000002791bca1f2de4661ed88a30c99a7a9449aa84174000000000000000000000000000000000000000000000000000000000000000000000000000000000000000000000000000000000000000000000000000001400000000000000000000000000000000000000000000000000000000000000000000000000000000000000000000000000000000000000000000000000000afce000000000000000000000000000000000000000000000000000000000000d67400000000000000000000000000000000000000000000000000000008e97081a9000000000000000000000000000000000000000000000000000000000000000000000000000000000000000010f564f105ba1dec06087fe09329959dbd6b862d00000000000000000000000000000000000000000000000000000000000001c00000000000000000000000000000000000000000000000000000000000000044a9059cbb0000000000000000000000006490c1b13a4576128159576f9d3acadf79e8dd6f00000000000000000000000000000000000000000000000000000000000000640000000000000000000000000000000000000000000000000000000000000000000000000000000000000000000000000000000000000000000000826d8d4d3a3a7e0b85e151c34692eb2f0ab92ed4f843f758f416c37a971480eb8e3ae82ef58d20458e617b988e4e32c57bf91904e5ff254f7490a7aa48738fa6951c58f6c912ebbcf3807e9c4b05565418904506c88466a4c5de52712d19d67f21ac340b26c487b4291519cf68c6fa5d8f7950c60a436d3b29bcd16e5ff6f7b2f8071b000000000000000000000000000000000000000000000000000000000000c080a0bd15b9e5b55394502bf3ac355b59804837a47b29bccf075bfe4adf32af8a4eeda05c7f26b409593c6e7430c5b120bf58ea2eda5979241f81aa16818bce13ddb74e","status":3,"statusDesc":"PENDING","updatedTime":"2022-12-07T09:04:27.551Z"}