[32mINFO    [0m Common.Httpcore:Httpcore.py:60 2022-12-22 11:57:09.462444 | 
<-----Core Holders List----->
Url:https://api.dhandho.xyz/assets/holders?networkCode=BTC&symbol=BTC&address=tb1qhcuul2fcyv5rvr5mc5cy5saz0q5p3kx0gsy3c0

Headers:{"Content-Type": "application/json", "Authorization": "eyJib2R5IjoiV2ViMyBUb2tlbiBWZXJzaW9uOiAyXG5Ob25jZTogMTYwMTA0MzkzMDI4NzQxMTIwMlxuSXNzdWVkIEF0OiBGcmksIDkgRGVjIDIwMjIgMDI6Mzk6NTMgR01UXG5FeHBpcmF0aW9uIFRpbWU6IE1vbiwgNiBEZWMgMjAzMiAwMjozOTo1MyBHTVQiLCJzaWduYXR1cmUiOiIweGU1OWE1Nzk4OGNhZWU4NmFmYzA3NzlhOTE4MDA5MDRmNjc3NmUxZGMxYTc5NGE2MjllY2Y5YmI0ZjAyZDllYjcwZDBiMGZiNDAxNjQ4NTc5ZTFiZDkzMmU2NmU0NjdjMzFkMDlmOGNjM2EwOGVjN2U1NGY2ZTJhNTM5ZWVjNTA5MWMifQ=="}
[32mINFO    [0m Common.Httpcore:Httpcore.py:63 2022-12-22 11:57:09.462444 | 
<-----Core Holders Response----->
{"current":1,"list":[{"address":"tb1qhcuul2fcyv5rvr5mc5cy5saz0q5p3kx0gsy3c0","id":"1602242291732570114","networkCode":"BTC","quantity":"0.0088617","symbol":"BTC","updatedTime":"2022-12-21T06:48:00.000Z"}],"size":10,"total":1}
[32mINFO    [0m Common.Httpcore:Httpcore.py:190 2022-12-22 11:57:09.462444 | 
<-----Core Instructions------>
Url:https://api.dhandho.xyz/instructions

Headers:{"Content-Type": "application/json", "Authorization": "eyJib2R5IjoiV2ViMyBUb2tlbiBWZXJzaW9uOiAyXG5Ob25jZTogMTYwMTA0MzkzMDI4NzQxMTIwMlxuSXNzdWVkIEF0OiBGcmksIDkgRGVjIDIwMjIgMDI6Mzk6NTMgR01UXG5FeHBpcmF0aW9uIFRpbWU6IE1vbiwgNiBEZWMgMjAzMiAwMjozOTo1MyBHTVQiLCJzaWduYXR1cmUiOiIweGU1OWE1Nzk4OGNhZWU4NmFmYzA3NzlhOTE4MDA5MDRmNjc3NmUxZGMxYTc5NGE2MjllY2Y5YmI0ZjAyZDllYjcwZDBiMGZiNDAxNjQ4NTc5ZTFiZDkzMmU2NmU0NjdjMzFkMDlmOGNjM2EwOGVjN2U1NGY2ZTJhNTM5ZWVjNTA5MWMifQ=="}

body:{"networkCode": "BTC", "type": "transfer", "body": {"from": "tb1qhcuul2fcyv5rvr5mc5cy5saz0q5p3kx0gsy3c0", "to": "tb1qagkvxdz2zq76atvr0rzh8n9lewjmlm25umq0xq", "symbol": "BTC", "amount": "0.000008"}, "transactionParams": {"memo": "qywmaG7CNs"}}


[32mINFO    [0m Common.Httpcore:Httpcore.py:193 2022-12-22 11:57:09.462444 | 
<-----Core Instructions Response---->
{"_embedded":{"transactions":[{"balanceChanges":[],"blockHash":"","blockHeight":"-1","blockTime":"1970-01-01T00:00:00.000Z","createdTime":"2022-12-22T03:57:13.000Z","description":"","estimatedFee":"187","fee":"-1","hash":"","id":"1605774432694218753","networkCode":"BTC","requiredSignings":[{"hash":"03215562f4f645d6353b6a6d0f2491b43a6331eb782fadf2ec283a39add634f7","publicKeys":["02e8852463021b47fe5214c599e87e431f2eb1219044946bbff397afd0518b85a6"],"threshold":1}],"serialized":"0100000001eb3d5df03a4ec461da866348d81f49b569759d449ed13617dc6314a1c6707f2a0000000000ffffffff022003000000000000160014ea2cc3344a103daead8378c573ccbfcba5bfed543523000000000000160014be39cfa9382328360e9bc5304a43a2782818d8cf00000000","status":0,"statusDesc":"BUILDING","updatedTime":"2022-12-22T03:57:13.000Z"}]},"body":{"amount":"0.000008","from":"tb1qhcuul2fcyv5rvr5mc5cy5saz0q5p3kx0gsy3c0","symbol":"BTC","to":"tb1qagkvxdz2zq76atvr0rzh8n9lewjmlm25umq0xq"},"createdTime":"2022-12-22T03:57:13.000Z","id":"1605774433453395969","networkCode":"BTC","status":-2,"transactionParams":{"memo":"qywmaG7CNs"},"type":"TRANSFER","updatedTime":"2022-12-22T03:57:13.000Z"}
[32mINFO    [0m Common.Httpcore:Httpcore.py:213 2022-12-22 11:57:09.462444 | 
<-----Core Sign------>
Url:https://api.dhandho.xyz/transactions/signatures

Headers:{"Content-Type": "application/json", "Authorization": "eyJib2R5IjoiV2ViMyBUb2tlbiBWZXJzaW9uOiAyXG5Ob25jZTogMTYwMTA0MzkzMDI4NzQxMTIwMlxuSXNzdWVkIEF0OiBGcmksIDkgRGVjIDIwMjIgMDI6Mzk6NTMgR01UXG5FeHBpcmF0aW9uIFRpbWU6IE1vbiwgNiBEZWMgMjAzMiAwMjozOTo1MyBHTVQiLCJzaWduYXR1cmUiOiIweGU1OWE1Nzk4OGNhZWU4NmFmYzA3NzlhOTE4MDA5MDRmNjc3NmUxZGMxYTc5NGE2MjllY2Y5YmI0ZjAyZDllYjcwZDBiMGZiNDAxNjQ4NTc5ZTFiZDkzMmU2NmU0NjdjMzFkMDlmOGNjM2EwOGVjN2U1NGY2ZTJhNTM5ZWVjNTA5MWMifQ=="}

body:{"id": "1605774432694218753", "signatures": [{"hash": "03215562f4f645d6353b6a6d0f2491b43a6331eb782fadf2ec283a39add634f7", "publicKey": "02e8852463021b47fe5214c599e87e431f2eb1219044946bbff397afd0518b85a6", "signature": "ba62bd32aed89c14db98854d81e31e1f8fce8d778a43c4e3451d59f1d435bf8b450e8b7c70d75bab8789cadad38206a3dcaee3466c494d9c67c820516b33f0de00"}]}


[32mINFO    [0m Common.Httpcore:Httpcore.py:216 2022-12-22 11:57:09.462444 | 
<-----Core Sign Response---->
{"balanceChanges":[],"blockHash":"","blockHeight":"-1","blockTime":"1970-01-01T00:00:00.000Z","createdTime":"2022-12-22T03:57:13.000Z","description":"","estimatedFee":"187","fee":"-1","hash":"d9ca060532ff45cd0c12eef2af3c15eed6ea3ea2ad96237a516eac548811d0da","id":"1605774432694218753","networkCode":"BTC","serialized":"01000000000101eb3d5df03a4ec461da866348d81f49b569759d449ed13617dc6314a1c6707f2a0000000000ffffffff022003000000000000160014ea2cc3344a103daead8378c573ccbfcba5bfed543523000000000000160014be39cfa9382328360e9bc5304a43a2782818d8cf02483045022100ba62bd32aed89c14db98854d81e31e1f8fce8d778a43c4e3451d59f1d435bf8b0220450e8b7c70d75bab8789cadad38206a3dcaee3466c494d9c67c820516b33f0de012102e8852463021b47fe5214c599e87e431f2eb1219044946bbff397afd0518b85a600000000","status":2,"statusDesc":"SIGNED","updatedTime":"2022-12-22T03:57:14.113Z"}
[32mINFO    [0m Common.Httpcore:Httpcore.py:232 2022-12-22 11:57:09.462444 | 
<-----Core Send------>
Url:https://api.dhandho.xyz/transactions/send/1605774432694218753

Headers:{"Content-Type": "application/json", "Authorization": "eyJib2R5IjoiV2ViMyBUb2tlbiBWZXJzaW9uOiAyXG5Ob25jZTogMTYwMTA0MzkzMDI4NzQxMTIwMlxuSXNzdWVkIEF0OiBGcmksIDkgRGVjIDIwMjIgMDI6Mzk6NTMgR01UXG5FeHBpcmF0aW9uIFRpbWU6IE1vbiwgNiBEZWMgMjAzMiAwMjozOTo1MyBHTVQiLCJzaWduYXR1cmUiOiIweGU1OWE1Nzk4OGNhZWU4NmFmYzA3NzlhOTE4MDA5MDRmNjc3NmUxZGMxYTc5NGE2MjllY2Y5YmI0ZjAyZDllYjcwZDBiMGZiNDAxNjQ4NTc5ZTFiZDkzMmU2NmU0NjdjMzFkMDlmOGNjM2EwOGVjN2U1NGY2ZTJhNTM5ZWVjNTA5MWMifQ=="}


[32mINFO    [0m Common.Httpcore:Httpcore.py:235 2022-12-22 11:57:09.462444 | 
<-----Core Send Response---->
{"balanceChanges":[],"blockHash":"","blockHeight":"-1","blockTime":"2022-12-22T03:57:14.742Z","createdTime":"2022-12-22T03:57:13.000Z","description":"","estimatedFee":"187","fee":"-1","hash":"d9ca060532ff45cd0c12eef2af3c15eed6ea3ea2ad96237a516eac548811d0da","id":"1605774432694218753","networkCode":"BTC","serialized":"01000000000101eb3d5df03a4ec461da866348d81f49b569759d449ed13617dc6314a1c6707f2a0000000000ffffffff022003000000000000160014ea2cc3344a103daead8378c573ccbfcba5bfed543523000000000000160014be39cfa9382328360e9bc5304a43a2782818d8cf02483045022100ba62bd32aed89c14db98854d81e31e1f8fce8d778a43c4e3451d59f1d435bf8b0220450e8b7c70d75bab8789cadad38206a3dcaee3466c494d9c67c820516b33f0de012102e8852463021b47fe5214c599e87e431f2eb1219044946bbff397afd0518b85a600000000","status":3,"statusDesc":"PENDING","updatedTime":"2022-12-22T03:57:14.742Z"}