[32mINFO    [0m Common.Httpcore:Httpcore.py:305 2022-12-13 16:27:26.60083 | 
<-----Query UTXO----->
Url:https://api.bitcore.io/api/BTC/testnet/address/tb1qxrunvz3ywjtpzaasfgjjek96a33sxks740v58x7lzke0kc9urvgs0cczgd?unspent=true

Headers:{"Content-Type": "application/json"}


[32mINFO    [0m Common.Httpcore:Httpcore.py:308 2022-12-13 16:27:26.60083 | 
<-----Query UTXO Response----->
[
{"_id":"6396ffcfd3bfc9e8e10b23a4","chain":"BTC","network":"testnet","coinbase":false,"mintIndex":1,"spentTxid":"","mintTxid":"8f1424cae0410ea94f6e9f40a6ca928df945826aeaa41e1e51bf3e65661cb941","mintHeight":2410924,"spentHeight":-2,"address":"tb1qxrunvz3ywjtpzaasfgjjek96a33sxks740v58x7lzke0kc9urvgs0cczgd","script":"002030f9360a2474961177b04a252cd8baec63035a1eabd9439bdf15b2fb60bc1b11","value":98974,"confirmations":-1}
]
[32mINFO    [0m Common.Http:Http.py:283 2022-12-13 16:27:26.60083 | 
<-----Transactions----->
Url:http://54.251.78.181:8888/escrow/api//transactions
Headers:{"Content-Type": "application/json", "Authorization": "eyJ0eXAiOiJKV1QiLCJhbGciOiJIUzI1NiJ9.eyJhdWQiOiIxNjAxMDQzOTMwMjg3NDExMjAyIiwiZXhwIjoxNzAyMDg5NjAwLCJpYXQiOjE2NzA1NTM2MDAsInVzZXJJZCI6MTYwMTA0MzkzMDI4NzQxMTIwMn0.fZVc267JNsgy5tB_Wn89l2Zgd3ZgXJfaMg_T9lc3j-o"}
Body:{"networkCode": "BTC", "payload": {"changer": "tb1qxrunvz3ywjtpzaasfgjjek96a33sxks740v58x7lzke0kc9urvgs0cczgd", "recipients": [{"address": "tb1q0558s53xchyghw34tqm4x8t2n8swf666nvhffq", "value": "100"}], "utxos": [{"amount": 98974, "witnessScript": "52210231e263a7e95bf5107b88b85b49918841b937305cce5dae7dd7ba9b86fc460f702102e8852463021b47fe5214c599e87e431f2eb1219044946bbff397afd0518b85a652ae", "signers": ["02e8852463021b47fe5214c599e87e431f2eb1219044946bbff397afd0518b85a6"], "txid": "8f1424cae0410ea94f6e9f40a6ca928df945826aeaa41e1e51bf3e65661cb941", "vout": 1}]}, "type": "TRANSACTION"}


[32mINFO    [0m Common.Http:Http.py:286 2022-12-13 16:27:26.60083 | 
<-----Transactions Response----->
{"balanceChanges":[],"blockTime":"1970-01-01T00:00:00.000Z","createdTime":"2022-12-13T08:27:27.626Z","estimatedFee":"226","hash":"","id":"1602580949719302146","networkCode":"BTC","requiredSignings":[{"hash":"ce6e551826f2373bd9ab731ee075cfeabe21473ab1f056ccc26df23c11089457","publicKeys":["02e8852463021b47fe5214c599e87e431f2eb1219044946bbff397afd0518b85a6"],"threshold":2}],"serialized":"010000000141b91c66653ebf511e1ea4ea6a8245f98d92caa6409f6e4fa90e41e0ca24148f0100000000ffffffff0264000000000000001600147d28785226c5c88bba355837531d6a99e0e4eb5a588101000000000022002030f9360a2474961177b04a252cd8baec63035a1eabd9439bdf15b2fb60bc1b1100000000","status":0,"statusDesc":"BUILDING","updatedTime":"2022-12-13T08:27:27.626Z"}


[32mINFO    [0m Common.Http:Http.py:344 2022-12-13 16:27:26.60083 | 
<-----Sign----->
Url:http://54.251.78.181:8888/escrow/api/transactions/signatures
Headers:{"Content-Type": "application/json", "Authorization": "eyJ0eXAiOiJKV1QiLCJhbGciOiJIUzI1NiJ9.eyJhdWQiOiIxNjAxMDQzOTMwMjg3NDExMjAyIiwiZXhwIjoxNzAyMDg5NjAwLCJpYXQiOjE2NzA1NTM2MDAsInVzZXJJZCI6MTYwMTA0MzkzMDI4NzQxMTIwMn0.fZVc267JNsgy5tB_Wn89l2Zgd3ZgXJfaMg_T9lc3j-o"}
Body:{"id": "1602580949719302146", "signatures": [{"hash": "ce6e551826f2373bd9ab731ee075cfeabe21473ab1f056ccc26df23c11089457", "publicKey": "02e8852463021b47fe5214c599e87e431f2eb1219044946bbff397afd0518b85a6", "signature": "85f498f02f014253934eed0453ae42849213f1f24562a07c2840955d1bf26f78387a30854145f140dd0c24ce191a94540bb918cab23b53af92fdb3a60505771c00"}]}


[32mINFO    [0m Common.Http:Http.py:351 2022-12-13 16:27:26.60083 | 
<-----Sign Response Error----->
400
{"code":2100000,"message":"incomplete signatures"}