[32mINFO    [0m Common.Httpcore:Httpcore.py:224 2022-12-05 10:37:31.641359 | 
<-----Query UTXO----->
Url:https://api.bitcore.io/api/BTC/testnet/address/tb1q4t8jtp4fwjg4spfjh7ux5ckhrallj652kwrj48gcvd0rt5g9ea3q4vlm33?unspent=true

Headers:{"Content-Type": "application/json"}


[32mINFO    [0m Common.Httpcore:Httpcore.py:227 2022-12-05 10:37:31.641359 | 
<-----Query UTXO Response----->
[
{"_id":"6385d239d3bfc9e8e120b72a","chain":"BTC","network":"testnet","coinbase":false,"mintIndex":0,"spentTxid":"","mintTxid":"96f20d3215de90d2a4722c39fe7eb9599958fc0b19839ee33254f9e779beb0de","mintHeight":2408949,"spentHeight":-2,"address":"tb1q4t8jtp4fwjg4spfjh7ux5ckhrallj652kwrj48gcvd0rt5g9ea3q4vlm33","script":"0020aacf2586a97491580532bfb86a62d71f7ff96a8ab3872a9d18635e35d105cf62","value":100000,"confirmations":-1}
]
[32mINFO    [0m Common.Httpcore:Httpcore.py:132 2022-12-05 10:37:31.641359 | 
<-----Core Build------>
Url:http://54.251.78.181:8888/core/api/transactions

Headers:{"Content-Type": "application/json", "Authorization": "eyJib2R5IjoiV2ViMyBUb2tlbiBWZXJzaW9uOiAyXG5Ob25jZTogMTU4NTEwMjc5MTQ2NjQ4NzgxMFxuSXNzdWVkIEF0OiBXZWQsIDI2IE9jdCAyMDIyIDAyOjU1OjI5IEdNVFxuRXhwaXJhdGlvbiBUaW1lOiBTYXQsIDIzIE9jdCAyMDMyIDAyOjU1OjI5IEdNVCIsInNpZ25hdHVyZSI6IjB4OTE1NWMyOGM3NjVjZjk1YTBjNjdiZGNhYzExNzIwYTRkNDQ4NDc4YmU5ZDZhNjE3ZWQzNDUzZDU3MDgzZjNjZTA2N2Q5OGUwMGI0YTVhMmJmOTlkY2I5Y2VmNzg5Yjc4OWViNzI5OTk4YzgxYWQzOWFhMTUzZTcxM2Q4M2FhYWUxYiJ9"}

body:{"networkCode": "BTC", "payload": {"changer": "tb1q4t8jtp4fwjg4spfjh7ux5ckhrallj652kwrj48gcvd0rt5g9ea3q4vlm33", "recipients": [{"address": "tb1q0558s53xchyghw34tqm4x8t2n8swf666nvhffq", "value": "100"}, {"address": "tb1qn0qrq4zfxjc89c773s6k86faym3ugpcje9eras", "value": "200"}, {"address": "tb1qk50y4995th8tffhc90tz7533lygzwz57zxmhtj", "value": "300"}], "utxos": [{"amount": 100000, "witnessScript": "522102e8852463021b47fe5214c599e87e431f2eb1219044946bbff397afd0518b85a6210231e263a7e95bf5107b88b85b49918841b937305cce5dae7dd7ba9b86fc460f7052ae", "signers": ["02e8852463021b47fe5214c599e87e431f2eb1219044946bbff397afd0518b85a6", "0231e263a7e95bf5107b88b85b49918841b937305cce5dae7dd7ba9b86fc460f70"], "txid": "96f20d3215de90d2a4722c39fe7eb9599958fc0b19839ee33254f9e779beb0de", "vout": 0}]}, "type": "TRANSACTION"}


[32mINFO    [0m Common.Httpcore:Httpcore.py:135 2022-12-05 10:37:31.641359 | 
<-----Core Build Response---->
{"balanceChanges":[],"blockTime":"1970-01-01T00:00:00.000Z","createdTime":"2022-12-05T02:37:36.122Z","description":"Custom Excution","estimatedFee":"294","hash":"","id":"1599593801911062529","networkCode":"BTC","requiredSignings":[{"hash":"91b3dd8877d1bb1dcec69d902374c339b08c23d00faf65d2af94139d918332c5","publicKeys":["02e8852463021b47fe5214c599e87e431f2eb1219044946bbff397afd0518b85a6","0231e263a7e95bf5107b88b85b49918841b937305cce5dae7dd7ba9b86fc460f70"],"threshold":2}],"serialized":"0100000001deb0be79e7f95432e39e83190bfc589959b97efe392c72a4d290de15320df2960000000000ffffffff0464000000000000001600147d28785226c5c88bba355837531d6a99e0e4eb5ac8000000000000001600149bc030544934b072e3de8c3563e93d26e3c407122c01000000000000160014b51e4a94b45dceb4a6f82bd62f5231f910270a9e2283010000000000220020aacf2586a97491580532bfb86a62d71f7ff96a8ab3872a9d18635e35d105cf6200000000","status":0,"statusDesc":"BUILDING","updatedTime":"2022-12-05T02:37:36.122Z"}
[32mINFO    [0m Common.Httpcore:Httpcore.py:155 2022-12-05 10:37:31.641359 | 
<-----Core Sign------>
Url:http://54.251.78.181:8888/core/api/transactions/signatures

Headers:{"Content-Type": "application/json", "Authorization": "eyJib2R5IjoiV2ViMyBUb2tlbiBWZXJzaW9uOiAyXG5Ob25jZTogMTU4NTEwMjc5MTQ2NjQ4NzgxMFxuSXNzdWVkIEF0OiBXZWQsIDI2IE9jdCAyMDIyIDAyOjU1OjI5IEdNVFxuRXhwaXJhdGlvbiBUaW1lOiBTYXQsIDIzIE9jdCAyMDMyIDAyOjU1OjI5IEdNVCIsInNpZ25hdHVyZSI6IjB4OTE1NWMyOGM3NjVjZjk1YTBjNjdiZGNhYzExNzIwYTRkNDQ4NDc4YmU5ZDZhNjE3ZWQzNDUzZDU3MDgzZjNjZTA2N2Q5OGUwMGI0YTVhMmJmOTlkY2I5Y2VmNzg5Yjc4OWViNzI5OTk4YzgxYWQzOWFhMTUzZTcxM2Q4M2FhYWUxYiJ9"}

body:{"id": "1599593801911062529", "signatures": [{"hash": "91b3dd8877d1bb1dcec69d902374c339b08c23d00faf65d2af94139d918332c5", "publicKey": "02e8852463021b47fe5214c599e87e431f2eb1219044946bbff397afd0518b85a6", "signature": "d74f4cc2c261b4275de44478e02e77fc8747b0f76ce93b250d272dba55a8ca8f1b0f471b1991fefb948b2124f62af3007fb80c1dc3695e8d630124f0d83a5cae00"}, {"hash": "91b3dd8877d1bb1dcec69d902374c339b08c23d00faf65d2af94139d918332c5", "publicKey": "0231e263a7e95bf5107b88b85b49918841b937305cce5dae7dd7ba9b86fc460f70", "signature": "64343e5106d5a52e6e086422ddd16aa0961c3e5a1dc3eaf0a3b289883bae28bd28b1f77588f7c2ba8b0a81c610245676aaf64e14513abfa9fc3863cc8e72dc3900"}]}


[32mINFO    [0m Common.Httpcore:Httpcore.py:158 2022-12-05 10:37:31.641359 | 
<-----Core Sign Response---->
{"balanceChanges":[],"blockHash":"","blockHeight":"0","blockTime":"1970-01-01T00:00:00.000Z","createdTime":"2022-12-05T02:37:36.000Z","description":"Custom Excution","estimatedFee":"294","fee":"-1","hash":"a862c786ad8b4479a71f2e7a99c1e3d6704a92454666f02ca93216d4d54f0344","id":"1599593801911062529","networkCode":"BTC","serialized":"01000000000101deb0be79e7f95432e39e83190bfc589959b97efe392c72a4d290de15320df2960000000000ffffffff0464000000000000001600147d28785226c5c88bba355837531d6a99e0e4eb5ac8000000000000001600149bc030544934b072e3de8c3563e93d26e3c407122c01000000000000160014b51e4a94b45dceb4a6f82bd62f5231f910270a9e2283010000000000220020aacf2586a97491580532bfb86a62d71f7ff96a8ab3872a9d18635e35d105cf620400483045022100d74f4cc2c261b4275de44478e02e77fc8747b0f76ce93b250d272dba55a8ca8f02201b0f471b1991fefb948b2124f62af3007fb80c1dc3695e8d630124f0d83a5cae01473044022064343e5106d5a52e6e086422ddd16aa0961c3e5a1dc3eaf0a3b289883bae28bd022028b1f77588f7c2ba8b0a81c610245676aaf64e14513abfa9fc3863cc8e72dc390147522102e8852463021b47fe5214c599e87e431f2eb1219044946bbff397afd0518b85a6210231e263a7e95bf5107b88b85b49918841b937305cce5dae7dd7ba9b86fc460f7052ae00000000","status":2,"statusDesc":"SIGNED","updatedTime":"2022-12-05T02:37:36.370Z"}
[32mINFO    [0m Common.Httpcore:Httpcore.py:174 2022-12-05 10:37:31.641359 | 
<-----Core Send------>
Url:http://54.251.78.181:8888/core/api/transactions/send/1599593801911062529

Headers:{"Content-Type": "application/json", "Authorization": "eyJib2R5IjoiV2ViMyBUb2tlbiBWZXJzaW9uOiAyXG5Ob25jZTogMTU4NTEwMjc5MTQ2NjQ4NzgxMFxuSXNzdWVkIEF0OiBXZWQsIDI2IE9jdCAyMDIyIDAyOjU1OjI5IEdNVFxuRXhwaXJhdGlvbiBUaW1lOiBTYXQsIDIzIE9jdCAyMDMyIDAyOjU1OjI5IEdNVCIsInNpZ25hdHVyZSI6IjB4OTE1NWMyOGM3NjVjZjk1YTBjNjdiZGNhYzExNzIwYTRkNDQ4NDc4YmU5ZDZhNjE3ZWQzNDUzZDU3MDgzZjNjZTA2N2Q5OGUwMGI0YTVhMmJmOTlkY2I5Y2VmNzg5Yjc4OWViNzI5OTk4YzgxYWQzOWFhMTUzZTcxM2Q4M2FhYWUxYiJ9"}


[1m[31mERROR   [0m Common.Httpcore:Httpcore.py:180 2022-12-05 10:37:31.641359 | 
<-----Core Send Response Error----->{"code":2400000,"message":"INTERNAL: 500 - {\"result\":null,\"error\":{\"code\":-26,\"message\":\"non-mandatory-script-verify-flag \u0028Witness program hash mismatch\u0029\"},\"id\":1670207856613}"}