[32mINFO    [0m Common.Httpcore:Httpcore.py:201 2022-12-05 17:20:50.924920 | 
<-----Relay estimate----->
Url:http://16.163.105.179:18000/api/v2/safes/0x6490C1b13A4576128159576F9d3acadF79e8dd6f/transactions/estimate/

Headers:{"Content-Type": "application/json"}

Body:{"gasToken": "0x0000000000000000000000000000000000000000", "operation": "0", "safe": "0x6490C1b13A4576128159576F9d3acadF79e8dd6f", "to": "0x6490C1b13A4576128159576F9d3acadF79e8dd6f", "data": "0x", "value": "100"}
[32mINFO    [0m Common.Httpcore:Httpcore.py:204 2022-12-05 17:20:50.924920 | 
<-----Relay estimate Response----->
{"safeTxGas":"45006","baseGas":"54900","dataGas":"54900","operationalGas":"0","gasPrice":"35799542485","lastUsedNonce":14,"gasToken":"0x0000000000000000000000000000000000000000","refundReceiver":"0xbA7024EE0273C30a479838DA4Ad31718436b453e"}
[32mINFO    [0m Common.Httpcore:Httpcore.py:132 2022-12-05 17:20:50.924920 | 
<-----Core Build------>
Url:http://54.251.78.181:8888/core/api/transactions

Headers:{"Content-Type": "application/json", "Authorization": "eyJib2R5IjoiV2ViMyBUb2tlbiBWZXJzaW9uOiAyXG5Ob25jZTogMTU4NTEwMjc5MTQ2NjQ4NzgxMFxuSXNzdWVkIEF0OiBXZWQsIDI2IE9jdCAyMDIyIDAyOjU1OjI5IEdNVFxuRXhwaXJhdGlvbiBUaW1lOiBTYXQsIDIzIE9jdCAyMDMyIDAyOjU1OjI5IEdNVCIsInNpZ25hdHVyZSI6IjB4OTE1NWMyOGM3NjVjZjk1YTBjNjdiZGNhYzExNzIwYTRkNDQ4NDc4YmU5ZDZhNjE3ZWQzNDUzZDU3MDgzZjNjZTA2N2Q5OGUwMGI0YTVhMmJmOTlkY2I5Y2VmNzg5Yjc4OWViNzI5OTk4YzgxYWQzOWFhMTUzZTcxM2Q4M2FhYWUxYiJ9"}

body:{"networkCode": "MATIC", "payload": {"from": "0xe525E7cd17f6Dc950492755A089E452fd5d9d44f", "safeInputRequest": {"contract": "0x6490C1b13A4576128159576F9d3acadF79e8dd6f", "participants": ["0244fb46bba2e912f26a73126b89742ed7f521f593ee084953ae008172553a0113", "03c420167aaf4fc7106646b2fe485519e5569ceb1584ae31d62537e349a4e4b5a9"], "refundReceiver": "0xe525E7cd17f6Dc950492755A089E452fd5d9d44f", "gasToken": "0x0000000000000000000000000000000000000000", "baseGas": "54900", "safeTxGas": "45006", "gasPrice": "35799542485", "to": "0x6490C1b13A4576128159576F9d3acadF79e8dd6f", "value": "0x64"}}, "type": "SAFE_TRANSACTION"}


[32mINFO    [0m Common.Httpcore:Httpcore.py:135 2022-12-05 17:20:50.924920 | 
<-----Core Build Response---->
{"balanceChanges":[],"blockTime":"1970-01-01T00:00:00.000Z","createdTime":"2022-12-05T09:20:55.396Z","description":"Custom Excution","estimatedFee":"","hash":"","id":"1599695299982606338","networkCode":"MATIC","requiredSignings":[{"hash":"a4b84316430c352a1a1c0cccc2dffc0dba10efc7f0068940e9ac58d6a69d7c36","publicKeys":["0244fb46bba2e912f26a73126b89742ed7f521f593ee084953ae008172553a0113","03c420167aaf4fc7106646b2fe485519e5569ceb1584ae31d62537e349a4e4b5a9"],"threshold":2}],"serialized":"6a7612020000000000000000000000006490c1b13a4576128159576f9d3acadf79e8dd6f000000000000000000000000000000000000000000000000000000000000006400000000000000000000000000000000000000000000000000000000000001400000000000000000000000000000000000000000000000000000000000000000000000000000000000000000000000000000000000000000000000000000afce000000000000000000000000000000000000000000000000000000000000d6740000000000000000000000000000000000000000000000000000000855d1aad50000000000000000000000000000000000000000000000000000000000000000000000000000000000000000e525e7cd17f6dc950492755a089e452fd5d9d44f000000000000000000000000000000000000000000000000000000000000016000000000000000000000000000000000000000000000000000000000000000000000000000000000000000000000000000000000000000000000000000000000","status":0,"statusDesc":"BUILDING","updatedTime":"2022-12-05T09:20:55.396Z"}
[32mINFO    [0m Common.Httpcore:Httpcore.py:155 2022-12-05 17:20:50.924920 | 
<-----Core Sign------>
Url:http://54.251.78.181:8888/core/api/transactions/signatures

Headers:{"Content-Type": "application/json", "Authorization": "eyJib2R5IjoiV2ViMyBUb2tlbiBWZXJzaW9uOiAyXG5Ob25jZTogMTU4NTEwMjc5MTQ2NjQ4NzgxMFxuSXNzdWVkIEF0OiBXZWQsIDI2IE9jdCAyMDIyIDAyOjU1OjI5IEdNVFxuRXhwaXJhdGlvbiBUaW1lOiBTYXQsIDIzIE9jdCAyMDMyIDAyOjU1OjI5IEdNVCIsInNpZ25hdHVyZSI6IjB4OTE1NWMyOGM3NjVjZjk1YTBjNjdiZGNhYzExNzIwYTRkNDQ4NDc4YmU5ZDZhNjE3ZWQzNDUzZDU3MDgzZjNjZTA2N2Q5OGUwMGI0YTVhMmJmOTlkY2I5Y2VmNzg5Yjc4OWViNzI5OTk4YzgxYWQzOWFhMTUzZTcxM2Q4M2FhYWUxYiJ9"}

body:{"id": "1599695299982606338", "signatures": [{"hash": "a4b84316430c352a1a1c0cccc2dffc0dba10efc7f0068940e9ac58d6a69d7c36", "publicKey": "0244fb46bba2e912f26a73126b89742ed7f521f593ee084953ae008172553a0113", "signature": "f6539945945b79b2cf75f4358f105d420210a84898fd1a0d65a7982e7f7e32ee378bd0a3dbba8c5253cbd896e6b95b8b20a1875b8f544d2e3e10da26cb45a96400"}, {"hash": "a4b84316430c352a1a1c0cccc2dffc0dba10efc7f0068940e9ac58d6a69d7c36", "publicKey": "03c420167aaf4fc7106646b2fe485519e5569ceb1584ae31d62537e349a4e4b5a9", "signature": "7c99c22c9d5d515c6c8d6a0c7dec0ebad97ece7d736c06acbcf7a36026142c20075c445dbdb18c6d34e771e82a09a3b79666ae43d204654137bd38933eb8769200"}]}


[32mINFO    [0m Common.Httpcore:Httpcore.py:158 2022-12-05 17:20:50.924920 | 
<-----Core Sign Response---->
{"balanceChanges":[],"blockHash":"","blockHeight":"0","blockTime":"1970-01-01T00:00:00.000Z","createdTime":"2022-12-05T09:20:55.000Z","description":"Contract Execution","estimatedFee":"3361110000000000","fee":"-1","hash":"","id":"1599695299982606338","networkCode":"MATIC","requiredSignings":[{"hash":"1c0256b1be052a0f9996501dcc2848bb6941d882473dc321a8994e95e4147275","threshold":1}],"serialized":"02f902548189418506fc23ac008507130137048301b5a5946490c1b13a4576128159576f9d3acadf79e8dd6f80b902246a7612020000000000000000000000006490c1b13a4576128159576f9d3acadf79e8dd6f000000000000000000000000000000000000000000000000000000000000006400000000000000000000000000000000000000000000000000000000000001400000000000000000000000000000000000000000000000000000000000000000000000000000000000000000000000000000000000000000000000000000afce000000000000000000000000000000000000000000000000000000000000d6740000000000000000000000000000000000000000000000000000000855d1aad50000000000000000000000000000000000000000000000000000000000000000000000000000000000000000e525e7cd17f6dc950492755a089e452fd5d9d44f0000000000000000000000000000000000000000000000000000000000000160000000000000000000000000000000000000000000000000000000000000000000000000000000000000000000000000000000000000000000000000000000827c99c22c9d5d515c6c8d6a0c7dec0ebad97ece7d736c06acbcf7a36026142c20075c445dbdb18c6d34e771e82a09a3b79666ae43d204654137bd38933eb876921bf6539945945b79b2cf75f4358f105d420210a84898fd1a0d65a7982e7f7e32ee378bd0a3dbba8c5253cbd896e6b95b8b20a1875b8f544d2e3e10da26cb45a9641b000000000000000000000000000000000000000000000000000000000000c0808080","status":0,"statusDesc":"BUILDING","updatedTime":"2022-12-05T09:20:57.161Z"}
[32mINFO    [0m Common.Httpcore:Httpcore.py:155 2022-12-05 17:20:50.924920 | 
<-----Core Sign------>
Url:http://54.251.78.181:8888/core/api/transactions/signatures

Headers:{"Content-Type": "application/json", "Authorization": "eyJib2R5IjoiV2ViMyBUb2tlbiBWZXJzaW9uOiAyXG5Ob25jZTogMTU4NTEwMjc5MTQ2NjQ4NzgxMFxuSXNzdWVkIEF0OiBXZWQsIDI2IE9jdCAyMDIyIDAyOjU1OjI5IEdNVFxuRXhwaXJhdGlvbiBUaW1lOiBTYXQsIDIzIE9jdCAyMDMyIDAyOjU1OjI5IEdNVCIsInNpZ25hdHVyZSI6IjB4OTE1NWMyOGM3NjVjZjk1YTBjNjdiZGNhYzExNzIwYTRkNDQ4NDc4YmU5ZDZhNjE3ZWQzNDUzZDU3MDgzZjNjZTA2N2Q5OGUwMGI0YTVhMmJmOTlkY2I5Y2VmNzg5Yjc4OWViNzI5OTk4YzgxYWQzOWFhMTUzZTcxM2Q4M2FhYWUxYiJ9"}

body:{"id": "1599695299982606338", "signatures": [{"hash": "1c0256b1be052a0f9996501dcc2848bb6941d882473dc321a8994e95e4147275", "publicKey": "0244fb46bba2e912f26a73126b89742ed7f521f593ee084953ae008172553a0113", "signature": "8059061cd35894c629843839171a84ff4c0bc8f09fcbeb5c65b2ca334c94b5a4646f3d035767f7f786538ea039cf77208aa80c9db2fa5a65efae5ae60c75996b01"}]}


[32mINFO    [0m Common.Httpcore:Httpcore.py:158 2022-12-05 17:20:50.924920 | 
<-----Core Sign Response---->
{"balanceChanges":[],"blockHash":"","blockHeight":"0","blockTime":"1970-01-01T00:00:00.000Z","createdTime":"2022-12-05T09:20:55.000Z","description":"Contract Execution","estimatedFee":"3361110000000000","fee":"-1","hash":"0x4cff39460eef05932c7326308b9bf97f8b7e7f48d76637072a3eb214292aa3df","id":"1599695299982606338","networkCode":"MATIC","serialized":"02f902948189418506fc23ac008507130137048301b5a5946490c1b13a4576128159576f9d3acadf79e8dd6f80b902246a7612020000000000000000000000006490c1b13a4576128159576f9d3acadf79e8dd6f000000000000000000000000000000000000000000000000000000000000006400000000000000000000000000000000000000000000000000000000000001400000000000000000000000000000000000000000000000000000000000000000000000000000000000000000000000000000000000000000000000000000afce000000000000000000000000000000000000000000000000000000000000d6740000000000000000000000000000000000000000000000000000000855d1aad50000000000000000000000000000000000000000000000000000000000000000000000000000000000000000e525e7cd17f6dc950492755a089e452fd5d9d44f0000000000000000000000000000000000000000000000000000000000000160000000000000000000000000000000000000000000000000000000000000000000000000000000000000000000000000000000000000000000000000000000827c99c22c9d5d515c6c8d6a0c7dec0ebad97ece7d736c06acbcf7a36026142c20075c445dbdb18c6d34e771e82a09a3b79666ae43d204654137bd38933eb876921bf6539945945b79b2cf75f4358f105d420210a84898fd1a0d65a7982e7f7e32ee378bd0a3dbba8c5253cbd896e6b95b8b20a1875b8f544d2e3e10da26cb45a9641b000000000000000000000000000000000000000000000000000000000000c001a08059061cd35894c629843839171a84ff4c0bc8f09fcbeb5c65b2ca334c94b5a4a0646f3d035767f7f786538ea039cf77208aa80c9db2fa5a65efae5ae60c75996b","status":2,"statusDesc":"SIGNED","updatedTime":"2022-12-05T09:20:57.398Z"}
[32mINFO    [0m Common.Httpcore:Httpcore.py:174 2022-12-05 17:20:50.924920 | 
<-----Core Send------>
Url:http://54.251.78.181:8888/core/api/transactions/send/1599695299982606338

Headers:{"Content-Type": "application/json", "Authorization": "eyJib2R5IjoiV2ViMyBUb2tlbiBWZXJzaW9uOiAyXG5Ob25jZTogMTU4NTEwMjc5MTQ2NjQ4NzgxMFxuSXNzdWVkIEF0OiBXZWQsIDI2IE9jdCAyMDIyIDAyOjU1OjI5IEdNVFxuRXhwaXJhdGlvbiBUaW1lOiBTYXQsIDIzIE9jdCAyMDMyIDAyOjU1OjI5IEdNVCIsInNpZ25hdHVyZSI6IjB4OTE1NWMyOGM3NjVjZjk1YTBjNjdiZGNhYzExNzIwYTRkNDQ4NDc4YmU5ZDZhNjE3ZWQzNDUzZDU3MDgzZjNjZTA2N2Q5OGUwMGI0YTVhMmJmOTlkY2I5Y2VmNzg5Yjc4OWViNzI5OTk4YzgxYWQzOWFhMTUzZTcxM2Q4M2FhYWUxYiJ9"}


[32mINFO    [0m Common.Httpcore:Httpcore.py:177 2022-12-05 17:20:50.924920 | 
<-----Core Send Response---->
{"balanceChanges":[],"blockHash":"","blockHeight":"0","blockTime":"2022-12-05T09:20:57.922Z","createdTime":"2022-12-05T09:20:55.000Z","description":"Contract Execution","estimatedFee":"3361110000000000","fee":"-1","hash":"0x4cff39460eef05932c7326308b9bf97f8b7e7f48d76637072a3eb214292aa3df","id":"1599695299982606338","networkCode":"MATIC","serialized":"02f902948189418506fc23ac008507130137048301b5a5946490c1b13a4576128159576f9d3acadf79e8dd6f80b902246a7612020000000000000000000000006490c1b13a4576128159576f9d3acadf79e8dd6f000000000000000000000000000000000000000000000000000000000000006400000000000000000000000000000000000000000000000000000000000001400000000000000000000000000000000000000000000000000000000000000000000000000000000000000000000000000000000000000000000000000000afce000000000000000000000000000000000000000000000000000000000000d6740000000000000000000000000000000000000000000000000000000855d1aad50000000000000000000000000000000000000000000000000000000000000000000000000000000000000000e525e7cd17f6dc950492755a089e452fd5d9d44f0000000000000000000000000000000000000000000000000000000000000160000000000000000000000000000000000000000000000000000000000000000000000000000000000000000000000000000000000000000000000000000000827c99c22c9d5d515c6c8d6a0c7dec0ebad97ece7d736c06acbcf7a36026142c20075c445dbdb18c6d34e771e82a09a3b79666ae43d204654137bd38933eb876921bf6539945945b79b2cf75f4358f105d420210a84898fd1a0d65a7982e7f7e32ee378bd0a3dbba8c5253cbd896e6b95b8b20a1875b8f544d2e3e10da26cb45a9641b000000000000000000000000000000000000000000000000000000000000c001a08059061cd35894c629843839171a84ff4c0bc8f09fcbeb5c65b2ca334c94b5a4a0646f3d035767f7f786538ea039cf77208aa80c9db2fa5a65efae5ae60c75996b","status":3,"statusDesc":"PENDING","updatedTime":"2022-12-05T09:20:57.922Z"}