[32mINFO    [0m Common.Httpcore:Httpcore.py:201 2022-12-02 14:23:57.687602 | 
<-----Relay estimate----->
Url:http://16.163.105.179:18000/api/v2/safes/0x6490C1b13A4576128159576F9d3acadF79e8dd6f/transactions/estimate/

Headers:{"Content-Type": "application/json"}

Body:{"gasToken": "0x0000000000000000000000000000000000000000", "operation": "0", "safe": "0x6490C1b13A4576128159576F9d3acadF79e8dd6f", "to": "0x6490C1b13A4576128159576F9d3acadF79e8dd6f", "data": "0x", "value": "100"}
[32mINFO    [0m Common.Httpcore:Httpcore.py:204 2022-12-02 14:23:57.687602 | 
<-----Relay estimate Response----->
{"safeTxGas":"45006","baseGas":"54900","dataGas":"54900","operationalGas":"0","gasPrice":"33333333334","lastUsedNonce":13,"gasToken":"0x0000000000000000000000000000000000000000","refundReceiver":"0xbA7024EE0273C30a479838DA4Ad31718436b453e"}
[32mINFO    [0m Common.Httpcore:Httpcore.py:132 2022-12-02 14:23:57.687602 | 
<-----Core Build------>
Url:http://54.251.78.181:8888/core/api/transactions

Headers:{"Content-Type": "application/json", "Authorization": "eyJib2R5IjoiV2ViMyBUb2tlbiBWZXJzaW9uOiAyXG5Ob25jZTogMTU4NTEwMjc5MTQ2NjQ4NzgxMFxuSXNzdWVkIEF0OiBXZWQsIDI2IE9jdCAyMDIyIDAyOjU1OjI5IEdNVFxuRXhwaXJhdGlvbiBUaW1lOiBTYXQsIDIzIE9jdCAyMDMyIDAyOjU1OjI5IEdNVCIsInNpZ25hdHVyZSI6IjB4OTE1NWMyOGM3NjVjZjk1YTBjNjdiZGNhYzExNzIwYTRkNDQ4NDc4YmU5ZDZhNjE3ZWQzNDUzZDU3MDgzZjNjZTA2N2Q5OGUwMGI0YTVhMmJmOTlkY2I5Y2VmNzg5Yjc4OWViNzI5OTk4YzgxYWQzOWFhMTUzZTcxM2Q4M2FhYWUxYiJ9"}

body:{"networkCode": "MATIC", "payload": {"from": "0xe525E7cd17f6Dc950492755A089E452fd5d9d44f", "safeInputRequest": {"contract": "0x6490C1b13A4576128159576F9d3acadF79e8dd6f", "participants": ["0244fb46bba2e912f26a73126b89742ed7f521f593ee084953ae008172553a0113", "03c420167aaf4fc7106646b2fe485519e5569ceb1584ae31d62537e349a4e4b5a9"], "refundReceiver": "0xe525E7cd17f6Dc950492755A089E452fd5d9d44f", "gasToken": "0x0000000000000000000000000000000000000000", "baseGas": "54900", "safeTxGas": "45006", "gasPrice": "33333333334", "to": "0x6490C1b13A4576128159576F9d3acadF79e8dd6f", "value": "0x64"}}, "type": "SAFE_TRANSACTION"}


[32mINFO    [0m Common.Httpcore:Httpcore.py:135 2022-12-02 14:23:57.687602 | 
<-----Core Build Response---->
{"balanceChanges":[],"blockTime":"1970-01-01T00:00:00.000Z","createdTime":"2022-12-02T06:23:59.259Z","description":"Custom Excution","estimatedFee":"","hash":"","id":"1598563609054760961","networkCode":"MATIC","requiredSignings":[{"hash":"a5fd4a7212b45fe2e31b34d7e6b7c92c81e760c641dea550608c8aa6f9b5913e","publicKeys":["0244fb46bba2e912f26a73126b89742ed7f521f593ee084953ae008172553a0113","03c420167aaf4fc7106646b2fe485519e5569ceb1584ae31d62537e349a4e4b5a9"],"threshold":2}],"serialized":"6a7612020000000000000000000000006490c1b13a4576128159576f9d3acadf79e8dd6f000000000000000000000000000000000000000000000000000000000000006400000000000000000000000000000000000000000000000000000000000001400000000000000000000000000000000000000000000000000000000000000000000000000000000000000000000000000000000000000000000000000000afce000000000000000000000000000000000000000000000000000000000000d67400000000000000000000000000000000000000000000000000000007c2d24d560000000000000000000000000000000000000000000000000000000000000000000000000000000000000000e525e7cd17f6dc950492755a089e452fd5d9d44f000000000000000000000000000000000000000000000000000000000000016000000000000000000000000000000000000000000000000000000000000000000000000000000000000000000000000000000000000000000000000000000000","status":0,"statusDesc":"BUILDING","updatedTime":"2022-12-02T06:23:59.259Z"}
[32mINFO    [0m Common.Httpcore:Httpcore.py:155 2022-12-02 14:23:57.687602 | 
<-----Core Sign------>
Url:http://54.251.78.181:8888/core/api/transactions/signatures

Headers:{"Content-Type": "application/json", "Authorization": "eyJib2R5IjoiV2ViMyBUb2tlbiBWZXJzaW9uOiAyXG5Ob25jZTogMTU4NTEwMjc5MTQ2NjQ4NzgxMFxuSXNzdWVkIEF0OiBXZWQsIDI2IE9jdCAyMDIyIDAyOjU1OjI5IEdNVFxuRXhwaXJhdGlvbiBUaW1lOiBTYXQsIDIzIE9jdCAyMDMyIDAyOjU1OjI5IEdNVCIsInNpZ25hdHVyZSI6IjB4OTE1NWMyOGM3NjVjZjk1YTBjNjdiZGNhYzExNzIwYTRkNDQ4NDc4YmU5ZDZhNjE3ZWQzNDUzZDU3MDgzZjNjZTA2N2Q5OGUwMGI0YTVhMmJmOTlkY2I5Y2VmNzg5Yjc4OWViNzI5OTk4YzgxYWQzOWFhMTUzZTcxM2Q4M2FhYWUxYiJ9"}

body:{"id": "1598563609054760961", "signatures": [{"hash": "a5fd4a7212b45fe2e31b34d7e6b7c92c81e760c641dea550608c8aa6f9b5913e", "publicKey": "0244fb46bba2e912f26a73126b89742ed7f521f593ee084953ae008172553a0113", "signature": "786efee29cc8d161ebff49b14a6505cfbdc726283577e970464f9cfbe6183506274b3b58fa7cccb56a0759ef6e5bc1fcbc61349cdfbec51a5f5ed758ca502cbd01"}, {"hash": "a5fd4a7212b45fe2e31b34d7e6b7c92c81e760c641dea550608c8aa6f9b5913e", "publicKey": "03c420167aaf4fc7106646b2fe485519e5569ceb1584ae31d62537e349a4e4b5a9", "signature": "7ba862574a836cd4609522bf7a3002a1f62c11608a62c31393a11442abeaab1e3810477565a890c3acba9e0a4e3c42027a3cfff944cd63ec0112ca913822f8ba00"}]}


[32mINFO    [0m Common.Httpcore:Httpcore.py:158 2022-12-02 14:23:57.687602 | 
<-----Core Sign Response---->
{"balanceChanges":[],"blockHash":"","blockHeight":"0","blockTime":"1970-01-01T00:00:00.000Z","createdTime":"2022-12-02T06:23:59.000Z","description":"Contract Execution","estimatedFee":"3361110000000000","fee":"-1","hash":"","id":"1598563609054760961","networkCode":"MATIC","requiredSignings":[{"hash":"1b7368d1cad1ddb67a304cbdc8eeb4153ea62ca222788cc73ecb821a87d1b9c2","threshold":1}],"serialized":"02f902548189378506fc23ac008506fc23ac488301b5a5946490c1b13a4576128159576f9d3acadf79e8dd6f80b902246a7612020000000000000000000000006490c1b13a4576128159576f9d3acadf79e8dd6f000000000000000000000000000000000000000000000000000000000000006400000000000000000000000000000000000000000000000000000000000001400000000000000000000000000000000000000000000000000000000000000000000000000000000000000000000000000000000000000000000000000000afce000000000000000000000000000000000000000000000000000000000000d67400000000000000000000000000000000000000000000000000000007c2d24d560000000000000000000000000000000000000000000000000000000000000000000000000000000000000000e525e7cd17f6dc950492755a089e452fd5d9d44f0000000000000000000000000000000000000000000000000000000000000160000000000000000000000000000000000000000000000000000000000000000000000000000000000000000000000000000000000000000000000000000000827ba862574a836cd4609522bf7a3002a1f62c11608a62c31393a11442abeaab1e3810477565a890c3acba9e0a4e3c42027a3cfff944cd63ec0112ca913822f8ba1b786efee29cc8d161ebff49b14a6505cfbdc726283577e970464f9cfbe6183506274b3b58fa7cccb56a0759ef6e5bc1fcbc61349cdfbec51a5f5ed758ca502cbd1c000000000000000000000000000000000000000000000000000000000000c0808080","status":0,"statusDesc":"BUILDING","updatedTime":"2022-12-02T06:24:01.211Z"}
[32mINFO    [0m Common.Httpcore:Httpcore.py:155 2022-12-02 14:23:57.687602 | 
<-----Core Sign------>
Url:http://54.251.78.181:8888/core/api/transactions/signatures

Headers:{"Content-Type": "application/json", "Authorization": "eyJib2R5IjoiV2ViMyBUb2tlbiBWZXJzaW9uOiAyXG5Ob25jZTogMTU4NTEwMjc5MTQ2NjQ4NzgxMFxuSXNzdWVkIEF0OiBXZWQsIDI2IE9jdCAyMDIyIDAyOjU1OjI5IEdNVFxuRXhwaXJhdGlvbiBUaW1lOiBTYXQsIDIzIE9jdCAyMDMyIDAyOjU1OjI5IEdNVCIsInNpZ25hdHVyZSI6IjB4OTE1NWMyOGM3NjVjZjk1YTBjNjdiZGNhYzExNzIwYTRkNDQ4NDc4YmU5ZDZhNjE3ZWQzNDUzZDU3MDgzZjNjZTA2N2Q5OGUwMGI0YTVhMmJmOTlkY2I5Y2VmNzg5Yjc4OWViNzI5OTk4YzgxYWQzOWFhMTUzZTcxM2Q4M2FhYWUxYiJ9"}

body:{"id": "1598563609054760961", "signatures": [{"hash": "1b7368d1cad1ddb67a304cbdc8eeb4153ea62ca222788cc73ecb821a87d1b9c2", "publicKey": "0244fb46bba2e912f26a73126b89742ed7f521f593ee084953ae008172553a0113", "signature": "7309b01915d87f3d980ac0752eff7753da2f52df9e1d2071a93ec6f67f584411279a75b76a68b050eca8a93c2c112a1be64d9ae54d203f9cd73287fc5c193d5b00"}]}


[32mINFO    [0m Common.Httpcore:Httpcore.py:158 2022-12-02 14:23:57.687602 | 
<-----Core Sign Response---->
{"balanceChanges":[],"blockHash":"","blockHeight":"0","blockTime":"1970-01-01T00:00:00.000Z","createdTime":"2022-12-02T06:23:59.000Z","description":"Contract Execution","estimatedFee":"3361110000000000","fee":"-1","hash":"0xef30084109a086b8ec1157f4a8e66a8ffdf7444f252857d8951eeeea7df812ab","id":"1598563609054760961","networkCode":"MATIC","serialized":"02f902948189378506fc23ac008506fc23ac488301b5a5946490c1b13a4576128159576f9d3acadf79e8dd6f80b902246a7612020000000000000000000000006490c1b13a4576128159576f9d3acadf79e8dd6f000000000000000000000000000000000000000000000000000000000000006400000000000000000000000000000000000000000000000000000000000001400000000000000000000000000000000000000000000000000000000000000000000000000000000000000000000000000000000000000000000000000000afce000000000000000000000000000000000000000000000000000000000000d67400000000000000000000000000000000000000000000000000000007c2d24d560000000000000000000000000000000000000000000000000000000000000000000000000000000000000000e525e7cd17f6dc950492755a089e452fd5d9d44f0000000000000000000000000000000000000000000000000000000000000160000000000000000000000000000000000000000000000000000000000000000000000000000000000000000000000000000000000000000000000000000000827ba862574a836cd4609522bf7a3002a1f62c11608a62c31393a11442abeaab1e3810477565a890c3acba9e0a4e3c42027a3cfff944cd63ec0112ca913822f8ba1b786efee29cc8d161ebff49b14a6505cfbdc726283577e970464f9cfbe6183506274b3b58fa7cccb56a0759ef6e5bc1fcbc61349cdfbec51a5f5ed758ca502cbd1c000000000000000000000000000000000000000000000000000000000000c080a07309b01915d87f3d980ac0752eff7753da2f52df9e1d2071a93ec6f67f584411a0279a75b76a68b050eca8a93c2c112a1be64d9ae54d203f9cd73287fc5c193d5b","status":2,"statusDesc":"SIGNED","updatedTime":"2022-12-02T06:24:01.494Z"}
[32mINFO    [0m Common.Httpcore:Httpcore.py:174 2022-12-02 14:23:57.687602 | 
<-----Core Send------>
Url:http://54.251.78.181:8888/core/api/transactions/send/1598563609054760961

Headers:{"Content-Type": "application/json", "Authorization": "eyJib2R5IjoiV2ViMyBUb2tlbiBWZXJzaW9uOiAyXG5Ob25jZTogMTU4NTEwMjc5MTQ2NjQ4NzgxMFxuSXNzdWVkIEF0OiBXZWQsIDI2IE9jdCAyMDIyIDAyOjU1OjI5IEdNVFxuRXhwaXJhdGlvbiBUaW1lOiBTYXQsIDIzIE9jdCAyMDMyIDAyOjU1OjI5IEdNVCIsInNpZ25hdHVyZSI6IjB4OTE1NWMyOGM3NjVjZjk1YTBjNjdiZGNhYzExNzIwYTRkNDQ4NDc4YmU5ZDZhNjE3ZWQzNDUzZDU3MDgzZjNjZTA2N2Q5OGUwMGI0YTVhMmJmOTlkY2I5Y2VmNzg5Yjc4OWViNzI5OTk4YzgxYWQzOWFhMTUzZTcxM2Q4M2FhYWUxYiJ9"}


[32mINFO    [0m Common.Httpcore:Httpcore.py:177 2022-12-02 14:23:57.687602 | 
<-----Core Send Response---->
{"balanceChanges":[],"blockHash":"","blockHeight":"0","blockTime":"2022-12-02T06:24:02.006Z","createdTime":"2022-12-02T06:23:59.000Z","description":"Contract Execution","estimatedFee":"3361110000000000","fee":"-1","hash":"0xef30084109a086b8ec1157f4a8e66a8ffdf7444f252857d8951eeeea7df812ab","id":"1598563609054760961","networkCode":"MATIC","serialized":"02f902948189378506fc23ac008506fc23ac488301b5a5946490c1b13a4576128159576f9d3acadf79e8dd6f80b902246a7612020000000000000000000000006490c1b13a4576128159576f9d3acadf79e8dd6f000000000000000000000000000000000000000000000000000000000000006400000000000000000000000000000000000000000000000000000000000001400000000000000000000000000000000000000000000000000000000000000000000000000000000000000000000000000000000000000000000000000000afce000000000000000000000000000000000000000000000000000000000000d67400000000000000000000000000000000000000000000000000000007c2d24d560000000000000000000000000000000000000000000000000000000000000000000000000000000000000000e525e7cd17f6dc950492755a089e452fd5d9d44f0000000000000000000000000000000000000000000000000000000000000160000000000000000000000000000000000000000000000000000000000000000000000000000000000000000000000000000000000000000000000000000000827ba862574a836cd4609522bf7a3002a1f62c11608a62c31393a11442abeaab1e3810477565a890c3acba9e0a4e3c42027a3cfff944cd63ec0112ca913822f8ba1b786efee29cc8d161ebff49b14a6505cfbdc726283577e970464f9cfbe6183506274b3b58fa7cccb56a0759ef6e5bc1fcbc61349cdfbec51a5f5ed758ca502cbd1c000000000000000000000000000000000000000000000000000000000000c080a07309b01915d87f3d980ac0752eff7753da2f52df9e1d2071a93ec6f67f584411a0279a75b76a68b050eca8a93c2c112a1be64d9ae54d203f9cd73287fc5c193d5b","status":3,"statusDesc":"PENDING","updatedTime":"2022-12-02T06:24:02.006Z"}