[32mINFO    [0m Common.Httpcore:Httpcore.py:201 2022-12-01 18:37:48.521304 | 
<-----Relay estimate----->
Url:http://16.163.105.179:18000/api/v2/safes/0x6490C1b13A4576128159576F9d3acadF79e8dd6f/transactions/estimate/

Headers:{"Content-Type": "application/json"}

Body:{"gasToken": "0x0000000000000000000000000000000000000000", "operation": "0", "safe": "0x6490C1b13A4576128159576F9d3acadF79e8dd6f", "to": "0x6490C1b13A4576128159576F9d3acadF79e8dd6f", "data": "0x", "value": "100"}
[32mINFO    [0m Common.Httpcore:Httpcore.py:204 2022-12-01 18:37:48.521304 | 
<-----Relay estimate Response----->
{"safeTxGas":"45006","baseGas":"54900","dataGas":"54900","operationalGas":"0","gasPrice":"33333333334","lastUsedNonce":9,"gasToken":"0x0000000000000000000000000000000000000000","refundReceiver":"0xbA7024EE0273C30a479838DA4Ad31718436b453e"}
[32mINFO    [0m Common.Httpcore:Httpcore.py:132 2022-12-01 18:37:48.521304 | 
<-----Core Build------>
Url:http://54.251.78.181:8888/core/api/transactions

Headers:{"Content-Type": "application/json", "Authorization": "eyJib2R5IjoiV2ViMyBUb2tlbiBWZXJzaW9uOiAyXG5Ob25jZTogMTU4NTEwMjc5MTQ2NjQ4NzgxMFxuSXNzdWVkIEF0OiBXZWQsIDI2IE9jdCAyMDIyIDAyOjU1OjI5IEdNVFxuRXhwaXJhdGlvbiBUaW1lOiBTYXQsIDIzIE9jdCAyMDMyIDAyOjU1OjI5IEdNVCIsInNpZ25hdHVyZSI6IjB4OTE1NWMyOGM3NjVjZjk1YTBjNjdiZGNhYzExNzIwYTRkNDQ4NDc4YmU5ZDZhNjE3ZWQzNDUzZDU3MDgzZjNjZTA2N2Q5OGUwMGI0YTVhMmJmOTlkY2I5Y2VmNzg5Yjc4OWViNzI5OTk4YzgxYWQzOWFhMTUzZTcxM2Q4M2FhYWUxYiJ9"}

body:{"networkCode": "MATIC", "payload": {"from": "0xe525E7cd17f6Dc950492755A089E452fd5d9d44f", "safeInputRequest": {"contract": "0x6490C1b13A4576128159576F9d3acadF79e8dd6f", "participants": ["0244fb46bba2e912f26a73126b89742ed7f521f593ee084953ae008172553a0113", "03c420167aaf4fc7106646b2fe485519e5569ceb1584ae31d62537e349a4e4b5a9"], "refundReceiver": "0xe525E7cd17f6Dc950492755A089E452fd5d9d44f", "gasToken": "0x0000000000000000000000000000000000000000", "baseGas": "54900", "safeTxGas": "45006", "gasPrice": "33333333334", "to": "0x6490C1b13A4576128159576F9d3acadF79e8dd6f", "value": "0x64"}}, "type": "SAFE_TRANSACTION"}


[32mINFO    [0m Common.Httpcore:Httpcore.py:135 2022-12-01 18:37:48.521304 | 
<-----Core Build Response---->
{"balanceChanges":[],"blockTime":"1970-01-01T00:00:00.000Z","createdTime":"2022-12-01T10:37:50.408Z","description":"Custom Excution","estimatedFee":"","hash":"","id":"1598265105254166530","networkCode":"MATIC","requiredSignings":[{"hash":"7354055eaf088e2df4e8377c2824431e6449c315009bfb21fc2a28f5f8cea1c8","publicKeys":["0244fb46bba2e912f26a73126b89742ed7f521f593ee084953ae008172553a0113","03c420167aaf4fc7106646b2fe485519e5569ceb1584ae31d62537e349a4e4b5a9"],"threshold":2}],"serialized":"6a7612020000000000000000000000006490c1b13a4576128159576f9d3acadf79e8dd6f000000000000000000000000000000000000000000000000000000000000006400000000000000000000000000000000000000000000000000000000000001400000000000000000000000000000000000000000000000000000000000000000000000000000000000000000000000000000000000000000000000000000afce000000000000000000000000000000000000000000000000000000000000d67400000000000000000000000000000000000000000000000000000007c2d24d560000000000000000000000000000000000000000000000000000000000000000000000000000000000000000e525e7cd17f6dc950492755a089e452fd5d9d44f000000000000000000000000000000000000000000000000000000000000016000000000000000000000000000000000000000000000000000000000000000000000000000000000000000000000000000000000000000000000000000000000","status":0,"statusDesc":"BUILDING","updatedTime":"2022-12-01T10:37:50.408Z"}
[32mINFO    [0m Common.Httpcore:Httpcore.py:155 2022-12-01 18:37:48.521304 | 
<-----Core Sign------>
Url:http://54.251.78.181:8888/core/api/transactions/signatures

Headers:{"Content-Type": "application/json", "Authorization": "eyJib2R5IjoiV2ViMyBUb2tlbiBWZXJzaW9uOiAyXG5Ob25jZTogMTU4NTEwMjc5MTQ2NjQ4NzgxMFxuSXNzdWVkIEF0OiBXZWQsIDI2IE9jdCAyMDIyIDAyOjU1OjI5IEdNVFxuRXhwaXJhdGlvbiBUaW1lOiBTYXQsIDIzIE9jdCAyMDMyIDAyOjU1OjI5IEdNVCIsInNpZ25hdHVyZSI6IjB4OTE1NWMyOGM3NjVjZjk1YTBjNjdiZGNhYzExNzIwYTRkNDQ4NDc4YmU5ZDZhNjE3ZWQzNDUzZDU3MDgzZjNjZTA2N2Q5OGUwMGI0YTVhMmJmOTlkY2I5Y2VmNzg5Yjc4OWViNzI5OTk4YzgxYWQzOWFhMTUzZTcxM2Q4M2FhYWUxYiJ9"}

body:{"id": "1598265105254166530", "signatures": [{"hash": "7354055eaf088e2df4e8377c2824431e6449c315009bfb21fc2a28f5f8cea1c8", "publicKey": "0244fb46bba2e912f26a73126b89742ed7f521f593ee084953ae008172553a0113", "signature": "2f5661c82f9dc8c147f699a03b67b34585293d25531abe2639d4081c6526ad471071b8012188276849e232e50a8cacffaa8f9b564204e47c470b55edb0313db900"}, {"hash": "7354055eaf088e2df4e8377c2824431e6449c315009bfb21fc2a28f5f8cea1c8", "publicKey": "03c420167aaf4fc7106646b2fe485519e5569ceb1584ae31d62537e349a4e4b5a9", "signature": "a3da274df59659cde1b63c1f27f0cbe7e7ed5b3f093f8cbb4d96b6990b18a0e97c6c24db5936686372247954799b532376c98636b5051889a6d1a6d4d6e1024e00"}]}


[32mINFO    [0m Common.Httpcore:Httpcore.py:158 2022-12-01 18:37:48.521304 | 
<-----Core Sign Response---->
{"balanceChanges":[],"blockHash":"","blockHeight":"0","blockTime":"1970-01-01T00:00:00.000Z","createdTime":"2022-12-01T10:37:50.000Z","description":"Contract Execution","estimatedFee":"3361110000000000","fee":"-1","hash":"","id":"1598265105254166530","networkCode":"MATIC","requiredSignings":[{"hash":"ae7a2f837a83263c3e3f3d895b6bf760d7cd86ccccf6d205886d7dff2c7578a5","threshold":1}],"serialized":"02f902548189318506fc23ac008506fc23b91a8301b5a5946490c1b13a4576128159576f9d3acadf79e8dd6f80b902246a7612020000000000000000000000006490c1b13a4576128159576f9d3acadf79e8dd6f000000000000000000000000000000000000000000000000000000000000006400000000000000000000000000000000000000000000000000000000000001400000000000000000000000000000000000000000000000000000000000000000000000000000000000000000000000000000000000000000000000000000afce000000000000000000000000000000000000000000000000000000000000d67400000000000000000000000000000000000000000000000000000007c2d24d560000000000000000000000000000000000000000000000000000000000000000000000000000000000000000e525e7cd17f6dc950492755a089e452fd5d9d44f000000000000000000000000000000000000000000000000000000000000016000000000000000000000000000000000000000000000000000000000000000000000000000000000000000000000000000000000000000000000000000000082a3da274df59659cde1b63c1f27f0cbe7e7ed5b3f093f8cbb4d96b6990b18a0e97c6c24db5936686372247954799b532376c98636b5051889a6d1a6d4d6e1024e1b2f5661c82f9dc8c147f699a03b67b34585293d25531abe2639d4081c6526ad471071b8012188276849e232e50a8cacffaa8f9b564204e47c470b55edb0313db91b000000000000000000000000000000000000000000000000000000000000c0808080","status":0,"statusDesc":"BUILDING","updatedTime":"2022-12-01T10:37:52.149Z"}
[32mINFO    [0m Common.Httpcore:Httpcore.py:155 2022-12-01 18:37:48.521304 | 
<-----Core Sign------>
Url:http://54.251.78.181:8888/core/api/transactions/signatures

Headers:{"Content-Type": "application/json", "Authorization": "eyJib2R5IjoiV2ViMyBUb2tlbiBWZXJzaW9uOiAyXG5Ob25jZTogMTU4NTEwMjc5MTQ2NjQ4NzgxMFxuSXNzdWVkIEF0OiBXZWQsIDI2IE9jdCAyMDIyIDAyOjU1OjI5IEdNVFxuRXhwaXJhdGlvbiBUaW1lOiBTYXQsIDIzIE9jdCAyMDMyIDAyOjU1OjI5IEdNVCIsInNpZ25hdHVyZSI6IjB4OTE1NWMyOGM3NjVjZjk1YTBjNjdiZGNhYzExNzIwYTRkNDQ4NDc4YmU5ZDZhNjE3ZWQzNDUzZDU3MDgzZjNjZTA2N2Q5OGUwMGI0YTVhMmJmOTlkY2I5Y2VmNzg5Yjc4OWViNzI5OTk4YzgxYWQzOWFhMTUzZTcxM2Q4M2FhYWUxYiJ9"}

body:{"id": "1598265105254166530", "signatures": [{"hash": "ae7a2f837a83263c3e3f3d895b6bf760d7cd86ccccf6d205886d7dff2c7578a5", "publicKey": "0244fb46bba2e912f26a73126b89742ed7f521f593ee084953ae008172553a0113", "signature": "4bc4c45835816c3565d107d58462b5e89a20efcb96cb9c78c91ee2003346cac908809bfa8097cee728a02dd94a6073fedb7435407c7ad3d7e6d03160915f15bc00"}]}


[32mINFO    [0m Common.Httpcore:Httpcore.py:158 2022-12-01 18:37:48.521304 | 
<-----Core Sign Response---->
{"balanceChanges":[],"blockHash":"","blockHeight":"0","blockTime":"1970-01-01T00:00:00.000Z","createdTime":"2022-12-01T10:37:50.000Z","description":"Contract Execution","estimatedFee":"3361110000000000","fee":"-1","hash":"0x1e7e916458af89da5ebcd069ed1351476e9b1671703026c2f5eaf2110d2cb53a","id":"1598265105254166530","networkCode":"MATIC","serialized":"02f902948189318506fc23ac008506fc23b91a8301b5a5946490c1b13a4576128159576f9d3acadf79e8dd6f80b902246a7612020000000000000000000000006490c1b13a4576128159576f9d3acadf79e8dd6f000000000000000000000000000000000000000000000000000000000000006400000000000000000000000000000000000000000000000000000000000001400000000000000000000000000000000000000000000000000000000000000000000000000000000000000000000000000000000000000000000000000000afce000000000000000000000000000000000000000000000000000000000000d67400000000000000000000000000000000000000000000000000000007c2d24d560000000000000000000000000000000000000000000000000000000000000000000000000000000000000000e525e7cd17f6dc950492755a089e452fd5d9d44f000000000000000000000000000000000000000000000000000000000000016000000000000000000000000000000000000000000000000000000000000000000000000000000000000000000000000000000000000000000000000000000082a3da274df59659cde1b63c1f27f0cbe7e7ed5b3f093f8cbb4d96b6990b18a0e97c6c24db5936686372247954799b532376c98636b5051889a6d1a6d4d6e1024e1b2f5661c82f9dc8c147f699a03b67b34585293d25531abe2639d4081c6526ad471071b8012188276849e232e50a8cacffaa8f9b564204e47c470b55edb0313db91b000000000000000000000000000000000000000000000000000000000000c080a04bc4c45835816c3565d107d58462b5e89a20efcb96cb9c78c91ee2003346cac9a008809bfa8097cee728a02dd94a6073fedb7435407c7ad3d7e6d03160915f15bc","status":2,"statusDesc":"SIGNED","updatedTime":"2022-12-01T10:37:52.389Z"}
[32mINFO    [0m Common.Httpcore:Httpcore.py:174 2022-12-01 18:37:48.521304 | 
<-----Core Send------>
Url:http://54.251.78.181:8888/core/api/transactions/send/1598265105254166530

Headers:{"Content-Type": "application/json", "Authorization": "eyJib2R5IjoiV2ViMyBUb2tlbiBWZXJzaW9uOiAyXG5Ob25jZTogMTU4NTEwMjc5MTQ2NjQ4NzgxMFxuSXNzdWVkIEF0OiBXZWQsIDI2IE9jdCAyMDIyIDAyOjU1OjI5IEdNVFxuRXhwaXJhdGlvbiBUaW1lOiBTYXQsIDIzIE9jdCAyMDMyIDAyOjU1OjI5IEdNVCIsInNpZ25hdHVyZSI6IjB4OTE1NWMyOGM3NjVjZjk1YTBjNjdiZGNhYzExNzIwYTRkNDQ4NDc4YmU5ZDZhNjE3ZWQzNDUzZDU3MDgzZjNjZTA2N2Q5OGUwMGI0YTVhMmJmOTlkY2I5Y2VmNzg5Yjc4OWViNzI5OTk4YzgxYWQzOWFhMTUzZTcxM2Q4M2FhYWUxYiJ9"}


[32mINFO    [0m Common.Httpcore:Httpcore.py:177 2022-12-01 18:37:48.521304 | 
<-----Core Send Response---->
{"balanceChanges":[],"blockHash":"","blockHeight":"0","blockTime":"2022-12-01T10:37:52.926Z","createdTime":"2022-12-01T10:37:50.000Z","description":"Contract Execution","estimatedFee":"3361110000000000","fee":"-1","hash":"0x1e7e916458af89da5ebcd069ed1351476e9b1671703026c2f5eaf2110d2cb53a","id":"1598265105254166530","networkCode":"MATIC","serialized":"02f902948189318506fc23ac008506fc23b91a8301b5a5946490c1b13a4576128159576f9d3acadf79e8dd6f80b902246a7612020000000000000000000000006490c1b13a4576128159576f9d3acadf79e8dd6f000000000000000000000000000000000000000000000000000000000000006400000000000000000000000000000000000000000000000000000000000001400000000000000000000000000000000000000000000000000000000000000000000000000000000000000000000000000000000000000000000000000000afce000000000000000000000000000000000000000000000000000000000000d67400000000000000000000000000000000000000000000000000000007c2d24d560000000000000000000000000000000000000000000000000000000000000000000000000000000000000000e525e7cd17f6dc950492755a089e452fd5d9d44f000000000000000000000000000000000000000000000000000000000000016000000000000000000000000000000000000000000000000000000000000000000000000000000000000000000000000000000000000000000000000000000082a3da274df59659cde1b63c1f27f0cbe7e7ed5b3f093f8cbb4d96b6990b18a0e97c6c24db5936686372247954799b532376c98636b5051889a6d1a6d4d6e1024e1b2f5661c82f9dc8c147f699a03b67b34585293d25531abe2639d4081c6526ad471071b8012188276849e232e50a8cacffaa8f9b564204e47c470b55edb0313db91b000000000000000000000000000000000000000000000000000000000000c080a04bc4c45835816c3565d107d58462b5e89a20efcb96cb9c78c91ee2003346cac9a008809bfa8097cee728a02dd94a6073fedb7435407c7ad3d7e6d03160915f15bc","status":3,"statusDesc":"PENDING","updatedTime":"2022-12-01T10:37:52.926Z"}