[32mINFO    [0m Common.Http:Http.py:425 2022-12-23 14:55:31.626600 | 
<-----Query Holders----->
Url:https://api.dhandho.xyz/vault/proxy/assets/holders/?networkCode=BTC&address=tb1qhcuul2fcyv5rvr5mc5cy5saz0q5p3kx0gsy3c0&symbol=BTC
Headers:{"Content-Type": "application/json", "Authorization": "eyJ0eXAiOiJKV1QiLCJhbGciOiJIUzI1NiJ9.eyJhdWQiOiIxNjAxMDQzOTMwMjg3NDExMjAyIiwiZXhwIjoxNzAyMDg5NjAwLCJpYXQiOjE2NzA1NTM2MDAsInVzZXJJZCI6MTYwMTA0MzkzMDI4NzQxMTIwMn0.fZVc267JNsgy5tB_Wn89l2Zgd3ZgXJfaMg_T9lc3j-o"}


[32mINFO    [0m Common.Http:Http.py:428 2022-12-23 14:55:31.626600 | 
<-----Query Holders Response----->
{"current":1,"list":[{"address":"tb1qhcuul2fcyv5rvr5mc5cy5saz0q5p3kx0gsy3c0","createdTime":"2022-12-12T10:01:45.000Z","id":"1602242291732570114","networkCode":"BTC","quantity":"0.00885183","symbol":"BTC","updatedTime":"2022-12-22T03:58:13.000Z"}],"size":10,"total":1}


[32mINFO    [0m Common.Http:Http.py:265 2022-12-23 14:55:31.626600 | 
<-----Instructions----->
Url:https://api.dhandho.xyz/vault/instructions
Headers:{"Content-Type": "application/json", "Authorization": "eyJ0eXAiOiJKV1QiLCJhbGciOiJIUzI1NiJ9.eyJhdWQiOiIxNjAxMDQzOTMwMjg3NDExMjAyIiwiZXhwIjoxNzAyMDg5NjAwLCJpYXQiOjE2NzA1NTM2MDAsInVzZXJJZCI6MTYwMTA0MzkzMDI4NzQxMTIwMn0.fZVc267JNsgy5tB_Wn89l2Zgd3ZgXJfaMg_T9lc3j-o"}
Body:{"networkCode": "BTC", "type": "transfer", "body": {"from": "tb1qhcuul2fcyv5rvr5mc5cy5saz0q5p3kx0gsy3c0", "to": "tb1qagkvxdz2zq76atvr0rzh8n9lewjmlm25umq0xq", "symbol": "BTC", "amount": "0.000008"}, "transactionParams": {"memo": "l48sjkOHnN"}}


[32mINFO    [0m Common.Http:Http.py:268 2022-12-23 14:55:31.626600 | 
<-----Instructions Response----->
{"_embedded":{"transactions":[{"balanceChanges":[],"blockHash":"","blockHeight":"-1","blockTime":"1970-01-01T00:00:00.000Z","createdTime":"2022-12-23T06:55:36.000Z","description":"","estimatedFee":"187","fee":"-1","hash":"","id":"1606181710295527425","networkCode":"BTC","requiredSignings":[{"hash":"814ca393ec06819c44c5e93929a8cf35e736e02a5bd5d8e4d2a37e40b8b46cd0","publicKeys":["02e8852463021b47fe5214c599e87e431f2eb1219044946bbff397afd0518b85a6"],"threshold":1}],"serialized":"0100000001dad0118854ac6e517a2396ada23eead6ee153caff2ee120ccd45ff320506cad90100000000ffffffff022003000000000000160014ea2cc3344a103daead8378c573ccbfcba5bfed545a1f000000000000160014be39cfa9382328360e9bc5304a43a2782818d8cf00000000","status":0,"statusDesc":"BUILDING","updatedTime":"2022-12-23T06:55:36.000Z"}]},"body":{"symbol":"BTC","amount":"0.000008","from":"tb1qhcuul2fcyv5rvr5mc5cy5saz0q5p3kx0gsy3c0","to":"tb1qagkvxdz2zq76atvr0rzh8n9lewjmlm25umq0xq"},"createdTime":"2022-12-23T06:55:35.000Z","id":"1606181710895333378","networkCode":"BTC","status":-2,"transactionParams":{"memo":"l48sjkOHnN"},"type":"TRANSFER","updatedTime":"2022-12-23T06:55:35.000Z"}


[32mINFO    [0m Common.Http:Http.py:344 2022-12-23 14:55:31.626600 | 
<-----Sign----->
Url:https://api.dhandho.xyz/vault/transactions/signatures
Headers:{"Content-Type": "application/json", "Authorization": "eyJ0eXAiOiJKV1QiLCJhbGciOiJIUzI1NiJ9.eyJhdWQiOiIxNjAxMDQzOTMwMjg3NDExMjAyIiwiZXhwIjoxNzAyMDg5NjAwLCJpYXQiOjE2NzA1NTM2MDAsInVzZXJJZCI6MTYwMTA0MzkzMDI4NzQxMTIwMn0.fZVc267JNsgy5tB_Wn89l2Zgd3ZgXJfaMg_T9lc3j-o"}
Body:{"id": "1606181710295527425", "signatures": [{"hash": "814ca393ec06819c44c5e93929a8cf35e736e02a5bd5d8e4d2a37e40b8b46cd0", "publicKey": "02e8852463021b47fe5214c599e87e431f2eb1219044946bbff397afd0518b85a6", "signature": "1fb92d2805b212c8c57a03729b4b187634cf319c8fde73c6bd69075b16f1c32536ef3fb7a17d0c76cff0036f6fd8f40b8dbbae213da0f8bc2797f65e61bfc72201"}]}


[32mINFO    [0m Common.Http:Http.py:348 2022-12-23 14:55:31.626600 | 
<-----Sign Response----->
{"balanceChanges":[],"blockHash":"","blockHeight":"-1","blockTime":"1970-01-01T00:00:00.000Z","createdTime":"2022-12-23T06:55:36.000Z","description":"","estimatedFee":"187","fee":"-1","hash":"2faefc1e82919dbc30073a2e3fdfeb3368294bb142009b6ca86145d19fedde1c","id":"1606181710295527425","networkCode":"BTC","serialized":"01000000000101dad0118854ac6e517a2396ada23eead6ee153caff2ee120ccd45ff320506cad90100000000ffffffff022003000000000000160014ea2cc3344a103daead8378c573ccbfcba5bfed545a1f000000000000160014be39cfa9382328360e9bc5304a43a2782818d8cf0247304402201fb92d2805b212c8c57a03729b4b187634cf319c8fde73c6bd69075b16f1c325022036ef3fb7a17d0c76cff0036f6fd8f40b8dbbae213da0f8bc2797f65e61bfc722012102e8852463021b47fe5214c599e87e431f2eb1219044946bbff397afd0518b85a600000000","status":2,"statusDesc":"SIGNED","updatedTime":"2022-12-23T06:55:36.417Z"}


[32mINFO    [0m Common.Http:Http.py:364 2022-12-23 14:55:31.626600 | 
<-----Send----->
Url:https://api.dhandho.xyz/vault/transactions/send/1606181710295527425
Headers:{"Content-Type": "application/json", "Authorization": "eyJ0eXAiOiJKV1QiLCJhbGciOiJIUzI1NiJ9.eyJhdWQiOiIxNjAxMDQzOTMwMjg3NDExMjAyIiwiZXhwIjoxNzAyMDg5NjAwLCJpYXQiOjE2NzA1NTM2MDAsInVzZXJJZCI6MTYwMTA0MzkzMDI4NzQxMTIwMn0.fZVc267JNsgy5tB_Wn89l2Zgd3ZgXJfaMg_T9lc3j-o"}


[32mINFO    [0m Common.Http:Http.py:368 2022-12-23 14:55:31.626600 | 
<-----Send Response----->
{"balanceChanges":[],"blockHash":"","blockHeight":"-1","blockTime":"2022-12-23T06:55:36.893Z","createdTime":"2022-12-23T06:55:36.000Z","description":"","estimatedFee":"187","fee":"-1","hash":"2faefc1e82919dbc30073a2e3fdfeb3368294bb142009b6ca86145d19fedde1c","id":"1606181710295527425","networkCode":"BTC","serialized":"01000000000101dad0118854ac6e517a2396ada23eead6ee153caff2ee120ccd45ff320506cad90100000000ffffffff022003000000000000160014ea2cc3344a103daead8378c573ccbfcba5bfed545a1f000000000000160014be39cfa9382328360e9bc5304a43a2782818d8cf0247304402201fb92d2805b212c8c57a03729b4b187634cf319c8fde73c6bd69075b16f1c325022036ef3fb7a17d0c76cff0036f6fd8f40b8dbbae213da0f8bc2797f65e61bfc722012102e8852463021b47fe5214c599e87e431f2eb1219044946bbff397afd0518b85a600000000","status":3,"statusDesc":"PENDING","updatedTime":"2022-12-23T06:55:36.893Z"}