[32mINFO    [0m Common.Http:Http.py:265 2022-12-14 14:25:32.44080 | 
<-----Instructions----->
Url:http://54.251.78.181:8888/escrow/api//instructions
Headers:{"Content-Type": "application/json", "Authorization": "eyJ0eXAiOiJKV1QiLCJhbGciOiJIUzI1NiJ9.eyJhdWQiOiIxNjAxMDQzOTMwMjg3NDExMjAyIiwiZXhwIjoxNzAyMDg5NjAwLCJpYXQiOjE2NzA1NTM2MDAsInVzZXJJZCI6MTYwMTA0MzkzMDI4NzQxMTIwMn0.fZVc267JNsgy5tB_Wn89l2Zgd3ZgXJfaMg_T9lc3j-o"}
Body:{"networkCode": "BTC", "type": "transfer", "body": {"from": "tb1qxrunvz3ywjtpzaasfgjjek96a33sxks740v58x7lzke0kc9urvgs0cczgd", "to": "tb1qagkvxdz2zq76atvr0rzh8n9lewjmlm25umq0xq", "symbol": "BTC", "amount": "0.000008"}, "transactionParams": {"memo": "l2SyoIm7qb"}}


[32mINFO    [0m Common.Http:Http.py:268 2022-12-14 14:25:32.44080 | 
<-----Instructions Response----->
{"_embedded":{"transactions":[{"balanceChanges":[],"blockHash":"","blockHeight":"0","blockTime":"1970-01-01T00:00:00.000Z","createdTime":"2022-12-14T06:25:34.000Z","description":"","estimatedFee":"226","fee":"-1","hash":"","id":"1602912659933679618","networkCode":"BTC","requiredSignings":[{"hash":"ab5234ab683947dfe260512869cfe8d90ede326b6635e80c52e887793c63e038","publicKeys":["02e8852463021b47fe5214c599e87e431f2eb1219044946bbff397afd0518b85a6"],"threshold":1}],"serialized":"0100000001c4f8d69cc7bf23d74b39878869b26d7b2f2953fcefa2e9ed3d6d9cd3f46c92160300000000ffffffff022003000000000000160014ea2cc3344a103daead8378c573ccbfcba5bfed54d87901000000000022002030f9360a2474961177b04a252cd8baec63035a1eabd9439bdf15b2fb60bc1b1100000000","status":0,"statusDesc":"BUILDING","updatedTime":"2022-12-14T06:25:34.000Z"}]},"body":{"symbol":"BTC","amount":"0.000008","from":"tb1qxrunvz3ywjtpzaasfgjjek96a33sxks740v58x7lzke0kc9urvgs0cczgd","to":"tb1qagkvxdz2zq76atvr0rzh8n9lewjmlm25umq0xq"},"createdTime":"2022-12-14T06:25:33.000Z","id":"1602912660231544834","networkCode":"BTC","status":-2,"transactionParams":{"memo":"l2SyoIm7qb"},"type":"TRANSFER","updatedTime":"2022-12-14T06:25:33.000Z"}


[32mINFO    [0m Common.Http:Http.py:344 2022-12-14 14:25:32.44080 | 
<-----Sign----->
Url:http://54.251.78.181:8888/escrow/api/transactions/signatures
Headers:{"Content-Type": "application/json", "Authorization": "eyJ0eXAiOiJKV1QiLCJhbGciOiJIUzI1NiJ9.eyJhdWQiOiIxNjAxMDQzOTMwMjg3NDExMjAyIiwiZXhwIjoxNzAyMDg5NjAwLCJpYXQiOjE2NzA1NTM2MDAsInVzZXJJZCI6MTYwMTA0MzkzMDI4NzQxMTIwMn0.fZVc267JNsgy5tB_Wn89l2Zgd3ZgXJfaMg_T9lc3j-o"}
Body:{"id": "1602912659933679618", "signatures": [{"hash": "ab5234ab683947dfe260512869cfe8d90ede326b6635e80c52e887793c63e038", "publicKey": "02e8852463021b47fe5214c599e87e431f2eb1219044946bbff397afd0518b85a6", "signature": "5bb46e429a615359052940cb65a66efc8dc85dec66c580d6190589a8eb17a8a068b8ab9e9f11d4b73a361cb839b4d87768a0c4a3abc7e8b112c9b16580e2263901"}]}


[32mINFO    [0m Common.Http:Http.py:348 2022-12-14 14:25:32.44080 | 
<-----Sign Response----->
{"balanceChanges":[],"blockHash":"","blockHeight":"0","blockTime":"1970-01-01T00:00:00.000Z","createdTime":"2022-12-14T06:25:34.000Z","description":"","estimatedFee":"226","fee":"-1","hash":"ce3a7b8da3d8d8c94847a52e00e04eaef2c73879dd828cdca006375f4f189785","id":"1602912659933679618","networkCode":"BTC","serialized":"01000000000101c4f8d69cc7bf23d74b39878869b26d7b2f2953fcefa2e9ed3d6d9cd3f46c92160300000000ffffffff022003000000000000160014ea2cc3344a103daead8378c573ccbfcba5bfed54d87901000000000022002030f9360a2474961177b04a252cd8baec63035a1eabd9439bdf15b2fb60bc1b11040047304402202ef3ea7d7d96b62e19fa8d1d66cf7fca90c9c0b5182ef58470be2e0dbfeadb800220012bb1290f2b808529fca5b088c9ed2500f28943c4958ffa513fac8d04cca3a80147304402205bb46e429a615359052940cb65a66efc8dc85dec66c580d6190589a8eb17a8a0022068b8ab9e9f11d4b73a361cb839b4d87768a0c4a3abc7e8b112c9b16580e226390147522102d904da9e163db9784ef50b4fd64e709ff5f4f438c80f5265e2925aac6d99dcd72102e8852463021b47fe5214c599e87e431f2eb1219044946bbff397afd0518b85a652ae00000000","status":2,"statusDesc":"SIGNED","updatedTime":"2022-12-14T06:25:36.241Z"}


[32mINFO    [0m Common.Http:Http.py:364 2022-12-14 14:25:32.44080 | 
<-----Send----->
Url:http://54.251.78.181:8888/escrow/api//transactions/send/1602912659933679618
Headers:{"Content-Type": "application/json", "Authorization": "eyJ0eXAiOiJKV1QiLCJhbGciOiJIUzI1NiJ9.eyJhdWQiOiIxNjAxMDQzOTMwMjg3NDExMjAyIiwiZXhwIjoxNzAyMDg5NjAwLCJpYXQiOjE2NzA1NTM2MDAsInVzZXJJZCI6MTYwMTA0MzkzMDI4NzQxMTIwMn0.fZVc267JNsgy5tB_Wn89l2Zgd3ZgXJfaMg_T9lc3j-o"}


[32mINFO    [0m Common.Http:Http.py:368 2022-12-14 14:25:32.44080 | 
<-----Send Response----->
{"balanceChanges":[],"blockHash":"","blockHeight":"0","blockTime":"2022-12-14T06:25:36.778Z","createdTime":"2022-12-14T06:25:34.000Z","description":"","estimatedFee":"226","fee":"-1","hash":"ce3a7b8da3d8d8c94847a52e00e04eaef2c73879dd828cdca006375f4f189785","id":"1602912659933679618","networkCode":"BTC","serialized":"01000000000101c4f8d69cc7bf23d74b39878869b26d7b2f2953fcefa2e9ed3d6d9cd3f46c92160300000000ffffffff022003000000000000160014ea2cc3344a103daead8378c573ccbfcba5bfed54d87901000000000022002030f9360a2474961177b04a252cd8baec63035a1eabd9439bdf15b2fb60bc1b11040047304402202ef3ea7d7d96b62e19fa8d1d66cf7fca90c9c0b5182ef58470be2e0dbfeadb800220012bb1290f2b808529fca5b088c9ed2500f28943c4958ffa513fac8d04cca3a80147304402205bb46e429a615359052940cb65a66efc8dc85dec66c580d6190589a8eb17a8a0022068b8ab9e9f11d4b73a361cb839b4d87768a0c4a3abc7e8b112c9b16580e226390147522102d904da9e163db9784ef50b4fd64e709ff5f4f438c80f5265e2925aac6d99dcd72102e8852463021b47fe5214c599e87e431f2eb1219044946bbff397afd0518b85a652ae00000000","status":3,"statusDesc":"PENDING","updatedTime":"2022-12-14T06:25:36.778Z"}