[32mINFO    [0m Common.Httpcore:Httpcore.py:224 2022-12-06 14:35:13.149626 | 
<-----Query UTXO----->
Url:https://api.bitcore.io/api/BTC/testnet/address/tb1q4t8jtp4fwjg4spfjh7ux5ckhrallj652kwrj48gcvd0rt5g9ea3q4vlm33?unspent=true

Headers:{"Content-Type": "application/json"}


[32mINFO    [0m Common.Httpcore:Httpcore.py:227 2022-12-06 14:35:13.149626 | 
<-----Query UTXO Response----->
[
{"_id":"6385d239d3bfc9e8e120b72a","chain":"BTC","network":"testnet","coinbase":false,"mintIndex":0,"spentTxid":"","mintTxid":"96f20d3215de90d2a4722c39fe7eb9599958fc0b19839ee33254f9e779beb0de","mintHeight":2408949,"spentHeight":-2,"address":"tb1q4t8jtp4fwjg4spfjh7ux5ckhrallj652kwrj48gcvd0rt5g9ea3q4vlm33","script":"0020aacf2586a97491580532bfb86a62d71f7ff96a8ab3872a9d18635e35d105cf62","value":100000,"confirmations":-1}
]
[32mINFO    [0m Common.Httpcore:Httpcore.py:132 2022-12-06 14:35:13.149626 | 
<-----Core Build------>
Url:http://54.251.78.181:8888/core/api/transactions

Headers:{"Content-Type": "application/json", "Authorization": "eyJib2R5IjoiV2ViMyBUb2tlbiBWZXJzaW9uOiAyXG5Ob25jZTogMTU4NTEwMjc5MTQ2NjQ4NzgxMFxuSXNzdWVkIEF0OiBXZWQsIDI2IE9jdCAyMDIyIDAyOjU1OjI5IEdNVFxuRXhwaXJhdGlvbiBUaW1lOiBTYXQsIDIzIE9jdCAyMDMyIDAyOjU1OjI5IEdNVCIsInNpZ25hdHVyZSI6IjB4OTE1NWMyOGM3NjVjZjk1YTBjNjdiZGNhYzExNzIwYTRkNDQ4NDc4YmU5ZDZhNjE3ZWQzNDUzZDU3MDgzZjNjZTA2N2Q5OGUwMGI0YTVhMmJmOTlkY2I5Y2VmNzg5Yjc4OWViNzI5OTk4YzgxYWQzOWFhMTUzZTcxM2Q4M2FhYWUxYiJ9"}

body:{"networkCode": "BTC", "payload": {"changer": "tb1q4t8jtp4fwjg4spfjh7ux5ckhrallj652kwrj48gcvd0rt5g9ea3q4vlm33", "recipients": [{"address": "tb1q0558s53xchyghw34tqm4x8t2n8swf666nvhffq", "value": "100"}], "utxos": [{"amount": 100000, "witnessScript": "522102e8852463021b47fe5214c599e87e431f2eb1219044946bbff397afd0518b85a6210231e263a7e95bf5107b88b85b49918841b937305cce5dae7dd7ba9b86fc460f7052ae", "signers": ["02e8852463021b47fe5214c599e87e431f2eb1219044946bbff397afd0518b85a6", "0231e263a7e95bf5107b88b85b49918841b937305cce5dae7dd7ba9b86fc460f70"], "txid": "96f20d3215de90d2a4722c39fe7eb9599958fc0b19839ee33254f9e779beb0de", "vout": 0}]}, "type": "TRANSACTION"}


[32mINFO    [0m Common.Httpcore:Httpcore.py:135 2022-12-06 14:35:13.149626 | 
<-----Core Build Response---->
{"balanceChanges":[],"blockTime":"1970-01-01T00:00:00.000Z","createdTime":"2022-12-06T06:35:18.710Z","description":"Custom Excution","estimatedFee":"226","hash":"","id":"1600016010517405698","networkCode":"BTC","requiredSignings":[{"hash":"baf3b1b5a35dfce21aaaeee625f1faa3228392103be16d2afe52db91d13cd8cf","publicKeys":["02e8852463021b47fe5214c599e87e431f2eb1219044946bbff397afd0518b85a6","0231e263a7e95bf5107b88b85b49918841b937305cce5dae7dd7ba9b86fc460f70"],"threshold":2}],"serialized":"0100000001deb0be79e7f95432e39e83190bfc589959b97efe392c72a4d290de15320df2960000000000ffffffff0264000000000000001600147d28785226c5c88bba355837531d6a99e0e4eb5a5a85010000000000220020aacf2586a97491580532bfb86a62d71f7ff96a8ab3872a9d18635e35d105cf6200000000","status":0,"statusDesc":"BUILDING","updatedTime":"2022-12-06T06:35:18.710Z"}
[32mINFO    [0m Common.Httpcore:Httpcore.py:155 2022-12-06 14:35:13.149626 | 
<-----Core Sign------>
Url:http://54.251.78.181:8888/core/api/transactions/signatures

Headers:{"Content-Type": "application/json", "Authorization": "eyJib2R5IjoiV2ViMyBUb2tlbiBWZXJzaW9uOiAyXG5Ob25jZTogMTU4NTEwMjc5MTQ2NjQ4NzgxMFxuSXNzdWVkIEF0OiBXZWQsIDI2IE9jdCAyMDIyIDAyOjU1OjI5IEdNVFxuRXhwaXJhdGlvbiBUaW1lOiBTYXQsIDIzIE9jdCAyMDMyIDAyOjU1OjI5IEdNVCIsInNpZ25hdHVyZSI6IjB4OTE1NWMyOGM3NjVjZjk1YTBjNjdiZGNhYzExNzIwYTRkNDQ4NDc4YmU5ZDZhNjE3ZWQzNDUzZDU3MDgzZjNjZTA2N2Q5OGUwMGI0YTVhMmJmOTlkY2I5Y2VmNzg5Yjc4OWViNzI5OTk4YzgxYWQzOWFhMTUzZTcxM2Q4M2FhYWUxYiJ9"}

body:{"id": "1600016010517405698", "signatures": [{"hash": "baf3b1b5a35dfce21aaaeee625f1faa3228392103be16d2afe52db91d13cd8cf", "publicKey": "02e8852463021b47fe5214c599e87e431f2eb1219044946bbff397afd0518b85a6", "signature": "5369584c1580725388817bc5f816ddc58d4d29f8291ddfcb7d9bc4945edeabb736f89f219c7a79381cb3be6dfcbc9b68613533eedcf8e5d9b7860c2f81b78b4a00"}, {"hash": "baf3b1b5a35dfce21aaaeee625f1faa3228392103be16d2afe52db91d13cd8cf", "publicKey": "0231e263a7e95bf5107b88b85b49918841b937305cce5dae7dd7ba9b86fc460f70", "signature": "d615ffee9bbf8818e43a95e6c2ce8a5440658239cbfd11f8f9eb91423858f7a87ac68848b75f300fdbd56c5c05e8a6efc6328ea2ac278f53fd4e4a485a0cce5801"}]}


[32mINFO    [0m Common.Httpcore:Httpcore.py:158 2022-12-06 14:35:13.149626 | 
<-----Core Sign Response---->
{"balanceChanges":[],"blockHash":"","blockHeight":"0","blockTime":"1970-01-01T00:00:00.000Z","createdTime":"2022-12-06T06:35:19.000Z","description":"Custom Excution","estimatedFee":"226","fee":"-1","hash":"be143ee516b4845782e90c6663bc81163cdf22f57c7b070b9be8c07c726c1ccf","id":"1600016010517405698","networkCode":"BTC","serialized":"01000000000101deb0be79e7f95432e39e83190bfc589959b97efe392c72a4d290de15320df2960000000000ffffffff0264000000000000001600147d28785226c5c88bba355837531d6a99e0e4eb5a5a85010000000000220020aacf2586a97491580532bfb86a62d71f7ff96a8ab3872a9d18635e35d105cf62040047304402205369584c1580725388817bc5f816ddc58d4d29f8291ddfcb7d9bc4945edeabb7022036f89f219c7a79381cb3be6dfcbc9b68613533eedcf8e5d9b7860c2f81b78b4a01483045022100d615ffee9bbf8818e43a95e6c2ce8a5440658239cbfd11f8f9eb91423858f7a802207ac68848b75f300fdbd56c5c05e8a6efc6328ea2ac278f53fd4e4a485a0cce580147522102e8852463021b47fe5214c599e87e431f2eb1219044946bbff397afd0518b85a6210231e263a7e95bf5107b88b85b49918841b937305cce5dae7dd7ba9b86fc460f7052ae00000000","status":2,"statusDesc":"SIGNED","updatedTime":"2022-12-06T06:35:19.336Z"}
[32mINFO    [0m Common.Httpcore:Httpcore.py:174 2022-12-06 14:35:13.149626 | 
<-----Core Send------>
Url:http://54.251.78.181:8888/core/api/transactions/send/1600016010517405698

Headers:{"Content-Type": "application/json", "Authorization": "eyJib2R5IjoiV2ViMyBUb2tlbiBWZXJzaW9uOiAyXG5Ob25jZTogMTU4NTEwMjc5MTQ2NjQ4NzgxMFxuSXNzdWVkIEF0OiBXZWQsIDI2IE9jdCAyMDIyIDAyOjU1OjI5IEdNVFxuRXhwaXJhdGlvbiBUaW1lOiBTYXQsIDIzIE9jdCAyMDMyIDAyOjU1OjI5IEdNVCIsInNpZ25hdHVyZSI6IjB4OTE1NWMyOGM3NjVjZjk1YTBjNjdiZGNhYzExNzIwYTRkNDQ4NDc4YmU5ZDZhNjE3ZWQzNDUzZDU3MDgzZjNjZTA2N2Q5OGUwMGI0YTVhMmJmOTlkY2I5Y2VmNzg5Yjc4OWViNzI5OTk4YzgxYWQzOWFhMTUzZTcxM2Q4M2FhYWUxYiJ9"}


[31m[1mERROR   [0m Common.Httpcore:Httpcore.py:180 2022-12-06 14:35:13.149626 | 
<-----Core Send Response Error----->{"code":2400000,"message":"INTERNAL: 500 - {\"result\":null,\"error\":{\"code\":-26,\"message\":\"non-mandatory-script-verify-flag \u0028Witness program hash mismatch\u0029\"},\"id\":1670308519584}"}