[32mINFO    [0m Common.Http:Http.py:265 2022-12-12 18:17:30.420527 | 
<-----Instructions----->
Url:http://54.251.78.181:8888/escrow/api//instructions
Headers:{"Content-Type": "application/json", "Authorization": "eyJ0eXAiOiJKV1QiLCJhbGciOiJIUzI1NiJ9.eyJhdWQiOiIxNjAxMDQzOTMwMjg3NDExMjAyIiwiZXhwIjoxNzAyMDg5NjAwLCJpYXQiOjE2NzA1NTM2MDAsInVzZXJJZCI6MTYwMTA0MzkzMDI4NzQxMTIwMn0.fZVc267JNsgy5tB_Wn89l2Zgd3ZgXJfaMg_T9lc3j-o"}
Body:{"networkCode": "BTC", "type": "transfer", "body": {"from": "tb1qxrunvz3ywjtpzaasfgjjek96a33sxks740v58x7lzke0kc9urvgs0cczgd", "to": "tb1qagkvxdz2zq76atvr0rzh8n9lewjmlm25umq0xq", "symbol": "BTC", "amount": "0.000008"}, "transactionParams": {"memo": "nYCL9pDPfl"}}


[32mINFO    [0m Common.Http:Http.py:268 2022-12-12 18:17:30.420527 | 
<-----Instructions Response----->
{"_embedded":{"transactions":[{"balanceChanges":[],"blockHash":"","blockHeight":"0","blockTime":"1970-01-01T00:00:00.000Z","createdTime":"2022-12-12T10:17:33.000Z","description":"","estimatedFee":"226","fee":"-1","hash":"","id":"1602246264526979074","networkCode":"BTC","requiredSignings":[{"hash":"8faa010efeb461218b18e64231a9590b01c752099ba60f89f3c6127771ec9229","publicKeys":["02e8852463021b47fe5214c599e87e431f2eb1219044946bbff397afd0518b85a6"],"threshold":1}],"serialized":"01000000018eff9008b8d7672154cd3c053758410051b8243b9f8a3fb656f5ed195c18bbdf0000000000ffffffff022003000000000000160014ea2cc3344a103daead8378c573ccbfcba5bfed549e8201000000000022002030f9360a2474961177b04a252cd8baec63035a1eabd9439bdf15b2fb60bc1b1100000000","status":0,"statusDesc":"BUILDING","updatedTime":"2022-12-12T10:17:33.000Z"}]},"body":{"symbol":"BTC","amount":"0.000008","from":"tb1qxrunvz3ywjtpzaasfgjjek96a33sxks740v58x7lzke0kc9urvgs0cczgd","to":"tb1qagkvxdz2zq76atvr0rzh8n9lewjmlm25umq0xq"},"createdTime":"2022-12-12T10:17:32.000Z","id":"1602246265361612801","networkCode":"BTC","status":-2,"transactionParams":{"memo":"nYCL9pDPfl"},"type":"TRANSFER","updatedTime":"2022-12-12T10:17:32.000Z"}


[32mINFO    [0m Common.Http:Http.py:286 2022-12-12 18:17:30.420527 | 
<-----Sign----->
Url:http://54.251.78.181:8888/escrow/api/transactions/signatures
Headers:{"Content-Type": "application/json", "Authorization": "eyJ0eXAiOiJKV1QiLCJhbGciOiJIUzI1NiJ9.eyJhdWQiOiIxNjAxMDQzOTMwMjg3NDExMjAyIiwiZXhwIjoxNzAyMDg5NjAwLCJpYXQiOjE2NzA1NTM2MDAsInVzZXJJZCI6MTYwMTA0MzkzMDI4NzQxMTIwMn0.fZVc267JNsgy5tB_Wn89l2Zgd3ZgXJfaMg_T9lc3j-o"}
Body:{"id": "1602246264526979074", "signatures": [{"hash": "8faa010efeb461218b18e64231a9590b01c752099ba60f89f3c6127771ec9229", "publicKey": "02e8852463021b47fe5214c599e87e431f2eb1219044946bbff397afd0518b85a6", "signature": "848520f58c269f68c328a0cdd9830b92207b4c66e31ebadfb48e8eafd481e7a14cf3439296174cfccfb210a4cbe238ec4494817d18b3780ea578a49430274c3401"}]}


[32mINFO    [0m Common.Http:Http.py:290 2022-12-12 18:17:30.420527 | 
<-----Sign Response----->
{"balanceChanges":[],"blockHash":"","blockHeight":"0","blockTime":"1970-01-01T00:00:00.000Z","createdTime":"2022-12-12T10:17:33.000Z","description":"","estimatedFee":"226","fee":"-1","hash":"8f1424cae0410ea94f6e9f40a6ca928df945826aeaa41e1e51bf3e65661cb941","id":"1602246264526979074","networkCode":"BTC","serialized":"010000000001018eff9008b8d7672154cd3c053758410051b8243b9f8a3fb656f5ed195c18bbdf0000000000ffffffff022003000000000000160014ea2cc3344a103daead8378c573ccbfcba5bfed549e8201000000000022002030f9360a2474961177b04a252cd8baec63035a1eabd9439bdf15b2fb60bc1b11040048304502210087f3df8bdae99c8f6b3017a83653b4b91924e24ce1e88153efc1fca9fae84fd8022044ea19a3743bc28fc47c5d44f661bdc48cd445e1ad49b5ac79eb317f7b1bb58d01483045022100848520f58c269f68c328a0cdd9830b92207b4c66e31ebadfb48e8eafd481e7a102204cf3439296174cfccfb210a4cbe238ec4494817d18b3780ea578a49430274c340147522102d904da9e163db9784ef50b4fd64e709ff5f4f438c80f5265e2925aac6d99dcd72102e8852463021b47fe5214c599e87e431f2eb1219044946bbff397afd0518b85a652ae00000000","status":2,"statusDesc":"SIGNED","updatedTime":"2022-12-12T10:17:35.409Z"}


[32mINFO    [0m Common.Http:Http.py:306 2022-12-12 18:17:30.420527 | 
<-----Send----->
Url:http://54.251.78.181:8888/escrow/api//transactions/send/1602246264526979074
Headers:{"Content-Type": "application/json", "Authorization": "eyJ0eXAiOiJKV1QiLCJhbGciOiJIUzI1NiJ9.eyJhdWQiOiIxNjAxMDQzOTMwMjg3NDExMjAyIiwiZXhwIjoxNzAyMDg5NjAwLCJpYXQiOjE2NzA1NTM2MDAsInVzZXJJZCI6MTYwMTA0MzkzMDI4NzQxMTIwMn0.fZVc267JNsgy5tB_Wn89l2Zgd3ZgXJfaMg_T9lc3j-o"}


[32mINFO    [0m Common.Http:Http.py:310 2022-12-12 18:17:30.420527 | 
<-----Send Response----->
{"balanceChanges":[],"blockHash":"","blockHeight":"0","blockTime":"2022-12-12T10:17:35.770Z","createdTime":"2022-12-12T10:17:33.000Z","description":"","estimatedFee":"226","fee":"-1","hash":"8f1424cae0410ea94f6e9f40a6ca928df945826aeaa41e1e51bf3e65661cb941","id":"1602246264526979074","networkCode":"BTC","serialized":"010000000001018eff9008b8d7672154cd3c053758410051b8243b9f8a3fb656f5ed195c18bbdf0000000000ffffffff022003000000000000160014ea2cc3344a103daead8378c573ccbfcba5bfed549e8201000000000022002030f9360a2474961177b04a252cd8baec63035a1eabd9439bdf15b2fb60bc1b11040048304502210087f3df8bdae99c8f6b3017a83653b4b91924e24ce1e88153efc1fca9fae84fd8022044ea19a3743bc28fc47c5d44f661bdc48cd445e1ad49b5ac79eb317f7b1bb58d01483045022100848520f58c269f68c328a0cdd9830b92207b4c66e31ebadfb48e8eafd481e7a102204cf3439296174cfccfb210a4cbe238ec4494817d18b3780ea578a49430274c340147522102d904da9e163db9784ef50b4fd64e709ff5f4f438c80f5265e2925aac6d99dcd72102e8852463021b47fe5214c599e87e431f2eb1219044946bbff397afd0518b85a652ae00000000","status":3,"statusDesc":"PENDING","updatedTime":"2022-12-12T10:17:35.770Z"}