[32mINFO    [0m Common.Http:Http.py:439 2023-02-08 14:19:31.547466 | 
<-----Query Holders----->
Url:https://api.dhandho.xyz/vault/proxy/assets/holders/?networkCode=GOERLI&address=0xcc7a54ec1d39d1cf7b35f2b3b92031ad5fc7b6ca&symbol=GoerliETH
Headers:{"Content-Type": "application/json", "Authorization": "eyJ0eXAiOiJKV1QiLCJhbGciOiJIUzI1NiJ9.eyJhdWQiOiIxNjAxMDQzOTMwMjg3NDExMjAyIiwiZXhwIjoxNzAyMDg5NjAwLCJpYXQiOjE2NzA1NTM2MDAsInVzZXJJZCI6MTYwMTA0MzkzMDI4NzQxMTIwMn0.fZVc267JNsgy5tB_Wn89l2Zgd3ZgXJfaMg_T9lc3j-o"}


[32mINFO    [0m Common.Http:Http.py:442 2023-02-08 14:19:31.547466 | 
<-----Query Holders Response----->
{"current":1,"list":[{"address":"0xcc7a54ec1d39d1cf7b35f2b3b92031ad5fc7b6ca","createdTime":"2022-12-12T07:06:33.000Z","id":"1602198201359880194","networkCode":"GOERLI","quantity":"0.001135389617869351","symbol":"GoerliETH","updatedTime":"2023-02-08T06:01:56.000Z"}],"size":10,"total":1}


[32mINFO    [0m Common.Http:Http.py:278 2023-02-08 14:19:31.547466 | 
<-----Instructions----->
Url:https://api.dhandho.xyz/vault/instructions
Headers:{"Content-Type": "application/json", "Authorization": "eyJ0eXAiOiJKV1QiLCJhbGciOiJIUzI1NiJ9.eyJhdWQiOiIxNjAxMDQzOTMwMjg3NDExMjAyIiwiZXhwIjoxNzAyMDg5NjAwLCJpYXQiOjE2NzA1NTM2MDAsInVzZXJJZCI6MTYwMTA0MzkzMDI4NzQxMTIwMn0.fZVc267JNsgy5tB_Wn89l2Zgd3ZgXJfaMg_T9lc3j-o"}
Body:{"networkCode": "GOERLI", "type": "transfer", "body": {"from": "0xcc7a54ec1d39d1cf7b35f2b3b92031ad5fc7b6ca", "to": "0xbdb3bd7b3f3daeadc58d00ef5f15ed9a476b8fe3", "symbol": "GoerliETH", "amount": "0.000000000000000001"}, "transactionParams": {"memo": "8u1FaD5qRS"}}


[32mINFO    [0m Common.Http:Http.py:281 2023-02-08 14:19:31.547466 | 
<-----Instructions Response----->
{"_embedded":{"transactions":[{"balanceChanges":[],"blockHash":"","blockHeight":"-1","blockTime":"1970-01-01T00:00:00.000Z","createdTime":"2023-02-08T06:19:35.000Z","description":"Send 0.000000000000000001 ETH","estimatedFee":"373863000","fee":"-1","hash":"0xead27ede76ebb99c71ea33c8495b2ca6b8eeacd1a0398a5eaa1c908ce38e340e","id":"1623204871251771394","networkCode":"GOERLI","serialized":"02f866053e8244ad82458b82520894bdb3bd7b3f3daeadc58d00ef5f15ed9a476b8fe30180c001a0625267fb43bbc1668c4685809698e0ba8e8667b56e0a6cb28769d8b945f5872da00b80b507c724ecd8b74a1b047ba11258c00b1f881cc1dc393bc40dd9742f6d2c","status":2,"statusDesc":"SIGNED","updatedTime":"2023-02-08T06:19:38.000Z"}]},"body":{"symbol":"GoerliETH","amount":"0.000000000000000001","from":"0xcc7a54ec1d39d1cf7b35f2b3b92031ad5fc7b6ca","to":"0xbdb3bd7b3f3daeadc58d00ef5f15ed9a476b8fe3"},"createdTime":"2023-02-08T06:19:35.000Z","id":"1623204878222729217","networkCode":"GOERLI","status":-2,"transactionParams":{"memo":"8u1FaD5qRS"},"type":"TRANSFER","updatedTime":"2023-02-08T06:19:35.000Z"}


[32mINFO    [0m Common.Http:Http.py:318 2023-02-08 14:19:31.547466 | 
<-----Rebuild----->
Url:https://api.dhandho.xyz/vault/transactions/params
Headers:{"Content-Type": "application/json", "Authorization": "eyJ0eXAiOiJKV1QiLCJhbGciOiJIUzI1NiJ9.eyJhdWQiOiIxNjAxMDQzOTMwMjg3NDExMjAyIiwiZXhwIjoxNzAyMDg5NjAwLCJpYXQiOjE2NzA1NTM2MDAsInVzZXJJZCI6MTYwMTA0MzkzMDI4NzQxMTIwMn0.fZVc267JNsgy5tB_Wn89l2Zgd3ZgXJfaMg_T9lc3j-o"}
Body:{"id": "1623204871251771394", "params": {"maxFeePerGas": "0x4285e6049c", "maxPriorityFeePerGas": "0x19fc4dd9cd0c"}}


[32mINFO    [0m Common.Http:Http.py:324 2023-02-08 14:19:31.547466 | 
<-----Rebuild Response Error----->
400
{"code":2400000,"message":"INTERNAL: maxFeePerGas cannot be less than maxPriorityFeePerGas \u0028The total must be the larger of the two\u0029 \u0028tx type=2 hash=not available \u0028unsigned\u0029 nonce=62 value=1 signed=false hf=london maxFeePerGas=285714285724 maxPriorityFeePerGas=28571428572428\u0029"}