[32mINFO    [0m Common.Http:Http.py:93 2022-12-13 15:30:39.904000 | 
<-----Query Accounts----->
Url:http://54.251.78.181:8888/escrow/api//accounts?networkCode=&address=tb1q7ymdm79ryug7vttw4jrf87pdcmn67n3p9rgc5x&type=
Headers:{"Content-Type": "application/json", "Authorization": "eyJ0eXAiOiJKV1QiLCJhbGciOiJIUzI1NiJ9.eyJhdWQiOiIxNjAxMDQzOTMwMjg3NDExMjAyIiwiZXhwIjoxNzAyMDg5NjAwLCJpYXQiOjE2NzA1NTM2MDAsInVzZXJJZCI6MTYwMTA0MzkzMDI4NzQxMTIwMn0.fZVc267JNsgy5tB_Wn89l2Zgd3ZgXJfaMg_T9lc3j-o"}


[32mINFO    [0m Common.Http:Http.py:96 2022-12-13 15:30:39.904000 | 
<-----Query Accounts Response----->
{"current":1,"list":[{"address":"tb1q7ymdm79ryug7vttw4jrf87pdcmn67n3p9rgc5x","createdTime":"2022-12-12T07:16:00.000Z","finalized":true,"id":"1602200578745896961","name":"custodial","networkCode":"BTC","publicKeys":[{"source":"custodial","type":"secp256k1","value":"03fc4bdc2e6a1337c9e0dfbb888b4e7178cd1746ee789477a42695d971afd8d679"}],"status":"enable","threshold":1,"type":"custodial","updatedTime":"2022-12-12T07:21:58.000Z"}],"size":10,"total":1}


[32mINFO    [0m Common.Httpcore:Httpcore.py:305 2022-12-13 15:30:39.904000 | 
<-----Query UTXO----->
Url:https://api.bitcore.io/api/BTC/testnet/address/tb1q7ymdm79ryug7vttw4jrf87pdcmn67n3p9rgc5x?unspent=true

Headers:{"Content-Type": "application/json"}


[32mINFO    [0m Common.Httpcore:Httpcore.py:308 2022-12-13 15:30:39.904000 | 
<-----Query UTXO Response----->
[
{"_id":"6396fc1ad3bfc9e8e1fb7dc6","chain":"BTC","network":"testnet","coinbase":false,"mintIndex":1,"spentTxid":"","mintTxid":"dfbb185c19edf556b63f8a9f3b24b85100415837053ccd542167d7b80890ff8e","mintHeight":2410923,"spentHeight":-2,"address":"tb1q7ymdm79ryug7vttw4jrf87pdcmn67n3p9rgc5x","script":"0014f136ddf8a32711e62d6eac8693f82dc6e7af4e21","value":1549574,"confirmations":-1}
]
[32mINFO    [0m Common.Http:Http.py:283 2022-12-13 15:30:39.904000 | 
<-----Transactions----->
Url:http://54.251.78.181:8888/escrow/api//transactions
Headers:{"Content-Type": "application/json", "Authorization": "eyJ0eXAiOiJKV1QiLCJhbGciOiJIUzI1NiJ9.eyJhdWQiOiIxNjAxMDQzOTMwMjg3NDExMjAyIiwiZXhwIjoxNzAyMDg5NjAwLCJpYXQiOjE2NzA1NTM2MDAsInVzZXJJZCI6MTYwMTA0MzkzMDI4NzQxMTIwMn0.fZVc267JNsgy5tB_Wn89l2Zgd3ZgXJfaMg_T9lc3j-o"}
Body:{"networkCode": "BTC", "payload": {"changer": "tb1q7ymdm79ryug7vttw4jrf87pdcmn67n3p9rgc5x", "recipients": [{"address": "tb1qhcuul2fcyv5rvr5mc5cy5saz0q5p3kx0gsy3c0", "value": "100"}], "utxos": [{"amount": 1549574, "scriptPubKey": "0014f136ddf8a32711e62d6eac8693f82dc6e7af4e21", "signers": ["03fc4bdc2e6a1337c9e0dfbb888b4e7178cd1746ee789477a42695d971afd8d679"], "txid": "dfbb185c19edf556b63f8a9f3b24b85100415837053ccd542167d7b80890ff8e", "vout": 1}]}, "type": "TRANSACTION"}


[32mINFO    [0m Common.Http:Http.py:286 2022-12-13 15:30:39.904000 | 
<-----Transactions Response----->
{"balanceChanges":[],"blockHash":"","blockHeight":"0","blockTime":"1970-01-01T00:00:00.000Z","createdTime":"2022-12-13T07:30:43.000Z","description":"","estimatedFee":"187","fee":"-1","hash":"dd1c4cc7b4999fe875acf55acd973253d3f35bdf864c2cd9e5621ba4c24c5982","id":"1602566667837358081","networkCode":"BTC","serialized":"010000000001018eff9008b8d7672154cd3c053758410051b8243b9f8a3fb656f5ed195c18bbdf0100000000ffffffff026400000000000000160014be39cfa9382328360e9bc5304a43a2782818d8cfe7a3170000000000160014f136ddf8a32711e62d6eac8693f82dc6e7af4e210248304502210084096ccee1dfe157c68ab79d88ea4b1ada858785456fda39b28462095bd4a17702200c4b7ed3b11e809c05e65a3a6318a8b2bd303de48f01f13425c665ac3193e0f8012103fc4bdc2e6a1337c9e0dfbb888b4e7178cd1746ee789477a42695d971afd8d67900000000","status":2,"statusDesc":"SIGNED","updatedTime":"2022-12-13T07:30:45.306Z"}


[32mINFO    [0m Common.Http:Http.py:364 2022-12-13 15:30:39.904000 | 
<-----Send----->
Url:http://54.251.78.181:8888/escrow/api//transactions/send/1602566667837358081
Headers:{"Content-Type": "application/json", "Authorization": "eyJ0eXAiOiJKV1QiLCJhbGciOiJIUzI1NiJ9.eyJhdWQiOiIxNjAxMDQzOTMwMjg3NDExMjAyIiwiZXhwIjoxNzAyMDg5NjAwLCJpYXQiOjE2NzA1NTM2MDAsInVzZXJJZCI6MTYwMTA0MzkzMDI4NzQxMTIwMn0.fZVc267JNsgy5tB_Wn89l2Zgd3ZgXJfaMg_T9lc3j-o"}


[32mINFO    [0m Common.Http:Http.py:368 2022-12-13 15:30:39.904000 | 
<-----Send Response----->
{"balanceChanges":[],"blockHash":"","blockHeight":"0","blockTime":"2022-12-13T07:30:45.739Z","createdTime":"2022-12-13T07:30:43.000Z","description":"","estimatedFee":"187","fee":"-1","hash":"dd1c4cc7b4999fe875acf55acd973253d3f35bdf864c2cd9e5621ba4c24c5982","id":"1602566667837358081","networkCode":"BTC","serialized":"010000000001018eff9008b8d7672154cd3c053758410051b8243b9f8a3fb656f5ed195c18bbdf0100000000ffffffff026400000000000000160014be39cfa9382328360e9bc5304a43a2782818d8cfe7a3170000000000160014f136ddf8a32711e62d6eac8693f82dc6e7af4e210248304502210084096ccee1dfe157c68ab79d88ea4b1ada858785456fda39b28462095bd4a17702200c4b7ed3b11e809c05e65a3a6318a8b2bd303de48f01f13425c665ac3193e0f8012103fc4bdc2e6a1337c9e0dfbb888b4e7178cd1746ee789477a42695d971afd8d67900000000","status":3,"statusDesc":"PENDING","updatedTime":"2022-12-13T07:30:45.739Z"}