[32mINFO    [0m Common.Http:Http.py:265 2022-12-29 18:59:58.460201 | 
<-----Instructions----->
Url:https://api.dhandho.xyz/vault/instructions
Headers:{"Content-Type": "application/json", "Authorization": "eyJ0eXAiOiJKV1QiLCJhbGciOiJIUzI1NiJ9.eyJhdWQiOiIxNjAxMDQzOTMwMjg3NDExMjAyIiwiZXhwIjoxNzAyMDg5NjAwLCJpYXQiOjE2NzA1NTM2MDAsInVzZXJJZCI6MTYwMTA0MzkzMDI4NzQxMTIwMn0.fZVc267JNsgy5tB_Wn89l2Zgd3ZgXJfaMg_T9lc3j-o"}
Body:{"networkCode": "BTC", "type": "transfer", "body": {"from": "tb1qhcuul2fcyv5rvr5mc5cy5saz0q5p3kx0gsy3c0", "to": "tb1qagkvxdz2zq76atvr0rzh8n9lewjmlm25umq0xq", "symbol": "BTC", "amount": "0.000008"}, "transactionParams": {"memo": "izexLHjI4u"}}


[32mINFO    [0m Common.Http:Http.py:268 2022-12-29 18:59:58.460201 | 
<-----Instructions Response----->
{"_embedded":{"transactions":[{"balanceChanges":[],"blockHash":"","blockHeight":"-1","blockTime":"1970-01-01T00:00:00.000Z","createdTime":"2022-12-29T11:00:33.000Z","description":"","estimatedFee":"187","fee":"-1","hash":"","id":"1608417676165877761","networkCode":"BTC","requiredSignings":[{"hash":"43453c6c07849007bcd47f3f679829e4f6b0e0b8564c4be72ba6e31228f82290","publicKeys":["02e8852463021b47fe5214c599e87e431f2eb1219044946bbff397afd0518b85a6"],"threshold":1}],"serialized":"0100000001dfa6a8d3838f4a64961a0c0ea5bfc0da00e7a892eefe6e08e82881dd3a11775e0100000000ffffffff022003000000000000160014ea2cc3344a103daead8378c573ccbfcba5bfed54c913000000000000160014be39cfa9382328360e9bc5304a43a2782818d8cf00000000","status":0,"statusDesc":"BUILDING","updatedTime":"2022-12-29T11:00:33.000Z"}]},"body":{"symbol":"BTC","amount":"0.000008","from":"tb1qhcuul2fcyv5rvr5mc5cy5saz0q5p3kx0gsy3c0","to":"tb1qagkvxdz2zq76atvr0rzh8n9lewjmlm25umq0xq"},"createdTime":"2022-12-29T11:00:33.000Z","id":"1608417685553819649","networkCode":"BTC","status":-2,"transactionParams":{"memo":"izexLHjI4u"},"type":"TRANSFER","updatedTime":"2022-12-29T11:00:33.000Z"}


[32mINFO    [0m Common.Http:Http.py:344 2022-12-29 18:59:58.460201 | 
<-----Sign----->
Url:https://api.dhandho.xyz/vault/transactions/signatures
Headers:{"Content-Type": "application/json", "Authorization": "eyJ0eXAiOiJKV1QiLCJhbGciOiJIUzI1NiJ9.eyJhdWQiOiIxNjAxMDQzOTMwMjg3NDExMjAyIiwiZXhwIjoxNzAyMDg5NjAwLCJpYXQiOjE2NzA1NTM2MDAsInVzZXJJZCI6MTYwMTA0MzkzMDI4NzQxMTIwMn0.fZVc267JNsgy5tB_Wn89l2Zgd3ZgXJfaMg_T9lc3j-o"}
Body:{"id": "1608417676165877761", "signatures": [{"hash": "43453c6c07849007bcd47f3f679829e4f6b0e0b8564c4be72ba6e31228f82290", "publicKey": "02e8852463021b47fe5214c599e87e431f2eb1219044946bbff397afd0518b85a6", "signature": "dba531691aa3332bf008574ec9de729f8e9583f89ffe2eca9358cbdf39a7f4a17dbf844b57119785be844ebed4f1772561ebbcd39a487ee22d014ce3dd9d836d00"}]}


[32mINFO    [0m Common.Http:Http.py:348 2022-12-29 18:59:58.460201 | 
<-----Sign Response----->
{"balanceChanges":[],"blockHash":"","blockHeight":"-1","blockTime":"1970-01-01T00:00:00.000Z","createdTime":"2022-12-29T11:00:33.000Z","description":"","estimatedFee":"187","fee":"-1","hash":"1bd12bda5868e37f867623f50d1184f461151f54fa1e4aa5f881fc29d7ed3fd5","id":"1608417676165877761","networkCode":"BTC","serialized":"01000000000101dfa6a8d3838f4a64961a0c0ea5bfc0da00e7a892eefe6e08e82881dd3a11775e0100000000ffffffff022003000000000000160014ea2cc3344a103daead8378c573ccbfcba5bfed54c913000000000000160014be39cfa9382328360e9bc5304a43a2782818d8cf02483045022100dba531691aa3332bf008574ec9de729f8e9583f89ffe2eca9358cbdf39a7f4a102207dbf844b57119785be844ebed4f1772561ebbcd39a487ee22d014ce3dd9d836d012102e8852463021b47fe5214c599e87e431f2eb1219044946bbff397afd0518b85a600000000","status":2,"statusDesc":"SIGNED","updatedTime":"2022-12-29T11:00:35.011Z"}


[32mINFO    [0m Common.Http:Http.py:364 2022-12-29 18:59:58.460201 | 
<-----Send----->
Url:https://api.dhandho.xyz/vault/transactions/send/1608417676165877761
Headers:{"Content-Type": "application/json", "Authorization": "eyJ0eXAiOiJKV1QiLCJhbGciOiJIUzI1NiJ9.eyJhdWQiOiIxNjAxMDQzOTMwMjg3NDExMjAyIiwiZXhwIjoxNzAyMDg5NjAwLCJpYXQiOjE2NzA1NTM2MDAsInVzZXJJZCI6MTYwMTA0MzkzMDI4NzQxMTIwMn0.fZVc267JNsgy5tB_Wn89l2Zgd3ZgXJfaMg_T9lc3j-o"}


[32mINFO    [0m Common.Http:Http.py:368 2022-12-29 18:59:58.460201 | 
<-----Send Response----->
{"balanceChanges":[],"blockHash":"","blockHeight":"-1","blockTime":"2022-12-29T11:00:36.418Z","createdTime":"2022-12-29T11:00:33.000Z","description":"","estimatedFee":"187","fee":"-1","hash":"1bd12bda5868e37f867623f50d1184f461151f54fa1e4aa5f881fc29d7ed3fd5","id":"1608417676165877761","networkCode":"BTC","serialized":"01000000000101dfa6a8d3838f4a64961a0c0ea5bfc0da00e7a892eefe6e08e82881dd3a11775e0100000000ffffffff022003000000000000160014ea2cc3344a103daead8378c573ccbfcba5bfed54c913000000000000160014be39cfa9382328360e9bc5304a43a2782818d8cf02483045022100dba531691aa3332bf008574ec9de729f8e9583f89ffe2eca9358cbdf39a7f4a102207dbf844b57119785be844ebed4f1772561ebbcd39a487ee22d014ce3dd9d836d012102e8852463021b47fe5214c599e87e431f2eb1219044946bbff397afd0518b85a600000000","status":3,"statusDesc":"PENDING","updatedTime":"2022-12-29T11:00:36.418Z"}