[32mINFO    [0m Common.Http:Http.py:198 2022-11-03 15:39:55.561442 | 
<-----Holders----->
Url:https://api.cryptoless.io/cryptocurrencies/holders?address=tb1qhcuul2fcyv5rvr5mc5cy5saz0q5p3kx0gsy3c0&networkCode=BTC&symbol=BTC

Headers:{"Content-Type": "application/json", "Authorization": "eyJib2R5IjoiV2ViMyBUb2tlbiBWZXJzaW9uOiAyXG5Ob25jZTogMTU4NTEwMjc5MTQ2NjQ4NzgxMFxuSXNzdWVkIEF0OiBXZWQsIDI2IE9jdCAyMDIyIDAyOjU1OjI5IEdNVFxuRXhwaXJhdGlvbiBUaW1lOiBTYXQsIDIzIE9jdCAyMDMyIDAyOjU1OjI5IEdNVCIsInNpZ25hdHVyZSI6IjB4OTE1NWMyOGM3NjVjZjk1YTBjNjdiZGNhYzExNzIwYTRkNDQ4NDc4YmU5ZDZhNjE3ZWQzNDUzZDU3MDgzZjNjZTA2N2Q5OGUwMGI0YTVhMmJmOTlkY2I5Y2VmNzg5Yjc4OWViNzI5OTk4YzgxYWQzOWFhMTUzZTcxM2Q4M2FhYWUxYiJ9"}
[32mINFO    [0m Common.Http:Http.py:201 2022-11-03 15:39:55.561442 | 
<-----Query Holders Response----->
[{"address":"tb1qhcuul2fcyv5rvr5mc5cy5saz0q5p3kx0gsy3c0","createdTime":"2022-10-27T07:32:22.000Z","id":"1585534855592488964","networkCode":"BTC","quantity":"0.00999811","symbol":"BTC","updatedTime":"2022-10-27T08:25:37.000Z"}]
[32mINFO    [0m Common.Http:Http.py:288 2022-11-03 15:39:55.561442 | 
<-----Instructions----->
Url:https://api.cryptoless.io/vault/instructions

Headers:{"Content-Type": "application/json", "Authorization": "eyJ0eXAiOiJKV1QiLCJhbGciOiJIUzI1NiJ9.eyJhdWQiOiIxNTg1MTAyNzkxNDY2NDg3ODEwIiwiZXhwIjoxNjk4Mjg4OTM1LCJpYXQiOjE2NjY3NTI5MzUsInVzZXJJZCI6MTU4NTEwMjc5MTQ2NjQ4NzgxMH0.4o43r1upI2Qzcs46wf3gqb2Kq6kq0I7qGST6qPspfjY"}

Body:{"body": {"from": "tb1qhcuul2fcyv5rvr5mc5cy5saz0q5p3kx0gsy3c0", "to": "tb1qqrw8uz4j305w6fjr4mwng040sv7kz8hcczjfun", "symbol": "BTC", "amount": "0.00000009"}, "networkCode": "BTC", "type": "transfer", "definiteSignerPublicKeys": [], "transactionParams": {"memo": "dGXmQBIK6M"}}
[32mINFO    [0m Common.Http:Http.py:291 2022-11-03 15:39:55.561442 | 
<-----Instructions Response----->
{"_embedded":{"transactions":[{"balanceChanges":[],"blockHash":"","blockHeight":"0","blockTime":"2022-11-03T07:39:58.000Z","createdTime":"2022-11-03T07:39:58.000Z","description":"Custom Excution","estimatedFee":"187","fee":"-1","hash":"","id":"1588073481694031873","networkCode":"BTC","requiredSignings":[{"hash":"565e10e93c74744089e8305fe430fd442681dcc9fb53397c6d4fc2cfe31a08a2","publicKeys":["02e8852463021b47fe5214c599e87e431f2eb1219044946bbff397afd0518b85a6"],"threshold":1}],"serialized":"01000000014476fb7c56680ad5341008972de56f9971187c5d36d9c34cead3016bbb597cd20100000000ffffffff02090000000000000016001400dc7e0ab28be8ed2643aedd343eaf833d611ef8bf400f0000000000160014be39cfa9382328360e9bc5304a43a2782818d8cf00000000","status":"BUILDING","updatedTime":"2022-11-03T07:39:58.000Z"}]},"body":{"symbol":"BTC","amount":"0.00000009","from":"tb1qhcuul2fcyv5rvr5mc5cy5saz0q5p3kx0gsy3c0","to":"tb1qqrw8uz4j305w6fjr4mwng040sv7kz8hcczjfun"},"createdTime":"2022-11-03T07:39:58.000Z","id":"1588073482121834497","networkCode":"BTC","status":-2,"transactionParams":{"memo":"dGXmQBIK6M"},"type":"TRANSFER","updatedTime":"2022-11-03T07:39:58.000Z"}
[32mINFO    [0m Common.Http:Http.py:456 2022-11-03 15:39:55.561442 | 
<-----Sign----->
Url:https://api.cryptoless.io/vault/transactions/1588073481694031873/signatures

Headers:{"Content-Type": "application/json", "Authorization": "eyJ0eXAiOiJKV1QiLCJhbGciOiJIUzI1NiJ9.eyJhdWQiOiIxNTg1MTAyNzkxNDY2NDg3ODEwIiwiZXhwIjoxNjk4Mjg4OTM1LCJpYXQiOjE2NjY3NTI5MzUsInVzZXJJZCI6MTU4NTEwMjc5MTQ2NjQ4NzgxMH0.4o43r1upI2Qzcs46wf3gqb2Kq6kq0I7qGST6qPspfjY"}

Body:{"signatures": [{"hash": "565e10e93c74744089e8305fe430fd442681dcc9fb53397c6d4fc2cfe31a08a2", "publicKey": "02e8852463021b47fe5214c599e87e431f2eb1219044946bbff397afd0518b85a6", "signature": "f4035fd1abcd4990acfa3fe1dae33fe20321e76f557b9ef102db8856366adbc24ae9a911772ad25e2273a6dcb55fae956a1695568f9071503201b3e941afcc1d01"}], "serialized": "01000000014476fb7c56680ad5341008972de56f9971187c5d36d9c34cead3016bbb597cd20100000000ffffffff02090000000000000016001400dc7e0ab28be8ed2643aedd343eaf833d611ef8bf400f0000000000160014be39cfa9382328360e9bc5304a43a2782818d8cf00000000"}
[32mINFO    [0m Common.Http:Http.py:460 2022-11-03 15:39:55.561442 | 
<-----Sign Response----->
{"balanceChanges":[],"blockHash":"","blockHeight":"0","blockTime":"2022-11-03T07:39:59.635Z","createdTime":"2022-11-03T07:39:58.000Z","description":"Custom Excution","estimatedFee":"187","fee":"-1","hash":"fa39e4e4f8e0541db78d7bb46e8ed1ce8ce1b2322addb147194e63964e42c543","id":"1588073481694031873","networkCode":"BTC","serialized":"010000000001014476fb7c56680ad5341008972de56f9971187c5d36d9c34cead3016bbb597cd20100000000ffffffff02090000000000000016001400dc7e0ab28be8ed2643aedd343eaf833d611ef8bf400f0000000000160014be39cfa9382328360e9bc5304a43a2782818d8cf02483045022100f4035fd1abcd4990acfa3fe1dae33fe20321e76f557b9ef102db8856366adbc202204ae9a911772ad25e2273a6dcb55fae956a1695568f9071503201b3e941afcc1d012102e8852463021b47fe5214c599e87e431f2eb1219044946bbff397afd0518b85a600000000","status":"PENDING","updatedTime":"2022-11-03T07:39:59.635Z"}