[32mINFO    [0m Common.Httpcore:Httpcore.py:224 2022-12-02 18:23:43.909764 | 
<-----Query UTXO----->
Url:https://api.bitcore.io/api/BTC/testnet/address/tb1qhcuul2fcyv5rvr5mc5cy5saz0q5p3kx0gsy3c0?unspent=true

Headers:{"Content-Type": "application/json"}


[32mINFO    [0m Common.Httpcore:Httpcore.py:227 2022-12-02 18:23:43.909764 | 
<-----Query UTXO Response----->
[
{"_id":"6389cfcfd3bfc9e8e15558fc","chain":"BTC","network":"testnet","coinbase":false,"mintIndex":1,"spentTxid":"","mintTxid":"b29e292cca726b7f8d3b13de26db0cca577716218320101bd7af70f01aa8025a","mintHeight":-1,"spentHeight":-2,"address":"tb1qhcuul2fcyv5rvr5mc5cy5saz0q5p3kx0gsy3c0","script":"0014be39cfa9382328360e9bc5304a43a2782818d8cf","value":898357,"confirmations":-1},
{"_id":"6389cfcfd3bfc9e8e15558fb","chain":"BTC","network":"testnet","coinbase":false,"mintIndex":0,"spentTxid":"","mintTxid":"b29e292cca726b7f8d3b13de26db0cca577716218320101bd7af70f01aa8025a","mintHeight":-1,"spentHeight":-2,"address":"tb1qhcuul2fcyv5rvr5mc5cy5saz0q5p3kx0gsy3c0","script":"0014be39cfa9382328360e9bc5304a43a2782818d8cf","value":100,"confirmations":-1},
{"_id":"638967b1d3bfc9e8e1a2533f","chain":"BTC","network":"testnet","coinbase":false,"mintIndex":1,"spentTxid":"b29e292cca726b7f8d3b13de26db0cca577716218320101bd7af70f01aa8025a","mintTxid":"3bd055be1d1c03586c783b31fcf0b6bb9316cb2d058cf32172ae6af592ad37e3","mintHeight":2409372,"spentHeight":-1,"address":"tb1qhcuul2fcyv5rvr5mc5cy5saz0q5p3kx0gsy3c0","script":"0014be39cfa9382328360e9bc5304a43a2782818d8cf","value":898662,"confirmations":-1,"sequenceNumber":4294967295},
{"_id":"638967b1d3bfc9e8e1a2533e","chain":"BTC","network":"testnet","coinbase":false,"mintIndex":0,"spentTxid":"b29e292cca726b7f8d3b13de26db0cca577716218320101bd7af70f01aa8025a","mintTxid":"3bd055be1d1c03586c783b31fcf0b6bb9316cb2d058cf32172ae6af592ad37e3","mintHeight":2409372,"spentHeight":-1,"address":"tb1qhcuul2fcyv5rvr5mc5cy5saz0q5p3kx0gsy3c0","script":"0014be39cfa9382328360e9bc5304a43a2782818d8cf","value":100,"confirmations":-1,"sequenceNumber":4294967295},
{"_id":"6385ac0fd3bfc9e8e17f09de","chain":"BTC","network":"testnet","coinbase":false,"mintIndex":0,"spentTxid":"b29e292cca726b7f8d3b13de26db0cca577716218320101bd7af70f01aa8025a","mintTxid":"9aa6d0c2e5b677480d08b1f90c989f599ec16342cdee9e1fe48a698030a38eae","mintHeight":2408923,"spentHeight":-1,"address":"tb1qhcuul2fcyv5rvr5mc5cy5saz0q5p3kx0gsy3c0","script":"0014be39cfa9382328360e9bc5304a43a2782818d8cf","value":100,"confirmations":-1,"sequenceNumber":4294967295}
]
[32mINFO    [0m Common.Httpcore:Httpcore.py:132 2022-12-02 18:23:43.909764 | 
<-----Core Build------>
Url:http://54.251.78.181:8888/core/api/transactions

Headers:{"Content-Type": "application/json", "Authorization": "eyJib2R5IjoiV2ViMyBUb2tlbiBWZXJzaW9uOiAyXG5Ob25jZTogMTU4NTEwMjc5MTQ2NjQ4NzgxMFxuSXNzdWVkIEF0OiBXZWQsIDI2IE9jdCAyMDIyIDAyOjU1OjI5IEdNVFxuRXhwaXJhdGlvbiBUaW1lOiBTYXQsIDIzIE9jdCAyMDMyIDAyOjU1OjI5IEdNVCIsInNpZ25hdHVyZSI6IjB4OTE1NWMyOGM3NjVjZjk1YTBjNjdiZGNhYzExNzIwYTRkNDQ4NDc4YmU5ZDZhNjE3ZWQzNDUzZDU3MDgzZjNjZTA2N2Q5OGUwMGI0YTVhMmJmOTlkY2I5Y2VmNzg5Yjc4OWViNzI5OTk4YzgxYWQzOWFhMTUzZTcxM2Q4M2FhYWUxYiJ9"}

body:{"networkCode": "BTC", "payload": {"changer": "tb1qhcuul2fcyv5rvr5mc5cy5saz0q5p3kx0gsy3c0", "recipients": [{"address": "tb1q0558s53xchyghw34tqm4x8t2n8swf666nvhffq", "value": "100"}, {"address": "tb1qn0qrq4zfxjc89c773s6k86faym3ugpcje9eras", "value": "200"}, {"address": "tb1qk50y4995th8tffhc90tz7533lygzwz57zxmhtj", "value": "300"}], "utxos": [{"amount": 898357, "scriptPubKey": "0014be39cfa9382328360e9bc5304a43a2782818d8cf", "signers": ["02e8852463021b47fe5214c599e87e431f2eb1219044946bbff397afd0518b85a6"], "txid": "b29e292cca726b7f8d3b13de26db0cca577716218320101bd7af70f01aa8025a", "vout": 1}, {"amount": 100, "scriptPubKey": "0014be39cfa9382328360e9bc5304a43a2782818d8cf", "signers": ["02e8852463021b47fe5214c599e87e431f2eb1219044946bbff397afd0518b85a6"], "txid": "b29e292cca726b7f8d3b13de26db0cca577716218320101bd7af70f01aa8025a", "vout": 0}, {"amount": 898662, "scriptPubKey": "0014be39cfa9382328360e9bc5304a43a2782818d8cf", "signers": ["02e8852463021b47fe5214c599e87e431f2eb1219044946bbff397afd0518b85a6"], "txid": "3bd055be1d1c03586c783b31fcf0b6bb9316cb2d058cf32172ae6af592ad37e3", "vout": 1}, {"amount": 100, "scriptPubKey": "0014be39cfa9382328360e9bc5304a43a2782818d8cf", "signers": ["02e8852463021b47fe5214c599e87e431f2eb1219044946bbff397afd0518b85a6"], "txid": "3bd055be1d1c03586c783b31fcf0b6bb9316cb2d058cf32172ae6af592ad37e3", "vout": 0}, {"amount": 100, "scriptPubKey": "0014be39cfa9382328360e9bc5304a43a2782818d8cf", "signers": ["02e8852463021b47fe5214c599e87e431f2eb1219044946bbff397afd0518b85a6"], "txid": "9aa6d0c2e5b677480d08b1f90c989f599ec16342cdee9e1fe48a698030a38eae", "vout": 0}]}, "type": "TRANSACTION"}


[32mINFO    [0m Common.Httpcore:Httpcore.py:135 2022-12-02 18:23:43.909764 | 
<-----Core Build Response---->
{"balanceChanges":[],"blockTime":"1970-01-01T00:00:00.000Z","createdTime":"2022-12-02T10:23:45.171Z","description":"Custom Excution","estimatedFee":"691","hash":"","id":"1598623948907696129","networkCode":"BTC","requiredSignings":[{"hash":"10dffdfa48a7e06eda07ec6119b1a2177081a6ef1f2a5abca420306f5a88d7eb","publicKeys":["02e8852463021b47fe5214c599e87e431f2eb1219044946bbff397afd0518b85a6"],"threshold":1},{"hash":"2d6a365378fe986af25ddb758224d1f510a2342470d7fec68e0fb6f07ea5577a","publicKeys":["02e8852463021b47fe5214c599e87e431f2eb1219044946bbff397afd0518b85a6"],"threshold":1},{"hash":"b68c0a26b6e4e6ecd96926d72455be81f8a3ffc8e07d47799479e26d3bafa0b9","publicKeys":["02e8852463021b47fe5214c599e87e431f2eb1219044946bbff397afd0518b85a6"],"threshold":1},{"hash":"02dee0323e682d18e18c68b99438997fd6245b1e848a34a2beb50ac6fdb3faca","publicKeys":["02e8852463021b47fe5214c599e87e431f2eb1219044946bbff397afd0518b85a6"],"threshold":1},{"hash":"9698a093c572b7f16154469c6cfd02bec8ad063bd2711fec15368abc8b43445c","publicKeys":["02e8852463021b47fe5214c599e87e431f2eb1219044946bbff397afd0518b85a6"],"threshold":1}],"serialized":"01000000055a02a81af070afd71b10208321167757ca0cdb26de133b8d7f6b72ca2c299eb20100000000ffffffff5a02a81af070afd71b10208321167757ca0cdb26de133b8d7f6b72ca2c299eb20000000000ffffffffe337ad92f56aae7221f38c052dcb1693bbb6f0fc313b786c58031c1dbe55d03b0100000000ffffffffe337ad92f56aae7221f38c052dcb1693bbb6f0fc313b786c58031c1dbe55d03b0000000000ffffffffae8ea33080698ae41f9eeecd4263c19e599f980cf9b1080d4877b6e5c2d0a69a0000000000ffffffff0464000000000000001600147d28785226c5c88bba355837531d6a99e0e4eb5ac8000000000000001600149bc030544934b072e3de8c3563e93d26e3c407122c01000000000000160014b51e4a94b45dceb4a6f82bd62f5231f910270a9ebc671b0000000000160014be39cfa9382328360e9bc5304a43a2782818d8cf00000000","status":0,"statusDesc":"BUILDING","updatedTime":"2022-12-02T10:23:45.171Z"}
[32mINFO    [0m Common.Httpcore:Httpcore.py:155 2022-12-02 18:23:43.909764 | 
<-----Core Sign------>
Url:http://54.251.78.181:8888/core/api/transactions/signatures

Headers:{"Content-Type": "application/json", "Authorization": "eyJib2R5IjoiV2ViMyBUb2tlbiBWZXJzaW9uOiAyXG5Ob25jZTogMTU4NTEwMjc5MTQ2NjQ4NzgxMFxuSXNzdWVkIEF0OiBXZWQsIDI2IE9jdCAyMDIyIDAyOjU1OjI5IEdNVFxuRXhwaXJhdGlvbiBUaW1lOiBTYXQsIDIzIE9jdCAyMDMyIDAyOjU1OjI5IEdNVCIsInNpZ25hdHVyZSI6IjB4OTE1NWMyOGM3NjVjZjk1YTBjNjdiZGNhYzExNzIwYTRkNDQ4NDc4YmU5ZDZhNjE3ZWQzNDUzZDU3MDgzZjNjZTA2N2Q5OGUwMGI0YTVhMmJmOTlkY2I5Y2VmNzg5Yjc4OWViNzI5OTk4YzgxYWQzOWFhMTUzZTcxM2Q4M2FhYWUxYiJ9"}

body:{"id": "1598623948907696129", "signatures": [{"hash": "10dffdfa48a7e06eda07ec6119b1a2177081a6ef1f2a5abca420306f5a88d7eb", "publicKey": "02e8852463021b47fe5214c599e87e431f2eb1219044946bbff397afd0518b85a6", "signature": "53788e3e9b27fd530812c0d6684202f8b88d327021fa228c6756ea6ce90487f459aa963d1313b7cc99250667b6ab1fe23f524635442182dab30b1c2692d6a06601"}, {"hash": "2d6a365378fe986af25ddb758224d1f510a2342470d7fec68e0fb6f07ea5577a", "publicKey": "02e8852463021b47fe5214c599e87e431f2eb1219044946bbff397afd0518b85a6", "signature": "234438f2dffb9f47cf715d2eadd4abb2d1b31068ece3591cf1d5e0547c6ec7210f76725aab33bb754ca88bffdfaea4297dc90ba8c47ab53a30cdba2c7f14935401"}, {"hash": "b68c0a26b6e4e6ecd96926d72455be81f8a3ffc8e07d47799479e26d3bafa0b9", "publicKey": "02e8852463021b47fe5214c599e87e431f2eb1219044946bbff397afd0518b85a6", "signature": "1b971f3f2e6cc74e163822852250e8bcaaae100fa35ad5732b2e9a0341411cc3399583f0b463e50c4ca583a6c3768aa19b3e3d592c807a9a94eeda153d1ef60300"}, {"hash": "02dee0323e682d18e18c68b99438997fd6245b1e848a34a2beb50ac6fdb3faca", "publicKey": "02e8852463021b47fe5214c599e87e431f2eb1219044946bbff397afd0518b85a6", "signature": "e58831c941b0bbd513e1db81e9b51851f654136a161de401b526df06fb1e7aca242f04bdf8179fa5f5761e7a51c51acdd8b387f116960a1374a91358f868d91f01"}, {"hash": "9698a093c572b7f16154469c6cfd02bec8ad063bd2711fec15368abc8b43445c", "publicKey": "02e8852463021b47fe5214c599e87e431f2eb1219044946bbff397afd0518b85a6", "signature": "bc1fbc79184ffbd545150670da05a3eae03bcff0df151cc5057439fdea06aad940b219495646f3b3dcdf8995a7f0602b1c792c950c3cf08ecc860038796c63fa00"}]}


[32mINFO    [0m Common.Httpcore:Httpcore.py:158 2022-12-02 18:23:43.909764 | 
<-----Core Sign Response---->
{"balanceChanges":[],"blockHash":"","blockHeight":"0","blockTime":"1970-01-01T00:00:00.000Z","createdTime":"2022-12-02T10:23:45.000Z","description":"Custom Excution","estimatedFee":"691","fee":"-1","hash":"b6cb55d7ed861bce7d2934551d4621e384f568199cedc474a6b91bbd35bd0a6a","id":"1598623948907696129","networkCode":"BTC","serialized":"010000000001055a02a81af070afd71b10208321167757ca0cdb26de133b8d7f6b72ca2c299eb20100000000ffffffff5a02a81af070afd71b10208321167757ca0cdb26de133b8d7f6b72ca2c299eb20000000000ffffffffe337ad92f56aae7221f38c052dcb1693bbb6f0fc313b786c58031c1dbe55d03b0100000000ffffffffe337ad92f56aae7221f38c052dcb1693bbb6f0fc313b786c58031c1dbe55d03b0000000000ffffffffae8ea33080698ae41f9eeecd4263c19e599f980cf9b1080d4877b6e5c2d0a69a0000000000ffffffff0464000000000000001600147d28785226c5c88bba355837531d6a99e0e4eb5ac8000000000000001600149bc030544934b072e3de8c3563e93d26e3c407122c01000000000000160014b51e4a94b45dceb4a6f82bd62f5231f910270a9ebc671b0000000000160014be39cfa9382328360e9bc5304a43a2782818d8cf024730440220234438f2dffb9f47cf715d2eadd4abb2d1b31068ece3591cf1d5e0547c6ec72102200f76725aab33bb754ca88bffdfaea4297dc90ba8c47ab53a30cdba2c7f149354012102e8852463021b47fe5214c599e87e431f2eb1219044946bbff397afd0518b85a602483045022100bc1fbc79184ffbd545150670da05a3eae03bcff0df151cc5057439fdea06aad9022040b219495646f3b3dcdf8995a7f0602b1c792c950c3cf08ecc860038796c63fa012102e8852463021b47fe5214c599e87e431f2eb1219044946bbff397afd0518b85a60247304402201b971f3f2e6cc74e163822852250e8bcaaae100fa35ad5732b2e9a0341411cc30220399583f0b463e50c4ca583a6c3768aa19b3e3d592c807a9a94eeda153d1ef603012102e8852463021b47fe5214c599e87e431f2eb1219044946bbff397afd0518b85a602483045022100e58831c941b0bbd513e1db81e9b51851f654136a161de401b526df06fb1e7aca0220242f04bdf8179fa5f5761e7a51c51acdd8b387f116960a1374a91358f868d91f012102e8852463021b47fe5214c599e87e431f2eb1219044946bbff397afd0518b85a602473044022053788e3e9b27fd530812c0d6684202f8b88d327021fa228c6756ea6ce90487f4022059aa963d1313b7cc99250667b6ab1fe23f524635442182dab30b1c2692d6a066012102e8852463021b47fe5214c599e87e431f2eb1219044946bbff397afd0518b85a600000000","status":2,"statusDesc":"SIGNED","updatedTime":"2022-12-02T10:23:45.648Z"}
[32mINFO    [0m Common.Httpcore:Httpcore.py:174 2022-12-02 18:23:43.909764 | 
<-----Core Send------>
Url:http://54.251.78.181:8888/core/api/transactions/send/1598623948907696129

Headers:{"Content-Type": "application/json", "Authorization": "eyJib2R5IjoiV2ViMyBUb2tlbiBWZXJzaW9uOiAyXG5Ob25jZTogMTU4NTEwMjc5MTQ2NjQ4NzgxMFxuSXNzdWVkIEF0OiBXZWQsIDI2IE9jdCAyMDIyIDAyOjU1OjI5IEdNVFxuRXhwaXJhdGlvbiBUaW1lOiBTYXQsIDIzIE9jdCAyMDMyIDAyOjU1OjI5IEdNVCIsInNpZ25hdHVyZSI6IjB4OTE1NWMyOGM3NjVjZjk1YTBjNjdiZGNhYzExNzIwYTRkNDQ4NDc4YmU5ZDZhNjE3ZWQzNDUzZDU3MDgzZjNjZTA2N2Q5OGUwMGI0YTVhMmJmOTlkY2I5Y2VmNzg5Yjc4OWViNzI5OTk4YzgxYWQzOWFhMTUzZTcxM2Q4M2FhYWUxYiJ9"}


[1m[31mERROR   [0m Common.Httpcore:Httpcore.py:180 2022-12-02 18:23:43.909764 | 
<-----Core Send Response Error----->{"code":2400000,"message":"INTERNAL: 500 - {\"result\":null,\"error\":{\"code\":-26,\"message\":\"txn-mempool-conflict\"},\"id\":1669976625889}"}