[32mINFO    [0m Common.Httpcore:Httpcore.py:224 2022-12-05 10:33:02.38405 | 
<-----Query UTXO----->
Url:https://api.bitcore.io/api/BTC/testnet/address/tb1qhcuul2fcyv5rvr5mc5cy5saz0q5p3kx0gsy3c0?unspent=true

Headers:{"Content-Type": "application/json"}


[32mINFO    [0m Common.Httpcore:Httpcore.py:227 2022-12-05 10:33:02.38405 | 
<-----Query UTXO Response----->
[
{"_id":"6389db52d3bfc9e8e1868a8e","chain":"BTC","network":"testnet","coinbase":false,"mintIndex":1,"spentTxid":"","mintTxid":"b3d02253840ceff7c2ffdc2536d136f7de73af36fde52ed45ab4cc3488bdda3e","mintHeight":2409428,"spentHeight":-2,"address":"tb1qhcuul2fcyv5rvr5mc5cy5saz0q5p3kx0gsy3c0","script":"0014be39cfa9382328360e9bc5304a43a2782818d8cf","value":897206,"confirmations":-1},
{"_id":"6389db52d3bfc9e8e1868a8c","chain":"BTC","network":"testnet","coinbase":false,"mintIndex":0,"spentTxid":"","mintTxid":"b3d02253840ceff7c2ffdc2536d136f7de73af36fde52ed45ab4cc3488bdda3e","mintHeight":2409428,"spentHeight":-2,"address":"tb1qhcuul2fcyv5rvr5mc5cy5saz0q5p3kx0gsy3c0","script":"0014be39cfa9382328360e9bc5304a43a2782818d8cf","value":100,"confirmations":-1}
]
[32mINFO    [0m Common.Httpcore:Httpcore.py:132 2022-12-05 10:33:02.38405 | 
<-----Core Build------>
Url:http://54.251.78.181:8888/core/api/transactions

Headers:{"Content-Type": "application/json", "Authorization": "eyJib2R5IjoiV2ViMyBUb2tlbiBWZXJzaW9uOiAyXG5Ob25jZTogMTU4NTEwMjc5MTQ2NjQ4NzgxMFxuSXNzdWVkIEF0OiBXZWQsIDI2IE9jdCAyMDIyIDAyOjU1OjI5IEdNVFxuRXhwaXJhdGlvbiBUaW1lOiBTYXQsIDIzIE9jdCAyMDMyIDAyOjU1OjI5IEdNVCIsInNpZ25hdHVyZSI6IjB4OTE1NWMyOGM3NjVjZjk1YTBjNjdiZGNhYzExNzIwYTRkNDQ4NDc4YmU5ZDZhNjE3ZWQzNDUzZDU3MDgzZjNjZTA2N2Q5OGUwMGI0YTVhMmJmOTlkY2I5Y2VmNzg5Yjc4OWViNzI5OTk4YzgxYWQzOWFhMTUzZTcxM2Q4M2FhYWUxYiJ9"}

body:{"networkCode": "BTC", "payload": {"changer": "tb1qhcuul2fcyv5rvr5mc5cy5saz0q5p3kx0gsy3c0", "recipients": [{"address": "tb1q0558s53xchyghw34tqm4x8t2n8swf666nvhffq", "value": "100"}, {"address": "tb1qn0qrq4zfxjc89c773s6k86faym3ugpcje9eras", "value": "200"}, {"address": "tb1qk50y4995th8tffhc90tz7533lygzwz57zxmhtj", "value": "300"}], "utxos": [{"amount": 897206, "scriptPubKey": "0014be39cfa9382328360e9bc5304a43a2782818d8cf", "signers": ["02e8852463021b47fe5214c599e87e431f2eb1219044946bbff397afd0518b85a6"], "txid": "b3d02253840ceff7c2ffdc2536d136f7de73af36fde52ed45ab4cc3488bdda3e", "vout": 1}, {"amount": 100, "scriptPubKey": "0014be39cfa9382328360e9bc5304a43a2782818d8cf", "signers": ["02e8852463021b47fe5214c599e87e431f2eb1219044946bbff397afd0518b85a6"], "txid": "b3d02253840ceff7c2ffdc2536d136f7de73af36fde52ed45ab4cc3488bdda3e", "vout": 0}]}, "type": "TRANSACTION"}


[32mINFO    [0m Common.Httpcore:Httpcore.py:135 2022-12-05 10:33:02.38405 | 
<-----Core Build Response---->
{"balanceChanges":[],"blockTime":"1970-01-01T00:00:00.000Z","createdTime":"2022-12-05T02:33:06.505Z","description":"Custom Excution","estimatedFee":"364","hash":"","id":"1599592670921183233","networkCode":"BTC","requiredSignings":[{"hash":"8610ca6bc48b4b2c85727a9770e480acc58af438a79012dc4b69c80ec10f4b9d","publicKeys":["02e8852463021b47fe5214c599e87e431f2eb1219044946bbff397afd0518b85a6"],"threshold":1},{"hash":"62304d638493d2e2a1a7860d0a61b26ac71c8f4e41372785e0a36d98d7b4671d","publicKeys":["02e8852463021b47fe5214c599e87e431f2eb1219044946bbff397afd0518b85a6"],"threshold":1}],"serialized":"01000000023edabd8834ccb45ad42ee5fd36af73def736d13625dcffc2f7ef0c845322d0b30100000000ffffffff3edabd8834ccb45ad42ee5fd36af73def736d13625dcffc2f7ef0c845322d0b30000000000ffffffff0464000000000000001600147d28785226c5c88bba355837531d6a99e0e4eb5ac8000000000000001600149bc030544934b072e3de8c3563e93d26e3c407122c01000000000000160014b51e4a94b45dceb4a6f82bd62f5231f910270a9e56ad0d0000000000160014be39cfa9382328360e9bc5304a43a2782818d8cf00000000","status":0,"statusDesc":"BUILDING","updatedTime":"2022-12-05T02:33:06.505Z"}
[32mINFO    [0m Common.Httpcore:Httpcore.py:155 2022-12-05 10:33:02.38405 | 
<-----Core Sign------>
Url:http://54.251.78.181:8888/core/api/transactions/signatures

Headers:{"Content-Type": "application/json", "Authorization": "eyJib2R5IjoiV2ViMyBUb2tlbiBWZXJzaW9uOiAyXG5Ob25jZTogMTU4NTEwMjc5MTQ2NjQ4NzgxMFxuSXNzdWVkIEF0OiBXZWQsIDI2IE9jdCAyMDIyIDAyOjU1OjI5IEdNVFxuRXhwaXJhdGlvbiBUaW1lOiBTYXQsIDIzIE9jdCAyMDMyIDAyOjU1OjI5IEdNVCIsInNpZ25hdHVyZSI6IjB4OTE1NWMyOGM3NjVjZjk1YTBjNjdiZGNhYzExNzIwYTRkNDQ4NDc4YmU5ZDZhNjE3ZWQzNDUzZDU3MDgzZjNjZTA2N2Q5OGUwMGI0YTVhMmJmOTlkY2I5Y2VmNzg5Yjc4OWViNzI5OTk4YzgxYWQzOWFhMTUzZTcxM2Q4M2FhYWUxYiJ9"}

body:{"id": "1599592670921183233", "signatures": [{"hash": "8610ca6bc48b4b2c85727a9770e480acc58af438a79012dc4b69c80ec10f4b9d", "publicKey": "02e8852463021b47fe5214c599e87e431f2eb1219044946bbff397afd0518b85a6", "signature": "a4e4064147ac61de8d9b72862e252b1b6b798f70cc7864d06dbcc6e88261cfd45361b7850b72351db01e3cab1006fe32f1fde49652c2f94b42200fbe1a20582f00"}, {"hash": "62304d638493d2e2a1a7860d0a61b26ac71c8f4e41372785e0a36d98d7b4671d", "publicKey": "02e8852463021b47fe5214c599e87e431f2eb1219044946bbff397afd0518b85a6", "signature": "94df5563e41b6a79a97a0803f287141af6f485569f32a5dc8c1ead47df9419907c2a2594ffb1019bfaef3b41ebe6c1833df128032917370f6a4c00598764bb5900"}]}


[32mINFO    [0m Common.Httpcore:Httpcore.py:158 2022-12-05 10:33:02.38405 | 
<-----Core Sign Response---->
{"balanceChanges":[],"blockHash":"","blockHeight":"0","blockTime":"1970-01-01T00:00:00.000Z","createdTime":"2022-12-05T02:33:07.000Z","description":"Custom Excution","estimatedFee":"364","fee":"-1","hash":"0eb8b8b9d8a88dfe3bc56179514fe542fb10be8a0307c90cdfffee6460be9d38","id":"1599592670921183233","networkCode":"BTC","serialized":"010000000001023edabd8834ccb45ad42ee5fd36af73def736d13625dcffc2f7ef0c845322d0b30100000000ffffffff3edabd8834ccb45ad42ee5fd36af73def736d13625dcffc2f7ef0c845322d0b30000000000ffffffff0464000000000000001600147d28785226c5c88bba355837531d6a99e0e4eb5ac8000000000000001600149bc030544934b072e3de8c3563e93d26e3c407122c01000000000000160014b51e4a94b45dceb4a6f82bd62f5231f910270a9e56ad0d0000000000160014be39cfa9382328360e9bc5304a43a2782818d8cf02483045022100a4e4064147ac61de8d9b72862e252b1b6b798f70cc7864d06dbcc6e88261cfd402205361b7850b72351db01e3cab1006fe32f1fde49652c2f94b42200fbe1a20582f012102e8852463021b47fe5214c599e87e431f2eb1219044946bbff397afd0518b85a60248304502210094df5563e41b6a79a97a0803f287141af6f485569f32a5dc8c1ead47df94199002207c2a2594ffb1019bfaef3b41ebe6c1833df128032917370f6a4c00598764bb59012102e8852463021b47fe5214c599e87e431f2eb1219044946bbff397afd0518b85a600000000","status":2,"statusDesc":"SIGNED","updatedTime":"2022-12-05T02:33:06.821Z"}
[32mINFO    [0m Common.Httpcore:Httpcore.py:174 2022-12-05 10:33:02.38405 | 
<-----Core Send------>
Url:http://54.251.78.181:8888/core/api/transactions/send/1599592670921183233

Headers:{"Content-Type": "application/json", "Authorization": "eyJib2R5IjoiV2ViMyBUb2tlbiBWZXJzaW9uOiAyXG5Ob25jZTogMTU4NTEwMjc5MTQ2NjQ4NzgxMFxuSXNzdWVkIEF0OiBXZWQsIDI2IE9jdCAyMDIyIDAyOjU1OjI5IEdNVFxuRXhwaXJhdGlvbiBUaW1lOiBTYXQsIDIzIE9jdCAyMDMyIDAyOjU1OjI5IEdNVCIsInNpZ25hdHVyZSI6IjB4OTE1NWMyOGM3NjVjZjk1YTBjNjdiZGNhYzExNzIwYTRkNDQ4NDc4YmU5ZDZhNjE3ZWQzNDUzZDU3MDgzZjNjZTA2N2Q5OGUwMGI0YTVhMmJmOTlkY2I5Y2VmNzg5Yjc4OWViNzI5OTk4YzgxYWQzOWFhMTUzZTcxM2Q4M2FhYWUxYiJ9"}


[32mINFO    [0m Common.Httpcore:Httpcore.py:177 2022-12-05 10:33:02.38405 | 
<-----Core Send Response---->
{"balanceChanges":[],"blockHash":"","blockHeight":"0","blockTime":"2022-12-05T02:33:07.042Z","createdTime":"2022-12-05T02:33:07.000Z","description":"Custom Excution","estimatedFee":"364","fee":"-1","hash":"0eb8b8b9d8a88dfe3bc56179514fe542fb10be8a0307c90cdfffee6460be9d38","id":"1599592670921183233","networkCode":"BTC","serialized":"010000000001023edabd8834ccb45ad42ee5fd36af73def736d13625dcffc2f7ef0c845322d0b30100000000ffffffff3edabd8834ccb45ad42ee5fd36af73def736d13625dcffc2f7ef0c845322d0b30000000000ffffffff0464000000000000001600147d28785226c5c88bba355837531d6a99e0e4eb5ac8000000000000001600149bc030544934b072e3de8c3563e93d26e3c407122c01000000000000160014b51e4a94b45dceb4a6f82bd62f5231f910270a9e56ad0d0000000000160014be39cfa9382328360e9bc5304a43a2782818d8cf02483045022100a4e4064147ac61de8d9b72862e252b1b6b798f70cc7864d06dbcc6e88261cfd402205361b7850b72351db01e3cab1006fe32f1fde49652c2f94b42200fbe1a20582f012102e8852463021b47fe5214c599e87e431f2eb1219044946bbff397afd0518b85a60248304502210094df5563e41b6a79a97a0803f287141af6f485569f32a5dc8c1ead47df94199002207c2a2594ffb1019bfaef3b41ebe6c1833df128032917370f6a4c00598764bb59012102e8852463021b47fe5214c599e87e431f2eb1219044946bbff397afd0518b85a600000000","status":3,"statusDesc":"PENDING","updatedTime":"2022-12-05T02:33:07.042Z"}