[32mINFO    [0m Common.Http:Http.py:216 2022-11-08 10:25:37.159 | 
<-----Holders----->
Url:https://api.cryptoless.net/cryptocurrencies/holders?address=AF5UUawSaatGJTYZd65RCBp4D6aSXxEvjm&networkCode=DOGE&symbol=DOGE

Headers:{"Content-Type": "application/json", "Authorization": "eyJib2R5IjoiV2ViMyBUb2tlbiBWZXJzaW9uOiAyXG5Ob25jZTogMTU4MzAxOTk1NTUzMDg5NTM2MVxuSXNzdWVkIEF0OiBUaHUsIDIwIE9jdCAyMDIyIDA4OjU5OjAzIEdNVFxuRXhwaXJhdGlvbiBUaW1lOiBTdW4sIDE3IE9jdCAyMDMyIDA4OjU5OjAzIEdNVCIsInNpZ25hdHVyZSI6IjB4MDA4NTA0NmM1YmYwYWFkZjkwMjIyMWFhNGU0OTFjODllYTU5ZTAxZGQ2ODIwNTdkMDU0Y2U2MzcyNTdkYTE2ZTIyNTJlMzYxYWJmNjE4ZmEwOWJmODVmYjEwM2RjMmZhYzg4MzFkODNmMDcwNGZlMjdhZmUzYTdjYWY0NGE2YjYxYyJ9"}
[32mINFO    [0m Common.Http:Http.py:219 2022-11-08 10:25:37.159 | 
<-----Query Holders Response----->
[{"address":"AF5UUawSaatGJTYZd65RCBp4D6aSXxEvjm","createdTime":"2022-10-24T07:46:01.000Z","id":"1584451129029644290","networkCode":"DOGE","quantity":"4.2896964","symbol":"DOGE","updatedTime":"2022-11-08T02:19:54.000Z"}]
[32mINFO    [0m Common.Http:Http.py:306 2022-11-08 10:25:37.159 | 
<-----Instructions----->
Url:https://api.cryptoless.net/vault/instructions

Headers:{"Content-Type": "application/json", "Authorization": "eyJ0eXAiOiJKV1QiLCJhbGciOiJIUzI1NiJ9.eyJhdWQiOiIxNTgzMDE5OTU1NTMwODk1MzYxIiwiZXhwIjoxNjY4NDA2MDg4LCJpYXQiOjE2Njc4MDEyODgsInVzZXJJZCI6MTU4MzAxOTk1NTUzMDg5NTM2MX0.t8TZeGPZfNhs1U3syLsqgadq1-RKf_GU2nGWQWoWW9w"}

Body:{"body": {"from": "AF5UUawSaatGJTYZd65RCBp4D6aSXxEvjm", "to": "DGnb5SNRnEyAx9xNuHGxbiY4ysHPsxegP9", "symbol": "DOGE", "amount": "2.6056"}, "networkCode": "DOGE", "type": "transfer", "definiteSignerPublicKeys": [], "transactionParams": {"memo": "8izCYHevpT"}}
[32mINFO    [0m Common.Http:Http.py:309 2022-11-08 10:25:37.159 | 
<-----Instructions Response----->
{"_embedded":{"transactions":[{"balanceChanges":[],"blockHash":"","blockHeight":"0","blockTime":"2022-11-08T02:25:39.000Z","createdTime":"2022-11-08T02:25:39.000Z","description":"Custom Excution","estimatedFee":"672280","fee":"0","hash":"","id":"1589806322164412417","networkCode":"DOGE","requiredSignings":[{"hash":"9711978f0028c8afd95bb9d732c86445646556229501998b09e07762eec007c6","publicKeys":["030880a72c683a2507eb41e304419eb548f2d32bf6ad6f323b4d7c86c51052fcda"],"threshold":1},{"hash":"b0389ddd155888198d8df61d3185b95c79ade8b97f8b848b31d0ac26537f589d","publicKeys":["030880a72c683a2507eb41e304419eb548f2d32bf6ad6f323b4d7c86c51052fcda"],"threshold":1}],"serialized":"01000000026887005dffdeeeffa894653babdb64522adbd440dcfbe3adaa9a7c476b97e14b0100000000ffffffff9c3520fd3389c472003ebf782af95c9663c57eadbec93d4ccffdc76230ecc0270000000000ffffffff0280d4870f000000001976a9147fc0989f60a3c46e3d3a75b315feb27907d81bb688ac1078ff090000000017a914f85c04f98cf5dfb81eec7e183bf39a4c0d542e058700000000","status":"BUILDING","updatedTime":"2022-11-08T02:25:39.000Z"}]},"body":{"symbol":"DOGE","amount":"2.6056","from":"AF5UUawSaatGJTYZd65RCBp4D6aSXxEvjm","to":"DGnb5SNRnEyAx9xNuHGxbiY4ysHPsxegP9"},"createdTime":"2022-11-08T02:25:39.000Z","id":"1589806323250737153","networkCode":"DOGE","status":-2,"transactionParams":{"memo":"8izCYHevpT"},"type":"TRANSFER","updatedTime":"2022-11-08T02:25:39.000Z"}
[32mINFO    [0m Common.Http:Http.py:474 2022-11-08 10:25:37.159 | 
<-----Sign----->
Url:https://api.cryptoless.net/vault/transactions/1589806322164412417/signatures

Headers:{"Content-Type": "application/json", "Authorization": "eyJ0eXAiOiJKV1QiLCJhbGciOiJIUzI1NiJ9.eyJhdWQiOiIxNTgzMDE5OTU1NTMwODk1MzYxIiwiZXhwIjoxNjY4NDA2MDg4LCJpYXQiOjE2Njc4MDEyODgsInVzZXJJZCI6MTU4MzAxOTk1NTUzMDg5NTM2MX0.t8TZeGPZfNhs1U3syLsqgadq1-RKf_GU2nGWQWoWW9w"}

Body:{"signatures": [{"hash": "9711978f0028c8afd95bb9d732c86445646556229501998b09e07762eec007c6", "publicKey": "030880a72c683a2507eb41e304419eb548f2d32bf6ad6f323b4d7c86c51052fcda", "signature": "fe6186de53a9e7619ec207a1b2a68ba19e449e959ae3aae5164eec1d492b6aef67856688516ae1fc75fb06186584930b88e88b894445b2da175c9dabd527d65b01"}, {"hash": "b0389ddd155888198d8df61d3185b95c79ade8b97f8b848b31d0ac26537f589d", "publicKey": "030880a72c683a2507eb41e304419eb548f2d32bf6ad6f323b4d7c86c51052fcda", "signature": "bdd9864dbd5e6a0fc0de6e08e9e39df140ca9f9d1df0b675d7a45947cf7a9f394b805ae46ee8f124a0c625d3c78eb93c03c0161b81b363f3860bfb1258a63f3800"}], "serialized": "01000000026887005dffdeeeffa894653babdb64522adbd440dcfbe3adaa9a7c476b97e14b0100000000ffffffff9c3520fd3389c472003ebf782af95c9663c57eadbec93d4ccffdc76230ecc0270000000000ffffffff0280d4870f000000001976a9147fc0989f60a3c46e3d3a75b315feb27907d81bb688ac1078ff090000000017a914f85c04f98cf5dfb81eec7e183bf39a4c0d542e058700000000"}
[32mINFO    [0m Common.Http:Http.py:478 2022-11-08 10:25:37.159 | 
<-----Sign Response----->
{"balanceChanges":[],"blockHash":"","blockHeight":"0","blockTime":"1970-01-01T00:00:00.000Z","createdTime":"2022-11-08T02:25:39.000Z","description":"Custom Excution","estimatedFee":"672280","fee":"0","hash":"c3761417967c902669040382c9737b26b6b1191ddb29009604ebdf7b08cc287b","id":"1589806322164412417","networkCode":"DOGE","serialized":"01000000026887005dffdeeeffa894653babdb64522adbd440dcfbe3adaa9a7c476b97e14b01000000db004830450221009a10c6ba2fa2d3d6d96c81f2ea4109361ef82b5f1020de403ead521596b4fe15022016af14d3380bd06f0af60efa9532feb30e10ff53a6d5b64f7068eabeece908d201483045022100fe6186de53a9e7619ec207a1b2a68ba19e449e959ae3aae5164eec1d492b6aef022067856688516ae1fc75fb06186584930b88e88b894445b2da175c9dabd527d65b014752210297caf9339977406957b532b9f21c5f53cbc6100bc89b827c2aa3a1f854dd6a7221030880a72c683a2507eb41e304419eb548f2d32bf6ad6f323b4d7c86c51052fcda52aeffffffff9c3520fd3389c472003ebf782af95c9663c57eadbec93d4ccffdc76230ecc02700000000da0047304402200fdcc83972d08063327975d48c9b57791ac85d9e8a055383f50727fe27774ab102200804aeacb02766d4e91d840db428f918b65927c05f61df9b499c89b8234fa25f01483045022100bdd9864dbd5e6a0fc0de6e08e9e39df140ca9f9d1df0b675d7a45947cf7a9f3902204b805ae46ee8f124a0c625d3c78eb93c03c0161b81b363f3860bfb1258a63f38014752210297caf9339977406957b532b9f21c5f53cbc6100bc89b827c2aa3a1f854dd6a7221030880a72c683a2507eb41e304419eb548f2d32bf6ad6f323b4d7c86c51052fcda52aeffffffff0280d4870f000000001976a9147fc0989f60a3c46e3d3a75b315feb27907d81bb688ac1078ff090000000017a914f85c04f98cf5dfb81eec7e183bf39a4c0d542e058700000000","status":"SIGNED","updatedTime":"2022-11-08T02:25:41.560Z"}
[32mINFO    [0m Common.Http:Http.py:493 2022-11-08 10:25:37.159 | 
<-----Send----->
Url:https://api.cryptoless.net/vault/transactions/1589806322164412417

Headers:{"Content-Type": "application/json", "Authorization": "eyJ0eXAiOiJKV1QiLCJhbGciOiJIUzI1NiJ9.eyJhdWQiOiIxNTgzMDE5OTU1NTMwODk1MzYxIiwiZXhwIjoxNjY4NDA2MDg4LCJpYXQiOjE2Njc4MDEyODgsInVzZXJJZCI6MTU4MzAxOTk1NTUzMDg5NTM2MX0.t8TZeGPZfNhs1U3syLsqgadq1-RKf_GU2nGWQWoWW9w"}


[32mINFO    [0m Common.Http:Http.py:497 2022-11-08 10:25:37.159 | 
<-----Send Response----->
{"balanceChanges":[],"blockHash":"","blockHeight":"0","blockTime":"2022-11-08T02:25:42.026Z","createdTime":"2022-11-08T02:25:39.000Z","description":"Custom Excution","estimatedFee":"672280","fee":"0","hash":"c3761417967c902669040382c9737b26b6b1191ddb29009604ebdf7b08cc287b","id":"1589806322164412417","networkCode":"DOGE","serialized":"01000000026887005dffdeeeffa894653babdb64522adbd440dcfbe3adaa9a7c476b97e14b01000000db004830450221009a10c6ba2fa2d3d6d96c81f2ea4109361ef82b5f1020de403ead521596b4fe15022016af14d3380bd06f0af60efa9532feb30e10ff53a6d5b64f7068eabeece908d201483045022100fe6186de53a9e7619ec207a1b2a68ba19e449e959ae3aae5164eec1d492b6aef022067856688516ae1fc75fb06186584930b88e88b894445b2da175c9dabd527d65b014752210297caf9339977406957b532b9f21c5f53cbc6100bc89b827c2aa3a1f854dd6a7221030880a72c683a2507eb41e304419eb548f2d32bf6ad6f323b4d7c86c51052fcda52aeffffffff9c3520fd3389c472003ebf782af95c9663c57eadbec93d4ccffdc76230ecc02700000000da0047304402200fdcc83972d08063327975d48c9b57791ac85d9e8a055383f50727fe27774ab102200804aeacb02766d4e91d840db428f918b65927c05f61df9b499c89b8234fa25f01483045022100bdd9864dbd5e6a0fc0de6e08e9e39df140ca9f9d1df0b675d7a45947cf7a9f3902204b805ae46ee8f124a0c625d3c78eb93c03c0161b81b363f3860bfb1258a63f38014752210297caf9339977406957b532b9f21c5f53cbc6100bc89b827c2aa3a1f854dd6a7221030880a72c683a2507eb41e304419eb548f2d32bf6ad6f323b4d7c86c51052fcda52aeffffffff0280d4870f000000001976a9147fc0989f60a3c46e3d3a75b315feb27907d81bb688ac1078ff090000000017a914f85c04f98cf5dfb81eec7e183bf39a4c0d542e058700000000","status":"PENDING","updatedTime":"2022-11-08T02:25:42.026Z"}