[32mINFO    [0m Common.Httpcore:Httpcore.py:220 2022-12-07 16:19:58.320075 | 
<-----Relay estimate----->
Url:http://16.163.105.179:18000/api/v2/safes/0x6490C1b13A4576128159576F9d3acadF79e8dd6f/transactions/estimate/

Headers:{"Content-Type": "application/json"}

Body:{"gasToken": "0x0000000000000000000000000000000000000000", "operation": "0", "safe": "0x6490C1b13A4576128159576F9d3acadF79e8dd6f", "to": "0x6490C1b13A4576128159576F9d3acadF79e8dd6f", "data": "0x", "value": "100"}
[32mINFO    [0m Common.Httpcore:Httpcore.py:223 2022-12-07 16:19:58.320075 | 
<-----Relay estimate Response----->
{"safeTxGas":"45006","baseGas":"54900","dataGas":"54900","operationalGas":"0","gasPrice":"189090798086","lastUsedNonce":24,"gasToken":"0x0000000000000000000000000000000000000000","refundReceiver":"0xbA7024EE0273C30a479838DA4Ad31718436b453e"}
[32mINFO    [0m Common.Httpcore:Httpcore.py:132 2022-12-07 16:19:58.320075 | 
<-----Core Build------>
Url:http://54.251.78.181:8888/core/api/transactions

Headers:{"Content-Type": "application/json", "Authorization": "eyJib2R5IjoiV2ViMyBUb2tlbiBWZXJzaW9uOiAyXG5Ob25jZTogMTU4NTEwMjc5MTQ2NjQ4NzgxMFxuSXNzdWVkIEF0OiBXZWQsIDI2IE9jdCAyMDIyIDAyOjU1OjI5IEdNVFxuRXhwaXJhdGlvbiBUaW1lOiBTYXQsIDIzIE9jdCAyMDMyIDAyOjU1OjI5IEdNVCIsInNpZ25hdHVyZSI6IjB4OTE1NWMyOGM3NjVjZjk1YTBjNjdiZGNhYzExNzIwYTRkNDQ4NDc4YmU5ZDZhNjE3ZWQzNDUzZDU3MDgzZjNjZTA2N2Q5OGUwMGI0YTVhMmJmOTlkY2I5Y2VmNzg5Yjc4OWViNzI5OTk4YzgxYWQzOWFhMTUzZTcxM2Q4M2FhYWUxYiJ9"}

body:{"networkCode": "MATIC", "payload": {"from": "0x10f564F105Ba1DeC06087FE09329959dbD6b862D", "inputRequest": {"to": "0x6490C1b13A4576128159576F9d3acadF79e8dd6f", "value": "0x64"}, "safeInputRequest": {"contract": "0x6490C1b13A4576128159576F9d3acadF79e8dd6f", "participants": ["0244fb46bba2e912f26a73126b89742ed7f521f593ee084953ae008172553a0113", "03c420167aaf4fc7106646b2fe485519e5569ceb1584ae31d62537e349a4e4b5a9"], "refundReceiver": "0x10f564F105Ba1DeC06087FE09329959dbD6b862D", "gasToken": "0x0000000000000000000000000000000000000000", "baseGas": "54900", "safeTxGas": "45006", "gasPrice": "189090798086", "to": "0x2791Bca1f2de4661ED88A30C99A7a9449Aa84174"}}, "type": "SAFE_TOKEN_TRANSFER_TRANSACTION"}


[32mINFO    [0m Common.Httpcore:Httpcore.py:135 2022-12-07 16:19:58.320075 | 
<-----Core Build Response---->
{"balanceChanges":[],"blockTime":"1970-01-01T00:00:00.000Z","createdTime":"2022-12-07T08:20:05.530Z","description":"Custom Excution","estimatedFee":"","hash":"","id":"1600404766583922689","networkCode":"MATIC","requiredSignings":[{"hash":"163da151ee962005b5a20f0fc53395784615d6eb44877f2ea5fbca55c9700a6b","publicKeys":["0244fb46bba2e912f26a73126b89742ed7f521f593ee084953ae008172553a0113","03c420167aaf4fc7106646b2fe485519e5569ceb1584ae31d62537e349a4e4b5a9"],"threshold":2}],"serialized":"6a7612020000000000000000000000002791bca1f2de4661ed88a30c99a7a9449aa84174000000000000000000000000000000000000000000000000000000000000000000000000000000000000000000000000000000000000000000000000000001400000000000000000000000000000000000000000000000000000000000000000000000000000000000000000000000000000000000000000000000000000afce000000000000000000000000000000000000000000000000000000000000d6740000000000000000000000000000000000000000000000000000002c06b09a06000000000000000000000000000000000000000000000000000000000000000000000000000000000000000010f564f105ba1dec06087fe09329959dbd6b862d00000000000000000000000000000000000000000000000000000000000001c00000000000000000000000000000000000000000000000000000000000000044a9059cbb0000000000000000000000006490c1b13a4576128159576f9d3acadf79e8dd6f0000000000000000000000000000000000000000000000000000000000000064000000000000000000000000000000000000000000000000000000000000000000000000000000000000000000000000000000000000000000000000","status":0,"statusDesc":"BUILDING","updatedTime":"2022-12-07T08:20:05.530Z"}
[32mINFO    [0m Common.Httpcore:Httpcore.py:174 2022-12-07 16:19:58.320075 | 
<-----Core Sign------>
Url:http://54.251.78.181:8888/core/api/transactions/signatures

Headers:{"Content-Type": "application/json", "Authorization": "eyJib2R5IjoiV2ViMyBUb2tlbiBWZXJzaW9uOiAyXG5Ob25jZTogMTU4NTEwMjc5MTQ2NjQ4NzgxMFxuSXNzdWVkIEF0OiBXZWQsIDI2IE9jdCAyMDIyIDAyOjU1OjI5IEdNVFxuRXhwaXJhdGlvbiBUaW1lOiBTYXQsIDIzIE9jdCAyMDMyIDAyOjU1OjI5IEdNVCIsInNpZ25hdHVyZSI6IjB4OTE1NWMyOGM3NjVjZjk1YTBjNjdiZGNhYzExNzIwYTRkNDQ4NDc4YmU5ZDZhNjE3ZWQzNDUzZDU3MDgzZjNjZTA2N2Q5OGUwMGI0YTVhMmJmOTlkY2I5Y2VmNzg5Yjc4OWViNzI5OTk4YzgxYWQzOWFhMTUzZTcxM2Q4M2FhYWUxYiJ9"}

body:{"id": "1600404766583922689", "signatures": [{"hash": "163da151ee962005b5a20f0fc53395784615d6eb44877f2ea5fbca55c9700a6b", "publicKey": "0244fb46bba2e912f26a73126b89742ed7f521f593ee084953ae008172553a0113", "signature": "cb0f12926d781fad2cedbbad12543cdb832b578178997fd0b48316f9bad9d162715676deb376abefa976b4b76d86b74069fb231d21a912518020203c3aa7ed2700"}, {"hash": "163da151ee962005b5a20f0fc53395784615d6eb44877f2ea5fbca55c9700a6b", "publicKey": "03c420167aaf4fc7106646b2fe485519e5569ceb1584ae31d62537e349a4e4b5a9", "signature": "e1ff24314dedf600db7a0913cecda1036dd55858597045a32074b18088aba41120feb7c67979e3e9d34fdc0275543f0e7b03b66c493d1028f971f1f1c6f7b7be01"}]}


[32mINFO    [0m Common.Httpcore:Httpcore.py:177 2022-12-07 16:19:58.320075 | 
<-----Core Sign Response---->
{"balanceChanges":[],"blockHash":"","blockHeight":"0","blockTime":"1970-01-01T00:00:00.000Z","createdTime":"2022-12-07T08:20:06.000Z","description":"Contract Execution","estimatedFee":"3498823963888992","fee":"-1","hash":"","id":"1600404766583922689","networkCode":"MATIC","requiredSignings":[{"hash":"3847743e539f96d03444b2c5e1c83c9a1b9d925a5a4391154cff22ba6270bb75","threshold":1}],"serialized":"02f902b5818981ad85072cb2f66c85124bca90768301bb88946490c1b13a4576128159576f9d3acadf79e8dd6f80b902846a7612020000000000000000000000002791bca1f2de4661ed88a30c99a7a9449aa84174000000000000000000000000000000000000000000000000000000000000000000000000000000000000000000000000000000000000000000000000000001400000000000000000000000000000000000000000000000000000000000000000000000000000000000000000000000000000000000000000000000000000afce000000000000000000000000000000000000000000000000000000000000d6740000000000000000000000000000000000000000000000000000002c06b09a06000000000000000000000000000000000000000000000000000000000000000000000000000000000000000010f564f105ba1dec06087fe09329959dbd6b862d00000000000000000000000000000000000000000000000000000000000001c00000000000000000000000000000000000000000000000000000000000000044a9059cbb0000000000000000000000006490c1b13a4576128159576f9d3acadf79e8dd6f0000000000000000000000000000000000000000000000000000000000000064000000000000000000000000000000000000000000000000000000000000000000000000000000000000000000000000000000000000000000000082e1ff24314dedf600db7a0913cecda1036dd55858597045a32074b18088aba41120feb7c67979e3e9d34fdc0275543f0e7b03b66c493d1028f971f1f1c6f7b7be1ccb0f12926d781fad2cedbbad12543cdb832b578178997fd0b48316f9bad9d162715676deb376abefa976b4b76d86b74069fb231d21a912518020203c3aa7ed271b000000000000000000000000000000000000000000000000000000000000c0808080","status":0,"statusDesc":"BUILDING","updatedTime":"2022-12-07T08:20:08.131Z"}
[32mINFO    [0m Common.Httpcore:Httpcore.py:174 2022-12-07 16:19:58.320075 | 
<-----Core Sign------>
Url:http://54.251.78.181:8888/core/api/transactions/signatures

Headers:{"Content-Type": "application/json", "Authorization": "eyJib2R5IjoiV2ViMyBUb2tlbiBWZXJzaW9uOiAyXG5Ob25jZTogMTU4NTEwMjc5MTQ2NjQ4NzgxMFxuSXNzdWVkIEF0OiBXZWQsIDI2IE9jdCAyMDIyIDAyOjU1OjI5IEdNVFxuRXhwaXJhdGlvbiBUaW1lOiBTYXQsIDIzIE9jdCAyMDMyIDAyOjU1OjI5IEdNVCIsInNpZ25hdHVyZSI6IjB4OTE1NWMyOGM3NjVjZjk1YTBjNjdiZGNhYzExNzIwYTRkNDQ4NDc4YmU5ZDZhNjE3ZWQzNDUzZDU3MDgzZjNjZTA2N2Q5OGUwMGI0YTVhMmJmOTlkY2I5Y2VmNzg5Yjc4OWViNzI5OTk4YzgxYWQzOWFhMTUzZTcxM2Q4M2FhYWUxYiJ9"}

body:{"id": "1600404766583922689", "signatures": [{"hash": "3847743e539f96d03444b2c5e1c83c9a1b9d925a5a4391154cff22ba6270bb75", "publicKey": "025c380e0b51894f3593a803fa38c79b4ac004f27c1d8ebd5567828a6d1634654e", "signature": "9b95ff3aa3489840ee781bb8e92750de9878d8e36ecaa6d3d3c9804feb489a656deed633cf72aa7e2f7d313befa3efc9f358bf35fd10a038df1eaca8f9f4165301"}]}


[32mINFO    [0m Common.Httpcore:Httpcore.py:177 2022-12-07 16:19:58.320075 | 
<-----Core Sign Response---->
{"balanceChanges":[],"blockHash":"","blockHeight":"0","blockTime":"1970-01-01T00:00:00.000Z","createdTime":"2022-12-07T08:20:06.000Z","description":"Contract Execution","estimatedFee":"3498823963888992","fee":"-1","hash":"0x379152364b6a0b69cc44c9eae89bde458f7ceb1353cfb421af4d6207be833cfd","id":"1600404766583922689","networkCode":"MATIC","serialized":"02f902f5818981ad85072cb2f66c85124bca90768301bb88946490c1b13a4576128159576f9d3acadf79e8dd6f80b902846a7612020000000000000000000000002791bca1f2de4661ed88a30c99a7a9449aa84174000000000000000000000000000000000000000000000000000000000000000000000000000000000000000000000000000000000000000000000000000001400000000000000000000000000000000000000000000000000000000000000000000000000000000000000000000000000000000000000000000000000000afce000000000000000000000000000000000000000000000000000000000000d6740000000000000000000000000000000000000000000000000000002c06b09a06000000000000000000000000000000000000000000000000000000000000000000000000000000000000000010f564f105ba1dec06087fe09329959dbd6b862d00000000000000000000000000000000000000000000000000000000000001c00000000000000000000000000000000000000000000000000000000000000044a9059cbb0000000000000000000000006490c1b13a4576128159576f9d3acadf79e8dd6f0000000000000000000000000000000000000000000000000000000000000064000000000000000000000000000000000000000000000000000000000000000000000000000000000000000000000000000000000000000000000082e1ff24314dedf600db7a0913cecda1036dd55858597045a32074b18088aba41120feb7c67979e3e9d34fdc0275543f0e7b03b66c493d1028f971f1f1c6f7b7be1ccb0f12926d781fad2cedbbad12543cdb832b578178997fd0b48316f9bad9d162715676deb376abefa976b4b76d86b74069fb231d21a912518020203c3aa7ed271b000000000000000000000000000000000000000000000000000000000000c001a09b95ff3aa3489840ee781bb8e92750de9878d8e36ecaa6d3d3c9804feb489a65a06deed633cf72aa7e2f7d313befa3efc9f358bf35fd10a038df1eaca8f9f41653","status":2,"statusDesc":"SIGNED","updatedTime":"2022-12-07T08:20:08.419Z"}
[32mINFO    [0m Common.Httpcore:Httpcore.py:193 2022-12-07 16:19:58.320075 | 
<-----Core Send------>
Url:http://54.251.78.181:8888/core/api/transactions/send/1600404766583922689

Headers:{"Content-Type": "application/json", "Authorization": "eyJib2R5IjoiV2ViMyBUb2tlbiBWZXJzaW9uOiAyXG5Ob25jZTogMTU4NTEwMjc5MTQ2NjQ4NzgxMFxuSXNzdWVkIEF0OiBXZWQsIDI2IE9jdCAyMDIyIDAyOjU1OjI5IEdNVFxuRXhwaXJhdGlvbiBUaW1lOiBTYXQsIDIzIE9jdCAyMDMyIDAyOjU1OjI5IEdNVCIsInNpZ25hdHVyZSI6IjB4OTE1NWMyOGM3NjVjZjk1YTBjNjdiZGNhYzExNzIwYTRkNDQ4NDc4YmU5ZDZhNjE3ZWQzNDUzZDU3MDgzZjNjZTA2N2Q5OGUwMGI0YTVhMmJmOTlkY2I5Y2VmNzg5Yjc4OWViNzI5OTk4YzgxYWQzOWFhMTUzZTcxM2Q4M2FhYWUxYiJ9"}


[32mINFO    [0m Common.Httpcore:Httpcore.py:196 2022-12-07 16:19:58.320075 | 
<-----Core Send Response---->
{"balanceChanges":[],"blockHash":"","blockHeight":"0","blockTime":"2022-12-07T08:20:08.966Z","createdTime":"2022-12-07T08:20:06.000Z","description":"Contract Execution","estimatedFee":"3498823963888992","fee":"-1","hash":"0x379152364b6a0b69cc44c9eae89bde458f7ceb1353cfb421af4d6207be833cfd","id":"1600404766583922689","networkCode":"MATIC","serialized":"02f902f5818981ad85072cb2f66c85124bca90768301bb88946490c1b13a4576128159576f9d3acadf79e8dd6f80b902846a7612020000000000000000000000002791bca1f2de4661ed88a30c99a7a9449aa84174000000000000000000000000000000000000000000000000000000000000000000000000000000000000000000000000000000000000000000000000000001400000000000000000000000000000000000000000000000000000000000000000000000000000000000000000000000000000000000000000000000000000afce000000000000000000000000000000000000000000000000000000000000d6740000000000000000000000000000000000000000000000000000002c06b09a06000000000000000000000000000000000000000000000000000000000000000000000000000000000000000010f564f105ba1dec06087fe09329959dbd6b862d00000000000000000000000000000000000000000000000000000000000001c00000000000000000000000000000000000000000000000000000000000000044a9059cbb0000000000000000000000006490c1b13a4576128159576f9d3acadf79e8dd6f0000000000000000000000000000000000000000000000000000000000000064000000000000000000000000000000000000000000000000000000000000000000000000000000000000000000000000000000000000000000000082e1ff24314dedf600db7a0913cecda1036dd55858597045a32074b18088aba41120feb7c67979e3e9d34fdc0275543f0e7b03b66c493d1028f971f1f1c6f7b7be1ccb0f12926d781fad2cedbbad12543cdb832b578178997fd0b48316f9bad9d162715676deb376abefa976b4b76d86b74069fb231d21a912518020203c3aa7ed271b000000000000000000000000000000000000000000000000000000000000c001a09b95ff3aa3489840ee781bb8e92750de9878d8e36ecaa6d3d3c9804feb489a65a06deed633cf72aa7e2f7d313befa3efc9f358bf35fd10a038df1eaca8f9f41653","status":3,"statusDesc":"PENDING","updatedTime":"2022-12-07T08:20:08.966Z"}