[32mINFO    [0m Common.Httpcore:Httpcore.py:224 2022-12-06 11:16:41.962537 | 
<-----Query UTXO----->
Url:https://api.bitcore.io/api/BTC/testnet/address/tb1qhcuul2fcyv5rvr5mc5cy5saz0q5p3kx0gsy3c0?unspent=true

Headers:{"Content-Type": "application/json"}


[32mINFO    [0m Common.Httpcore:Httpcore.py:227 2022-12-06 11:16:41.962537 | 
<-----Query UTXO Response----->
[
{"_id":"638db593d3bfc9e8e1237ad8","chain":"BTC","network":"testnet","coinbase":false,"mintIndex":3,"spentTxid":"","mintTxid":"c4c4febd3b97a053722d902f99349348a9551b2bbcd52ef69802b2cde83f1ac8","mintHeight":2409882,"spentHeight":-2,"address":"tb1qhcuul2fcyv5rvr5mc5cy5saz0q5p3kx0gsy3c0","script":"0014be39cfa9382328360e9bc5304a43a2782818d8cf","value":894895,"confirmations":-1}
]
[32mINFO    [0m Common.Httpcore:Httpcore.py:132 2022-12-06 11:16:41.962537 | 
<-----Core Build------>
Url:http://54.251.78.181:8888/core/api/transactions

Headers:{"Content-Type": "application/json", "Authorization": "eyJib2R5IjoiV2ViMyBUb2tlbiBWZXJzaW9uOiAyXG5Ob25jZTogMTU4NTEwMjc5MTQ2NjQ4NzgxMFxuSXNzdWVkIEF0OiBXZWQsIDI2IE9jdCAyMDIyIDAyOjU1OjI5IEdNVFxuRXhwaXJhdGlvbiBUaW1lOiBTYXQsIDIzIE9jdCAyMDMyIDAyOjU1OjI5IEdNVCIsInNpZ25hdHVyZSI6IjB4OTE1NWMyOGM3NjVjZjk1YTBjNjdiZGNhYzExNzIwYTRkNDQ4NDc4YmU5ZDZhNjE3ZWQzNDUzZDU3MDgzZjNjZTA2N2Q5OGUwMGI0YTVhMmJmOTlkY2I5Y2VmNzg5Yjc4OWViNzI5OTk4YzgxYWQzOWFhMTUzZTcxM2Q4M2FhYWUxYiJ9"}

body:{"networkCode": "BTC", "payload": {"changer": "tb1qhcuul2fcyv5rvr5mc5cy5saz0q5p3kx0gsy3c0", "recipients": [{"address": "tb1q0558s53xchyghw34tqm4x8t2n8swf666nvhffq", "value": "100"}, {"address": "tb1qn0qrq4zfxjc89c773s6k86faym3ugpcje9eras", "value": "200"}, {"address": "tb1qk50y4995th8tffhc90tz7533lygzwz57zxmhtj", "value": "300"}], "utxos": [{"amount": 894895, "scriptPubKey": "0014be39cfa9382328360e9bc5304a43a2782818d8cf", "signers": ["02e8852463021b47fe5214c599e87e431f2eb1219044946bbff397afd0518b85a6"], "txid": "c4c4febd3b97a053722d902f99349348a9551b2bbcd52ef69802b2cde83f1ac8", "vout": 3}]}, "type": "TRANSACTION"}


[32mINFO    [0m Common.Httpcore:Httpcore.py:135 2022-12-06 11:16:41.962537 | 
<-----Core Build Response---->
{"balanceChanges":[],"blockTime":"1970-01-01T00:00:00.000Z","createdTime":"2022-12-06T03:16:47.837Z","description":"Custom Excution","estimatedFee":"255","hash":"","id":"1599966053533958146","networkCode":"BTC","requiredSignings":[{"hash":"6644df7f09f8aa4a6bde5b9ee2e1c79f02e3dcfb08d8832dd5c44d1c44c603b4","publicKeys":["02e8852463021b47fe5214c599e87e431f2eb1219044946bbff397afd0518b85a6"],"threshold":1}],"serialized":"0100000001c81a3fe8cdb20298f62ed5bc2b1b55a9489334992f902d7253a0973bbdfec4c40300000000ffffffff0464000000000000001600147d28785226c5c88bba355837531d6a99e0e4eb5ac8000000000000001600149bc030544934b072e3de8c3563e93d26e3c407122c01000000000000160014b51e4a94b45dceb4a6f82bd62f5231f910270a9e58a40d0000000000160014be39cfa9382328360e9bc5304a43a2782818d8cf00000000","status":0,"statusDesc":"BUILDING","updatedTime":"2022-12-06T03:16:47.837Z"}
[32mINFO    [0m Common.Httpcore:Httpcore.py:155 2022-12-06 11:16:41.962537 | 
<-----Core Sign------>
Url:http://54.251.78.181:8888/core/api/transactions/signatures

Headers:{"Content-Type": "application/json", "Authorization": "eyJib2R5IjoiV2ViMyBUb2tlbiBWZXJzaW9uOiAyXG5Ob25jZTogMTU4NTEwMjc5MTQ2NjQ4NzgxMFxuSXNzdWVkIEF0OiBXZWQsIDI2IE9jdCAyMDIyIDAyOjU1OjI5IEdNVFxuRXhwaXJhdGlvbiBUaW1lOiBTYXQsIDIzIE9jdCAyMDMyIDAyOjU1OjI5IEdNVCIsInNpZ25hdHVyZSI6IjB4OTE1NWMyOGM3NjVjZjk1YTBjNjdiZGNhYzExNzIwYTRkNDQ4NDc4YmU5ZDZhNjE3ZWQzNDUzZDU3MDgzZjNjZTA2N2Q5OGUwMGI0YTVhMmJmOTlkY2I5Y2VmNzg5Yjc4OWViNzI5OTk4YzgxYWQzOWFhMTUzZTcxM2Q4M2FhYWUxYiJ9"}

body:{"id": "1599966053533958146", "signatures": [{"hash": "6644df7f09f8aa4a6bde5b9ee2e1c79f02e3dcfb08d8832dd5c44d1c44c603b4", "publicKey": "02e8852463021b47fe5214c599e87e431f2eb1219044946bbff397afd0518b85a6", "signature": "94b57f4c3d7474434eddb28f73205ae28e79ec1181dac443a43cc0f9f7e5de9b35d026ccd27f7e1fa35b13a38c9e2cee3640a9ad6e84b5d8dece4dd849d1363f00"}]}


[32mINFO    [0m Common.Httpcore:Httpcore.py:158 2022-12-06 11:16:41.962537 | 
<-----Core Sign Response---->
{"balanceChanges":[],"blockHash":"","blockHeight":"0","blockTime":"1970-01-01T00:00:00.000Z","createdTime":"2022-12-06T03:16:48.000Z","description":"Custom Excution","estimatedFee":"255","fee":"-1","hash":"671307ed44377432f47e8250d506a903a7498634bf1b5392a103c81246d69e61","id":"1599966053533958146","networkCode":"BTC","serialized":"01000000000101c81a3fe8cdb20298f62ed5bc2b1b55a9489334992f902d7253a0973bbdfec4c40300000000ffffffff0464000000000000001600147d28785226c5c88bba355837531d6a99e0e4eb5ac8000000000000001600149bc030544934b072e3de8c3563e93d26e3c407122c01000000000000160014b51e4a94b45dceb4a6f82bd62f5231f910270a9e58a40d0000000000160014be39cfa9382328360e9bc5304a43a2782818d8cf0248304502210094b57f4c3d7474434eddb28f73205ae28e79ec1181dac443a43cc0f9f7e5de9b022035d026ccd27f7e1fa35b13a38c9e2cee3640a9ad6e84b5d8dece4dd849d1363f012102e8852463021b47fe5214c599e87e431f2eb1219044946bbff397afd0518b85a600000000","status":2,"statusDesc":"SIGNED","updatedTime":"2022-12-06T03:16:48.132Z"}
[32mINFO    [0m Common.Httpcore:Httpcore.py:174 2022-12-06 11:16:41.962537 | 
<-----Core Send------>
Url:http://54.251.78.181:8888/core/api/transactions/send/1599966053533958146

Headers:{"Content-Type": "application/json", "Authorization": "eyJib2R5IjoiV2ViMyBUb2tlbiBWZXJzaW9uOiAyXG5Ob25jZTogMTU4NTEwMjc5MTQ2NjQ4NzgxMFxuSXNzdWVkIEF0OiBXZWQsIDI2IE9jdCAyMDIyIDAyOjU1OjI5IEdNVFxuRXhwaXJhdGlvbiBUaW1lOiBTYXQsIDIzIE9jdCAyMDMyIDAyOjU1OjI5IEdNVCIsInNpZ25hdHVyZSI6IjB4OTE1NWMyOGM3NjVjZjk1YTBjNjdiZGNhYzExNzIwYTRkNDQ4NDc4YmU5ZDZhNjE3ZWQzNDUzZDU3MDgzZjNjZTA2N2Q5OGUwMGI0YTVhMmJmOTlkY2I5Y2VmNzg5Yjc4OWViNzI5OTk4YzgxYWQzOWFhMTUzZTcxM2Q4M2FhYWUxYiJ9"}


[32mINFO    [0m Common.Httpcore:Httpcore.py:177 2022-12-06 11:16:41.962537 | 
<-----Core Send Response---->
{"balanceChanges":[],"blockHash":"","blockHeight":"0","blockTime":"2022-12-06T03:16:48.372Z","createdTime":"2022-12-06T03:16:48.000Z","description":"Custom Excution","estimatedFee":"255","fee":"-1","hash":"671307ed44377432f47e8250d506a903a7498634bf1b5392a103c81246d69e61","id":"1599966053533958146","networkCode":"BTC","serialized":"01000000000101c81a3fe8cdb20298f62ed5bc2b1b55a9489334992f902d7253a0973bbdfec4c40300000000ffffffff0464000000000000001600147d28785226c5c88bba355837531d6a99e0e4eb5ac8000000000000001600149bc030544934b072e3de8c3563e93d26e3c407122c01000000000000160014b51e4a94b45dceb4a6f82bd62f5231f910270a9e58a40d0000000000160014be39cfa9382328360e9bc5304a43a2782818d8cf0248304502210094b57f4c3d7474434eddb28f73205ae28e79ec1181dac443a43cc0f9f7e5de9b022035d026ccd27f7e1fa35b13a38c9e2cee3640a9ad6e84b5d8dece4dd849d1363f012102e8852463021b47fe5214c599e87e431f2eb1219044946bbff397afd0518b85a600000000","status":3,"statusDesc":"PENDING","updatedTime":"2022-12-06T03:16:48.372Z"}