[32mINFO    [0m Common.Httpcore:Httpcore.py:340 2022-12-19 15:05:23.352763 | 
<-----Query UTXO----->
Url:https://api.bitcore.io/api/BTC/testnet/address/tb1q4t8jtp4fwjg4spfjh7ux5ckhrallj652kwrj48gcvd0rt5g9ea3q4vlm33?unspent=true

Headers:{"Content-Type": "application/json"}


[32mINFO    [0m Common.Httpcore:Httpcore.py:343 2022-12-19 15:05:23.352763 | 
<-----Query UTXO Response----->
[
{"_id":"639a8963d3bfc9e8e17fe774","chain":"BTC","network":"testnet","coinbase":false,"mintIndex":1,"spentTxid":"","mintTxid":"7093a2184e4c6ffef0b705d32733a413383912063fd32f2463f1b1647d81502a","mintHeight":2411310,"spentHeight":-2,"address":"tb1q4t8jtp4fwjg4spfjh7ux5ckhrallj652kwrj48gcvd0rt5g9ea3q4vlm33","script":"0020aacf2586a97491580532bfb86a62d71f7ff96a8ab3872a9d18635e35d105cf62","value":98454,"confirmations":-1}
]
[32mINFO    [0m Common.Httpcore:Httpcore.py:172 2022-12-19 15:05:23.352763 | 
<-----Core Build------>
Url:https://api.dhandho.xyz/transactions

Headers:{"Content-Type": "application/json", "Authorization": "eyJib2R5IjoiV2ViMyBUb2tlbiBWZXJzaW9uOiAyXG5Ob25jZTogMTYwMTA0MzkzMDI4NzQxMTIwMlxuSXNzdWVkIEF0OiBGcmksIDkgRGVjIDIwMjIgMDI6Mzk6NTMgR01UXG5FeHBpcmF0aW9uIFRpbWU6IE1vbiwgNiBEZWMgMjAzMiAwMjozOTo1MyBHTVQiLCJzaWduYXR1cmUiOiIweGU1OWE1Nzk4OGNhZWU4NmFmYzA3NzlhOTE4MDA5MDRmNjc3NmUxZGMxYTc5NGE2MjllY2Y5YmI0ZjAyZDllYjcwZDBiMGZiNDAxNjQ4NTc5ZTFiZDkzMmU2NmU0NjdjMzFkMDlmOGNjM2EwOGVjN2U1NGY2ZTJhNTM5ZWVjNTA5MWMifQ=="}

body:{"networkCode": "BTC", "payload": {"changer": "tb1q4t8jtp4fwjg4spfjh7ux5ckhrallj652kwrj48gcvd0rt5g9ea3q4vlm33", "recipients": [{"address": "tb1q0558s53xchyghw34tqm4x8t2n8swf666nvhffq", "value": "100"}], "utxos": [{"amount": 98454, "witnessScript": "52210231e263a7e95bf5107b88b85b49918841b937305cce5dae7dd7ba9b86fc460f702102e8852463021b47fe5214c599e87e431f2eb1219044946bbff397afd0518b85a652ae", "signers": ["02e8852463021b47fe5214c599e87e431f2eb1219044946bbff397afd0518b85a6", "0231e263a7e95bf5107b88b85b49918841b937305cce5dae7dd7ba9b86fc460f70"], "txid": "7093a2184e4c6ffef0b705d32733a413383912063fd32f2463f1b1647d81502a", "vout": 1}]}, "type": "TRANSACTION"}


[32mINFO    [0m Common.Httpcore:Httpcore.py:175 2022-12-19 15:05:23.352763 | 
<-----Core Build Response---->
{"balanceChanges":[],"blockTime":"1970-01-01T00:00:00.000Z","createdTime":"2022-12-19T07:05:24.753Z","estimatedFee":"226","hash":"","id":"1604734628861759489","networkCode":"BTC","requiredSignings":[{"hash":"9785040a1b46a85a6b4ca5fd02785b3f74e9933e0d8f00205be72531ba81284a","publicKeys":["02e8852463021b47fe5214c599e87e431f2eb1219044946bbff397afd0518b85a6","0231e263a7e95bf5107b88b85b49918841b937305cce5dae7dd7ba9b86fc460f70"],"threshold":2}],"serialized":"01000000012a50817d64b1f163242fd33f0612393813a43327d305b7f0fe6f4c4e18a293700100000000ffffffff0264000000000000001600147d28785226c5c88bba355837531d6a99e0e4eb5a507f010000000000220020aacf2586a97491580532bfb86a62d71f7ff96a8ab3872a9d18635e35d105cf6200000000","status":0,"statusDesc":"BUILDING","updatedTime":"2022-12-19T07:05:24.753Z"}
[32mINFO    [0m Common.Httpcore:Httpcore.py:214 2022-12-19 15:05:23.352763 | 
<-----Core Sign------>
Url:https://api.dhandho.xyz/transactions/signatures

Headers:{"Content-Type": "application/json", "Authorization": "eyJib2R5IjoiV2ViMyBUb2tlbiBWZXJzaW9uOiAyXG5Ob25jZTogMTYwMTA0MzkzMDI4NzQxMTIwMlxuSXNzdWVkIEF0OiBGcmksIDkgRGVjIDIwMjIgMDI6Mzk6NTMgR01UXG5FeHBpcmF0aW9uIFRpbWU6IE1vbiwgNiBEZWMgMjAzMiAwMjozOTo1MyBHTVQiLCJzaWduYXR1cmUiOiIweGU1OWE1Nzk4OGNhZWU4NmFmYzA3NzlhOTE4MDA5MDRmNjc3NmUxZGMxYTc5NGE2MjllY2Y5YmI0ZjAyZDllYjcwZDBiMGZiNDAxNjQ4NTc5ZTFiZDkzMmU2NmU0NjdjMzFkMDlmOGNjM2EwOGVjN2U1NGY2ZTJhNTM5ZWVjNTA5MWMifQ=="}

body:{"id": "1604734628861759489", "signatures": [{"hash": "9785040a1b46a85a6b4ca5fd02785b3f74e9933e0d8f00205be72531ba81284a", "publicKey": "02e8852463021b47fe5214c599e87e431f2eb1219044946bbff397afd0518b85a6", "signature": "42eedd2d35dee9060a9902dc808689d576fc60b435d20123eeb2bd7e545136f738a6b4adcc4930faaaabf89a78df72d1a6d01ab0c1dae892e5ba11c1cc0d708d01"}, {"hash": "9785040a1b46a85a6b4ca5fd02785b3f74e9933e0d8f00205be72531ba81284a", "publicKey": "0231e263a7e95bf5107b88b85b49918841b937305cce5dae7dd7ba9b86fc460f70", "signature": "3b895f68b4c7ff8b706d739048058c33982ec7a52fdbbd0bcfd192517070cb7d502c62cec7799040e5bb2a216a6cdc9d99a07abb46d413a9c67f1588a3c5032401"}]}


[32mINFO    [0m Common.Httpcore:Httpcore.py:217 2022-12-19 15:05:23.352763 | 
<-----Core Sign Response---->
{"balanceChanges":[],"blockHash":"","blockHeight":"-1","blockTime":"1970-01-01T00:00:00.000Z","createdTime":"2022-12-19T07:05:25.000Z","description":"","estimatedFee":"226","fee":"-1","hash":"6c10682b145dd37b7de64f5df921947eda5150ccec8024003d292c715d86f050","id":"1604734628861759489","networkCode":"BTC","serialized":"010000000001012a50817d64b1f163242fd33f0612393813a43327d305b7f0fe6f4c4e18a293700100000000ffffffff0264000000000000001600147d28785226c5c88bba355837531d6a99e0e4eb5a507f010000000000220020aacf2586a97491580532bfb86a62d71f7ff96a8ab3872a9d18635e35d105cf62040047304402203b895f68b4c7ff8b706d739048058c33982ec7a52fdbbd0bcfd192517070cb7d0220502c62cec7799040e5bb2a216a6cdc9d99a07abb46d413a9c67f1588a3c5032401473044022042eedd2d35dee9060a9902dc808689d576fc60b435d20123eeb2bd7e545136f7022038a6b4adcc4930faaaabf89a78df72d1a6d01ab0c1dae892e5ba11c1cc0d708d014752210231e263a7e95bf5107b88b85b49918841b937305cce5dae7dd7ba9b86fc460f702102e8852463021b47fe5214c599e87e431f2eb1219044946bbff397afd0518b85a652ae00000000","status":2,"statusDesc":"SIGNED","updatedTime":"2022-12-19T07:05:25.176Z"}
[32mINFO    [0m Common.Httpcore:Httpcore.py:233 2022-12-19 15:05:23.352763 | 
<-----Core Send------>
Url:https://api.dhandho.xyz/transactions/send/1604734628861759489

Headers:{"Content-Type": "application/json", "Authorization": "eyJib2R5IjoiV2ViMyBUb2tlbiBWZXJzaW9uOiAyXG5Ob25jZTogMTYwMTA0MzkzMDI4NzQxMTIwMlxuSXNzdWVkIEF0OiBGcmksIDkgRGVjIDIwMjIgMDI6Mzk6NTMgR01UXG5FeHBpcmF0aW9uIFRpbWU6IE1vbiwgNiBEZWMgMjAzMiAwMjozOTo1MyBHTVQiLCJzaWduYXR1cmUiOiIweGU1OWE1Nzk4OGNhZWU4NmFmYzA3NzlhOTE4MDA5MDRmNjc3NmUxZGMxYTc5NGE2MjllY2Y5YmI0ZjAyZDllYjcwZDBiMGZiNDAxNjQ4NTc5ZTFiZDkzMmU2NmU0NjdjMzFkMDlmOGNjM2EwOGVjN2U1NGY2ZTJhNTM5ZWVjNTA5MWMifQ=="}


[32mINFO    [0m Common.Httpcore:Httpcore.py:236 2022-12-19 15:05:23.352763 | 
<-----Core Send Response---->
{"balanceChanges":[],"blockHash":"","blockHeight":"-1","blockTime":"2022-12-19T07:05:25.621Z","createdTime":"2022-12-19T07:05:25.000Z","description":"","estimatedFee":"226","fee":"-1","hash":"6c10682b145dd37b7de64f5df921947eda5150ccec8024003d292c715d86f050","id":"1604734628861759489","networkCode":"BTC","serialized":"010000000001012a50817d64b1f163242fd33f0612393813a43327d305b7f0fe6f4c4e18a293700100000000ffffffff0264000000000000001600147d28785226c5c88bba355837531d6a99e0e4eb5a507f010000000000220020aacf2586a97491580532bfb86a62d71f7ff96a8ab3872a9d18635e35d105cf62040047304402203b895f68b4c7ff8b706d739048058c33982ec7a52fdbbd0bcfd192517070cb7d0220502c62cec7799040e5bb2a216a6cdc9d99a07abb46d413a9c67f1588a3c5032401473044022042eedd2d35dee9060a9902dc808689d576fc60b435d20123eeb2bd7e545136f7022038a6b4adcc4930faaaabf89a78df72d1a6d01ab0c1dae892e5ba11c1cc0d708d014752210231e263a7e95bf5107b88b85b49918841b937305cce5dae7dd7ba9b86fc460f702102e8852463021b47fe5214c599e87e431f2eb1219044946bbff397afd0518b85a652ae00000000","status":3,"statusDesc":"PENDING","updatedTime":"2022-12-19T07:05:25.621Z"}