[32mINFO    [0m Common.Httpcore:Httpcore.py:60 2022-12-21 17:16:30.715466 | 
<-----Core Holders List----->
Url:https://api.dhandho.xyz/assets/holders?networkCode=BTC&symbol=BTC&address=tb1q4t8jtp4fwjg4spfjh7ux5ckhrallj652kwrj48gcvd0rt5g9ea3q4vlm33

Headers:{"Content-Type": "application/json", "Authorization": "eyJib2R5IjoiV2ViMyBUb2tlbiBWZXJzaW9uOiAyXG5Ob25jZTogMTYwMTA0MzkzMDI4NzQxMTIwMlxuSXNzdWVkIEF0OiBGcmksIDkgRGVjIDIwMjIgMDI6Mzk6NTMgR01UXG5FeHBpcmF0aW9uIFRpbWU6IE1vbiwgNiBEZWMgMjAzMiAwMjozOTo1MyBHTVQiLCJzaWduYXR1cmUiOiIweGU1OWE1Nzk4OGNhZWU4NmFmYzA3NzlhOTE4MDA5MDRmNjc3NmUxZGMxYTc5NGE2MjllY2Y5YmI0ZjAyZDllYjcwZDBiMGZiNDAxNjQ4NTc5ZTFiZDkzMmU2NmU0NjdjMzFkMDlmOGNjM2EwOGVjN2U1NGY2ZTJhNTM5ZWVjNTA5MWMifQ=="}
[32mINFO    [0m Common.Httpcore:Httpcore.py:63 2022-12-21 17:16:30.715466 | 
<-----Core Holders Response----->
{"current":1,"list":[{"address":"tb1q4t8jtp4fwjg4spfjh7ux5ckhrallj652kwrj48gcvd0rt5g9ea3q4vlm33","id":"1603217983278403585","networkCode":"BTC","quantity":"0.00097902","symbol":"BTC","updatedTime":"2022-12-21T03:40:00.000Z"}],"size":10,"total":1}
[32mINFO    [0m Common.Httpcore:Httpcore.py:190 2022-12-21 17:16:30.715466 | 
<-----Core Instructions------>
Url:https://api.dhandho.xyz/instructions

Headers:{"Content-Type": "application/json", "Authorization": "eyJib2R5IjoiV2ViMyBUb2tlbiBWZXJzaW9uOiAyXG5Ob25jZTogMTYwMTA0MzkzMDI4NzQxMTIwMlxuSXNzdWVkIEF0OiBGcmksIDkgRGVjIDIwMjIgMDI6Mzk6NTMgR01UXG5FeHBpcmF0aW9uIFRpbWU6IE1vbiwgNiBEZWMgMjAzMiAwMjozOTo1MyBHTVQiLCJzaWduYXR1cmUiOiIweGU1OWE1Nzk4OGNhZWU4NmFmYzA3NzlhOTE4MDA5MDRmNjc3NmUxZGMxYTc5NGE2MjllY2Y5YmI0ZjAyZDllYjcwZDBiMGZiNDAxNjQ4NTc5ZTFiZDkzMmU2NmU0NjdjMzFkMDlmOGNjM2EwOGVjN2U1NGY2ZTJhNTM5ZWVjNTA5MWMifQ=="}

body:{"networkCode": "BTC", "type": "transfer", "body": {"from": "tb1q4t8jtp4fwjg4spfjh7ux5ckhrallj652kwrj48gcvd0rt5g9ea3q4vlm33", "to": "tb1q4t8jtp4fwjg4spfjh7ux5ckhrallj652kwrj48gcvd0rt5g9ea3q4vlm33", "symbol": "BTC", "amount": "0.0000001"}, "transactionParams": {"memo": "RKdATvEf8F"}}


[32mINFO    [0m Common.Httpcore:Httpcore.py:193 2022-12-21 17:16:30.715466 | 
<-----Core Instructions Response---->
{"_embedded":{"transactions":[{"balanceChanges":[],"blockHash":"","blockHeight":"-1","blockTime":"1970-01-01T00:00:00.000Z","createdTime":"2022-12-21T09:16:33.000Z","description":"","estimatedFee":"374","fee":"-1","hash":"","id":"1605492405063397377","networkCode":"BTC","requiredSignings":[{"hash":"3f780b06919f97264493f323c88e46a677a7107be1d35a0a5560e0f57e1ba5e6","publicKeys":["0231e263a7e95bf5107b88b85b49918841b937305cce5dae7dd7ba9b86fc460f70","02e8852463021b47fe5214c599e87e431f2eb1219044946bbff397afd0518b85a6"],"threshold":2},{"hash":"ed98e28c2dd9ecc75bc27eaf972285c0a7ba7a4a76e51f360ad98cd993caf289","publicKeys":["0231e263a7e95bf5107b88b85b49918841b937305cce5dae7dd7ba9b86fc460f70","02e8852463021b47fe5214c599e87e431f2eb1219044946bbff397afd0518b85a6"],"threshold":2}],"serialized":"01000000020507a67b9b6919b2934eb3ca2f2810f8f711393b7d70bb639a6f3db5a00dd84f0000000000ffffffff0507a67b9b6919b2934eb3ca2f2810f8f711393b7d70bb639a6f3db5a00dd84f0100000000ffffffff020a00000000000000220020aacf2586a97491580532bfb86a62d71f7ff96a8ab3872a9d18635e35d105cf62ee7c010000000000220020aacf2586a97491580532bfb86a62d71f7ff96a8ab3872a9d18635e35d105cf6200000000","status":0,"statusDesc":"BUILDING","updatedTime":"2022-12-21T09:16:33.000Z"}]},"body":{"amount":"0.0000001","from":"tb1q4t8jtp4fwjg4spfjh7ux5ckhrallj652kwrj48gcvd0rt5g9ea3q4vlm33","symbol":"BTC","to":"tb1q4t8jtp4fwjg4spfjh7ux5ckhrallj652kwrj48gcvd0rt5g9ea3q4vlm33"},"createdTime":"2022-12-21T09:16:32.000Z","id":"1605492406082621442","networkCode":"BTC","status":-2,"transactionParams":{"memo":"RKdATvEf8F"},"type":"TRANSFER","updatedTime":"2022-12-21T09:16:32.000Z"}
[32mINFO    [0m Common.Httpcore:Httpcore.py:213 2022-12-21 17:16:30.715466 | 
<-----Core Sign------>
Url:https://api.dhandho.xyz/transactions/signatures

Headers:{"Content-Type": "application/json", "Authorization": "eyJib2R5IjoiV2ViMyBUb2tlbiBWZXJzaW9uOiAyXG5Ob25jZTogMTYwMTA0MzkzMDI4NzQxMTIwMlxuSXNzdWVkIEF0OiBGcmksIDkgRGVjIDIwMjIgMDI6Mzk6NTMgR01UXG5FeHBpcmF0aW9uIFRpbWU6IE1vbiwgNiBEZWMgMjAzMiAwMjozOTo1MyBHTVQiLCJzaWduYXR1cmUiOiIweGU1OWE1Nzk4OGNhZWU4NmFmYzA3NzlhOTE4MDA5MDRmNjc3NmUxZGMxYTc5NGE2MjllY2Y5YmI0ZjAyZDllYjcwZDBiMGZiNDAxNjQ4NTc5ZTFiZDkzMmU2NmU0NjdjMzFkMDlmOGNjM2EwOGVjN2U1NGY2ZTJhNTM5ZWVjNTA5MWMifQ=="}

body:{"id": "1605492405063397377", "signatures": [{"hash": "3f780b06919f97264493f323c88e46a677a7107be1d35a0a5560e0f57e1ba5e6", "publicKey": "0231e263a7e95bf5107b88b85b49918841b937305cce5dae7dd7ba9b86fc460f70", "signature": "3e56cf4448c1ed40fdf4d17b21f839e1ecbd5711bfbda14682957fd23d40e6b37b9df4b7cbc7437ccb5516f5991dcc8b2057f0863b1f128b522d80aa612eec0f01"}, {"hash": "3f780b06919f97264493f323c88e46a677a7107be1d35a0a5560e0f57e1ba5e6", "publicKey": "02e8852463021b47fe5214c599e87e431f2eb1219044946bbff397afd0518b85a6", "signature": "e5ed6429c0e00ecb1835c49692c4cb8503796d8e6d7575d33f25cb430dda436b22a82440ffaab1ba58f3d2e20ea329016ab1aa5918621f4017413057c06325e601"}, {"hash": "ed98e28c2dd9ecc75bc27eaf972285c0a7ba7a4a76e51f360ad98cd993caf289", "publicKey": "0231e263a7e95bf5107b88b85b49918841b937305cce5dae7dd7ba9b86fc460f70", "signature": "5eb5eaae9bebbf24cf22a8980bec40005bd2439d75e1812668189c342253833b22c8fde9d3790e5a2549b74466160cb4276110fc63152be6f13d922ffe39892701"}, {"hash": "ed98e28c2dd9ecc75bc27eaf972285c0a7ba7a4a76e51f360ad98cd993caf289", "publicKey": "02e8852463021b47fe5214c599e87e431f2eb1219044946bbff397afd0518b85a6", "signature": "39ae99e4c866fd09b73ea107ada3a1d46ee6295fd7ca0ebeb33e21d3d63d1e3144542e39cb2568b15b91148c4931e7ab0307bef2c934b65fd0d9b2ea34f9e6ee01"}]}


[32mINFO    [0m Common.Httpcore:Httpcore.py:216 2022-12-21 17:16:30.715466 | 
<-----Core Sign Response---->
{"balanceChanges":[],"blockHash":"","blockHeight":"-1","blockTime":"1970-01-01T00:00:00.000Z","createdTime":"2022-12-21T09:16:33.000Z","description":"","estimatedFee":"374","fee":"-1","hash":"7dfd608829ee4ce2d358f14cfc47e2aea4e0aaf9c70db16c61110b1655051c8b","id":"1605492405063397377","networkCode":"BTC","serialized":"010000000001020507a67b9b6919b2934eb3ca2f2810f8f711393b7d70bb639a6f3db5a00dd84f0000000000ffffffff0507a67b9b6919b2934eb3ca2f2810f8f711393b7d70bb639a6f3db5a00dd84f0100000000ffffffff020a00000000000000220020aacf2586a97491580532bfb86a62d71f7ff96a8ab3872a9d18635e35d105cf62ee7c010000000000220020aacf2586a97491580532bfb86a62d71f7ff96a8ab3872a9d18635e35d105cf62040047304402203e56cf4448c1ed40fdf4d17b21f839e1ecbd5711bfbda14682957fd23d40e6b302207b9df4b7cbc7437ccb5516f5991dcc8b2057f0863b1f128b522d80aa612eec0f01483045022100e5ed6429c0e00ecb1835c49692c4cb8503796d8e6d7575d33f25cb430dda436b022022a82440ffaab1ba58f3d2e20ea329016ab1aa5918621f4017413057c06325e6014752210231e263a7e95bf5107b88b85b49918841b937305cce5dae7dd7ba9b86fc460f702102e8852463021b47fe5214c599e87e431f2eb1219044946bbff397afd0518b85a652ae040047304402205eb5eaae9bebbf24cf22a8980bec40005bd2439d75e1812668189c342253833b022022c8fde9d3790e5a2549b74466160cb4276110fc63152be6f13d922ffe39892701473044022039ae99e4c866fd09b73ea107ada3a1d46ee6295fd7ca0ebeb33e21d3d63d1e31022044542e39cb2568b15b91148c4931e7ab0307bef2c934b65fd0d9b2ea34f9e6ee014752210231e263a7e95bf5107b88b85b49918841b937305cce5dae7dd7ba9b86fc460f702102e8852463021b47fe5214c599e87e431f2eb1219044946bbff397afd0518b85a652ae00000000","status":2,"statusDesc":"SIGNED","updatedTime":"2022-12-21T09:16:33.436Z"}
[32mINFO    [0m Common.Httpcore:Httpcore.py:232 2022-12-21 17:16:30.715466 | 
<-----Core Send------>
Url:https://api.dhandho.xyz/transactions/send/1605492405063397377

Headers:{"Content-Type": "application/json", "Authorization": "eyJib2R5IjoiV2ViMyBUb2tlbiBWZXJzaW9uOiAyXG5Ob25jZTogMTYwMTA0MzkzMDI4NzQxMTIwMlxuSXNzdWVkIEF0OiBGcmksIDkgRGVjIDIwMjIgMDI6Mzk6NTMgR01UXG5FeHBpcmF0aW9uIFRpbWU6IE1vbiwgNiBEZWMgMjAzMiAwMjozOTo1MyBHTVQiLCJzaWduYXR1cmUiOiIweGU1OWE1Nzk4OGNhZWU4NmFmYzA3NzlhOTE4MDA5MDRmNjc3NmUxZGMxYTc5NGE2MjllY2Y5YmI0ZjAyZDllYjcwZDBiMGZiNDAxNjQ4NTc5ZTFiZDkzMmU2NmU0NjdjMzFkMDlmOGNjM2EwOGVjN2U1NGY2ZTJhNTM5ZWVjNTA5MWMifQ=="}