[32mINFO    [0m Common.Http:Http.py:93 2022-12-13 17:01:10.675817 | 
<-----Query Accounts----->
Url:http://54.251.78.181:8888/escrow/api//accounts?networkCode=&address=tb1qxrunvz3ywjtpzaasfgjjek96a33sxks740v58x7lzke0kc9urvgs0cczgd&type=
Headers:{"Content-Type": "application/json", "Authorization": "eyJ0eXAiOiJKV1QiLCJhbGciOiJIUzI1NiJ9.eyJhdWQiOiIxNjAxMDQzOTMwMjg3NDExMjAyIiwiZXhwIjoxNzAyMDg5NjAwLCJpYXQiOjE2NzA1NTM2MDAsInVzZXJJZCI6MTYwMTA0MzkzMDI4NzQxMTIwMn0.fZVc267JNsgy5tB_Wn89l2Zgd3ZgXJfaMg_T9lc3j-o"}


[32mINFO    [0m Common.Http:Http.py:96 2022-12-13 17:01:10.675817 | 
<-----Query Accounts Response----->
{"current":1,"list":[{"address":"tb1qxrunvz3ywjtpzaasfgjjek96a33sxks740v58x7lzke0kc9urvgs0cczgd","createdTime":"2022-12-12T08:06:23.000Z","finalized":true,"id":"1602213259255169026","name":"safe","networkCode":"BTC","publicKeys":[{"source":"owner","type":"secp256k1","value":"02e8852463021b47fe5214c599e87e431f2eb1219044946bbff397afd0518b85a6"},{"source":"custodial","type":"secp256k1","value":"02d904da9e163db9784ef50b4fd64e709ff5f4f438c80f5265e2925aac6d99dcd7"}],"status":"enable","threshold":2,"type":"safe","updatedTime":"2022-12-12T08:29:52.000Z"}],"size":10,"total":1}


[32mINFO    [0m Common.Httpcore:Httpcore.py:305 2022-12-13 17:01:10.675817 | 
<-----Query UTXO----->
Url:https://api.bitcore.io/api/BTC/testnet/address/tb1qxrunvz3ywjtpzaasfgjjek96a33sxks740v58x7lzke0kc9urvgs0cczgd?unspent=true

Headers:{"Content-Type": "application/json"}


[32mINFO    [0m Common.Httpcore:Httpcore.py:308 2022-12-13 17:01:10.675817 | 
<-----Query UTXO Response----->
[
{"_id":"639839f1d3bfc9e8e12cb6d5","chain":"BTC","network":"testnet","coinbase":false,"mintIndex":1,"spentTxid":"","mintTxid":"1247c7f58ee8fadcc5032e8a21b101eb24aa0025b368f67ea5cfee6e5fe7c018","mintHeight":2411062,"spentHeight":-2,"address":"tb1qxrunvz3ywjtpzaasfgjjek96a33sxks740v58x7lzke0kc9urvgs0cczgd","script":"002030f9360a2474961177b04a252cd8baec63035a1eabd9439bdf15b2fb60bc1b11","value":98648,"confirmations":-1}
]
[32mINFO    [0m Common.Http:Http.py:283 2022-12-13 17:01:10.675817 | 
<-----Transactions----->
Url:http://54.251.78.181:8888/escrow/api//transactions
Headers:{"Content-Type": "application/json", "Authorization": "eyJ0eXAiOiJKV1QiLCJhbGciOiJIUzI1NiJ9.eyJhdWQiOiIxNjAxMDQzOTMwMjg3NDExMjAyIiwiZXhwIjoxNzAyMDg5NjAwLCJpYXQiOjE2NzA1NTM2MDAsInVzZXJJZCI6MTYwMTA0MzkzMDI4NzQxMTIwMn0.fZVc267JNsgy5tB_Wn89l2Zgd3ZgXJfaMg_T9lc3j-o"}
Body:{"networkCode": "BTC", "payload": {"changer": "tb1qxrunvz3ywjtpzaasfgjjek96a33sxks740v58x7lzke0kc9urvgs0cczgd", "recipients": [{"address": "tb1qyczy479xgg8flr4amkrxp6s4an7huecg9mq2ay", "value": "100"}, {"address": "tb1q9ps855ksckycta6kqjecszvu39pg4nedkx540t", "value": "200"}, {"address": "tb1q0r3zhkjf408nf069dd9z7lal6zzyhva860pt3y", "value": "300"}], "utxos": [{"amount": 98648, "witnessScript": "522102d904da9e163db9784ef50b4fd64e709ff5f4f438c80f5265e2925aac6d99dcd72102e8852463021b47fe5214c599e87e431f2eb1219044946bbff397afd0518b85a652ae", "signers": ["02e8852463021b47fe5214c599e87e431f2eb1219044946bbff397afd0518b85a6", "02d904da9e163db9784ef50b4fd64e709ff5f4f438c80f5265e2925aac6d99dcd7"], "txid": "1247c7f58ee8fadcc5032e8a21b101eb24aa0025b368f67ea5cfee6e5fe7c018", "vout": 1}]}, "type": "TRANSACTION"}


[32mINFO    [0m Common.Http:Http.py:286 2022-12-13 17:01:10.675817 | 
<-----Transactions Response----->
{"balanceChanges":[],"blockTime":"1970-01-01T00:00:00.000Z","createdTime":"2022-12-13T09:01:12.313Z","estimatedFee":"294","hash":"","id":"1602589441851113473","networkCode":"BTC","requiredSignings":[{"hash":"43757b03c6a3816b98d533c3ebebe0cd46809f2948e3605c559b12bc95fa3f4f","publicKeys":["02e8852463021b47fe5214c599e87e431f2eb1219044946bbff397afd0518b85a6"],"threshold":1}],"serialized":"010000000118c0e75f6eeecfa57ef668b32500aa24eb01b1218a2e03c5dcfae88ef5c747120100000000ffffffff04640000000000000016001426044af8a6420e9f8ebddd8660ea15ecfd7e6708c80000000000000016001428607a52d0c58985f75604b388099c89428acf2d2c0100000000000016001478e22bda49abcf34bf456b4a2f7fbfd0844bb3a7da7d01000000000022002030f9360a2474961177b04a252cd8baec63035a1eabd9439bdf15b2fb60bc1b1100000000","status":0,"statusDesc":"BUILDING","updatedTime":"2022-12-13T09:01:12.313Z"}


[32mINFO    [0m Common.Http:Http.py:344 2022-12-13 17:01:10.675817 | 
<-----Sign----->
Url:http://54.251.78.181:8888/escrow/api/transactions/signatures
Headers:{"Content-Type": "application/json", "Authorization": "eyJ0eXAiOiJKV1QiLCJhbGciOiJIUzI1NiJ9.eyJhdWQiOiIxNjAxMDQzOTMwMjg3NDExMjAyIiwiZXhwIjoxNzAyMDg5NjAwLCJpYXQiOjE2NzA1NTM2MDAsInVzZXJJZCI6MTYwMTA0MzkzMDI4NzQxMTIwMn0.fZVc267JNsgy5tB_Wn89l2Zgd3ZgXJfaMg_T9lc3j-o"}
Body:{"id": "1602589441851113473", "signatures": [{"hash": "43757b03c6a3816b98d533c3ebebe0cd46809f2948e3605c559b12bc95fa3f4f", "publicKey": "02e8852463021b47fe5214c599e87e431f2eb1219044946bbff397afd0518b85a6", "signature": "896e43f4fddc9c51ec59632ae3d1ee1a597723b2b0449ea005fd0b876482d422687e0e7d670c27f9b03bacfacf7628a8800a13abaa0ae6a97b9bacd90caf362601"}]}


[32mINFO    [0m Common.Http:Http.py:348 2022-12-13 17:01:10.675817 | 
<-----Sign Response----->
{"balanceChanges":[],"blockHash":"","blockHeight":"0","blockTime":"1970-01-01T00:00:00.000Z","createdTime":"2022-12-13T09:01:12.000Z","description":"","estimatedFee":"294","fee":"-1","hash":"16926cf4d39c6d3dede9a2effc53292f7b6db2698887394bd723bfc79cd6f8c4","id":"1602589441851113473","networkCode":"BTC","serialized":"0100000000010118c0e75f6eeecfa57ef668b32500aa24eb01b1218a2e03c5dcfae88ef5c747120100000000ffffffff04640000000000000016001426044af8a6420e9f8ebddd8660ea15ecfd7e6708c80000000000000016001428607a52d0c58985f75604b388099c89428acf2d2c0100000000000016001478e22bda49abcf34bf456b4a2f7fbfd0844bb3a7da7d01000000000022002030f9360a2474961177b04a252cd8baec63035a1eabd9439bdf15b2fb60bc1b11040047304402200d9af973fb07a40205b7ae4cd0299e7ee53590c1b9ffb00a1a56855b6bb9e377022074c6fdbee25f825e9c8dbe4a1e178331aa2425674f0c8e32cc5fce29ef4b057b01483045022100896e43f4fddc9c51ec59632ae3d1ee1a597723b2b0449ea005fd0b876482d4220220687e0e7d670c27f9b03bacfacf7628a8800a13abaa0ae6a97b9bacd90caf36260147522102d904da9e163db9784ef50b4fd64e709ff5f4f438c80f5265e2925aac6d99dcd72102e8852463021b47fe5214c599e87e431f2eb1219044946bbff397afd0518b85a652ae00000000","status":2,"statusDesc":"SIGNED","updatedTime":"2022-12-13T09:01:15.012Z"}


[32mINFO    [0m Common.Http:Http.py:364 2022-12-13 17:01:10.675817 | 
<-----Send----->
Url:http://54.251.78.181:8888/escrow/api//transactions/send/1602589441851113473
Headers:{"Content-Type": "application/json", "Authorization": "eyJ0eXAiOiJKV1QiLCJhbGciOiJIUzI1NiJ9.eyJhdWQiOiIxNjAxMDQzOTMwMjg3NDExMjAyIiwiZXhwIjoxNzAyMDg5NjAwLCJpYXQiOjE2NzA1NTM2MDAsInVzZXJJZCI6MTYwMTA0MzkzMDI4NzQxMTIwMn0.fZVc267JNsgy5tB_Wn89l2Zgd3ZgXJfaMg_T9lc3j-o"}


[32mINFO    [0m Common.Http:Http.py:368 2022-12-13 17:01:10.675817 | 
<-----Send Response----->
{"balanceChanges":[],"blockHash":"","blockHeight":"0","blockTime":"2022-12-13T09:01:15.449Z","createdTime":"2022-12-13T09:01:12.000Z","description":"","estimatedFee":"294","fee":"-1","hash":"16926cf4d39c6d3dede9a2effc53292f7b6db2698887394bd723bfc79cd6f8c4","id":"1602589441851113473","networkCode":"BTC","serialized":"0100000000010118c0e75f6eeecfa57ef668b32500aa24eb01b1218a2e03c5dcfae88ef5c747120100000000ffffffff04640000000000000016001426044af8a6420e9f8ebddd8660ea15ecfd7e6708c80000000000000016001428607a52d0c58985f75604b388099c89428acf2d2c0100000000000016001478e22bda49abcf34bf456b4a2f7fbfd0844bb3a7da7d01000000000022002030f9360a2474961177b04a252cd8baec63035a1eabd9439bdf15b2fb60bc1b11040047304402200d9af973fb07a40205b7ae4cd0299e7ee53590c1b9ffb00a1a56855b6bb9e377022074c6fdbee25f825e9c8dbe4a1e178331aa2425674f0c8e32cc5fce29ef4b057b01483045022100896e43f4fddc9c51ec59632ae3d1ee1a597723b2b0449ea005fd0b876482d4220220687e0e7d670c27f9b03bacfacf7628a8800a13abaa0ae6a97b9bacd90caf36260147522102d904da9e163db9784ef50b4fd64e709ff5f4f438c80f5265e2925aac6d99dcd72102e8852463021b47fe5214c599e87e431f2eb1219044946bbff397afd0518b85a652ae00000000","status":3,"statusDesc":"PENDING","updatedTime":"2022-12-13T09:01:15.449Z"}