[32mINFO    [0m Common.Httpcore:Httpcore.py:340 2022-12-19 15:04:46.982328 | 
<-----Query UTXO----->
Url:https://api.bitcore.io/api/BTC/testnet/address/tb1qhcuul2fcyv5rvr5mc5cy5saz0q5p3kx0gsy3c0?unspent=true

Headers:{"Content-Type": "application/json"}


[32mINFO    [0m Common.Httpcore:Httpcore.py:343 2022-12-19 15:04:46.982328 | 
<-----Query UTXO Response----->
[
{"_id":"63a00c66d3bfc9e8e1f2d14d","chain":"BTC","network":"testnet","coinbase":false,"mintIndex":1,"spentTxid":"","mintTxid":"c0c96129695cefe7c45bd6be60334bf1c32112bd85df4984cef4e41dd1f97b1b","mintHeight":2411860,"spentHeight":-2,"address":"tb1qhcuul2fcyv5rvr5mc5cy5saz0q5p3kx0gsy3c0","script":"0014be39cfa9382328360e9bc5304a43a2782818d8cf","value":889195,"confirmations":-1},
{"_id":"63a00c66d3bfc9e8e1f2d14c","chain":"BTC","network":"testnet","coinbase":false,"mintIndex":0,"spentTxid":"","mintTxid":"c0c96129695cefe7c45bd6be60334bf1c32112bd85df4984cef4e41dd1f97b1b","mintHeight":2411860,"spentHeight":-2,"address":"tb1qhcuul2fcyv5rvr5mc5cy5saz0q5p3kx0gsy3c0","script":"0014be39cfa9382328360e9bc5304a43a2782818d8cf","value":100,"confirmations":-1}
]
[32mINFO    [0m Common.Httpcore:Httpcore.py:172 2022-12-19 15:04:46.982328 | 
<-----Core Build------>
Url:https://api.dhandho.xyz/transactions

Headers:{"Content-Type": "application/json", "Authorization": "eyJib2R5IjoiV2ViMyBUb2tlbiBWZXJzaW9uOiAyXG5Ob25jZTogMTYwMTA0MzkzMDI4NzQxMTIwMlxuSXNzdWVkIEF0OiBGcmksIDkgRGVjIDIwMjIgMDI6Mzk6NTMgR01UXG5FeHBpcmF0aW9uIFRpbWU6IE1vbiwgNiBEZWMgMjAzMiAwMjozOTo1MyBHTVQiLCJzaWduYXR1cmUiOiIweGU1OWE1Nzk4OGNhZWU4NmFmYzA3NzlhOTE4MDA5MDRmNjc3NmUxZGMxYTc5NGE2MjllY2Y5YmI0ZjAyZDllYjcwZDBiMGZiNDAxNjQ4NTc5ZTFiZDkzMmU2NmU0NjdjMzFkMDlmOGNjM2EwOGVjN2U1NGY2ZTJhNTM5ZWVjNTA5MWMifQ=="}

body:{"networkCode": "BTC", "payload": {"changer": "tb1qhcuul2fcyv5rvr5mc5cy5saz0q5p3kx0gsy3c0", "recipients": [{"address": "tb1q0558s53xchyghw34tqm4x8t2n8swf666nvhffq", "value": "100"}, {"address": "tb1qn0qrq4zfxjc89c773s6k86faym3ugpcje9eras", "value": "200"}, {"address": "tb1qk50y4995th8tffhc90tz7533lygzwz57zxmhtj", "value": "300"}], "utxos": [{"amount": 889195, "scriptPubKey": "0014be39cfa9382328360e9bc5304a43a2782818d8cf", "signers": ["02e8852463021b47fe5214c599e87e431f2eb1219044946bbff397afd0518b85a6"], "txid": "c0c96129695cefe7c45bd6be60334bf1c32112bd85df4984cef4e41dd1f97b1b", "vout": 1}, {"amount": 100, "scriptPubKey": "0014be39cfa9382328360e9bc5304a43a2782818d8cf", "signers": ["02e8852463021b47fe5214c599e87e431f2eb1219044946bbff397afd0518b85a6"], "txid": "c0c96129695cefe7c45bd6be60334bf1c32112bd85df4984cef4e41dd1f97b1b", "vout": 0}]}, "type": "TRANSACTION"}


[32mINFO    [0m Common.Httpcore:Httpcore.py:175 2022-12-19 15:04:46.982328 | 
<-----Core Build Response---->
{"balanceChanges":[],"blockTime":"1970-01-01T00:00:00.000Z","createdTime":"2022-12-19T07:04:48.634Z","estimatedFee":"364","hash":"","id":"1604734477392859138","networkCode":"BTC","requiredSignings":[{"hash":"b626a7912493791143f0988c180b8b968ec1e8a9fd2611481c81b0e8565d1e96","publicKeys":["02e8852463021b47fe5214c599e87e431f2eb1219044946bbff397afd0518b85a6"],"threshold":1},{"hash":"59024198700b3a8cf971d79cd9fae20f51737615e231c5f0516df7ab50fbe035","publicKeys":["02e8852463021b47fe5214c599e87e431f2eb1219044946bbff397afd0518b85a6"],"threshold":1}],"serialized":"01000000021b7bf9d11de4f4ce8449df85bd1221c3f14b3360bed65bc4e7ef5c692961c9c00100000000ffffffff1b7bf9d11de4f4ce8449df85bd1221c3f14b3360bed65bc4e7ef5c692961c9c00000000000ffffffff0464000000000000001600147d28785226c5c88bba355837531d6a99e0e4eb5ac8000000000000001600149bc030544934b072e3de8c3563e93d26e3c407122c01000000000000160014b51e4a94b45dceb4a6f82bd62f5231f910270a9e0b8e0d0000000000160014be39cfa9382328360e9bc5304a43a2782818d8cf00000000","status":0,"statusDesc":"BUILDING","updatedTime":"2022-12-19T07:04:48.634Z"}
[32mINFO    [0m Common.Httpcore:Httpcore.py:214 2022-12-19 15:04:46.982328 | 
<-----Core Sign------>
Url:https://api.dhandho.xyz/transactions/signatures

Headers:{"Content-Type": "application/json", "Authorization": "eyJib2R5IjoiV2ViMyBUb2tlbiBWZXJzaW9uOiAyXG5Ob25jZTogMTYwMTA0MzkzMDI4NzQxMTIwMlxuSXNzdWVkIEF0OiBGcmksIDkgRGVjIDIwMjIgMDI6Mzk6NTMgR01UXG5FeHBpcmF0aW9uIFRpbWU6IE1vbiwgNiBEZWMgMjAzMiAwMjozOTo1MyBHTVQiLCJzaWduYXR1cmUiOiIweGU1OWE1Nzk4OGNhZWU4NmFmYzA3NzlhOTE4MDA5MDRmNjc3NmUxZGMxYTc5NGE2MjllY2Y5YmI0ZjAyZDllYjcwZDBiMGZiNDAxNjQ4NTc5ZTFiZDkzMmU2NmU0NjdjMzFkMDlmOGNjM2EwOGVjN2U1NGY2ZTJhNTM5ZWVjNTA5MWMifQ=="}

body:{"id": "1604734477392859138", "signatures": [{"hash": "b626a7912493791143f0988c180b8b968ec1e8a9fd2611481c81b0e8565d1e96", "publicKey": "02e8852463021b47fe5214c599e87e431f2eb1219044946bbff397afd0518b85a6", "signature": "d9ab1c36d17cacabdd1cac542cfdd6f6a1432fa9859d164c52b7dad5b16ebdde03b8120e33b20dec68b555d829a3877e282cec18f370fa4e4564ed39b0886e0700"}, {"hash": "59024198700b3a8cf971d79cd9fae20f51737615e231c5f0516df7ab50fbe035", "publicKey": "02e8852463021b47fe5214c599e87e431f2eb1219044946bbff397afd0518b85a6", "signature": "78d3fb9a2b8fe39e06f4e9c6655a5ed9178a112d2eea69b7deac6661d29e4aa7754935e588519906f0cb184a439a329711fdab1f22d6e89565dcaf154b9ca4c800"}]}


[32mINFO    [0m Common.Httpcore:Httpcore.py:217 2022-12-19 15:04:46.982328 | 
<-----Core Sign Response---->
{"balanceChanges":[],"blockHash":"","blockHeight":"-1","blockTime":"1970-01-01T00:00:00.000Z","createdTime":"2022-12-19T07:04:49.000Z","description":"","estimatedFee":"364","fee":"-1","hash":"72df15556abbd4fc92c12cdd68c0eb7ea783c27788660c5fee10e1dc2bd7ec54","id":"1604734477392859138","networkCode":"BTC","serialized":"010000000001021b7bf9d11de4f4ce8449df85bd1221c3f14b3360bed65bc4e7ef5c692961c9c00100000000ffffffff1b7bf9d11de4f4ce8449df85bd1221c3f14b3360bed65bc4e7ef5c692961c9c00000000000ffffffff0464000000000000001600147d28785226c5c88bba355837531d6a99e0e4eb5ac8000000000000001600149bc030544934b072e3de8c3563e93d26e3c407122c01000000000000160014b51e4a94b45dceb4a6f82bd62f5231f910270a9e0b8e0d0000000000160014be39cfa9382328360e9bc5304a43a2782818d8cf02483045022100d9ab1c36d17cacabdd1cac542cfdd6f6a1432fa9859d164c52b7dad5b16ebdde022003b8120e33b20dec68b555d829a3877e282cec18f370fa4e4564ed39b0886e07012102e8852463021b47fe5214c599e87e431f2eb1219044946bbff397afd0518b85a602473044022078d3fb9a2b8fe39e06f4e9c6655a5ed9178a112d2eea69b7deac6661d29e4aa70220754935e588519906f0cb184a439a329711fdab1f22d6e89565dcaf154b9ca4c8012102e8852463021b47fe5214c599e87e431f2eb1219044946bbff397afd0518b85a600000000","status":2,"statusDesc":"SIGNED","updatedTime":"2022-12-19T07:04:49.119Z"}
[32mINFO    [0m Common.Httpcore:Httpcore.py:233 2022-12-19 15:04:46.982328 | 
<-----Core Send------>
Url:https://api.dhandho.xyz/transactions/send/1604734477392859138

Headers:{"Content-Type": "application/json", "Authorization": "eyJib2R5IjoiV2ViMyBUb2tlbiBWZXJzaW9uOiAyXG5Ob25jZTogMTYwMTA0MzkzMDI4NzQxMTIwMlxuSXNzdWVkIEF0OiBGcmksIDkgRGVjIDIwMjIgMDI6Mzk6NTMgR01UXG5FeHBpcmF0aW9uIFRpbWU6IE1vbiwgNiBEZWMgMjAzMiAwMjozOTo1MyBHTVQiLCJzaWduYXR1cmUiOiIweGU1OWE1Nzk4OGNhZWU4NmFmYzA3NzlhOTE4MDA5MDRmNjc3NmUxZGMxYTc5NGE2MjllY2Y5YmI0ZjAyZDllYjcwZDBiMGZiNDAxNjQ4NTc5ZTFiZDkzMmU2NmU0NjdjMzFkMDlmOGNjM2EwOGVjN2U1NGY2ZTJhNTM5ZWVjNTA5MWMifQ=="}


[32mINFO    [0m Common.Httpcore:Httpcore.py:236 2022-12-19 15:04:46.982328 | 
<-----Core Send Response---->
{"balanceChanges":[],"blockHash":"","blockHeight":"-1","blockTime":"2022-12-19T07:04:49.639Z","createdTime":"2022-12-19T07:04:49.000Z","description":"","estimatedFee":"364","fee":"-1","hash":"72df15556abbd4fc92c12cdd68c0eb7ea783c27788660c5fee10e1dc2bd7ec54","id":"1604734477392859138","networkCode":"BTC","serialized":"010000000001021b7bf9d11de4f4ce8449df85bd1221c3f14b3360bed65bc4e7ef5c692961c9c00100000000ffffffff1b7bf9d11de4f4ce8449df85bd1221c3f14b3360bed65bc4e7ef5c692961c9c00000000000ffffffff0464000000000000001600147d28785226c5c88bba355837531d6a99e0e4eb5ac8000000000000001600149bc030544934b072e3de8c3563e93d26e3c407122c01000000000000160014b51e4a94b45dceb4a6f82bd62f5231f910270a9e0b8e0d0000000000160014be39cfa9382328360e9bc5304a43a2782818d8cf02483045022100d9ab1c36d17cacabdd1cac542cfdd6f6a1432fa9859d164c52b7dad5b16ebdde022003b8120e33b20dec68b555d829a3877e282cec18f370fa4e4564ed39b0886e07012102e8852463021b47fe5214c599e87e431f2eb1219044946bbff397afd0518b85a602473044022078d3fb9a2b8fe39e06f4e9c6655a5ed9178a112d2eea69b7deac6661d29e4aa70220754935e588519906f0cb184a439a329711fdab1f22d6e89565dcaf154b9ca4c8012102e8852463021b47fe5214c599e87e431f2eb1219044946bbff397afd0518b85a600000000","status":3,"statusDesc":"PENDING","updatedTime":"2022-12-19T07:04:49.639Z"}