[32mINFO    [0m Common.Http:Http.py:198 2022-11-03 16:08:53.269242 | 
<-----Holders----->
Url:https://api.cryptoless.io/cryptocurrencies/holders?address=tb1qc5a0dcam4fzqpmn7upvze5arzw7khrd8ngfd8xs489ta7uqs5tyqsm6dns&networkCode=BTC&symbol=BTC

Headers:{"Content-Type": "application/json", "Authorization": "eyJib2R5IjoiV2ViMyBUb2tlbiBWZXJzaW9uOiAyXG5Ob25jZTogMTU4NTEwMjc5MTQ2NjQ4NzgxMFxuSXNzdWVkIEF0OiBXZWQsIDI2IE9jdCAyMDIyIDAyOjU1OjI5IEdNVFxuRXhwaXJhdGlvbiBUaW1lOiBTYXQsIDIzIE9jdCAyMDMyIDAyOjU1OjI5IEdNVCIsInNpZ25hdHVyZSI6IjB4OTE1NWMyOGM3NjVjZjk1YTBjNjdiZGNhYzExNzIwYTRkNDQ4NDc4YmU5ZDZhNjE3ZWQzNDUzZDU3MDgzZjNjZTA2N2Q5OGUwMGI0YTVhMmJmOTlkY2I5Y2VmNzg5Yjc4OWViNzI5OTk4YzgxYWQzOWFhMTUzZTcxM2Q4M2FhYWUxYiJ9"}
[32mINFO    [0m Common.Http:Http.py:201 2022-11-03 16:08:53.269242 | 
<-----Query Holders Response----->
[{"address":"tb1qc5a0dcam4fzqpmn7upvze5arzw7khrd8ngfd8xs489ta7uqs5tyqsm6dns","createdTime":"2022-10-27T08:54:40.000Z","id":"1585555568445566978","networkCode":"BTC","quantity":"0.008","symbol":"BTC","updatedTime":"2022-10-27T08:54:40.000Z"}]
[32mINFO    [0m Common.Http:Http.py:288 2022-11-03 16:08:53.269242 | 
<-----Instructions----->
Url:https://api.cryptoless.io/vault/instructions

Headers:{"Content-Type": "application/json", "Authorization": "eyJ0eXAiOiJKV1QiLCJhbGciOiJIUzI1NiJ9.eyJhdWQiOiIxNTg1MTAyNzkxNDY2NDg3ODEwIiwiZXhwIjoxNjk4Mjg4OTM1LCJpYXQiOjE2NjY3NTI5MzUsInVzZXJJZCI6MTU4NTEwMjc5MTQ2NjQ4NzgxMH0.4o43r1upI2Qzcs46wf3gqb2Kq6kq0I7qGST6qPspfjY"}

Body:{"body": {"from": "tb1qc5a0dcam4fzqpmn7upvze5arzw7khrd8ngfd8xs489ta7uqs5tyqsm6dns", "to": "tb1qqrw8uz4j305w6fjr4mwng040sv7kz8hcczjfun", "symbol": "BTC", "amount": "0.00000009"}, "networkCode": "BTC", "type": "transfer", "definiteSignerPublicKeys": [], "transactionParams": {"memo": "S4awAuydV1"}}
[32mINFO    [0m Common.Http:Http.py:291 2022-11-03 16:08:53.269242 | 
<-----Instructions Response----->
{"_embedded":{"transactions":[{"balanceChanges":[],"blockHash":"","blockHeight":"0","blockTime":"2022-11-03T08:09:02.000Z","createdTime":"2022-11-03T08:09:02.000Z","description":"Custom Excution","estimatedFee":"226","fee":"-1","hash":"","id":"1588080798477004801","networkCode":"BTC","requiredSignings":[{"hash":"d60fef6d5707d49f38d53f786b15c6f857252cf8030f44fe1ac79e073fc9d005","publicKeys":["02e8852463021b47fe5214c599e87e431f2eb1219044946bbff397afd0518b85a6","0231e263a7e95bf5107b88b85b49918841b937305cce5dae7dd7ba9b86fc460f70"],"threshold":1}],"serialized":"01000000012eb01db7320a473a4eb9cdf690d11db0f31ece58701a919016a1810597ac36a60000000000ffffffff02090000000000000016001400dc7e0ab28be8ed2643aedd343eaf833d611ef815340c0000000000220020c53af6e3bbaa4400ee7ee0582cd3a313bd6b8da79a12d39a153957df7010a2c800000000","status":"BUILDING","updatedTime":"2022-11-03T08:09:02.000Z"}]},"body":{"symbol":"BTC","amount":"0.00000009","from":"tb1qc5a0dcam4fzqpmn7upvze5arzw7khrd8ngfd8xs489ta7uqs5tyqsm6dns","to":"tb1qqrw8uz4j305w6fjr4mwng040sv7kz8hcczjfun"},"createdTime":"2022-11-03T08:09:02.000Z","id":"1588080798850281474","networkCode":"BTC","status":-2,"transactionParams":{"memo":"S4awAuydV1"},"type":"TRANSFER","updatedTime":"2022-11-03T08:09:02.000Z"}
[32mINFO    [0m Common.Http:Http.py:456 2022-11-03 16:08:53.269242 | 
<-----Sign----->
Url:https://api.cryptoless.io/vault/transactions/1588080798477004801/signatures

Headers:{"Content-Type": "application/json", "Authorization": "eyJ0eXAiOiJKV1QiLCJhbGciOiJIUzI1NiJ9.eyJhdWQiOiIxNTg1MTAyNzkxNDY2NDg3ODEwIiwiZXhwIjoxNjk4Mjg4OTM1LCJpYXQiOjE2NjY3NTI5MzUsInVzZXJJZCI6MTU4NTEwMjc5MTQ2NjQ4NzgxMH0.4o43r1upI2Qzcs46wf3gqb2Kq6kq0I7qGST6qPspfjY"}

Body:{"signatures": [{"hash": "d60fef6d5707d49f38d53f786b15c6f857252cf8030f44fe1ac79e073fc9d005", "publicKey": "02e8852463021b47fe5214c599e87e431f2eb1219044946bbff397afd0518b85a6", "signature": "3f511a71980494e90fa70f95474cb87d6c2b1874ab1d4905f485b0cd03c233bc0141a4d358ae6d57c27ca3cbd54f33c781af9a7f305ffb8140fff8db1597787900"}], "serialized": "01000000012eb01db7320a473a4eb9cdf690d11db0f31ece58701a919016a1810597ac36a60000000000ffffffff02090000000000000016001400dc7e0ab28be8ed2643aedd343eaf833d611ef815340c0000000000220020c53af6e3bbaa4400ee7ee0582cd3a313bd6b8da79a12d39a153957df7010a2c800000000"}
[32mINFO    [0m Common.Http:Http.py:460 2022-11-03 16:08:53.269242 | 
<-----Sign Response----->
{"balanceChanges":[],"blockHash":"","blockHeight":"0","blockTime":"2022-11-03T08:09:06.937Z","createdTime":"2022-11-03T08:09:02.000Z","description":"Custom Excution","estimatedFee":"226","fee":"-1","hash":"24b1db4dc0cbc4e83d528c55733c7fc4df6fe3519256e3de7dcf6dc4242207a7","id":"1588080798477004801","networkCode":"BTC","serialized":"010000000001012eb01db7320a473a4eb9cdf690d11db0f31ece58701a919016a1810597ac36a60000000000ffffffff02090000000000000016001400dc7e0ab28be8ed2643aedd343eaf833d611ef815340c0000000000220020c53af6e3bbaa4400ee7ee0582cd3a313bd6b8da79a12d39a153957df7010a2c8040047304402203f511a71980494e90fa70f95474cb87d6c2b1874ab1d4905f485b0cd03c233bc02200141a4d358ae6d57c27ca3cbd54f33c781af9a7f305ffb8140fff8db1597787901483045022100d80d190a0d3c2c769e9b8a15881d35702f91525f28b18985931b04c09063c5d90220147979443c932a1200da2f942904f46d1299db352372261b7f60fac09ea0d210016952210231e263a7e95bf5107b88b85b49918841b937305cce5dae7dd7ba9b86fc460f702102e8852463021b47fe5214c599e87e431f2eb1219044946bbff397afd0518b85a6210364405a11e19f1dd1c9d704135b052927bfe5b171365e5b2acc460a6a55b0926853ae00000000","status":"PENDING","updatedTime":"2022-11-03T08:09:06.937Z"}