[32mINFO    [0m Common.Httpcore:Httpcore.py:224 2022-12-05 17:10:21.812285 | 
<-----Query UTXO----->
Url:https://api.bitcore.io/api/BTC/testnet/address/tb1qhcuul2fcyv5rvr5mc5cy5saz0q5p3kx0gsy3c0?unspent=true

Headers:{"Content-Type": "application/json"}


[32mINFO    [0m Common.Httpcore:Httpcore.py:227 2022-12-05 17:10:21.812285 | 
<-----Query UTXO Response----->
[
{"_id":"638d6724d3bfc9e8e1db485f","chain":"BTC","network":"testnet","coinbase":false,"mintIndex":1,"spentTxid":"","mintTxid":"b78ebefcc91605b5d1d1d07b72efe59c440c9b9d99801c8d38627fd486d20c96","mintHeight":2409851,"spentHeight":-2,"address":"tb1qhcuul2fcyv5rvr5mc5cy5saz0q5p3kx0gsy3c0","script":"0014be39cfa9382328360e9bc5304a43a2782818d8cf","value":895759,"confirmations":-1},
{"_id":"638d6724d3bfc9e8e1db485d","chain":"BTC","network":"testnet","coinbase":false,"mintIndex":0,"spentTxid":"","mintTxid":"b78ebefcc91605b5d1d1d07b72efe59c440c9b9d99801c8d38627fd486d20c96","mintHeight":2409851,"spentHeight":-2,"address":"tb1qhcuul2fcyv5rvr5mc5cy5saz0q5p3kx0gsy3c0","script":"0014be39cfa9382328360e9bc5304a43a2782818d8cf","value":100,"confirmations":-1}
]
[32mINFO    [0m Common.Httpcore:Httpcore.py:132 2022-12-05 17:10:21.812285 | 
<-----Core Build------>
Url:http://54.251.78.181:8888/core/api/transactions

Headers:{"Content-Type": "application/json", "Authorization": "eyJib2R5IjoiV2ViMyBUb2tlbiBWZXJzaW9uOiAyXG5Ob25jZTogMTU4NTEwMjc5MTQ2NjQ4NzgxMFxuSXNzdWVkIEF0OiBXZWQsIDI2IE9jdCAyMDIyIDAyOjU1OjI5IEdNVFxuRXhwaXJhdGlvbiBUaW1lOiBTYXQsIDIzIE9jdCAyMDMyIDAyOjU1OjI5IEdNVCIsInNpZ25hdHVyZSI6IjB4OTE1NWMyOGM3NjVjZjk1YTBjNjdiZGNhYzExNzIwYTRkNDQ4NDc4YmU5ZDZhNjE3ZWQzNDUzZDU3MDgzZjNjZTA2N2Q5OGUwMGI0YTVhMmJmOTlkY2I5Y2VmNzg5Yjc4OWViNzI5OTk4YzgxYWQzOWFhMTUzZTcxM2Q4M2FhYWUxYiJ9"}

body:{"networkCode": "BTC", "payload": {"changer": "tb1qhcuul2fcyv5rvr5mc5cy5saz0q5p3kx0gsy3c0", "recipients": [{"address": "tb1q0558s53xchyghw34tqm4x8t2n8swf666nvhffq", "value": "100"}, {"address": "tb1qn0qrq4zfxjc89c773s6k86faym3ugpcje9eras", "value": "200"}, {"address": "tb1qk50y4995th8tffhc90tz7533lygzwz57zxmhtj", "value": "300"}], "utxos": [{"amount": 895759, "scriptPubKey": "0014be39cfa9382328360e9bc5304a43a2782818d8cf", "signers": ["02e8852463021b47fe5214c599e87e431f2eb1219044946bbff397afd0518b85a6"], "txid": "b78ebefcc91605b5d1d1d07b72efe59c440c9b9d99801c8d38627fd486d20c96", "vout": 1}, {"amount": 100, "scriptPubKey": "0014be39cfa9382328360e9bc5304a43a2782818d8cf", "signers": ["02e8852463021b47fe5214c599e87e431f2eb1219044946bbff397afd0518b85a6"], "txid": "b78ebefcc91605b5d1d1d07b72efe59c440c9b9d99801c8d38627fd486d20c96", "vout": 0}]}, "type": "TRANSACTION"}


[32mINFO    [0m Common.Httpcore:Httpcore.py:135 2022-12-05 17:10:21.812285 | 
<-----Core Build Response---->
{"balanceChanges":[],"blockTime":"1970-01-01T00:00:00.000Z","createdTime":"2022-12-05T09:10:26.201Z","description":"Custom Excution","estimatedFee":"364","hash":"","id":"1599692661392097281","networkCode":"BTC","requiredSignings":[{"hash":"f8512e26042f86a19001222cbf2be912374b245f51542b20a61dc30a21e945e1","publicKeys":["02e8852463021b47fe5214c599e87e431f2eb1219044946bbff397afd0518b85a6"],"threshold":1},{"hash":"a09f83fea799994cc5605e087082d5591fae9587a2205f393824a62f1380eda0","publicKeys":["02e8852463021b47fe5214c599e87e431f2eb1219044946bbff397afd0518b85a6"],"threshold":1}],"serialized":"0100000002960cd286d47f62388d1c80999d9b0c449ce5ef727bd0d1d1b50516c9fcbe8eb70100000000ffffffff960cd286d47f62388d1c80999d9b0c449ce5ef727bd0d1d1b50516c9fcbe8eb70000000000ffffffff0464000000000000001600147d28785226c5c88bba355837531d6a99e0e4eb5ac8000000000000001600149bc030544934b072e3de8c3563e93d26e3c407122c01000000000000160014b51e4a94b45dceb4a6f82bd62f5231f910270a9eafa70d0000000000160014be39cfa9382328360e9bc5304a43a2782818d8cf00000000","status":0,"statusDesc":"BUILDING","updatedTime":"2022-12-05T09:10:26.201Z"}
[32mINFO    [0m Common.Httpcore:Httpcore.py:155 2022-12-05 17:10:21.812285 | 
<-----Core Sign------>
Url:http://54.251.78.181:8888/core/api/transactions/signatures

Headers:{"Content-Type": "application/json", "Authorization": "eyJib2R5IjoiV2ViMyBUb2tlbiBWZXJzaW9uOiAyXG5Ob25jZTogMTU4NTEwMjc5MTQ2NjQ4NzgxMFxuSXNzdWVkIEF0OiBXZWQsIDI2IE9jdCAyMDIyIDAyOjU1OjI5IEdNVFxuRXhwaXJhdGlvbiBUaW1lOiBTYXQsIDIzIE9jdCAyMDMyIDAyOjU1OjI5IEdNVCIsInNpZ25hdHVyZSI6IjB4OTE1NWMyOGM3NjVjZjk1YTBjNjdiZGNhYzExNzIwYTRkNDQ4NDc4YmU5ZDZhNjE3ZWQzNDUzZDU3MDgzZjNjZTA2N2Q5OGUwMGI0YTVhMmJmOTlkY2I5Y2VmNzg5Yjc4OWViNzI5OTk4YzgxYWQzOWFhMTUzZTcxM2Q4M2FhYWUxYiJ9"}

body:{"id": "1599692661392097281", "signatures": [{"hash": "f8512e26042f86a19001222cbf2be912374b245f51542b20a61dc30a21e945e1", "publicKey": "02e8852463021b47fe5214c599e87e431f2eb1219044946bbff397afd0518b85a6", "signature": "bea663c8d9f3b5c8272845a4a3a9a681495d6a06700308f5d2294713f17e860364b354b738b309ecc82cdafed25879a4c652fa963898c54b0772e14736755ab701"}, {"hash": "a09f83fea799994cc5605e087082d5591fae9587a2205f393824a62f1380eda0", "publicKey": "02e8852463021b47fe5214c599e87e431f2eb1219044946bbff397afd0518b85a6", "signature": "fdf01c6104671766668f3fbba522109dd561daf980865087f13f433cca1cd09747b5882fb620a2b62a78be361e6201dd8c832cc1992fc782a55827659d75e72b01"}]}


[32mINFO    [0m Common.Httpcore:Httpcore.py:158 2022-12-05 17:10:21.812285 | 
<-----Core Sign Response---->
{"balanceChanges":[],"blockHash":"","blockHeight":"0","blockTime":"1970-01-01T00:00:00.000Z","createdTime":"2022-12-05T09:10:26.000Z","description":"Custom Excution","estimatedFee":"364","fee":"-1","hash":"c4c4febd3b97a053722d902f99349348a9551b2bbcd52ef69802b2cde83f1ac8","id":"1599692661392097281","networkCode":"BTC","serialized":"01000000000102960cd286d47f62388d1c80999d9b0c449ce5ef727bd0d1d1b50516c9fcbe8eb70100000000ffffffff960cd286d47f62388d1c80999d9b0c449ce5ef727bd0d1d1b50516c9fcbe8eb70000000000ffffffff0464000000000000001600147d28785226c5c88bba355837531d6a99e0e4eb5ac8000000000000001600149bc030544934b072e3de8c3563e93d26e3c407122c01000000000000160014b51e4a94b45dceb4a6f82bd62f5231f910270a9eafa70d0000000000160014be39cfa9382328360e9bc5304a43a2782818d8cf02483045022100bea663c8d9f3b5c8272845a4a3a9a681495d6a06700308f5d2294713f17e8603022064b354b738b309ecc82cdafed25879a4c652fa963898c54b0772e14736755ab7012102e8852463021b47fe5214c599e87e431f2eb1219044946bbff397afd0518b85a602483045022100fdf01c6104671766668f3fbba522109dd561daf980865087f13f433cca1cd097022047b5882fb620a2b62a78be361e6201dd8c832cc1992fc782a55827659d75e72b012102e8852463021b47fe5214c599e87e431f2eb1219044946bbff397afd0518b85a600000000","status":2,"statusDesc":"SIGNED","updatedTime":"2022-12-05T09:10:26.475Z"}
[32mINFO    [0m Common.Httpcore:Httpcore.py:174 2022-12-05 17:10:21.812285 | 
<-----Core Send------>
Url:http://54.251.78.181:8888/core/api/transactions/send/1599692661392097281

Headers:{"Content-Type": "application/json", "Authorization": "eyJib2R5IjoiV2ViMyBUb2tlbiBWZXJzaW9uOiAyXG5Ob25jZTogMTU4NTEwMjc5MTQ2NjQ4NzgxMFxuSXNzdWVkIEF0OiBXZWQsIDI2IE9jdCAyMDIyIDAyOjU1OjI5IEdNVFxuRXhwaXJhdGlvbiBUaW1lOiBTYXQsIDIzIE9jdCAyMDMyIDAyOjU1OjI5IEdNVCIsInNpZ25hdHVyZSI6IjB4OTE1NWMyOGM3NjVjZjk1YTBjNjdiZGNhYzExNzIwYTRkNDQ4NDc4YmU5ZDZhNjE3ZWQzNDUzZDU3MDgzZjNjZTA2N2Q5OGUwMGI0YTVhMmJmOTlkY2I5Y2VmNzg5Yjc4OWViNzI5OTk4YzgxYWQzOWFhMTUzZTcxM2Q4M2FhYWUxYiJ9"}


[32mINFO    [0m Common.Httpcore:Httpcore.py:177 2022-12-05 17:10:21.812285 | 
<-----Core Send Response---->
{"balanceChanges":[],"blockHash":"","blockHeight":"0","blockTime":"2022-12-05T09:10:26.700Z","createdTime":"2022-12-05T09:10:26.000Z","description":"Custom Excution","estimatedFee":"364","fee":"-1","hash":"c4c4febd3b97a053722d902f99349348a9551b2bbcd52ef69802b2cde83f1ac8","id":"1599692661392097281","networkCode":"BTC","serialized":"01000000000102960cd286d47f62388d1c80999d9b0c449ce5ef727bd0d1d1b50516c9fcbe8eb70100000000ffffffff960cd286d47f62388d1c80999d9b0c449ce5ef727bd0d1d1b50516c9fcbe8eb70000000000ffffffff0464000000000000001600147d28785226c5c88bba355837531d6a99e0e4eb5ac8000000000000001600149bc030544934b072e3de8c3563e93d26e3c407122c01000000000000160014b51e4a94b45dceb4a6f82bd62f5231f910270a9eafa70d0000000000160014be39cfa9382328360e9bc5304a43a2782818d8cf02483045022100bea663c8d9f3b5c8272845a4a3a9a681495d6a06700308f5d2294713f17e8603022064b354b738b309ecc82cdafed25879a4c652fa963898c54b0772e14736755ab7012102e8852463021b47fe5214c599e87e431f2eb1219044946bbff397afd0518b85a602483045022100fdf01c6104671766668f3fbba522109dd561daf980865087f13f433cca1cd097022047b5882fb620a2b62a78be361e6201dd8c832cc1992fc782a55827659d75e72b012102e8852463021b47fe5214c599e87e431f2eb1219044946bbff397afd0518b85a600000000","status":3,"statusDesc":"PENDING","updatedTime":"2022-12-05T09:10:26.700Z"}