[32mINFO    [0m Common.Http:Http.py:425 2022-12-14 14:21:51.914088 | 
<-----Query Holders----->
Url:http://54.251.78.181:8888/escrow/api//proxy/core/api/assets/holders/?networkCode=BTC&address=tb1qhcuul2fcyv5rvr5mc5cy5saz0q5p3kx0gsy3c0&symbol=BTC
Headers:{"Content-Type": "application/json", "Authorization": "eyJ0eXAiOiJKV1QiLCJhbGciOiJIUzI1NiJ9.eyJhdWQiOiIxNjAxMDQzOTMwMjg3NDExMjAyIiwiZXhwIjoxNzAyMDg5NjAwLCJpYXQiOjE2NzA1NTM2MDAsInVzZXJJZCI6MTYwMTA0MzkzMDI4NzQxMTIwMn0.fZVc267JNsgy5tB_Wn89l2Zgd3ZgXJfaMg_T9lc3j-o"}


[32mINFO    [0m Common.Http:Http.py:428 2022-12-14 14:21:51.914088 | 
<-----Query Holders Response----->
{"current":1,"list":[{"address":"tb1qhcuul2fcyv5rvr5mc5cy5saz0q5p3kx0gsy3c0","id":"1602242291732570114","networkCode":"BTC","quantity":"0.00891465","symbol":"BTC","updatedTime":"2022-12-14T05:01:00.000Z"}],"size":10,"total":1}


[32mINFO    [0m Common.Http:Http.py:265 2022-12-14 14:21:51.914088 | 
<-----Instructions----->
Url:http://54.251.78.181:8888/escrow/api//instructions
Headers:{"Content-Type": "application/json", "Authorization": "eyJ0eXAiOiJKV1QiLCJhbGciOiJIUzI1NiJ9.eyJhdWQiOiIxNjAxMDQzOTMwMjg3NDExMjAyIiwiZXhwIjoxNzAyMDg5NjAwLCJpYXQiOjE2NzA1NTM2MDAsInVzZXJJZCI6MTYwMTA0MzkzMDI4NzQxMTIwMn0.fZVc267JNsgy5tB_Wn89l2Zgd3ZgXJfaMg_T9lc3j-o"}
Body:{"networkCode": "BTC", "type": "transfer", "body": {"from": "tb1qhcuul2fcyv5rvr5mc5cy5saz0q5p3kx0gsy3c0", "to": "tb1qagkvxdz2zq76atvr0rzh8n9lewjmlm25umq0xq", "symbol": "BTC", "amount": "0.000008"}, "transactionParams": {"memo": "h2W6rgvTDb"}}


[32mINFO    [0m Common.Http:Http.py:268 2022-12-14 14:21:51.914088 | 
<-----Instructions Response----->
{"_embedded":{"transactions":[{"balanceChanges":[],"blockHash":"","blockHeight":"0","blockTime":"1970-01-01T00:00:00.000Z","createdTime":"2022-12-14T06:21:55.000Z","description":"","estimatedFee":"187","fee":"-1","hash":"","id":"1602911741368520705","networkCode":"BTC","requiredSignings":[{"hash":"7ea07451507129d95db27b17ecdeff7dfe606f52cd90a717b9f972886175ef10","publicKeys":["02e8852463021b47fe5214c599e87e431f2eb1219044946bbff397afd0518b85a6"],"threshold":1}],"serialized":"010000000180e6eb613d394edb4f08816b6aea75cb9a82e471d8eb73463d8f451b2d6525dd0100000000ffffffff022003000000000000160014ea2cc3344a103daead8378c573ccbfcba5bfed546e960d0000000000160014be39cfa9382328360e9bc5304a43a2782818d8cf00000000","status":0,"statusDesc":"BUILDING","updatedTime":"2022-12-14T06:21:55.000Z"}]},"body":{"symbol":"BTC","amount":"0.000008","from":"tb1qhcuul2fcyv5rvr5mc5cy5saz0q5p3kx0gsy3c0","to":"tb1qagkvxdz2zq76atvr0rzh8n9lewjmlm25umq0xq"},"createdTime":"2022-12-14T06:21:54.000Z","id":"1602911741620248578","networkCode":"BTC","status":-2,"transactionParams":{"memo":"h2W6rgvTDb"},"type":"TRANSFER","updatedTime":"2022-12-14T06:21:54.000Z"}


[32mINFO    [0m Common.Http:Http.py:344 2022-12-14 14:21:51.914088 | 
<-----Sign----->
Url:http://54.251.78.181:8888/escrow/api/transactions/signatures
Headers:{"Content-Type": "application/json", "Authorization": "eyJ0eXAiOiJKV1QiLCJhbGciOiJIUzI1NiJ9.eyJhdWQiOiIxNjAxMDQzOTMwMjg3NDExMjAyIiwiZXhwIjoxNzAyMDg5NjAwLCJpYXQiOjE2NzA1NTM2MDAsInVzZXJJZCI6MTYwMTA0MzkzMDI4NzQxMTIwMn0.fZVc267JNsgy5tB_Wn89l2Zgd3ZgXJfaMg_T9lc3j-o"}
Body:{"id": "1602911741368520705", "signatures": [{"hash": "7ea07451507129d95db27b17ecdeff7dfe606f52cd90a717b9f972886175ef10", "publicKey": "02e8852463021b47fe5214c599e87e431f2eb1219044946bbff397afd0518b85a6", "signature": "d9438063a9213a95f3b9c9a8648bec17caf070c654d5905f5e454a485bd2a78a0591750f45411045524ffc723c133631e36bbaa9e3f3baf36976cf904c54c75001"}]}


[32mINFO    [0m Common.Http:Http.py:348 2022-12-14 14:21:51.914088 | 
<-----Sign Response----->
{"balanceChanges":[],"blockHash":"","blockHeight":"0","blockTime":"1970-01-01T00:00:00.000Z","createdTime":"2022-12-14T06:21:55.000Z","description":"","estimatedFee":"187","fee":"-1","hash":"d688eeac1ffd3afa4d2bc40930ff318b9c7d47324f30cfb35a211a08e5f542fb","id":"1602911741368520705","networkCode":"BTC","serialized":"0100000000010180e6eb613d394edb4f08816b6aea75cb9a82e471d8eb73463d8f451b2d6525dd0100000000ffffffff022003000000000000160014ea2cc3344a103daead8378c573ccbfcba5bfed546e960d0000000000160014be39cfa9382328360e9bc5304a43a2782818d8cf02483045022100d9438063a9213a95f3b9c9a8648bec17caf070c654d5905f5e454a485bd2a78a02200591750f45411045524ffc723c133631e36bbaa9e3f3baf36976cf904c54c750012102e8852463021b47fe5214c599e87e431f2eb1219044946bbff397afd0518b85a600000000","status":2,"statusDesc":"SIGNED","updatedTime":"2022-12-14T06:21:55.884Z"}


[32mINFO    [0m Common.Http:Http.py:364 2022-12-14 14:21:51.914088 | 
<-----Send----->
Url:http://54.251.78.181:8888/escrow/api//transactions/send/1602911741368520705
Headers:{"Content-Type": "application/json", "Authorization": "eyJ0eXAiOiJKV1QiLCJhbGciOiJIUzI1NiJ9.eyJhdWQiOiIxNjAxMDQzOTMwMjg3NDExMjAyIiwiZXhwIjoxNzAyMDg5NjAwLCJpYXQiOjE2NzA1NTM2MDAsInVzZXJJZCI6MTYwMTA0MzkzMDI4NzQxMTIwMn0.fZVc267JNsgy5tB_Wn89l2Zgd3ZgXJfaMg_T9lc3j-o"}


[32mINFO    [0m Common.Http:Http.py:368 2022-12-14 14:21:51.914088 | 
<-----Send Response----->
{"balanceChanges":[],"blockHash":"","blockHeight":"0","blockTime":"2022-12-14T06:21:56.169Z","createdTime":"2022-12-14T06:21:55.000Z","description":"","estimatedFee":"187","fee":"-1","hash":"d688eeac1ffd3afa4d2bc40930ff318b9c7d47324f30cfb35a211a08e5f542fb","id":"1602911741368520705","networkCode":"BTC","serialized":"0100000000010180e6eb613d394edb4f08816b6aea75cb9a82e471d8eb73463d8f451b2d6525dd0100000000ffffffff022003000000000000160014ea2cc3344a103daead8378c573ccbfcba5bfed546e960d0000000000160014be39cfa9382328360e9bc5304a43a2782818d8cf02483045022100d9438063a9213a95f3b9c9a8648bec17caf070c654d5905f5e454a485bd2a78a02200591750f45411045524ffc723c133631e36bbaa9e3f3baf36976cf904c54c750012102e8852463021b47fe5214c599e87e431f2eb1219044946bbff397afd0518b85a600000000","status":3,"statusDesc":"PENDING","updatedTime":"2022-12-14T06:21:56.169Z"}