[32mINFO    [0m Common.Httpcore:Httpcore.py:201 2022-12-02 14:22:48.158507 | 
<-----Relay estimate----->
Url:http://16.163.105.179:18000/api/v2/safes/0x6490C1b13A4576128159576F9d3acadF79e8dd6f/transactions/estimate/

Headers:{"Content-Type": "application/json"}

Body:{"gasToken": "0x0000000000000000000000000000000000000000", "operation": "0", "safe": "0x6490C1b13A4576128159576F9d3acadF79e8dd6f", "to": "0x6490C1b13A4576128159576F9d3acadF79e8dd6f", "data": "0x", "value": "100"}
[32mINFO    [0m Common.Httpcore:Httpcore.py:204 2022-12-02 14:22:48.158507 | 
<-----Relay estimate Response----->
{"safeTxGas":"45006","baseGas":"54900","dataGas":"54900","operationalGas":"0","gasPrice":"33333333334","lastUsedNonce":12,"gasToken":"0x0000000000000000000000000000000000000000","refundReceiver":"0xbA7024EE0273C30a479838DA4Ad31718436b453e"}
[32mINFO    [0m Common.Httpcore:Httpcore.py:132 2022-12-02 14:22:48.158507 | 
<-----Core Build------>
Url:http://54.251.78.181:8888/core/api/transactions

Headers:{"Content-Type": "application/json", "Authorization": "eyJib2R5IjoiV2ViMyBUb2tlbiBWZXJzaW9uOiAyXG5Ob25jZTogMTU4NTEwMjc5MTQ2NjQ4NzgxMFxuSXNzdWVkIEF0OiBXZWQsIDI2IE9jdCAyMDIyIDAyOjU1OjI5IEdNVFxuRXhwaXJhdGlvbiBUaW1lOiBTYXQsIDIzIE9jdCAyMDMyIDAyOjU1OjI5IEdNVCIsInNpZ25hdHVyZSI6IjB4OTE1NWMyOGM3NjVjZjk1YTBjNjdiZGNhYzExNzIwYTRkNDQ4NDc4YmU5ZDZhNjE3ZWQzNDUzZDU3MDgzZjNjZTA2N2Q5OGUwMGI0YTVhMmJmOTlkY2I5Y2VmNzg5Yjc4OWViNzI5OTk4YzgxYWQzOWFhMTUzZTcxM2Q4M2FhYWUxYiJ9"}

body:{"networkCode": "MATIC", "payload": {"from": "0xe525E7cd17f6Dc950492755A089E452fd5d9d44f", "inputRequest": {"to": "0x6490C1b13A4576128159576F9d3acadF79e8dd6f", "value": "0x64"}, "safeInputRequest": {"contract": "0x6490C1b13A4576128159576F9d3acadF79e8dd6f", "participants": ["0244fb46bba2e912f26a73126b89742ed7f521f593ee084953ae008172553a0113", "03c420167aaf4fc7106646b2fe485519e5569ceb1584ae31d62537e349a4e4b5a9"], "refundReceiver": "0xe525E7cd17f6Dc950492755A089E452fd5d9d44f", "gasToken": "0x0000000000000000000000000000000000000000", "baseGas": "54900", "safeTxGas": "45006", "gasPrice": "33333333334", "to": "0x2791Bca1f2de4661ED88A30C99A7a9449Aa84174"}}, "type": "SAFE_TOKEN_TRANSFER_TRANSACTION"}


[32mINFO    [0m Common.Httpcore:Httpcore.py:135 2022-12-02 14:22:48.158507 | 
<-----Core Build Response---->
{"balanceChanges":[],"blockTime":"1970-01-01T00:00:00.000Z","createdTime":"2022-12-02T06:22:50.859Z","description":"Custom Excution","estimatedFee":"","hash":"","id":"1598563321887543298","networkCode":"MATIC","requiredSignings":[{"hash":"4fb10a3cf5333c2e23fc871fd3d7314b4054cff4b7c4ab5da40e0d6306e8511c","publicKeys":["0244fb46bba2e912f26a73126b89742ed7f521f593ee084953ae008172553a0113","03c420167aaf4fc7106646b2fe485519e5569ceb1584ae31d62537e349a4e4b5a9"],"threshold":2}],"serialized":"6a7612020000000000000000000000002791bca1f2de4661ed88a30c99a7a9449aa84174000000000000000000000000000000000000000000000000000000000000000000000000000000000000000000000000000000000000000000000000000001400000000000000000000000000000000000000000000000000000000000000000000000000000000000000000000000000000000000000000000000000000afce000000000000000000000000000000000000000000000000000000000000d67400000000000000000000000000000000000000000000000000000007c2d24d560000000000000000000000000000000000000000000000000000000000000000000000000000000000000000e525e7cd17f6dc950492755a089e452fd5d9d44f00000000000000000000000000000000000000000000000000000000000001c00000000000000000000000000000000000000000000000000000000000000044a9059cbb0000000000000000000000006490c1b13a4576128159576f9d3acadf79e8dd6f0000000000000000000000000000000000000000000000000000000000000064000000000000000000000000000000000000000000000000000000000000000000000000000000000000000000000000000000000000000000000000","status":0,"statusDesc":"BUILDING","updatedTime":"2022-12-02T06:22:50.859Z"}
[32mINFO    [0m Common.Httpcore:Httpcore.py:155 2022-12-02 14:22:48.158507 | 
<-----Core Sign------>
Url:http://54.251.78.181:8888/core/api/transactions/signatures

Headers:{"Content-Type": "application/json", "Authorization": "eyJib2R5IjoiV2ViMyBUb2tlbiBWZXJzaW9uOiAyXG5Ob25jZTogMTU4NTEwMjc5MTQ2NjQ4NzgxMFxuSXNzdWVkIEF0OiBXZWQsIDI2IE9jdCAyMDIyIDAyOjU1OjI5IEdNVFxuRXhwaXJhdGlvbiBUaW1lOiBTYXQsIDIzIE9jdCAyMDMyIDAyOjU1OjI5IEdNVCIsInNpZ25hdHVyZSI6IjB4OTE1NWMyOGM3NjVjZjk1YTBjNjdiZGNhYzExNzIwYTRkNDQ4NDc4YmU5ZDZhNjE3ZWQzNDUzZDU3MDgzZjNjZTA2N2Q5OGUwMGI0YTVhMmJmOTlkY2I5Y2VmNzg5Yjc4OWViNzI5OTk4YzgxYWQzOWFhMTUzZTcxM2Q4M2FhYWUxYiJ9"}

body:{"id": "1598563321887543298", "signatures": [{"hash": "4fb10a3cf5333c2e23fc871fd3d7314b4054cff4b7c4ab5da40e0d6306e8511c", "publicKey": "0244fb46bba2e912f26a73126b89742ed7f521f593ee084953ae008172553a0113", "signature": "2ad05b510f9ae3cce20f632c3bf4abf666b05d15c8d440154e40e1ec58872e9a6381be00fa132b7cbfcef9124cafc561f24db0c1de3b3abb09e6c0cc7c97aebc00"}, {"hash": "4fb10a3cf5333c2e23fc871fd3d7314b4054cff4b7c4ab5da40e0d6306e8511c", "publicKey": "03c420167aaf4fc7106646b2fe485519e5569ceb1584ae31d62537e349a4e4b5a9", "signature": "a0873468cafb4fb1a7b5eaa5ab454ed0e112e6716da485c100ee536ae362ef1328772ea9bff464ba68395a9e1aeecf51676b30a959ae7be322e248866231ab2e00"}]}


[32mINFO    [0m Common.Httpcore:Httpcore.py:158 2022-12-02 14:22:48.158507 | 
<-----Core Sign Response---->
{"balanceChanges":[],"blockHash":"","blockHeight":"0","blockTime":"1970-01-01T00:00:00.000Z","createdTime":"2022-12-02T06:22:51.000Z","description":"Contract Execution","estimatedFee":"3405960000000000","fee":"-1","hash":"","id":"1598563321887543298","networkCode":"MATIC","requiredSignings":[{"hash":"c1286d5ff79a6947ddab6e7c70d99e6db9727d7b4712b55d371225f01fa9af7b","threshold":1}],"serialized":"02f902b48189368506fc23ac008506fc23ac288301bb7c946490c1b13a4576128159576f9d3acadf79e8dd6f80b902846a7612020000000000000000000000002791bca1f2de4661ed88a30c99a7a9449aa84174000000000000000000000000000000000000000000000000000000000000000000000000000000000000000000000000000000000000000000000000000001400000000000000000000000000000000000000000000000000000000000000000000000000000000000000000000000000000000000000000000000000000afce000000000000000000000000000000000000000000000000000000000000d67400000000000000000000000000000000000000000000000000000007c2d24d560000000000000000000000000000000000000000000000000000000000000000000000000000000000000000e525e7cd17f6dc950492755a089e452fd5d9d44f00000000000000000000000000000000000000000000000000000000000001c00000000000000000000000000000000000000000000000000000000000000044a9059cbb0000000000000000000000006490c1b13a4576128159576f9d3acadf79e8dd6f0000000000000000000000000000000000000000000000000000000000000064000000000000000000000000000000000000000000000000000000000000000000000000000000000000000000000000000000000000000000000082a0873468cafb4fb1a7b5eaa5ab454ed0e112e6716da485c100ee536ae362ef1328772ea9bff464ba68395a9e1aeecf51676b30a959ae7be322e248866231ab2e1b2ad05b510f9ae3cce20f632c3bf4abf666b05d15c8d440154e40e1ec58872e9a6381be00fa132b7cbfcef9124cafc561f24db0c1de3b3abb09e6c0cc7c97aebc1b000000000000000000000000000000000000000000000000000000000000c0808080","status":0,"statusDesc":"BUILDING","updatedTime":"2022-12-02T06:22:52.700Z"}
[32mINFO    [0m Common.Httpcore:Httpcore.py:155 2022-12-02 14:22:48.158507 | 
<-----Core Sign------>
Url:http://54.251.78.181:8888/core/api/transactions/signatures

Headers:{"Content-Type": "application/json", "Authorization": "eyJib2R5IjoiV2ViMyBUb2tlbiBWZXJzaW9uOiAyXG5Ob25jZTogMTU4NTEwMjc5MTQ2NjQ4NzgxMFxuSXNzdWVkIEF0OiBXZWQsIDI2IE9jdCAyMDIyIDAyOjU1OjI5IEdNVFxuRXhwaXJhdGlvbiBUaW1lOiBTYXQsIDIzIE9jdCAyMDMyIDAyOjU1OjI5IEdNVCIsInNpZ25hdHVyZSI6IjB4OTE1NWMyOGM3NjVjZjk1YTBjNjdiZGNhYzExNzIwYTRkNDQ4NDc4YmU5ZDZhNjE3ZWQzNDUzZDU3MDgzZjNjZTA2N2Q5OGUwMGI0YTVhMmJmOTlkY2I5Y2VmNzg5Yjc4OWViNzI5OTk4YzgxYWQzOWFhMTUzZTcxM2Q4M2FhYWUxYiJ9"}

body:{"id": "1598563321887543298", "signatures": [{"hash": "c1286d5ff79a6947ddab6e7c70d99e6db9727d7b4712b55d371225f01fa9af7b", "publicKey": "0244fb46bba2e912f26a73126b89742ed7f521f593ee084953ae008172553a0113", "signature": "e253dd7cb1eabbcb96f65e989779d5893ad8707fb513989187fbefdec90f8b2057a6b51aa1231b25392bd16fc4499289b8717b0ebe57aef867c6841f3e23ee1601"}]}


[32mINFO    [0m Common.Httpcore:Httpcore.py:158 2022-12-02 14:22:48.158507 | 
<-----Core Sign Response---->
{"balanceChanges":[],"blockHash":"","blockHeight":"0","blockTime":"1970-01-01T00:00:00.000Z","createdTime":"2022-12-02T06:22:51.000Z","description":"Contract Execution","estimatedFee":"3405960000000000","fee":"-1","hash":"0xd9f782b3b7aabf8f4cd76d654df202e9a6d286c72775330261c2368d50e9ac66","id":"1598563321887543298","networkCode":"MATIC","serialized":"02f902f48189368506fc23ac008506fc23ac288301bb7c946490c1b13a4576128159576f9d3acadf79e8dd6f80b902846a7612020000000000000000000000002791bca1f2de4661ed88a30c99a7a9449aa84174000000000000000000000000000000000000000000000000000000000000000000000000000000000000000000000000000000000000000000000000000001400000000000000000000000000000000000000000000000000000000000000000000000000000000000000000000000000000000000000000000000000000afce000000000000000000000000000000000000000000000000000000000000d67400000000000000000000000000000000000000000000000000000007c2d24d560000000000000000000000000000000000000000000000000000000000000000000000000000000000000000e525e7cd17f6dc950492755a089e452fd5d9d44f00000000000000000000000000000000000000000000000000000000000001c00000000000000000000000000000000000000000000000000000000000000044a9059cbb0000000000000000000000006490c1b13a4576128159576f9d3acadf79e8dd6f0000000000000000000000000000000000000000000000000000000000000064000000000000000000000000000000000000000000000000000000000000000000000000000000000000000000000000000000000000000000000082a0873468cafb4fb1a7b5eaa5ab454ed0e112e6716da485c100ee536ae362ef1328772ea9bff464ba68395a9e1aeecf51676b30a959ae7be322e248866231ab2e1b2ad05b510f9ae3cce20f632c3bf4abf666b05d15c8d440154e40e1ec58872e9a6381be00fa132b7cbfcef9124cafc561f24db0c1de3b3abb09e6c0cc7c97aebc1b000000000000000000000000000000000000000000000000000000000000c001a0e253dd7cb1eabbcb96f65e989779d5893ad8707fb513989187fbefdec90f8b20a057a6b51aa1231b25392bd16fc4499289b8717b0ebe57aef867c6841f3e23ee16","status":2,"statusDesc":"SIGNED","updatedTime":"2022-12-02T06:22:53.047Z"}
[32mINFO    [0m Common.Httpcore:Httpcore.py:174 2022-12-02 14:22:48.158507 | 
<-----Core Send------>
Url:http://54.251.78.181:8888/core/api/transactions/send/1598563321887543298

Headers:{"Content-Type": "application/json", "Authorization": "eyJib2R5IjoiV2ViMyBUb2tlbiBWZXJzaW9uOiAyXG5Ob25jZTogMTU4NTEwMjc5MTQ2NjQ4NzgxMFxuSXNzdWVkIEF0OiBXZWQsIDI2IE9jdCAyMDIyIDAyOjU1OjI5IEdNVFxuRXhwaXJhdGlvbiBUaW1lOiBTYXQsIDIzIE9jdCAyMDMyIDAyOjU1OjI5IEdNVCIsInNpZ25hdHVyZSI6IjB4OTE1NWMyOGM3NjVjZjk1YTBjNjdiZGNhYzExNzIwYTRkNDQ4NDc4YmU5ZDZhNjE3ZWQzNDUzZDU3MDgzZjNjZTA2N2Q5OGUwMGI0YTVhMmJmOTlkY2I5Y2VmNzg5Yjc4OWViNzI5OTk4YzgxYWQzOWFhMTUzZTcxM2Q4M2FhYWUxYiJ9"}


[32mINFO    [0m Common.Httpcore:Httpcore.py:177 2022-12-02 14:22:48.158507 | 
<-----Core Send Response---->
{"balanceChanges":[],"blockHash":"","blockHeight":"0","blockTime":"2022-12-02T06:22:53.612Z","createdTime":"2022-12-02T06:22:51.000Z","description":"Contract Execution","estimatedFee":"3405960000000000","fee":"-1","hash":"0xd9f782b3b7aabf8f4cd76d654df202e9a6d286c72775330261c2368d50e9ac66","id":"1598563321887543298","networkCode":"MATIC","serialized":"02f902f48189368506fc23ac008506fc23ac288301bb7c946490c1b13a4576128159576f9d3acadf79e8dd6f80b902846a7612020000000000000000000000002791bca1f2de4661ed88a30c99a7a9449aa84174000000000000000000000000000000000000000000000000000000000000000000000000000000000000000000000000000000000000000000000000000001400000000000000000000000000000000000000000000000000000000000000000000000000000000000000000000000000000000000000000000000000000afce000000000000000000000000000000000000000000000000000000000000d67400000000000000000000000000000000000000000000000000000007c2d24d560000000000000000000000000000000000000000000000000000000000000000000000000000000000000000e525e7cd17f6dc950492755a089e452fd5d9d44f00000000000000000000000000000000000000000000000000000000000001c00000000000000000000000000000000000000000000000000000000000000044a9059cbb0000000000000000000000006490c1b13a4576128159576f9d3acadf79e8dd6f0000000000000000000000000000000000000000000000000000000000000064000000000000000000000000000000000000000000000000000000000000000000000000000000000000000000000000000000000000000000000082a0873468cafb4fb1a7b5eaa5ab454ed0e112e6716da485c100ee536ae362ef1328772ea9bff464ba68395a9e1aeecf51676b30a959ae7be322e248866231ab2e1b2ad05b510f9ae3cce20f632c3bf4abf666b05d15c8d440154e40e1ec58872e9a6381be00fa132b7cbfcef9124cafc561f24db0c1de3b3abb09e6c0cc7c97aebc1b000000000000000000000000000000000000000000000000000000000000c001a0e253dd7cb1eabbcb96f65e989779d5893ad8707fb513989187fbefdec90f8b20a057a6b51aa1231b25392bd16fc4499289b8717b0ebe57aef867c6841f3e23ee16","status":3,"statusDesc":"PENDING","updatedTime":"2022-12-02T06:22:53.612Z"}