[32mINFO    [0m Common.Httpcore:Httpcore.py:224 2022-12-06 15:35:07.99350 | 
<-----Query UTXO----->
Url:https://api.bitcore.io/api/BTC/testnet/address/tb1q4t8jtp4fwjg4spfjh7ux5ckhrallj652kwrj48gcvd0rt5g9ea3q4vlm33?unspent=true

Headers:{"Content-Type": "application/json"}


[32mINFO    [0m Common.Httpcore:Httpcore.py:227 2022-12-06 15:35:07.99350 | 
<-----Query UTXO Response----->
[
{"_id":"638ef02ed3bfc9e8e17c2970","chain":"BTC","network":"testnet","coinbase":false,"mintIndex":1,"spentTxid":"","mintTxid":"be143ee516b4845782e90c6663bc81163cdf22f57c7b070b9be8c07c726c1ccf","mintHeight":-1,"spentHeight":-2,"address":"tb1q4t8jtp4fwjg4spfjh7ux5ckhrallj652kwrj48gcvd0rt5g9ea3q4vlm33","script":"0020aacf2586a97491580532bfb86a62d71f7ff96a8ab3872a9d18635e35d105cf62","value":99674,"confirmations":-1},
{"_id":"6385d239d3bfc9e8e120b72a","chain":"BTC","network":"testnet","coinbase":false,"mintIndex":0,"spentTxid":"be143ee516b4845782e90c6663bc81163cdf22f57c7b070b9be8c07c726c1ccf","mintTxid":"96f20d3215de90d2a4722c39fe7eb9599958fc0b19839ee33254f9e779beb0de","mintHeight":2408949,"spentHeight":-1,"address":"tb1q4t8jtp4fwjg4spfjh7ux5ckhrallj652kwrj48gcvd0rt5g9ea3q4vlm33","script":"0020aacf2586a97491580532bfb86a62d71f7ff96a8ab3872a9d18635e35d105cf62","value":100000,"confirmations":-1,"sequenceNumber":4294967295}
]
[32mINFO    [0m Common.Httpcore:Httpcore.py:132 2022-12-06 15:35:07.99350 | 
<-----Core Build------>
Url:http://54.251.78.181:8888/core/api/transactions

Headers:{"Content-Type": "application/json", "Authorization": "eyJib2R5IjoiV2ViMyBUb2tlbiBWZXJzaW9uOiAyXG5Ob25jZTogMTU4NTEwMjc5MTQ2NjQ4NzgxMFxuSXNzdWVkIEF0OiBXZWQsIDI2IE9jdCAyMDIyIDAyOjU1OjI5IEdNVFxuRXhwaXJhdGlvbiBUaW1lOiBTYXQsIDIzIE9jdCAyMDMyIDAyOjU1OjI5IEdNVCIsInNpZ25hdHVyZSI6IjB4OTE1NWMyOGM3NjVjZjk1YTBjNjdiZGNhYzExNzIwYTRkNDQ4NDc4YmU5ZDZhNjE3ZWQzNDUzZDU3MDgzZjNjZTA2N2Q5OGUwMGI0YTVhMmJmOTlkY2I5Y2VmNzg5Yjc4OWViNzI5OTk4YzgxYWQzOWFhMTUzZTcxM2Q4M2FhYWUxYiJ9"}

body:{"networkCode": "BTC", "payload": {"changer": "tb1q4t8jtp4fwjg4spfjh7ux5ckhrallj652kwrj48gcvd0rt5g9ea3q4vlm33", "recipients": [{"address": "tb1qyczy479xgg8flr4amkrxp6s4an7huecg9mq2ay", "value": "100"}, {"address": "tb1q9ps855ksckycta6kqjecszvu39pg4nedkx540t", "value": "200"}, {"address": "tb1q0r3zhkjf408nf069dd9z7lal6zzyhva860pt3y", "value": "300"}], "utxos": [{"amount": 99674, "witnessScript": "52210231e263a7e95bf5107b88b85b49918841b937305cce5dae7dd7ba9b86fc460f702102e8852463021b47fe5214c599e87e431f2eb1219044946bbff397afd0518b85a652ae", "signers": ["02e8852463021b47fe5214c599e87e431f2eb1219044946bbff397afd0518b85a6", "0231e263a7e95bf5107b88b85b49918841b937305cce5dae7dd7ba9b86fc460f70"], "txid": "be143ee516b4845782e90c6663bc81163cdf22f57c7b070b9be8c07c726c1ccf", "vout": 1}, {"amount": 100000, "witnessScript": "52210231e263a7e95bf5107b88b85b49918841b937305cce5dae7dd7ba9b86fc460f702102e8852463021b47fe5214c599e87e431f2eb1219044946bbff397afd0518b85a652ae", "signers": ["02e8852463021b47fe5214c599e87e431f2eb1219044946bbff397afd0518b85a6", "0231e263a7e95bf5107b88b85b49918841b937305cce5dae7dd7ba9b86fc460f70"], "txid": "96f20d3215de90d2a4722c39fe7eb9599958fc0b19839ee33254f9e779beb0de", "vout": 0}]}, "type": "TRANSACTION"}


[32mINFO    [0m Common.Httpcore:Httpcore.py:135 2022-12-06 15:35:07.99350 | 
<-----Core Build Response---->
{"balanceChanges":[],"blockTime":"1970-01-01T00:00:00.000Z","createdTime":"2022-12-06T07:35:12.616Z","description":"Custom Excution","estimatedFee":"442","hash":"","id":"1600031085328322561","networkCode":"BTC","requiredSignings":[{"hash":"69ae38956f266e7a84ea2af0c0a917897afd65d453d44b4d4e7c04d1f6157e68","publicKeys":["02e8852463021b47fe5214c599e87e431f2eb1219044946bbff397afd0518b85a6","0231e263a7e95bf5107b88b85b49918841b937305cce5dae7dd7ba9b86fc460f70"],"threshold":2},{"hash":"135c646cf6120ecbfae40a60ce58911eea1f96022a770dae3f166f03ecb84703","publicKeys":["02e8852463021b47fe5214c599e87e431f2eb1219044946bbff397afd0518b85a6","0231e263a7e95bf5107b88b85b49918841b937305cce5dae7dd7ba9b86fc460f70"],"threshold":2}],"serialized":"0100000002cf1c6c727cc0e89b0b077b7cf522df3c1681bc63660ce9825784b416e53e14be0100000000ffffffffdeb0be79e7f95432e39e83190bfc589959b97efe392c72a4d290de15320df2960000000000ffffffff04640000000000000016001426044af8a6420e9f8ebddd8660ea15ecfd7e6708c80000000000000016001428607a52d0c58985f75604b388099c89428acf2d2c0100000000000016001478e22bda49abcf34bf456b4a2f7fbfd0844bb3a7e807030000000000220020aacf2586a97491580532bfb86a62d71f7ff96a8ab3872a9d18635e35d105cf6200000000","status":0,"statusDesc":"BUILDING","updatedTime":"2022-12-06T07:35:12.616Z"}
[32mINFO    [0m Common.Httpcore:Httpcore.py:155 2022-12-06 15:35:07.99350 | 
<-----Core Sign------>
Url:http://54.251.78.181:8888/core/api/transactions/signatures

Headers:{"Content-Type": "application/json", "Authorization": "eyJib2R5IjoiV2ViMyBUb2tlbiBWZXJzaW9uOiAyXG5Ob25jZTogMTU4NTEwMjc5MTQ2NjQ4NzgxMFxuSXNzdWVkIEF0OiBXZWQsIDI2IE9jdCAyMDIyIDAyOjU1OjI5IEdNVFxuRXhwaXJhdGlvbiBUaW1lOiBTYXQsIDIzIE9jdCAyMDMyIDAyOjU1OjI5IEdNVCIsInNpZ25hdHVyZSI6IjB4OTE1NWMyOGM3NjVjZjk1YTBjNjdiZGNhYzExNzIwYTRkNDQ4NDc4YmU5ZDZhNjE3ZWQzNDUzZDU3MDgzZjNjZTA2N2Q5OGUwMGI0YTVhMmJmOTlkY2I5Y2VmNzg5Yjc4OWViNzI5OTk4YzgxYWQzOWFhMTUzZTcxM2Q4M2FhYWUxYiJ9"}

body:{"id": "1600031085328322561", "signatures": [{"hash": "69ae38956f266e7a84ea2af0c0a917897afd65d453d44b4d4e7c04d1f6157e68", "publicKey": "02e8852463021b47fe5214c599e87e431f2eb1219044946bbff397afd0518b85a6", "signature": "dda2dfa852c9febadced259ba413cd17d4440e1408423bf6d66931a8285737842ade61c9713c2ad57e5238f13d791540c7b224b41b620ac4865989727a5a1ba000"}, {"hash": "69ae38956f266e7a84ea2af0c0a917897afd65d453d44b4d4e7c04d1f6157e68", "publicKey": "0231e263a7e95bf5107b88b85b49918841b937305cce5dae7dd7ba9b86fc460f70", "signature": "69792bd3aa22ddcdc0ba6b0b0da595b9c0ad630c30fa6fe2628c129f909bacd6388676ff68481e5147914607a4e8420d92f532dbd6cc9f7a0ef5082400c2c09800"}, {"hash": "135c646cf6120ecbfae40a60ce58911eea1f96022a770dae3f166f03ecb84703", "publicKey": "02e8852463021b47fe5214c599e87e431f2eb1219044946bbff397afd0518b85a6", "signature": "01494b5c1765678a52f2e98e18f29e46ad682586f3e29230a1217120167277de30e00a5dccd6f60ec75ba5bffbe14db31066d92e567ed571e2841d82c13bfece00"}, {"hash": "135c646cf6120ecbfae40a60ce58911eea1f96022a770dae3f166f03ecb84703", "publicKey": "0231e263a7e95bf5107b88b85b49918841b937305cce5dae7dd7ba9b86fc460f70", "signature": "e73f14b12332b3750eec0678bac47e80eaab545dd0917f5b4bd16c645effea8a2dc394216bd81c0385d7b56a13f8d703e9ab79f0056efdc524f05d0f2c63e12101"}]}


[32mINFO    [0m Common.Httpcore:Httpcore.py:158 2022-12-06 15:35:07.99350 | 
<-----Core Sign Response---->
{"balanceChanges":[],"blockHash":"","blockHeight":"0","blockTime":"1970-01-01T00:00:00.000Z","createdTime":"2022-12-06T07:35:13.000Z","description":"Custom Excution","estimatedFee":"442","fee":"-1","hash":"d4ef9f3d44f861706ca1aee6155a109ef015f81ec4e6ac34b2e03413f73be817","id":"1600031085328322561","networkCode":"BTC","serialized":"01000000000102cf1c6c727cc0e89b0b077b7cf522df3c1681bc63660ce9825784b416e53e14be0100000000ffffffffdeb0be79e7f95432e39e83190bfc589959b97efe392c72a4d290de15320df2960000000000ffffffff04640000000000000016001426044af8a6420e9f8ebddd8660ea15ecfd7e6708c80000000000000016001428607a52d0c58985f75604b388099c89428acf2d2c0100000000000016001478e22bda49abcf34bf456b4a2f7fbfd0844bb3a7e807030000000000220020aacf2586a97491580532bfb86a62d71f7ff96a8ab3872a9d18635e35d105cf620400483045022100e73f14b12332b3750eec0678bac47e80eaab545dd0917f5b4bd16c645effea8a02202dc394216bd81c0385d7b56a13f8d703e9ab79f0056efdc524f05d0f2c63e12101473044022001494b5c1765678a52f2e98e18f29e46ad682586f3e29230a1217120167277de022030e00a5dccd6f60ec75ba5bffbe14db31066d92e567ed571e2841d82c13bfece014752210231e263a7e95bf5107b88b85b49918841b937305cce5dae7dd7ba9b86fc460f702102e8852463021b47fe5214c599e87e431f2eb1219044946bbff397afd0518b85a652ae0400473044022069792bd3aa22ddcdc0ba6b0b0da595b9c0ad630c30fa6fe2628c129f909bacd60220388676ff68481e5147914607a4e8420d92f532dbd6cc9f7a0ef5082400c2c09801483045022100dda2dfa852c9febadced259ba413cd17d4440e1408423bf6d66931a82857378402202ade61c9713c2ad57e5238f13d791540c7b224b41b620ac4865989727a5a1ba0014752210231e263a7e95bf5107b88b85b49918841b937305cce5dae7dd7ba9b86fc460f702102e8852463021b47fe5214c599e87e431f2eb1219044946bbff397afd0518b85a652ae00000000","status":2,"statusDesc":"SIGNED","updatedTime":"2022-12-06T07:35:12.931Z"}
[32mINFO    [0m Common.Httpcore:Httpcore.py:174 2022-12-06 15:35:07.99350 | 
<-----Core Send------>
Url:http://54.251.78.181:8888/core/api/transactions/send/1600031085328322561

Headers:{"Content-Type": "application/json", "Authorization": "eyJib2R5IjoiV2ViMyBUb2tlbiBWZXJzaW9uOiAyXG5Ob25jZTogMTU4NTEwMjc5MTQ2NjQ4NzgxMFxuSXNzdWVkIEF0OiBXZWQsIDI2IE9jdCAyMDIyIDAyOjU1OjI5IEdNVFxuRXhwaXJhdGlvbiBUaW1lOiBTYXQsIDIzIE9jdCAyMDMyIDAyOjU1OjI5IEdNVCIsInNpZ25hdHVyZSI6IjB4OTE1NWMyOGM3NjVjZjk1YTBjNjdiZGNhYzExNzIwYTRkNDQ4NDc4YmU5ZDZhNjE3ZWQzNDUzZDU3MDgzZjNjZTA2N2Q5OGUwMGI0YTVhMmJmOTlkY2I5Y2VmNzg5Yjc4OWViNzI5OTk4YzgxYWQzOWFhMTUzZTcxM2Q4M2FhYWUxYiJ9"}


[1m[31mERROR   [0m Common.Httpcore:Httpcore.py:180 2022-12-06 15:35:07.99350 | 
<-----Core Send Response Error----->{"code":2400000,"message":"INTERNAL: 500 - {\"result\":null,\"error\":{\"code\":-26,\"message\":\"txn-mempool-conflict\"},\"id\":1670312113166}"}