[32mINFO    [0m Common.Http:Http.py:93 2022-12-13 15:59:18.295357 | 
<-----Query Accounts----->
Url:http://54.251.78.181:8888/escrow/api//accounts?networkCode=&address=tb1q7ymdm79ryug7vttw4jrf87pdcmn67n3p9rgc5x&type=
Headers:{"Content-Type": "application/json", "Authorization": "eyJ0eXAiOiJKV1QiLCJhbGciOiJIUzI1NiJ9.eyJhdWQiOiIxNjAxMDQzOTMwMjg3NDExMjAyIiwiZXhwIjoxNzAyMDg5NjAwLCJpYXQiOjE2NzA1NTM2MDAsInVzZXJJZCI6MTYwMTA0MzkzMDI4NzQxMTIwMn0.fZVc267JNsgy5tB_Wn89l2Zgd3ZgXJfaMg_T9lc3j-o"}


[32mINFO    [0m Common.Http:Http.py:96 2022-12-13 15:59:18.295357 | 
<-----Query Accounts Response----->
{"current":1,"list":[{"address":"tb1q7ymdm79ryug7vttw4jrf87pdcmn67n3p9rgc5x","createdTime":"2022-12-12T07:16:00.000Z","finalized":true,"id":"1602200578745896961","name":"custodial","networkCode":"BTC","publicKeys":[{"source":"custodial","type":"secp256k1","value":"03fc4bdc2e6a1337c9e0dfbb888b4e7178cd1746ee789477a42695d971afd8d679"}],"status":"enable","threshold":1,"type":"custodial","updatedTime":"2022-12-12T07:21:58.000Z"}],"size":10,"total":1}


[32mINFO    [0m Common.Httpcore:Httpcore.py:305 2022-12-13 15:59:18.295357 | 
<-----Query UTXO----->
Url:https://api.bitcore.io/api/BTC/testnet/address/tb1q7ymdm79ryug7vttw4jrf87pdcmn67n3p9rgc5x?unspent=true

Headers:{"Content-Type": "application/json"}


[32mINFO    [0m Common.Httpcore:Httpcore.py:308 2022-12-13 15:59:18.295357 | 
<-----Query UTXO Response----->
[
{"_id":"63982a2ed3bfc9e8e1eb21a7","chain":"BTC","network":"testnet","coinbase":false,"mintIndex":1,"spentTxid":"","mintTxid":"dd1c4cc7b4999fe875acf55acd973253d3f35bdf864c2cd9e5621ba4c24c5982","mintHeight":2411056,"spentHeight":-2,"address":"tb1q7ymdm79ryug7vttw4jrf87pdcmn67n3p9rgc5x","script":"0014f136ddf8a32711e62d6eac8693f82dc6e7af4e21","value":1549287,"confirmations":-1}
]
[32mINFO    [0m Common.Http:Http.py:283 2022-12-13 15:59:18.295357 | 
<-----Transactions----->
Url:http://54.251.78.181:8888/escrow/api//transactions
Headers:{"Content-Type": "application/json", "Authorization": "eyJ0eXAiOiJKV1QiLCJhbGciOiJIUzI1NiJ9.eyJhdWQiOiIxNjAxMDQzOTMwMjg3NDExMjAyIiwiZXhwIjoxNzAyMDg5NjAwLCJpYXQiOjE2NzA1NTM2MDAsInVzZXJJZCI6MTYwMTA0MzkzMDI4NzQxMTIwMn0.fZVc267JNsgy5tB_Wn89l2Zgd3ZgXJfaMg_T9lc3j-o"}
Body:{"networkCode": "BTC", "payload": {"changer": "tb1q7ymdm79ryug7vttw4jrf87pdcmn67n3p9rgc5x", "recipients": [{"address": "tb1q0558s53xchyghw34tqm4x8t2n8swf666nvhffq", "value": "100"}, {"address": "tb1qn0qrq4zfxjc89c773s6k86faym3ugpcje9eras", "value": "200"}, {"address": "tb1qk50y4995th8tffhc90tz7533lygzwz57zxmhtj", "value": "300"}], "utxos": [{"amount": 1549287, "scriptPubKey": "0014f136ddf8a32711e62d6eac8693f82dc6e7af4e21", "signers": ["03fc4bdc2e6a1337c9e0dfbb888b4e7178cd1746ee789477a42695d971afd8d679"], "txid": "dd1c4cc7b4999fe875acf55acd973253d3f35bdf864c2cd9e5621ba4c24c5982", "vout": 1}]}, "type": "TRANSACTION"}


[32mINFO    [0m Common.Http:Http.py:286 2022-12-13 15:59:18.295357 | 
<-----Transactions Response----->
{"balanceChanges":[],"blockHash":"","blockHeight":"0","blockTime":"1970-01-01T00:00:00.000Z","createdTime":"2022-12-13T07:59:20.000Z","description":"","estimatedFee":"255","fee":"-1","hash":"1d0dd0210b6cbf2f2606e9f3c822ebe37731c98e894779b591c436d428ff6bf7","id":"1602573870157774850","networkCode":"BTC","serialized":"0100000000010182594cc2a41b62e5d92c4c86df5bf3d3533297cd5af5ac75e89f99b4c74c1cdd0100000000ffffffff0464000000000000001600147d28785226c5c88bba355837531d6a99e0e4eb5ac8000000000000001600149bc030544934b072e3de8c3563e93d26e3c407122c01000000000000160014b51e4a94b45dceb4a6f82bd62f5231f910270a9e90a0170000000000160014f136ddf8a32711e62d6eac8693f82dc6e7af4e2102473044022042ae4e5bff7a3c02eff1f9bcc9bce76d7ec3a9a94cd5a9138dd45e79b5515e90022026c1d4649545d67fb9ede810626ef20be7397378253e31b80534c37ef922ec9a012103fc4bdc2e6a1337c9e0dfbb888b4e7178cd1746ee789477a42695d971afd8d67900000000","status":2,"statusDesc":"SIGNED","updatedTime":"2022-12-13T07:59:22.223Z"}


[32mINFO    [0m Common.Http:Http.py:364 2022-12-13 15:59:18.295357 | 
<-----Send----->
Url:http://54.251.78.181:8888/escrow/api//transactions/send/1602573870157774850
Headers:{"Content-Type": "application/json", "Authorization": "eyJ0eXAiOiJKV1QiLCJhbGciOiJIUzI1NiJ9.eyJhdWQiOiIxNjAxMDQzOTMwMjg3NDExMjAyIiwiZXhwIjoxNzAyMDg5NjAwLCJpYXQiOjE2NzA1NTM2MDAsInVzZXJJZCI6MTYwMTA0MzkzMDI4NzQxMTIwMn0.fZVc267JNsgy5tB_Wn89l2Zgd3ZgXJfaMg_T9lc3j-o"}


[32mINFO    [0m Common.Http:Http.py:368 2022-12-13 15:59:18.295357 | 
<-----Send Response----->
{"balanceChanges":[],"blockHash":"","blockHeight":"0","blockTime":"2022-12-13T07:59:22.656Z","createdTime":"2022-12-13T07:59:20.000Z","description":"","estimatedFee":"255","fee":"-1","hash":"1d0dd0210b6cbf2f2606e9f3c822ebe37731c98e894779b591c436d428ff6bf7","id":"1602573870157774850","networkCode":"BTC","serialized":"0100000000010182594cc2a41b62e5d92c4c86df5bf3d3533297cd5af5ac75e89f99b4c74c1cdd0100000000ffffffff0464000000000000001600147d28785226c5c88bba355837531d6a99e0e4eb5ac8000000000000001600149bc030544934b072e3de8c3563e93d26e3c407122c01000000000000160014b51e4a94b45dceb4a6f82bd62f5231f910270a9e90a0170000000000160014f136ddf8a32711e62d6eac8693f82dc6e7af4e2102473044022042ae4e5bff7a3c02eff1f9bcc9bce76d7ec3a9a94cd5a9138dd45e79b5515e90022026c1d4649545d67fb9ede810626ef20be7397378253e31b80534c37ef922ec9a012103fc4bdc2e6a1337c9e0dfbb888b4e7178cd1746ee789477a42695d971afd8d67900000000","status":3,"statusDesc":"PENDING","updatedTime":"2022-12-13T07:59:22.656Z"}