[32mINFO    [0m Common.Http:Http.py:198 2022-11-04 11:25:50.308805 | 
<-----Holders----->
Url:https://api.cryptoless.io/cryptocurrencies/holders?address=tb1qhcuul2fcyv5rvr5mc5cy5saz0q5p3kx0gsy3c0&networkCode=BTC&symbol=BTC

Headers:{"Content-Type": "application/json", "Authorization": "eyJib2R5IjoiV2ViMyBUb2tlbiBWZXJzaW9uOiAyXG5Ob25jZTogMTU4NTEwMjc5MTQ2NjQ4NzgxMFxuSXNzdWVkIEF0OiBXZWQsIDI2IE9jdCAyMDIyIDAyOjU1OjI5IEdNVFxuRXhwaXJhdGlvbiBUaW1lOiBTYXQsIDIzIE9jdCAyMDMyIDAyOjU1OjI5IEdNVCIsInNpZ25hdHVyZSI6IjB4OTE1NWMyOGM3NjVjZjk1YTBjNjdiZGNhYzExNzIwYTRkNDQ4NDc4YmU5ZDZhNjE3ZWQzNDUzZDU3MDgzZjNjZTA2N2Q5OGUwMGI0YTVhMmJmOTlkY2I5Y2VmNzg5Yjc4OWViNzI5OTk4YzgxYWQzOWFhMTUzZTcxM2Q4M2FhYWUxYiJ9"}
[32mINFO    [0m Common.Http:Http.py:201 2022-11-04 11:25:50.308805 | 
<-----Query Holders Response----->
[{"address":"tb1qhcuul2fcyv5rvr5mc5cy5saz0q5p3kx0gsy3c0","createdTime":"2022-10-27T07:32:22.000Z","id":"1585534855592488964","networkCode":"BTC","quantity":"0.00999615","symbol":"BTC","updatedTime":"2022-11-03T07:43:17.000Z"}]
[32mINFO    [0m Common.Http:Http.py:288 2022-11-04 11:25:50.308805 | 
<-----Instructions----->
Url:https://api.cryptoless.io/vault/instructions

Headers:{"Content-Type": "application/json", "Authorization": "eyJ0eXAiOiJKV1QiLCJhbGciOiJIUzI1NiJ9.eyJhdWQiOiIxNTg1MTAyNzkxNDY2NDg3ODEwIiwiZXhwIjoxNjk4Mjg4OTM1LCJpYXQiOjE2NjY3NTI5MzUsInVzZXJJZCI6MTU4NTEwMjc5MTQ2NjQ4NzgxMH0.4o43r1upI2Qzcs46wf3gqb2Kq6kq0I7qGST6qPspfjY"}

Body:{"body": {"from": "tb1qhcuul2fcyv5rvr5mc5cy5saz0q5p3kx0gsy3c0", "to": "tb1qqrw8uz4j305w6fjr4mwng040sv7kz8hcczjfun", "symbol": "BTC", "amount": "0.00000005"}, "networkCode": "BTC", "type": "transfer", "definiteSignerPublicKeys": [], "transactionParams": {"memo": "wNRk4TUOrE"}}
[32mINFO    [0m Common.Http:Http.py:291 2022-11-04 11:25:50.308805 | 
<-----Instructions Response----->
{"_embedded":{"transactions":[{"balanceChanges":[],"blockHash":"","blockHeight":"0","blockTime":"2022-11-04T03:25:56.000Z","createdTime":"2022-11-04T03:25:56.000Z","description":"Custom Excution","estimatedFee":"187","fee":"-1","hash":"","id":"1588371940187791361","networkCode":"BTC","requiredSignings":[{"hash":"a8e1b6fd2c3cc25ebe0991fae95fd9f240fe4a339cffbc988341e5ec689d24bb","publicKeys":["02e8852463021b47fe5214c599e87e431f2eb1219044946bbff397afd0518b85a6"],"threshold":1}],"serialized":"010000000143c5424e96634e1947b1dd2a32b2e18cced18e6eb47b8db71d54e0f8e4e439fa0100000000ffffffff02050000000000000016001400dc7e0ab28be8ed2643aedd343eaf833d611ef8ff3f0f0000000000160014be39cfa9382328360e9bc5304a43a2782818d8cf00000000","status":"BUILDING","updatedTime":"2022-11-04T03:25:56.000Z"}]},"body":{"symbol":"BTC","amount":"0.00000005","from":"tb1qhcuul2fcyv5rvr5mc5cy5saz0q5p3kx0gsy3c0","to":"tb1qqrw8uz4j305w6fjr4mwng040sv7kz8hcczjfun"},"createdTime":"2022-11-04T03:25:56.000Z","id":"1588371940724637698","networkCode":"BTC","status":-2,"transactionParams":{"memo":"wNRk4TUOrE"},"type":"TRANSFER","updatedTime":"2022-11-04T03:25:56.000Z"}
[32mINFO    [0m Common.Http:Http.py:456 2022-11-04 11:25:50.308805 | 
<-----Sign----->
Url:https://api.cryptoless.io/vault/transactions/1588371940187791361/signatures

Headers:{"Content-Type": "application/json", "Authorization": "eyJ0eXAiOiJKV1QiLCJhbGciOiJIUzI1NiJ9.eyJhdWQiOiIxNTg1MTAyNzkxNDY2NDg3ODEwIiwiZXhwIjoxNjk4Mjg4OTM1LCJpYXQiOjE2NjY3NTI5MzUsInVzZXJJZCI6MTU4NTEwMjc5MTQ2NjQ4NzgxMH0.4o43r1upI2Qzcs46wf3gqb2Kq6kq0I7qGST6qPspfjY"}

Body:{"signatures": [{"hash": "a8e1b6fd2c3cc25ebe0991fae95fd9f240fe4a339cffbc988341e5ec689d24bb", "publicKey": "02e8852463021b47fe5214c599e87e431f2eb1219044946bbff397afd0518b85a6", "signature": "31561bcb6aa8203d09e7cc2d7b6ee253604d1bdedf12ab88ceda3bd7ddea991a0561a35edc694d54f65ee72b8d624402a11cde79230850fabb15ed1dedc93af301"}], "serialized": "010000000143c5424e96634e1947b1dd2a32b2e18cced18e6eb47b8db71d54e0f8e4e439fa0100000000ffffffff02050000000000000016001400dc7e0ab28be8ed2643aedd343eaf833d611ef8ff3f0f0000000000160014be39cfa9382328360e9bc5304a43a2782818d8cf00000000"}
[32mINFO    [0m Common.Http:Http.py:460 2022-11-04 11:25:50.308805 | 
<-----Sign Response----->
{"balanceChanges":[],"blockHash":"","blockHeight":"0","blockTime":"2022-11-04T03:25:59.374Z","createdTime":"2022-11-04T03:25:56.000Z","description":"Custom Excution","estimatedFee":"187","fee":"-1","hash":"7fd1534269b2579b687e9d6e151929caeb2c5290d1f760c1f614d48ec350d971","id":"1588371940187791361","networkCode":"BTC","serialized":"0100000000010143c5424e96634e1947b1dd2a32b2e18cced18e6eb47b8db71d54e0f8e4e439fa0100000000ffffffff02050000000000000016001400dc7e0ab28be8ed2643aedd343eaf833d611ef8ff3f0f0000000000160014be39cfa9382328360e9bc5304a43a2782818d8cf02473044022031561bcb6aa8203d09e7cc2d7b6ee253604d1bdedf12ab88ceda3bd7ddea991a02200561a35edc694d54f65ee72b8d624402a11cde79230850fabb15ed1dedc93af3012102e8852463021b47fe5214c599e87e431f2eb1219044946bbff397afd0518b85a600000000","status":"PENDING","updatedTime":"2022-11-04T03:25:59.374Z"}