[32mINFO    [0m Common.Httpcore:Httpcore.py:201 2022-12-07 11:14:08.385298 | 
<-----Relay estimate----->
Url:http://16.163.105.179:18000/api/v2/safes/0x6490C1b13A4576128159576F9d3acadF79e8dd6f/transactions/estimate/

Headers:{"Content-Type": "application/json"}

Body:{"gasToken": "0x0000000000000000000000000000000000000000", "operation": "0", "safe": "0x6490C1b13A4576128159576F9d3acadF79e8dd6f", "to": "0x6490C1b13A4576128159576F9d3acadF79e8dd6f", "data": "0x", "value": "100"}
[32mINFO    [0m Common.Httpcore:Httpcore.py:204 2022-12-07 11:14:08.385298 | 
<-----Relay estimate Response----->
{"safeTxGas":"45006","baseGas":"54900","dataGas":"54900","operationalGas":"0","gasPrice":"58466666667","lastUsedNonce":23,"gasToken":"0x0000000000000000000000000000000000000000","refundReceiver":"0xbA7024EE0273C30a479838DA4Ad31718436b453e"}
[32mINFO    [0m Common.Httpcore:Httpcore.py:132 2022-12-07 11:14:08.385298 | 
<-----Core Build------>
Url:http://54.251.78.181:8888/core/api/transactions

Headers:{"Content-Type": "application/json", "Authorization": "eyJib2R5IjoiV2ViMyBUb2tlbiBWZXJzaW9uOiAyXG5Ob25jZTogMTU4NTEwMjc5MTQ2NjQ4NzgxMFxuSXNzdWVkIEF0OiBXZWQsIDI2IE9jdCAyMDIyIDAyOjU1OjI5IEdNVFxuRXhwaXJhdGlvbiBUaW1lOiBTYXQsIDIzIE9jdCAyMDMyIDAyOjU1OjI5IEdNVCIsInNpZ25hdHVyZSI6IjB4OTE1NWMyOGM3NjVjZjk1YTBjNjdiZGNhYzExNzIwYTRkNDQ4NDc4YmU5ZDZhNjE3ZWQzNDUzZDU3MDgzZjNjZTA2N2Q5OGUwMGI0YTVhMmJmOTlkY2I5Y2VmNzg5Yjc4OWViNzI5OTk4YzgxYWQzOWFhMTUzZTcxM2Q4M2FhYWUxYiJ9"}

body:{"networkCode": "MATIC", "payload": {"from": "0xe525E7cd17f6Dc950492755A089E452fd5d9d44f", "safeInputRequest": {"contract": "0x6490C1b13A4576128159576F9d3acadF79e8dd6f", "participants": ["0244fb46bba2e912f26a73126b89742ed7f521f593ee084953ae008172553a0113", "03c420167aaf4fc7106646b2fe485519e5569ceb1584ae31d62537e349a4e4b5a9"], "refundReceiver": "0xe525E7cd17f6Dc950492755A089E452fd5d9d44f", "to": "0x6490C1b13A4576128159576F9d3acadF79e8dd6f", "value": "0x64"}}, "type": "SAFE_TRANSACTION"}


[32mINFO    [0m Common.Httpcore:Httpcore.py:135 2022-12-07 11:14:08.385298 | 
<-----Core Build Response---->
{"balanceChanges":[],"blockTime":"1970-01-01T00:00:00.000Z","createdTime":"2022-12-07T03:14:16.173Z","description":"Custom Excution","estimatedFee":"","hash":"","id":"1600327800941895682","networkCode":"MATIC","requiredSignings":[{"hash":"ce43fdb4bf030c308afc55e3f2b0e39e86be700b706ae04b17a8d3ebae61808e","publicKeys":["0244fb46bba2e912f26a73126b89742ed7f521f593ee084953ae008172553a0113","03c420167aaf4fc7106646b2fe485519e5569ceb1584ae31d62537e349a4e4b5a9"],"threshold":2}],"serialized":"6a7612020000000000000000000000006490c1b13a4576128159576f9d3acadf79e8dd6f0000000000000000000000000000000000000000000000000000000000000064000000000000000000000000000000000000000000000000000000000000014000000000000000000000000000000000000000000000000000000000000000000000000000000000000000000000000000000000000000000000000000000000000000000000000000000000000000000000000000000000000000000000000000000000000000000000000000000000000000000000000000000000000000000000000000000000000000000000000000000000000000000000000000000000000000000000000000000000e525e7cd17f6dc950492755a089e452fd5d9d44f000000000000000000000000000000000000000000000000000000000000016000000000000000000000000000000000000000000000000000000000000000000000000000000000000000000000000000000000000000000000000000000000","status":0,"statusDesc":"BUILDING","updatedTime":"2022-12-07T03:14:16.173Z"}
[32mINFO    [0m Common.Httpcore:Httpcore.py:155 2022-12-07 11:14:08.385298 | 
<-----Core Sign------>
Url:http://54.251.78.181:8888/core/api/transactions/signatures

Headers:{"Content-Type": "application/json", "Authorization": "eyJib2R5IjoiV2ViMyBUb2tlbiBWZXJzaW9uOiAyXG5Ob25jZTogMTU4NTEwMjc5MTQ2NjQ4NzgxMFxuSXNzdWVkIEF0OiBXZWQsIDI2IE9jdCAyMDIyIDAyOjU1OjI5IEdNVFxuRXhwaXJhdGlvbiBUaW1lOiBTYXQsIDIzIE9jdCAyMDMyIDAyOjU1OjI5IEdNVCIsInNpZ25hdHVyZSI6IjB4OTE1NWMyOGM3NjVjZjk1YTBjNjdiZGNhYzExNzIwYTRkNDQ4NDc4YmU5ZDZhNjE3ZWQzNDUzZDU3MDgzZjNjZTA2N2Q5OGUwMGI0YTVhMmJmOTlkY2I5Y2VmNzg5Yjc4OWViNzI5OTk4YzgxYWQzOWFhMTUzZTcxM2Q4M2FhYWUxYiJ9"}

body:{"id": "1600327800941895682", "signatures": [{"hash": "ce43fdb4bf030c308afc55e3f2b0e39e86be700b706ae04b17a8d3ebae61808e", "publicKey": "0244fb46bba2e912f26a73126b89742ed7f521f593ee084953ae008172553a0113", "signature": "591122ccd550b9f00fc3460f62655c3620f307e0cc9bd48fd80e5eade540b0ab66a243ec5ac826f3499544cb9294dd7a118b4ede6c1e7ff95d219dde28d1ed4f01"}, {"hash": "ce43fdb4bf030c308afc55e3f2b0e39e86be700b706ae04b17a8d3ebae61808e", "publicKey": "03c420167aaf4fc7106646b2fe485519e5569ceb1584ae31d62537e349a4e4b5a9", "signature": "7cc8cb2d10e190adb6bcde333be2f42805bbf5b98abc79427cae501cf82a737414ac2464ddddddd251ee0989b2ec2806d0584ab1de308eca7a040ac09abc36aa00"}]}


[32mINFO    [0m Common.Httpcore:Httpcore.py:158 2022-12-07 11:14:08.385298 | 
<-----Core Sign Response---->
{"balanceChanges":[],"blockHash":"","blockHeight":"0","blockTime":"1970-01-01T00:00:00.000Z","createdTime":"2022-12-07T03:14:16.000Z","description":"Contract Execution","estimatedFee":"2404168510361472","fee":"-1","hash":"","id":"1600327800941895682","networkCode":"MATIC","requiredSignings":[{"hash":"7272bf64a126def78ee708a434f7faff7983a02899a492208cd6579d1dfa1c2a","threshold":1}],"serialized":"02f9025481894d85078d8e0475850d8821c30d83012180946490c1b13a4576128159576f9d3acadf79e8dd6f80b902246a7612020000000000000000000000006490c1b13a4576128159576f9d3acadf79e8dd6f0000000000000000000000000000000000000000000000000000000000000064000000000000000000000000000000000000000000000000000000000000014000000000000000000000000000000000000000000000000000000000000000000000000000000000000000000000000000000000000000000000000000000000000000000000000000000000000000000000000000000000000000000000000000000000000000000000000000000000000000000000000000000000000000000000000000000000000000000000000000000000000000000000000000000000000000000000000000000000e525e7cd17f6dc950492755a089e452fd5d9d44f0000000000000000000000000000000000000000000000000000000000000160000000000000000000000000000000000000000000000000000000000000000000000000000000000000000000000000000000000000000000000000000000827cc8cb2d10e190adb6bcde333be2f42805bbf5b98abc79427cae501cf82a737414ac2464ddddddd251ee0989b2ec2806d0584ab1de308eca7a040ac09abc36aa1b591122ccd550b9f00fc3460f62655c3620f307e0cc9bd48fd80e5eade540b0ab66a243ec5ac826f3499544cb9294dd7a118b4ede6c1e7ff95d219dde28d1ed4f1c000000000000000000000000000000000000000000000000000000000000c0808080","status":0,"statusDesc":"BUILDING","updatedTime":"2022-12-07T03:14:18.026Z"}
[32mINFO    [0m Common.Httpcore:Httpcore.py:155 2022-12-07 11:14:08.385298 | 
<-----Core Sign------>
Url:http://54.251.78.181:8888/core/api/transactions/signatures

Headers:{"Content-Type": "application/json", "Authorization": "eyJib2R5IjoiV2ViMyBUb2tlbiBWZXJzaW9uOiAyXG5Ob25jZTogMTU4NTEwMjc5MTQ2NjQ4NzgxMFxuSXNzdWVkIEF0OiBXZWQsIDI2IE9jdCAyMDIyIDAyOjU1OjI5IEdNVFxuRXhwaXJhdGlvbiBUaW1lOiBTYXQsIDIzIE9jdCAyMDMyIDAyOjU1OjI5IEdNVCIsInNpZ25hdHVyZSI6IjB4OTE1NWMyOGM3NjVjZjk1YTBjNjdiZGNhYzExNzIwYTRkNDQ4NDc4YmU5ZDZhNjE3ZWQzNDUzZDU3MDgzZjNjZTA2N2Q5OGUwMGI0YTVhMmJmOTlkY2I5Y2VmNzg5Yjc4OWViNzI5OTk4YzgxYWQzOWFhMTUzZTcxM2Q4M2FhYWUxYiJ9"}

body:{"id": "1600327800941895682", "signatures": [{"hash": "7272bf64a126def78ee708a434f7faff7983a02899a492208cd6579d1dfa1c2a", "publicKey": "0244fb46bba2e912f26a73126b89742ed7f521f593ee084953ae008172553a0113", "signature": "7b769b731294e4fa7f42ec6328cab659ac34225720e7539cb7154925718a4ce764bfbf70216ab1476a6768833316dc20f98c2355e95b4559093e03d593a6fd2d00"}]}


[32mINFO    [0m Common.Httpcore:Httpcore.py:158 2022-12-07 11:14:08.385298 | 
<-----Core Sign Response---->
{"balanceChanges":[],"blockHash":"","blockHeight":"0","blockTime":"1970-01-01T00:00:00.000Z","createdTime":"2022-12-07T03:14:16.000Z","description":"Contract Execution","estimatedFee":"2404168510361472","fee":"-1","hash":"0xaf82d1f5b3645ab8d1cdf84680fa163ab61c8d9a2a0b5605c4aed13a8a82c21d","id":"1600327800941895682","networkCode":"MATIC","serialized":"02f9029481894d85078d8e0475850d8821c30d83012180946490c1b13a4576128159576f9d3acadf79e8dd6f80b902246a7612020000000000000000000000006490c1b13a4576128159576f9d3acadf79e8dd6f0000000000000000000000000000000000000000000000000000000000000064000000000000000000000000000000000000000000000000000000000000014000000000000000000000000000000000000000000000000000000000000000000000000000000000000000000000000000000000000000000000000000000000000000000000000000000000000000000000000000000000000000000000000000000000000000000000000000000000000000000000000000000000000000000000000000000000000000000000000000000000000000000000000000000000000000000000000000000000e525e7cd17f6dc950492755a089e452fd5d9d44f0000000000000000000000000000000000000000000000000000000000000160000000000000000000000000000000000000000000000000000000000000000000000000000000000000000000000000000000000000000000000000000000827cc8cb2d10e190adb6bcde333be2f42805bbf5b98abc79427cae501cf82a737414ac2464ddddddd251ee0989b2ec2806d0584ab1de308eca7a040ac09abc36aa1b591122ccd550b9f00fc3460f62655c3620f307e0cc9bd48fd80e5eade540b0ab66a243ec5ac826f3499544cb9294dd7a118b4ede6c1e7ff95d219dde28d1ed4f1c000000000000000000000000000000000000000000000000000000000000c080a07b769b731294e4fa7f42ec6328cab659ac34225720e7539cb7154925718a4ce7a064bfbf70216ab1476a6768833316dc20f98c2355e95b4559093e03d593a6fd2d","status":2,"statusDesc":"SIGNED","updatedTime":"2022-12-07T03:14:18.306Z"}
[32mINFO    [0m Common.Httpcore:Httpcore.py:174 2022-12-07 11:14:08.385298 | 
<-----Core Send------>
Url:http://54.251.78.181:8888/core/api/transactions/send/1600327800941895682

Headers:{"Content-Type": "application/json", "Authorization": "eyJib2R5IjoiV2ViMyBUb2tlbiBWZXJzaW9uOiAyXG5Ob25jZTogMTU4NTEwMjc5MTQ2NjQ4NzgxMFxuSXNzdWVkIEF0OiBXZWQsIDI2IE9jdCAyMDIyIDAyOjU1OjI5IEdNVFxuRXhwaXJhdGlvbiBUaW1lOiBTYXQsIDIzIE9jdCAyMDMyIDAyOjU1OjI5IEdNVCIsInNpZ25hdHVyZSI6IjB4OTE1NWMyOGM3NjVjZjk1YTBjNjdiZGNhYzExNzIwYTRkNDQ4NDc4YmU5ZDZhNjE3ZWQzNDUzZDU3MDgzZjNjZTA2N2Q5OGUwMGI0YTVhMmJmOTlkY2I5Y2VmNzg5Yjc4OWViNzI5OTk4YzgxYWQzOWFhMTUzZTcxM2Q4M2FhYWUxYiJ9"}


[32mINFO    [0m Common.Httpcore:Httpcore.py:177 2022-12-07 11:14:08.385298 | 
<-----Core Send Response---->
{"balanceChanges":[],"blockHash":"","blockHeight":"0","blockTime":"2022-12-07T03:14:18.820Z","createdTime":"2022-12-07T03:14:16.000Z","description":"Contract Execution","estimatedFee":"2404168510361472","fee":"-1","hash":"0xaf82d1f5b3645ab8d1cdf84680fa163ab61c8d9a2a0b5605c4aed13a8a82c21d","id":"1600327800941895682","networkCode":"MATIC","serialized":"02f9029481894d85078d8e0475850d8821c30d83012180946490c1b13a4576128159576f9d3acadf79e8dd6f80b902246a7612020000000000000000000000006490c1b13a4576128159576f9d3acadf79e8dd6f0000000000000000000000000000000000000000000000000000000000000064000000000000000000000000000000000000000000000000000000000000014000000000000000000000000000000000000000000000000000000000000000000000000000000000000000000000000000000000000000000000000000000000000000000000000000000000000000000000000000000000000000000000000000000000000000000000000000000000000000000000000000000000000000000000000000000000000000000000000000000000000000000000000000000000000000000000000000000000e525e7cd17f6dc950492755a089e452fd5d9d44f0000000000000000000000000000000000000000000000000000000000000160000000000000000000000000000000000000000000000000000000000000000000000000000000000000000000000000000000000000000000000000000000827cc8cb2d10e190adb6bcde333be2f42805bbf5b98abc79427cae501cf82a737414ac2464ddddddd251ee0989b2ec2806d0584ab1de308eca7a040ac09abc36aa1b591122ccd550b9f00fc3460f62655c3620f307e0cc9bd48fd80e5eade540b0ab66a243ec5ac826f3499544cb9294dd7a118b4ede6c1e7ff95d219dde28d1ed4f1c000000000000000000000000000000000000000000000000000000000000c080a07b769b731294e4fa7f42ec6328cab659ac34225720e7539cb7154925718a4ce7a064bfbf70216ab1476a6768833316dc20f98c2355e95b4559093e03d593a6fd2d","status":3,"statusDesc":"PENDING","updatedTime":"2022-12-07T03:14:18.820Z"}