[32mINFO    [0m Common.Httpcore:Httpcore.py:224 2022-12-02 14:31:58.897283 | 
<-----Query UTXO----->
Url:https://api.bitcore.io/api/BTC/testnet/address/tb1q4t8jtp4fwjg4spfjh7ux5ckhrallj652kwrj48gcvd0rt5g9ea3q4vlm33?unspent=true

Headers:{"Content-Type": "application/json"}


[32mINFO    [0m Common.Httpcore:Httpcore.py:227 2022-12-02 14:31:58.897283 | 
<-----Query UTXO Response----->
[
{"_id":"6385d239d3bfc9e8e120b72a","chain":"BTC","network":"testnet","coinbase":false,"mintIndex":0,"spentTxid":"","mintTxid":"96f20d3215de90d2a4722c39fe7eb9599958fc0b19839ee33254f9e779beb0de","mintHeight":2408949,"spentHeight":-2,"address":"tb1q4t8jtp4fwjg4spfjh7ux5ckhrallj652kwrj48gcvd0rt5g9ea3q4vlm33","script":"0020aacf2586a97491580532bfb86a62d71f7ff96a8ab3872a9d18635e35d105cf62","value":100000,"confirmations":-1}
]
[32mINFO    [0m Common.Httpcore:Httpcore.py:132 2022-12-02 14:31:58.897283 | 
<-----Core Build------>
Url:http://54.251.78.181:8888/core/api/transactions

Headers:{"Content-Type": "application/json", "Authorization": "eyJib2R5IjoiV2ViMyBUb2tlbiBWZXJzaW9uOiAyXG5Ob25jZTogMTU4NTEwMjc5MTQ2NjQ4NzgxMFxuSXNzdWVkIEF0OiBXZWQsIDI2IE9jdCAyMDIyIDAyOjU1OjI5IEdNVFxuRXhwaXJhdGlvbiBUaW1lOiBTYXQsIDIzIE9jdCAyMDMyIDAyOjU1OjI5IEdNVCIsInNpZ25hdHVyZSI6IjB4OTE1NWMyOGM3NjVjZjk1YTBjNjdiZGNhYzExNzIwYTRkNDQ4NDc4YmU5ZDZhNjE3ZWQzNDUzZDU3MDgzZjNjZTA2N2Q5OGUwMGI0YTVhMmJmOTlkY2I5Y2VmNzg5Yjc4OWViNzI5OTk4YzgxYWQzOWFhMTUzZTcxM2Q4M2FhYWUxYiJ9"}

body:{"networkCode": "BTC", "payload": {"changer": "tb1q4t8jtp4fwjg4spfjh7ux5ckhrallj652kwrj48gcvd0rt5g9ea3q4vlm33", "recipients": [{"address": "tb1q4t8jtp4fwjg4spfjh7ux5ckhrallj652kwrj48gcvd0rt5g9ea3q4vlm33", "value": "100"}], "utxos": [{"amount": 100000, "witnessScript": "522102e8852463021b47fe5214c599e87e431f2eb1219044946bbff397afd0518b85a6210231e263a7e95bf5107b88b85b49918841b937305cce5dae7dd7ba9b86fc460f7052ae", "signers": ["02e8852463021b47fe5214c599e87e431f2eb1219044946bbff397afd0518b85a6", "0231e263a7e95bf5107b88b85b49918841b937305cce5dae7dd7ba9b86fc460f70"], "txid": "96f20d3215de90d2a4722c39fe7eb9599958fc0b19839ee33254f9e779beb0de", "vout": 0}]}, "type": "TRANSACTION"}


[32mINFO    [0m Common.Httpcore:Httpcore.py:135 2022-12-02 14:31:58.897283 | 
<-----Core Build Response---->
{"balanceChanges":[],"blockTime":"1970-01-01T00:00:00.000Z","createdTime":"2022-12-02T06:32:00.271Z","description":"Custom Excution","estimatedFee":"226","hash":"","id":"1598565627555172354","networkCode":"BTC","requiredSignings":[{"hash":"47bd4416edebbc4ac0dd68313e00aa02d87c3934f6d4add0cd2ff3165e6c3348","publicKeys":["02e8852463021b47fe5214c599e87e431f2eb1219044946bbff397afd0518b85a6","0231e263a7e95bf5107b88b85b49918841b937305cce5dae7dd7ba9b86fc460f70"],"threshold":2}],"serialized":"0100000001deb0be79e7f95432e39e83190bfc589959b97efe392c72a4d290de15320df2960000000000ffffffff026400000000000000220020aacf2586a97491580532bfb86a62d71f7ff96a8ab3872a9d18635e35d105cf625a85010000000000220020aacf2586a97491580532bfb86a62d71f7ff96a8ab3872a9d18635e35d105cf6200000000","status":0,"statusDesc":"BUILDING","updatedTime":"2022-12-02T06:32:00.271Z"}
[32mINFO    [0m Common.Httpcore:Httpcore.py:155 2022-12-02 14:31:58.897283 | 
<-----Core Sign------>
Url:http://54.251.78.181:8888/core/api/transactions/signatures

Headers:{"Content-Type": "application/json", "Authorization": "eyJib2R5IjoiV2ViMyBUb2tlbiBWZXJzaW9uOiAyXG5Ob25jZTogMTU4NTEwMjc5MTQ2NjQ4NzgxMFxuSXNzdWVkIEF0OiBXZWQsIDI2IE9jdCAyMDIyIDAyOjU1OjI5IEdNVFxuRXhwaXJhdGlvbiBUaW1lOiBTYXQsIDIzIE9jdCAyMDMyIDAyOjU1OjI5IEdNVCIsInNpZ25hdHVyZSI6IjB4OTE1NWMyOGM3NjVjZjk1YTBjNjdiZGNhYzExNzIwYTRkNDQ4NDc4YmU5ZDZhNjE3ZWQzNDUzZDU3MDgzZjNjZTA2N2Q5OGUwMGI0YTVhMmJmOTlkY2I5Y2VmNzg5Yjc4OWViNzI5OTk4YzgxYWQzOWFhMTUzZTcxM2Q4M2FhYWUxYiJ9"}

body:{"id": "1598565627555172354", "signatures": [{"hash": "47bd4416edebbc4ac0dd68313e00aa02d87c3934f6d4add0cd2ff3165e6c3348", "publicKey": "02e8852463021b47fe5214c599e87e431f2eb1219044946bbff397afd0518b85a6", "signature": "479ca58a0ba39907e3a76da230e907e16ec5e0c69511b2be17009d631b2832400dd16fc6fe0347659fe2c54f747b26e74f21fab2eaa78dd2a00578f0599ae53000"}, {"hash": "47bd4416edebbc4ac0dd68313e00aa02d87c3934f6d4add0cd2ff3165e6c3348", "publicKey": "0231e263a7e95bf5107b88b85b49918841b937305cce5dae7dd7ba9b86fc460f70", "signature": "a134cf3422cfe077cb052864c400801a3ff62886caee88943caae3aa33de5de832425733a320865cf882791ea6bd6e461193ba39b7702ee8672ba284814a0f1b00"}]}


[32mINFO    [0m Common.Httpcore:Httpcore.py:158 2022-12-02 14:31:58.897283 | 
<-----Core Sign Response---->
{"balanceChanges":[],"blockHash":"","blockHeight":"0","blockTime":"1970-01-01T00:00:00.000Z","createdTime":"2022-12-02T06:32:00.000Z","description":"Custom Excution","estimatedFee":"226","fee":"-1","hash":"31e254a90705cb815a8f4a5c577ecaac8ba50b2e52aebe90eef66e7bc6065eb5","id":"1598565627555172354","networkCode":"BTC","serialized":"01000000000101deb0be79e7f95432e39e83190bfc589959b97efe392c72a4d290de15320df2960000000000ffffffff026400000000000000220020aacf2586a97491580532bfb86a62d71f7ff96a8ab3872a9d18635e35d105cf625a85010000000000220020aacf2586a97491580532bfb86a62d71f7ff96a8ab3872a9d18635e35d105cf6204004730440220479ca58a0ba39907e3a76da230e907e16ec5e0c69511b2be17009d631b28324002200dd16fc6fe0347659fe2c54f747b26e74f21fab2eaa78dd2a00578f0599ae53001483045022100a134cf3422cfe077cb052864c400801a3ff62886caee88943caae3aa33de5de8022032425733a320865cf882791ea6bd6e461193ba39b7702ee8672ba284814a0f1b0147522102e8852463021b47fe5214c599e87e431f2eb1219044946bbff397afd0518b85a6210231e263a7e95bf5107b88b85b49918841b937305cce5dae7dd7ba9b86fc460f7052ae00000000","status":2,"statusDesc":"SIGNED","updatedTime":"2022-12-02T06:32:00.557Z"}
[32mINFO    [0m Common.Httpcore:Httpcore.py:174 2022-12-02 14:31:58.897283 | 
<-----Core Send------>
Url:http://54.251.78.181:8888/core/api/transactions/send/1598565627555172354

Headers:{"Content-Type": "application/json", "Authorization": "eyJib2R5IjoiV2ViMyBUb2tlbiBWZXJzaW9uOiAyXG5Ob25jZTogMTU4NTEwMjc5MTQ2NjQ4NzgxMFxuSXNzdWVkIEF0OiBXZWQsIDI2IE9jdCAyMDIyIDAyOjU1OjI5IEdNVFxuRXhwaXJhdGlvbiBUaW1lOiBTYXQsIDIzIE9jdCAyMDMyIDAyOjU1OjI5IEdNVCIsInNpZ25hdHVyZSI6IjB4OTE1NWMyOGM3NjVjZjk1YTBjNjdiZGNhYzExNzIwYTRkNDQ4NDc4YmU5ZDZhNjE3ZWQzNDUzZDU3MDgzZjNjZTA2N2Q5OGUwMGI0YTVhMmJmOTlkY2I5Y2VmNzg5Yjc4OWViNzI5OTk4YzgxYWQzOWFhMTUzZTcxM2Q4M2FhYWUxYiJ9"}


[1m[31mERROR   [0m Common.Httpcore:Httpcore.py:180 2022-12-02 14:31:58.897283 | 
<-----Core Send Response Error----->{"code":2400000,"message":"INTERNAL: 500 - {\"result\":null,\"error\":{\"code\":-26,\"message\":\"non-mandatory-script-verify-flag \u0028Witness program hash mismatch\u0029\"},\"id\":1669962720828}"}