[32mINFO    [0m Common.Http:Http.py:143 2022-07-04 13:50:16.20905 | 
<-----Transfers----->
Url:https://api.cryptoless.io/cryptocurrencies/BTC/transfers

Headers:{"Content-Type": "application/json", "Authorization": "eyJzaWduYXR1cmUiOiIweGI2Y2MzZTYxMWFhNDhhZmMzYWY0N2IzZWM3MTRkNGE5NjNjZDI5YjBhYjk5OGRjY2U2NDhhMjIyNzg2MmUxYzgwZGQ2NTQ5OTEyNjc3MWRlODdiOGQxMjE5NDMwYTllOGYzOTBlMjdiZjZhYmRmYjg3ZjdiOGNiYWNmNjVlMzRmMWMiLCJib2R5IjoiV2ViMyBUb2tlbiBWZXJzaW9uOiAyXG5Ob25jZTogOTc1NzM3MDlcbklzc3VlZCBBdDogTW9uLCAyNyBKdW4gMjAyMiAxNTo0NTozNiBHTVRcbkV4cGlyYXRpb24gVGltZTogRnJpLCAyNyBKdW4gMjA0MiAxNTo0NTozNiBHTVQifQ=="}

Body:{"amount": "0.05", "definiteSignerPublicKeys": ["022bf595281b06dcb38c9261c5dfeb979ee63c79d47ad328bb8606f6b000d855ea"], "from": "tb1qqrw8uz4j305w6fjr4mwng040sv7kz8hcczjfun", "networkCode": "BTC", "to": "tb1qqrw8uz4j305w6fjr4mwng040sv7kz8hcczjfun"}
[32mINFO    [0m Common.Http:Http.py:146 2022-07-04 13:50:16.20905 | 
<-----Transfers Response----->
{"_embedded":{"transactions":[{"blockTime":"1970-01-01T00:00:00.000Z","createdTime":"2022-07-04T05:52:47.219Z","estimatedFee":"296","hash":"","id":"1543835190824464385","networkCode":"BTC","requiredSignings":[{"hash":"ba072585e563b43b0be6869d6385d2ff26f483d293a18fa5e21a08112c955201","publicKeys":["022bf595281b06dcb38c9261c5dfeb979ee63c79d47ad328bb8606f6b000d855ea"],"threshold":1},{"hash":"95697f8753025bb2d16c1a089e128e2de5f34711b22ab2421974b3bb1430e80c","publicKeys":["022bf595281b06dcb38c9261c5dfeb979ee63c79d47ad328bb8606f6b000d855ea"],"threshold":1}],"serialized":"0100000002e8f3022c7b981ff7611b1d7fe923e9e0fdd37f13a42691788772beaf7286d9090100000000ffffffff1c43db50eeb3bbea56443dc80ea1a7dd2580d64a7eff6caaf867dac02a3ceab80100000000ffffffff02404b4c000000000016001400dc7e0ab28be8ed2643aedd343eaf833d611ef8693b12000000000016001400dc7e0ab28be8ed2643aedd343eaf833d611ef800000000","status":"BUILDING","updatedTime":"2022-07-04T05:52:47.219Z"}]},"amount":"0.05","createdTime":"2022-07-04T05:52:47.233Z","from":"tb1qqrw8uz4j305w6fjr4mwng040sv7kz8hcczjfun","id":"1543835190879023105","networkCode":"BTC","status":-2,"symbol":"BTC","to":"tb1qqrw8uz4j305w6fjr4mwng040sv7kz8hcczjfun","type":1,"updatedTime":"2022-07-04T05:52:47.233Z"}
[32mINFO    [0m test_transfers_success_btc:test_transfers_success_btc.py:32 2022-07-04 13:50:16.20905 | a16f9f60f5aef55e9bf7817737d223ffbb356258db1541cf0c90c9a099c0de6e34ac2393f69b92f73a8cc2e475068d96ae88b21c48715abfe499a68532f05b9100
[32mINFO    [0m test_transfers_success_btc:test_transfers_success_btc.py:32 2022-07-04 13:50:16.20905 | f12411958b64c2ce7f22db67cc220b14b509c23d2e5747890dd653fea4144fc66b61359488ad00f164231e18d18bebe7c79a6603aa00624ba3d2bc1ed11fe25200
[32mINFO    [0m Common.Http:Http.py:180 2022-07-04 13:50:16.20905 | 
<-----Sign----->
Url:https://api.cryptoless.io/transactions/1543835190824464385/sign

Headers:{"Content-Type": "application/json", "Authorization": "eyJzaWduYXR1cmUiOiIweGI2Y2MzZTYxMWFhNDhhZmMzYWY0N2IzZWM3MTRkNGE5NjNjZDI5YjBhYjk5OGRjY2U2NDhhMjIyNzg2MmUxYzgwZGQ2NTQ5OTEyNjc3MWRlODdiOGQxMjE5NDMwYTllOGYzOTBlMjdiZjZhYmRmYjg3ZjdiOGNiYWNmNjVlMzRmMWMiLCJib2R5IjoiV2ViMyBUb2tlbiBWZXJzaW9uOiAyXG5Ob25jZTogOTc1NzM3MDlcbklzc3VlZCBBdDogTW9uLCAyNyBKdW4gMjAyMiAxNTo0NTozNiBHTVRcbkV4cGlyYXRpb24gVGltZTogRnJpLCAyNyBKdW4gMjA0MiAxNTo0NTozNiBHTVQifQ=="}

Body:{"estimatedFee": "296", "hash": "", "id": "1543835190824464385", "networkCode": "BTC", "requiredSignings": [{"hash": "ba072585e563b43b0be6869d6385d2ff26f483d293a18fa5e21a08112c955201", "publicKeys": ["022bf595281b06dcb38c9261c5dfeb979ee63c79d47ad328bb8606f6b000d855ea"], "threshold": 1}, {"hash": "95697f8753025bb2d16c1a089e128e2de5f34711b22ab2421974b3bb1430e80c", "publicKeys": ["022bf595281b06dcb38c9261c5dfeb979ee63c79d47ad328bb8606f6b000d855ea"], "threshold": 1}], "serialized": "0100000002e8f3022c7b981ff7611b1d7fe923e9e0fdd37f13a42691788772beaf7286d9090100000000ffffffff1c43db50eeb3bbea56443dc80ea1a7dd2580d64a7eff6caaf867dac02a3ceab80100000000ffffffff02404b4c000000000016001400dc7e0ab28be8ed2643aedd343eaf833d611ef8693b12000000000016001400dc7e0ab28be8ed2643aedd343eaf833d611ef800000000", "signatures": [{"hash": "ba072585e563b43b0be6869d6385d2ff26f483d293a18fa5e21a08112c955201", "publickey": "022bf595281b06dcb38c9261c5dfeb979ee63c79d47ad328bb8606f6b000d855ea", "signature": "a16f9f60f5aef55e9bf7817737d223ffbb356258db1541cf0c90c9a099c0de6e34ac2393f69b92f73a8cc2e475068d96ae88b21c48715abfe499a68532f05b9100"}, {"hash": "95697f8753025bb2d16c1a089e128e2de5f34711b22ab2421974b3bb1430e80c", "publickey": "022bf595281b06dcb38c9261c5dfeb979ee63c79d47ad328bb8606f6b000d855ea", "signature": "f12411958b64c2ce7f22db67cc220b14b509c23d2e5747890dd653fea4144fc66b61359488ad00f164231e18d18bebe7c79a6603aa00624ba3d2bc1ed11fe25200"}], "status": "BUILDING"}
[32mINFO    [0m Common.Http:Http.py:184 2022-07-04 13:50:16.20905 | 
<-----Sign Response----->
{"blockHash":"","blockHeight":"0","blockTime":"1970-01-01T00:00:00.000Z","createdTime":"2022-07-04T05:52:47.000Z","estimatedFee":"296","fee":"-1","hash":"fc5e52adb506666432981db19ee2ddfd6a487adf70ba1a7613745d917b8d8b1a","id":"1543835190824464385","networkCode":"BTC","serialized":"01000000000102e8f3022c7b981ff7611b1d7fe923e9e0fdd37f13a42691788772beaf7286d9090100000000ffffffff1c43db50eeb3bbea56443dc80ea1a7dd2580d64a7eff6caaf867dac02a3ceab80100000000ffffffff02404b4c000000000016001400dc7e0ab28be8ed2643aedd343eaf833d611ef8693b12000000000016001400dc7e0ab28be8ed2643aedd343eaf833d611ef802483045022100f12411958b64c2ce7f22db67cc220b14b509c23d2e5747890dd653fea4144fc602206b61359488ad00f164231e18d18bebe7c79a6603aa00624ba3d2bc1ed11fe2520121022bf595281b06dcb38c9261c5dfeb979ee63c79d47ad328bb8606f6b000d855ea02483045022100a16f9f60f5aef55e9bf7817737d223ffbb356258db1541cf0c90c9a099c0de6e022034ac2393f69b92f73a8cc2e475068d96ae88b21c48715abfe499a68532f05b910121022bf595281b06dcb38c9261c5dfeb979ee63c79d47ad328bb8606f6b000d855ea00000000","status":"SIGNED","updatedTime":"2022-07-04T05:52:48.385Z"}
[32mINFO    [0m Common.Http:Http.py:199 2022-07-04 13:50:16.20905 | <-----Send----->
Url:https://api.cryptoless.io/transactions/1543835190824464385/send

Headers:{"Content-Type": "application/json", "Authorization": "eyJzaWduYXR1cmUiOiIweGI2Y2MzZTYxMWFhNDhhZmMzYWY0N2IzZWM3MTRkNGE5NjNjZDI5YjBhYjk5OGRjY2U2NDhhMjIyNzg2MmUxYzgwZGQ2NTQ5OTEyNjc3MWRlODdiOGQxMjE5NDMwYTllOGYzOTBlMjdiZjZhYmRmYjg3ZjdiOGNiYWNmNjVlMzRmMWMiLCJib2R5IjoiV2ViMyBUb2tlbiBWZXJzaW9uOiAyXG5Ob25jZTogOTc1NzM3MDlcbklzc3VlZCBBdDogTW9uLCAyNyBKdW4gMjAyMiAxNTo0NTozNiBHTVRcbkV4cGlyYXRpb24gVGltZTogRnJpLCAyNyBKdW4gMjA0MiAxNTo0NTozNiBHTVQifQ=="}
[32mINFO    [0m Common.Http:Http.py:202 2022-07-04 13:50:16.20905 | 
<-----Send Response----->
{"blockHash":"","blockHeight":"0","blockTime":"1970-01-01T00:00:00.000Z","createdTime":"2022-07-04T05:52:47.000Z","estimatedFee":"296","fee":"-1","hash":"fc5e52adb506666432981db19ee2ddfd6a487adf70ba1a7613745d917b8d8b1a","id":"1543835190824464385","networkCode":"BTC","serialized":"01000000000102e8f3022c7b981ff7611b1d7fe923e9e0fdd37f13a42691788772beaf7286d9090100000000ffffffff1c43db50eeb3bbea56443dc80ea1a7dd2580d64a7eff6caaf867dac02a3ceab80100000000ffffffff02404b4c000000000016001400dc7e0ab28be8ed2643aedd343eaf833d611ef8693b12000000000016001400dc7e0ab28be8ed2643aedd343eaf833d611ef802483045022100f12411958b64c2ce7f22db67cc220b14b509c23d2e5747890dd653fea4144fc602206b61359488ad00f164231e18d18bebe7c79a6603aa00624ba3d2bc1ed11fe2520121022bf595281b06dcb38c9261c5dfeb979ee63c79d47ad328bb8606f6b000d855ea02483045022100a16f9f60f5aef55e9bf7817737d223ffbb356258db1541cf0c90c9a099c0de6e022034ac2393f69b92f73a8cc2e475068d96ae88b21c48715abfe499a68532f05b910121022bf595281b06dcb38c9261c5dfeb979ee63c79d47ad328bb8606f6b000d855ea00000000","status":"PENDING","updatedTime":"2022-07-04T05:52:48.756Z"}