[32mINFO    [0m Common.Http:Http.py:144 2022-07-06 13:53:30.306601 | 
<-----Transfers----->
Url:https://api.cryptoless.io/cryptocurrencies/BTC/transfers

Headers:{"Content-Type": "application/json", "Authorization": "eyJzaWduYXR1cmUiOiIweGI2Y2MzZTYxMWFhNDhhZmMzYWY0N2IzZWM3MTRkNGE5NjNjZDI5YjBhYjk5OGRjY2U2NDhhMjIyNzg2MmUxYzgwZGQ2NTQ5OTEyNjc3MWRlODdiOGQxMjE5NDMwYTllOGYzOTBlMjdiZjZhYmRmYjg3ZjdiOGNiYWNmNjVlMzRmMWMiLCJib2R5IjoiV2ViMyBUb2tlbiBWZXJzaW9uOiAyXG5Ob25jZTogOTc1NzM3MDlcbklzc3VlZCBBdDogTW9uLCAyNyBKdW4gMjAyMiAxNTo0NTozNiBHTVRcbkV4cGlyYXRpb24gVGltZTogRnJpLCAyNyBKdW4gMjA0MiAxNTo0NTozNiBHTVQifQ=="}

Body:{"amount": "0.06", "definiteSignerPublicKeys": ["022bf595281b06dcb38c9261c5dfeb979ee63c79d47ad328bb8606f6b000d855ea"], "from": "tb1qqrw8uz4j305w6fjr4mwng040sv7kz8hcczjfun", "networkCode": "BTC", "to": "tb1qqrw8uz4j305w6fjr4mwng040sv7kz8hcczjfun", "transactionParams": ""}
[32mINFO    [0m Common.Http:Http.py:147 2022-07-06 13:53:30.306601 | 
<-----Transfers Response----->
{"_embedded":{"transactions":[{"blockTime":"1970-01-01T00:00:00.000Z","createdTime":"2022-07-06T05:56:04.081Z","estimatedFee":"296","hash":"","id":"1544560792250544130","networkCode":"BTC","requiredSignings":[{"hash":"705600f4538ca216a7ddfade9156020b22e5460748ce73edec7fb0c764dca572","publicKeys":["022bf595281b06dcb38c9261c5dfeb979ee63c79d47ad328bb8606f6b000d855ea"],"threshold":1},{"hash":"e231faf1d0a682323201570fef35d38f465356195929fac35ebafbd49ca4319f","publicKeys":["022bf595281b06dcb38c9261c5dfeb979ee63c79d47ad328bb8606f6b000d855ea"],"threshold":1}],"serialized":"0100000002c9bd502c4a7a4b473b2fbef6a20259eb82701a3acb6d173b7b50a8dcbdbe10100000000000ffffffffc9bd502c4a7a4b473b2fbef6a20259eb82701a3acb6d173b7b50a8dcbdbe10100100000000ffffffff02808d5b000000000016001400dc7e0ab28be8ed2643aedd343eaf833d611ef8f4047d000000000016001400dc7e0ab28be8ed2643aedd343eaf833d611ef800000000","status":"BUILDING","updatedTime":"2022-07-06T05:56:04.081Z"}]},"amount":"0.06","createdTime":"2022-07-06T05:56:04.092Z","from":"tb1qqrw8uz4j305w6fjr4mwng040sv7kz8hcczjfun","id":"1544560792296660994","networkCode":"BTC","status":-2,"symbol":"BTC","to":"tb1qqrw8uz4j305w6fjr4mwng040sv7kz8hcczjfun","type":1,"updatedTime":"2022-07-06T05:56:04.092Z"}
[32mINFO    [0m test_transfers_success_btc:test_transfers_success_btc.py:32 2022-07-06 13:53:30.306601 | 44e748d4a09d03c6e200b1999d07616e9a5be469c9f2d98e964db8f03129c3995f5bcbcb267dd7196baeeb2d1ecf1c60038450cbc2f5969b81236f1777cd280701
[32mINFO    [0m test_transfers_success_btc:test_transfers_success_btc.py:32 2022-07-06 13:53:30.306601 | dc7697d58fef9814e6c758546671e7f57469520f9ef666c1af59924e4b09fd50113a67833e68b59c63a96783d05f203fec02458bfcbefeb44818df7c17c5183500
[32mINFO    [0m Common.Http:Http.py:217 2022-07-06 13:53:30.306601 | 
<-----Sign----->
Url:https://api.cryptoless.io/transactions/1544560792250544130/sign

Headers:{"Content-Type": "application/json", "Authorization": "eyJzaWduYXR1cmUiOiIweGI2Y2MzZTYxMWFhNDhhZmMzYWY0N2IzZWM3MTRkNGE5NjNjZDI5YjBhYjk5OGRjY2U2NDhhMjIyNzg2MmUxYzgwZGQ2NTQ5OTEyNjc3MWRlODdiOGQxMjE5NDMwYTllOGYzOTBlMjdiZjZhYmRmYjg3ZjdiOGNiYWNmNjVlMzRmMWMiLCJib2R5IjoiV2ViMyBUb2tlbiBWZXJzaW9uOiAyXG5Ob25jZTogOTc1NzM3MDlcbklzc3VlZCBBdDogTW9uLCAyNyBKdW4gMjAyMiAxNTo0NTozNiBHTVRcbkV4cGlyYXRpb24gVGltZTogRnJpLCAyNyBKdW4gMjA0MiAxNTo0NTozNiBHTVQifQ=="}

Body:{"estimatedFee": "296", "hash": "", "id": "1544560792250544130", "networkCode": "BTC", "requiredSignings": [{"hash": "705600f4538ca216a7ddfade9156020b22e5460748ce73edec7fb0c764dca572", "publicKeys": ["022bf595281b06dcb38c9261c5dfeb979ee63c79d47ad328bb8606f6b000d855ea"], "threshold": 1}, {"hash": "e231faf1d0a682323201570fef35d38f465356195929fac35ebafbd49ca4319f", "publicKeys": ["022bf595281b06dcb38c9261c5dfeb979ee63c79d47ad328bb8606f6b000d855ea"], "threshold": 1}], "serialized": "0100000002c9bd502c4a7a4b473b2fbef6a20259eb82701a3acb6d173b7b50a8dcbdbe10100000000000ffffffffc9bd502c4a7a4b473b2fbef6a20259eb82701a3acb6d173b7b50a8dcbdbe10100100000000ffffffff02808d5b000000000016001400dc7e0ab28be8ed2643aedd343eaf833d611ef8f4047d000000000016001400dc7e0ab28be8ed2643aedd343eaf833d611ef800000000", "signatures": [{"hash": "705600f4538ca216a7ddfade9156020b22e5460748ce73edec7fb0c764dca572", "publickey": "022bf595281b06dcb38c9261c5dfeb979ee63c79d47ad328bb8606f6b000d855ea", "signature": "44e748d4a09d03c6e200b1999d07616e9a5be469c9f2d98e964db8f03129c3995f5bcbcb267dd7196baeeb2d1ecf1c60038450cbc2f5969b81236f1777cd280701"}, {"hash": "e231faf1d0a682323201570fef35d38f465356195929fac35ebafbd49ca4319f", "publickey": "022bf595281b06dcb38c9261c5dfeb979ee63c79d47ad328bb8606f6b000d855ea", "signature": "dc7697d58fef9814e6c758546671e7f57469520f9ef666c1af59924e4b09fd50113a67833e68b59c63a96783d05f203fec02458bfcbefeb44818df7c17c5183500"}], "status": "BUILDING"}
[32mINFO    [0m Common.Http:Http.py:221 2022-07-06 13:53:30.306601 | 
<-----Sign Response----->
{"blockHash":"","blockHeight":"0","blockTime":"1970-01-01T00:00:00.000Z","createdTime":"2022-07-06T05:56:04.000Z","estimatedFee":"296","fee":"-1","hash":"0586aa8982eefc73ebd6a48023fb40799a8560ce0c4d36b8a4d359f8ff484b8e","id":"1544560792250544130","networkCode":"BTC","serialized":"01000000000102c9bd502c4a7a4b473b2fbef6a20259eb82701a3acb6d173b7b50a8dcbdbe10100000000000ffffffffc9bd502c4a7a4b473b2fbef6a20259eb82701a3acb6d173b7b50a8dcbdbe10100100000000ffffffff02808d5b000000000016001400dc7e0ab28be8ed2643aedd343eaf833d611ef8f4047d000000000016001400dc7e0ab28be8ed2643aedd343eaf833d611ef802473044022044e748d4a09d03c6e200b1999d07616e9a5be469c9f2d98e964db8f03129c39902205f5bcbcb267dd7196baeeb2d1ecf1c60038450cbc2f5969b81236f1777cd28070121022bf595281b06dcb38c9261c5dfeb979ee63c79d47ad328bb8606f6b000d855ea02483045022100dc7697d58fef9814e6c758546671e7f57469520f9ef666c1af59924e4b09fd500220113a67833e68b59c63a96783d05f203fec02458bfcbefeb44818df7c17c518350121022bf595281b06dcb38c9261c5dfeb979ee63c79d47ad328bb8606f6b000d855ea00000000","status":"SIGNED","updatedTime":"2022-07-06T05:56:05.223Z"}
[32mINFO    [0m Common.Http:Http.py:236 2022-07-06 13:53:30.306601 | <-----Send----->
Url:https://api.cryptoless.io/transactions/1544560792250544130/send

Headers:{"Content-Type": "application/json", "Authorization": "eyJzaWduYXR1cmUiOiIweGI2Y2MzZTYxMWFhNDhhZmMzYWY0N2IzZWM3MTRkNGE5NjNjZDI5YjBhYjk5OGRjY2U2NDhhMjIyNzg2MmUxYzgwZGQ2NTQ5OTEyNjc3MWRlODdiOGQxMjE5NDMwYTllOGYzOTBlMjdiZjZhYmRmYjg3ZjdiOGNiYWNmNjVlMzRmMWMiLCJib2R5IjoiV2ViMyBUb2tlbiBWZXJzaW9uOiAyXG5Ob25jZTogOTc1NzM3MDlcbklzc3VlZCBBdDogTW9uLCAyNyBKdW4gMjAyMiAxNTo0NTozNiBHTVRcbkV4cGlyYXRpb24gVGltZTogRnJpLCAyNyBKdW4gMjA0MiAxNTo0NTozNiBHTVQifQ=="}
[32mINFO    [0m Common.Http:Http.py:239 2022-07-06 13:53:30.306601 | 
<-----Send Response----->
{"blockHash":"","blockHeight":"0","blockTime":"1970-01-01T00:00:00.000Z","createdTime":"2022-07-06T05:56:04.000Z","estimatedFee":"296","fee":"-1","hash":"0586aa8982eefc73ebd6a48023fb40799a8560ce0c4d36b8a4d359f8ff484b8e","id":"1544560792250544130","networkCode":"BTC","serialized":"01000000000102c9bd502c4a7a4b473b2fbef6a20259eb82701a3acb6d173b7b50a8dcbdbe10100000000000ffffffffc9bd502c4a7a4b473b2fbef6a20259eb82701a3acb6d173b7b50a8dcbdbe10100100000000ffffffff02808d5b000000000016001400dc7e0ab28be8ed2643aedd343eaf833d611ef8f4047d000000000016001400dc7e0ab28be8ed2643aedd343eaf833d611ef802473044022044e748d4a09d03c6e200b1999d07616e9a5be469c9f2d98e964db8f03129c39902205f5bcbcb267dd7196baeeb2d1ecf1c60038450cbc2f5969b81236f1777cd28070121022bf595281b06dcb38c9261c5dfeb979ee63c79d47ad328bb8606f6b000d855ea02483045022100dc7697d58fef9814e6c758546671e7f57469520f9ef666c1af59924e4b09fd500220113a67833e68b59c63a96783d05f203fec02458bfcbefeb44818df7c17c518350121022bf595281b06dcb38c9261c5dfeb979ee63c79d47ad328bb8606f6b000d855ea00000000","status":"PENDING","updatedTime":"2022-07-06T05:56:05.542Z"}
[32mINFO    [0m Common.Http:Http.py:253 2022-07-06 13:53:30.306601 | <-----Qurey Transactions by hash----->
Url:https://api.cryptoless.io/cryptocurrencies/balance-transactions/0586aa8982eefc73ebd6a48023fb40799a8560ce0c4d36b8a4d359f8ff484b8e

Headers:{"Content-Type": "application/json", "Authorization": "eyJzaWduYXR1cmUiOiIweGI2Y2MzZTYxMWFhNDhhZmMzYWY0N2IzZWM3MTRkNGE5NjNjZDI5YjBhYjk5OGRjY2U2NDhhMjIyNzg2MmUxYzgwZGQ2NTQ5OTEyNjc3MWRlODdiOGQxMjE5NDMwYTllOGYzOTBlMjdiZjZhYmRmYjg3ZjdiOGNiYWNmNjVlMzRmMWMiLCJib2R5IjoiV2ViMyBUb2tlbiBWZXJzaW9uOiAyXG5Ob25jZTogOTc1NzM3MDlcbklzc3VlZCBBdDogTW9uLCAyNyBKdW4gMjAyMiAxNTo0NTozNiBHTVRcbkV4cGlyYXRpb24gVGltZTogRnJpLCAyNyBKdW4gMjA0MiAxNTo0NTozNiBHTVQifQ=="}
[32mINFO    [0m Common.Http:Http.py:257 2022-07-06 13:53:30.306601 | 
<-----Qurey Transactions by hash Response----->
[]